:020000040001F9
:10400000303E0020754101008741010089410100D7
:1040100000000000000000000000000000000000A0
:104020000000000000000000000000008B410100C3
:1040300000000000000000008D4101008F410100E0
:104040009141010091410100D54D010091410100D4
:104050009141010000000000BD8D0100914101006F
:1040600091410100914101009985010091410100B8
:1040700091410100914101009141010091410100F4
:1040800091410100358201009141010091410100FF
:104090005782010091410100017901009141010025
:1040A000914101009141010000000000000000006A
:1040B0000000000000000000000000000000000000
:1040C0000348854608F0E0F9004800476D4E0100BE
:1040D000303E0020401E00BF00BF00BF00BF00BF39
:1040E00000BF00BF00BF00BF00BF00BF00BFF1D1D5
:1040F00070470000401E00BF00BF00BF00BF00BFF0
:1041000000BF00BF00BF00BF00BF00BF00BFF1D1B4
:1041100070470000401E00BF00BF00BF00BF00BFCF
:1041200000BF00BF00BF00BF00BF00BF00BFF1D194
:1041300070470000401E00BF00BF00BF00BF00BFAF
:1041400000BF00BF00BF00BF00BF00BF00BFF1D174
:1041500070470000401E00BF00BF00BF00BF00BF8F
:1041600000BF00BF00BF00BF00BF00BF00BFF1D154
:10417000704700000748026803210A4302600648AE
:10418000804706480047FEE7FEE7FEE7FEE7FEE75A
:10419000FEE700002405004037420100C140010055
:1041A0002E482F49086070472E48008CC0B2012865
:1041B00010D12C48808C0007000F0BD12948806A51
:1041C000F0210840402805D12648C06A084201D1A4
:1041D000012070470020FCE72248008CC0B2012873
:1041E00027D12048808C0007000F22D11D48806A0B
:1041F000F021084205D11B48C06A084201D10120C4
:1042000070471848806AF0210840102805D11548E9
:10421000C06A084201D10120F2E71248806AF02109
:104220000840302805D10F48C06A084201D101205A
:10423000E6E70020E4E710B5FFF7CEFF002805D041
:1042400009480A494860C81309498861FFF7ACFF6B
:10425000002802D001200749886010BD0024F40026
:1042600000200020C00F00F0DFFF07C00005004065
:10427000006C0040000600400121F74800F0A7FF55
:10428000F6480078C007C00FF34988700121F24852
:1042900000F084FF7D20C00004F050FA00F008FF19
:1042A00070B500BFEE49052004F005FE044600BFCE
:1042B0002546002D05D000BFEAA2A5212846FFF71C
:1042C000DBFF00BF00BF0B2000F02EFF0023032206
:1042D0000B21184600F0F5FE70BD10B502460B46E6
:1042E0000020002100BF03E0545C60404C1CA1B2E0
:1042F0009942F9DB10BD04460D462A462146DC48AA
:10430000FFF7BAFF38B500BF0020DA4B05221121B4
:10431000009003F0A4FF044600BF2546002D05D001
:1043200000BFD0A2EE212846FFF7A6FF00BF00BFC6
:1043300038BD3EB500BF6846007801090901491C37
:10434000009168460078F02188431030009000BF4B
:104350000622C9A168467CDF044600BF2546002D21
:1043600006D000BFBFA2FF2102312846FFF784FF1D
:1043700000BF0020019002901021684681803C21FE
:10438000C18000210181FF219131418101A87ADFA3
:10439000044600BF2546002D06D000BFB1A2FF2174
:1043A0000B312846FFF768FF00BF3EBD30B5A1B016
:1043B00006210291B24800680190B248017868462F
:1043C00081713C2112A807F0B7FB02201290002156
:1043D00010A841730121018202A915913C2103A873
:1043E00007F0AAFB01216846018501A90B9103A9E9
:1043F00012A803F015F8044600BF2546002D06D08C
:1044000000BF98A2FF2130312846FFF735FF00BFDB
:1044100021B030BDF7B584B01746781C03900398DF
:1044200008F04CFA0646381D0290029808F046FA49
:104430000446002003E00599095C3154401CB84251
:10444000F9DB307855287DD1642004F077F9707855
:10445000222878D00DDC1038030008F05BF8121F1A
:104460005A8EFCFBFAF9F88A8A8A8A8A8A8A8AF73B
:10447000F68A612868D008DC302866D0502865D0DC
:10448000512875D0602874D1B9E2702872D0902874
:1044900071D0912870D09228F5D11BE3F0782528AF
:1044A00036DBF078502833DCF0787749087001214A
:1044B000694800F08CFE7448007867490870012153
:1044C000654800F06BFEAA20207013206070012068
:1044D000A0706D480078E07004212046FFF7FDFED3
:1044E00020716848807F002812D005222146654847
:1044F00002F0ADFC054600BF0195019D002D06D0E0
:1045000000BF58A2FF2166310198FFF7B5FE00BF3A
:10451000E2E2AA202070012060700220A0705B48B7
:104520000078E0705A480078207105212046FFF796
:10453000D4FE60715348807F002818D0062221469F
:10454000504804E0C9E2ECE17BE213E219E202F038
:104550007EFC054600BF0195019D002D06D000BFE1
:1045600040A2FF2178310198FFF786FE00BFB3E239
:104570001CE2B0E2A8E2ABE2ABE20121364800F077
:1045800026FEB07801282BD1424800780821084344
:1045900040490870012030494870AA202070082046
:1045A00060700120A070E07004212046FFF795FEA6
:1045B00020713448807F002812D0052221463148DE
:1045C00002F045FC054600BF0195019D002D06D077
:1045D00000BF24A2FF2190310198FFF74DFE00BFDC
:1045E000B07800282CD12B4800780821884329492D
:1045F0000870002018494870AA20207008206070B8
:104600000120A0700020E07004212046FFF765FE25
:1046100020711C48807F002812D0052221461948AD
:1046200002F015FC054600BF0195019D002D06D046
:1046300000BF0CA2FF21A4310198FFF71DFE00BFAF
:104640000121054800F0AAFD46E233E11FE1CEE07A
:10465000ADE077E04EE01FE0682100200820002058
:10466000882100202E2E5C6D61696E2E6300000093
:10467000EFBEADDEEC21002046656564657200008A
:1046800078C90100082700200B20002060200020AE
:104690006120002006200020AA20207008206070E1
:1046A0000120A070FA48007808210840082802D1AB
:1046B0000120E07001E00020E07004212046FFF7B7
:1046C0000CFE2071F348807F002812D0052221467D
:1046D000F04802F0BCFB054600BF0195019D002D8E
:1046E00006D000BFEC4AFF21BA310198FFF7C4FDA4
:1046F00000BFF1E1E9480190AA202070132060700A
:104700000120A07001980078E07004212046FFF796
:10471000E4FD2071DF48807F002812D00522214669
:10472000DC4802F094FB054600BF0095009D002D7B
:1047300006D000BFD84AFF21CD310098FFF79CFD7D
:1047400000BFC9E1D648007840210840402816D172
:10475000AA202070152060700120A070E070042154
:104760002046FFF7BAFD2071CA48807F00281DD07F
:1047700005222146C74802F06AFB054616E0AA203A
:104780002070152060700120A0700020E0700421CE
:104790002046FFF7A2FD2071BE48807F002805D08B
:1047A00005222146BB4802F052FB054694E1BD4874
:1047B0000078C007C00F02D00120E07001E00020A7
:1047C000E070AA202070162060700120A0700421E3
:1047D0002046FFF782FD2071AE48807F002805D07B
:1047E00005222146AB4802F032FB054674E1012167
:1047F000AD4800F0ECFCB078002820D1A948007842
:1048000040084000A74908700020A7498870AA20E6
:104810002070162060700120A070B078E070042134
:104820002046FFF75AFD20719A48807F002829D042
:1048300005222146974802F00AFB054622E0B0789F
:1048400001281FD197480078012108439549087035
:10485000012095498870AA202070162060700120E0
:10486000A070B078E07004212046FFF736FD20717B
:104870008848807F002805D005222146854802F01F
:10488000E6FA05460121884800F088FC24E1B0786A
:1048900086490870F0788649087030798549087033
:1048A000707985490870B07984490870F079844935
:1048B000087011E101217C4800F089FCB0780028E3
:1048C00002D17949C87002E001207749C8700121FE
:1048D000754800F063FCAA2020701720607001204A
:1048E000A0707148C078E07004212046FFF7F5FC05
:1048F00020716848807F002812D005222146654833
:1049000002F0A5FA054600BF0195019D002D06D0D5
:1049100000BF614A932189000198FFF7ADFC00BFF9
:10492000DAE05E48C01C0190AA2020701720607059
:104930000120A07001980078E07004212046FFF764
:10494000CCFC20715348807F002812D005222146DC
:10495000504802F07CFA054600BF0095009D002DEE
:1049600006D000BF4C4A972189000098FFF784FCCD
:1049700000BFB1E04B480078042108434949087062
:10498000AAE0B0780C2810D10021474800F01FFCA5
:10499000002004E0C11C715C434A1154401C0C28E7
:1049A000F8DB0021404800F0F9FB95E07520C002DB
:1049B0000190AA202070062060700C20A0700020BA
:1049C00004E00199095CC21CA154401C0C28F8DBCE
:1049D0003048807F002811D00F2221462D4802F058
:1049E00036FA054600BF0095009D002D05D000BF9A
:1049F000294A34490098FFF73FFC00BF6CE0FF20D4
:104A00003ADF054600BF0195019D002D06D000BF8D
:104A1000214A2C49C91D0198FFF72EFC00BF012037
:104A200039DF054600BF0195019D002D06D000BF6E
:104A3000194AA32189000198FFF71EFC00BF00F06E
:104A400037FBAA202070072060700220A07003208E
:104A5000E0700A20207105212046FFF73EFC6071BE
:104A60000C48807F002812D006222146094802F017
:104A7000EEF9054600BF0195019D002D06D000BF4F
:104A8000054A10491A310198FFF7F6FB00BF23E0F1
:104A900006200020082700206446010020A803000B
:104AA0000720002008200020682100200C20002082
:104AB0000D2000200E2000200F2000202C200020A0
:104AC0002D20002083020000102000F036FB03E0C0
:104AD00002E001E000E000BF00BF204607F0C4FE96
:104AE000304607F0C1FE07B0F0BD38B50020009099
:104AF000FE4800906946FE4802F069F9044600BF8E
:104B00002546002D05D000BFFA4AFB492846FFF78D
:104B1000B3FB00BF38BD0A20F849088008468078FA
:104B200040084000401C8870084680780221884375
:104B3000F2498870084680781C2188430C30EF4980
:104B400088700846807820218843EC4988700720C7
:104B5000C87010200871704770B505462868002895
:104B600010D13B21E648008876DF044600BF264688
:104B7000002E06D000BFDF4ACB2189003046FFF768
:104B80007BFB00BF70BD044600BFDA4ADA49303112
:104B90002046FFF771FB30B587B01C21684606F050
:104BA000CBFF00200090052040040190801002906F
:104BB0000321684601730021C1810174D148059029
:104BC000D1480690684602F0C6FC044600BF254660
:104BD000002D06D000BFC74AC74947312846FFF716
:104BE0004BFB00BF07B030BDF8B505462888142838
:104BF00052D006DC10280BD011280DD0132876D106
:104C00001EE0172842D0192873D05228F7D12AE085
:104C1000A888BB49088081E00020C043B8490880CB
:104C2000B348807F002802D00020B1498877B74878
:104C30000078C007C00F02D0002001F083FE6DE0B5
:104C4000AE4A0021AE4800887FDF044600BF2746F9
:104C5000002F06D000BFA74AA74976313846FFF794
:104C60000BFB00BF5AE000221146A5480088A9DFCF
:104C7000044600BF2746002F06D000BF9D4A9E492C
:104C80007B313846FFF7F8FA00BF47E03222A91D12
:104C90009F4806F038FF41E09D4EB61D3188E889F7
:104CA000814211D1002231469548008881DF0446B7
:104CB00000BF2746002F06D000BF8E4A8E4987319D
:104CC0003846FFF7D9FA11E0002211468C480088D7
:104CD00081DF044600BF2746002F06D000BF854A6B
:104CE000E52189003846FFF7C7FA00BF16E014E057
:104CF000FFE7A87900280FD18648007801210843F2
:104D0000844908707A48807F002802D000207849C2
:104D10008877012001F016FE00E000BF00BFF8BD5B
:104D200010B50446204602F0EAFC2146704802F025
:104D30002BF82046FFF758FF10BD10B5044620465B
:104D400004F068FC10BD70B500BF00235822724902
:104D50000E2002F08EFD054600BF2E46002E06D026
:104D600000BF644A6449C3313046FFF785FA00BF8B
:104D700000BF6A4802F0B2FD044600BF2546002D80
:104D800006D000BF5B4A5C49C7312846FFF774FA7A
:104D900000BF634802F0ABFD044600BF2546002D6E
:104DA00006D000BF534A5449CA312846FFF764FA77
:104DB00000BF70BD70B53DDF044600BF2546002D25
:104DC00006D000BF4B4A4C49D3312846FFF754FA6E
:104DD00000BF70BD70B502F0D7FD5249524A12783B
:104DE000885451480078401C4F49087008460078A4
:104DF000401E4C49085C0A2803D04B4800781C2808
:104E000018DB49480278521C4649394802F01FF81D
:104E10000446082C0BD000BF2546002D06D000BF4D
:104E2000344A3549FC312846FFF726FA00BF0020F6
:104E30003D49087070BD10B5029C10BD10B5112021
:104E400000F072F9122000F06FF9182003218A0097
:104E500005231B07072424021B1984001A5100BFD5
:104E600010BD10B5102000F05FF910BD01202749DA
:104E70000870002027490870FFF744FA01F094FAFF
:104E8000152000F05AF901F025FB0120C00301F0C4
:104E900035FBFFF705FA03F0BBFB03F052FB01F013
:104EA000B7FC03F0CAFE044600BF2546002D05D01E
:104EB00000BF104A1D492846FFF7DEF900BF01F088
:104EC00040F801F0EEF9FFF7CCFF00F01BFF00F017
:104ED0001FFFFFF738FFFFF72CFAFFF706FEFFF77B
:104EE00065FAFFF758FEFFF716FE21E015440100B2
:104EF0000827002064460100070300001620002058
:104F000004200020594B0100874B0100062000209F
:104F10005C2600200720002090260020214D010063
:104F20003B4D0100E82600201520002074040000FD
:104F3000FFF784FF2020864988800120C8808548AB
:104F400008600121844800F042F90121824800F004
:104F500025F981480078814908701820804909693D
:104F6000C140C907C90F002940D100F0B5FE01209A
:104F7000C00300F0D3FE322003F0E0FB00F0A0FA03
:104F80000120C00300F0B2FA0320C00301F03CFD91
:104F90002BE074480088212807DB724800883C28F1
:104FA00003DC112000F0C9F802E0112000F0CAF87B
:104FB0006D480088002807DD6B480088142803DC52
:104FC000122000F0BAF802E0122000F0BBF8162020
:104FD00000F0B3F8FF20F53003F0B0FB162000F02E
:104FE000B1F8FF20F53003F0A9FBD2E75FE07D20A8
:104FF000000103F0A3FB0F2000F0A4F8564840780E
:10500000012806D1594800780821084357490870FB
:1050100005E05648007808218843544908704E48F6
:105020008078002806D15248007840084000504956
:10503000087009E048488078012805D14C4800787C
:10504000012108434A4908704348C078002806D126
:1050500047480078082188434549087005E04448DE
:1050600000780821084342490870322003F066FBAB
:1050700000F032FE0120C00300F050FE322003F0A9
:105080005DFB00F01DFA0120C00300F02FFAFFF7CE
:10509000E8FE0920354908700120354908700320D1
:1050A000C00301F0B1FC00BFFFF784FEFCE79EE700
:1050B000BFF34F8F2F483049C860BFF34F8F00BFF9
:1050C000FEE770B5002B0BD101248C40244DEC6021
:1050D0002A4C2B4D51263601AD198600AC510AE001
:1050E00001248C401E4DAC60264C254D51263601C6
:1050F000AD198600AC5100BF00BF00BF0124850080
:105100001F4EAD192C600C0203252C4315042C43B3
:105110001D052C43354651263601AD198600AC518C
:1051200000BF00BF00BF70BD012105221207072389
:105130001B02D2188300D150704701218140084AD8
:105140009160704701218140054AD160704700009D
:1051500024200020374E0100682100200B20002071
:10516000000500506E20002058200020062000205E
:10517000082000200400FA0500ED00E0031F0200F3
:1051800000600040031F010070B504460D4616463E
:1051900032462946204604F0B2FE70BD70B5044682
:1051A0000D4668017521C9024018E64908600023D0
:1051B00020222146E44804F0D4FB0023202221468B
:1051C000E14804F044FC0A2003F0B8FA70BDF8B5D9
:1051D00007460C4660017521C9024018D94908608C
:1051E00004F0BBFA054600BF2E46002E06D000BFD5
:1051F000D6A254213046FFF73FF800BF00BFD24986
:10520000DA4804F0DFFA00232022CF49384604F0C0
:1052100083FC0A2003F092FAF8BD10B502460B4653
:105220000020002100BF03E0545C60404C1CA1B290
:105230009942F9DB10BDF0B587B00746002502A8FA
:10524000033005F027FB022106A805F0A4FC684600
:10525000008B85B2684605720571007AC4490880E2
:10526000C4480078C007C00F23D0C3480078C007E7
:10527000C00F1ED06846007AC0490978401A072836
:1052800006DC6846007ABD490978401AC11D10DA6B
:10529000B848007840084000B6490870B848807F98
:1052A000002802D00020B649887774DF002001F082
:1052B00049FBB4480088252864DBB24800882928C7
:1052C00060DC6846007A64285CDB6846007AAA28BD
:1052D00058DCAD480078401CAB490870AB4800680A
:1052E000401EAA490860A8480078142849DBA44851
:1052F000807F00283ED0AA216846017204214172B5
:1053000007218172A24801786846C172A1480178DC
:1053100068460173A0480178684641739F48017848
:10532000684681739E4801786846C1739D4801783C
:10533000684601749C480178684641740A2102A8B5
:10534000FEF7CBFF694688748D48807F002811D016
:105350000B2202A98A4801F07AFD044600BF2646C6
:10536000002E06D000BF79A2BD213046FEF784FF93
:1053700000BF00BF0020844908708C490870834931
:10538000086072E08048007805286BDB7E48007872
:10539000052867DB7C480078142863DC83480078A4
:1053A000002808D181480078401C804908703C20C2
:1053B0007649086056E07548006800284DDB7B4858
:1053C0000078012849D16E48807F00283FD0AA216B
:1053D0006846017204214172072181726C4801788C
:1053E0006846C1726B480178684601736A48017863
:1053F0006846417369480178684681736848017856
:105400006846C17367480178684601746648017848
:10541000684641740A2102A8FEF75FFF6946887456
:105420005748807F002812D00B2202A9544801F06F
:105430000EFD044600BF2646002E07D000BF43A243
:10544000FF2126313046FEF717FF00BF00BF0020C6
:10545000564908704D49086004E00020534908701F
:105460004A49086000204849087068464179C1727D
:10547000017901730079062803DC0020694608736E
:1054800006E068460079A52802DBB4206946087367
:10549000AA2168460172022141728172052102A887
:1054A000FFF7BBFE694648733548807F002805D06A
:1054B000062202A9324801F0CAFC044607B0F0BD3A
:1054C00070B53B4A01213B4802F048FF044600BF4B
:1054D0002546002D06D000BF1CA26D212846FEF7F0
:1054E000CBFE00BF00BF05F0A1FA70BD70B5044649
:1054F000002221462F48006802F077FF054600BFD2
:105500002E46002E07D000BF10A2FF219C3130464E
:10551000FEF7B2FE00BF00BF70BD70B52548006841
:1055200002F094FF044600BF2546002D07D000BFBF
:1055300006A2FF21A3312846FEF79EFE00BF00BF52
:1055400070BD0000442100201C2000202E2E5C4E47
:10555000505F416E676C655C4E505F416E676C6575
:105560005F4D6561737572652E6300002420002015
:105570005820002007200020062000203120002095
:10558000082700206E2000205220002054200020F8
:105590000C2000200D2000200E2000200F200020D5
:1055A0002C2000202D2000202E2000205320002021
:1055B000375201005C20002010B516200121052281
:1055C000120707231B02D2188300D15000BF00F03E
:1055D000D9FB10BD00B5F7480078401CF5490870AC
:1055E000084600783C2873D100200870F248007803
:1055F000401CF1490870084600783C28F3D100208F
:105600000870EE480078401CEC49087008460078A5
:105610001828E8D100200870E9480078401CE849C3
:105620000870E8480078030006F074FF0DBD081507
:10563000384553606D7A8794A1AEBD00E04800788C
:105640001F2807D10120DE490870DE480078401C81
:10565000DC490870A8E0DC490878C117890F0918EF
:1056600089108900411A0CD0D54800781D2814D122
:105670000120D3490870D3480078401CD1490870F4
:105680000BE0CF4800781C2807D10120CC490870D6
:10569000CC480078401CCB49087085E0C8480078A9
:1056A0001F2807D10120C6490870C6480078401C51
:1056B000C449087078E0C24800781E2807D101204C
:1056C000BF490870BF480078401CBE4908706BE0B5
:1056D0006BE0BB4800781F2807D10120B84908704B
:1056E000B8480078401CB74908705DE0B4480078BD
:1056F0001E2807D10120B2490870B2480078401C2A
:10570000B049087050E0AE4800781F2807D101204A
:10571000AB490870AB480078401CAA49087043E0C8
:10572000A74800781F2807D10120A5490870A5487F
:105730000078401CA349087036E0A14800781E2874
:1057400007D101209E4908709E480078401C9D4961
:10575000087029E09A4800781F2807D1012098494D
:10576000087098480078401C964908701CE09448DE
:1057700000781E2807D101209149087091480078CF
:10578000401C904908700FE08D4800781F2809D10F
:1057900001208B4908708B4908708B480078401CA9
:1057A0008949087000E000BF00BF00BDF0B589B0B6
:1057B000002600200490FFF70DFF002108A804F048
:1057C00085FE089E012108A804F080FE0898049038
:1057D0007E48007840210840402854D17C48007819
:1057E0007C490988401A022824DA3046049906F0D8
:1057F00006FA794903907948006806F045FA029064
:10580000039906F004FA0746314606F0FCF90890C1
:105810007F21C9057148006806F0F1F96F490860F9
:1058200000216E48006806F0DDFC50D200206B4974
:1058300008604CE03046049906F0E1F903906748AF
:105840000168654806F0DBF96349019006F01CFA2F
:105850000290039906F0DBF90746049906F07EF9F9
:1058600008907F21C9055D48006806F077F95B491B
:10587000086059495948006806F0BEFC27D25648CE
:105880005649086023E03046049906F0B8F95249B9
:1058900003905248006806F0F7F90290039906F069
:1058A000B6F90746314606F0AEF908907F21C905E2
:1058B0004A48006806F0A3F94849086000214748B3
:1058C000006806F08FFC02D2002044490860089866
:1058D00006F0F7FB85B20A21284606F000F93D499B
:1058E000088000F056FC3E480078C007C00F60D02A
:1058F000072000F04CFA062000F049FA35480088ED
:1059000006F0B8FB0022374B0391029006F03AFCF8
:1059100006D2354800885A2802DD00F03AFC1CE027
:105920002C48008806F0A6FB0022304B0391029021
:1059300006F028FC0ED82748008806F09BFB0022C2
:10594000284B0391029006F009FC03D8082000F0D0
:1059500019FA02E0092000F015FA1E48008806F046
:1059600089FB0022224B0391029006F0F7FB4DD8F1
:105970001C2000F011FA002848D11B480088142888
:1059800044DC1A2000F008FA01283FD119480078B9
:105990000821084008282FD11348008814282BDC40
:1059A0001A2000F0F9F9012826D1162000F0EAF9B2
:1059B00025E08CE02E2000202D2000202C2000202F
:1059C0000F2000200E2000200D20002007200020A6
:1059D0000B2000206E2000200000164468200020CC
:1059E00008200020008044405820002000804240D1
:1059F0000000434006200020162000F0C8F9EA48C5
:105A0000007840210843E849087021E0E748008811
:105A100006F030FB0022E64B0391029006F0B2FB49
:105A20000DD31C2000F0B8F9012808D0E148008807
:105A3000142804DC1A2000F0AFF9002808D1162041
:105A400000F0A5F9D848007840218843D64908706D
:105A5000162000F0A1F9012806D16946C87D012170
:105A600008436946C87502E06946C87DC875AA2121
:105A7000684601751521417501218175042105A82C
:105A8000FEF72BFC69460876CB48807F00280AD0B9
:105A9000052205A9C84801F0DAF90446002C03D113
:105AA000322002F04BFEC8E0C4488442FBD13220D1
:105AB00002F044FE00BF2746002F07D000BFC0A25F
:105AC000FF2172313846FEF7D7FB00BFB5E000205A
:105AD0000028E8D1092000F05AF9082000F057F911
:105AE000B248008806F0C6FA0022BC4B039102902F
:105AF00006F048FB06D2AF4800885A2802DD00F0C5
:105B000048FB14E0B6480078801EA84909888842FE
:105B10000ADCA6480188B2480078C01C814203DC38
:105B2000062000F02FF902E0072000F02BF9AC4826
:105B30000078401E9D490988884221DB1C2000F026
:105B40002BF900281CD19B480088142818DC1A2047
:105B500000F022F9012813D1A2480078082108405A
:105B6000082803D1162000F00DF902E0162000F0FD
:105B70000EF98D480078402108438B4908701DE0DC
:105B80008A48018896480078401C81420DDC1C2020
:105B900000F002F9012808D086480088142804DCA7
:105BA0001A2000F0F9F8002808D1162000F0EFF8CC
:105BB0007D480078402188437B490870162000F01A
:105BC000EBF8012806D16946C87D012108436946E2
:105BD000C87502E06946C87DC875AA216846017586
:105BE0001521417501218175042105A8FEF775FB7A
:105BF000694608767048807F00281ED0052205A9D6
:105C00006D4801F024F90446002C03D1322002F043
:105C100095FD12E0694884420FD1322002F08EFDDA
:105C200000BF2746002F07D000BF65A2FF21CE315D
:105C30003846FEF721FB00BF00BF5C4800882928DA
:105C40001ADD5C4800885A2816DD0A2000F09AF810
:105C5000092000F097F8072000F094F8192040017F
:105C600002F06CFD0A2000F092F85E4800782021D6
:105C700088435C49087008E05A48007820210843AE
:105C8000584908700A2000F082F857480078401CF4
:105C9000554908700846007801281BDB0020087071
:105CA000AA216846017501214175022181752912D9
:105CB000C1750576052105A8FEF70FFB69464876F4
:105CC0003D48807F002805D0062205A93A4801F00A
:105CD000BEF8044609B0F0BD70B5444A01214448FD
:105CE00002F03CFB044600BF2546002D06D000BF55
:105CF00033A23F212846FEF7BFFA00BF00BFFFF7DF
:105D00005BFC70BD10B503211C2000F031F810BD04
:105D100010B500211A2000F02BF810BD70B5044614
:105D2000002221463248006802F05FFB054600BFB2
:105D30002E46002E06D000BF21A22E493046FEF787
:105D40009BFA00BF00BF70BD70B52948006802F023
:105D50007DFB044600BF2546002D07D000BF18A2DA
:105D60002449C91D2846FEF787FA00BF00BF70BD51
:105D700010B58A0005231B07072424021B19840081
:105D80001A5110BD012181401B4A916070470121C9
:105D90008140194AD1607047014617480069C840E0
:105DA000C007C00F70470000072000206E200020B1
:105DB00000804340582000200827002003300000C6
:105DC0002E2E5C53545343315C4E505F54656D5FCF
:105DD0004D6561737572652E63000000008044405C
:105DE0000B200020062000206C200020AD57010071
:105DF00070200020030200000005005070B5064628
:105E0000F6480068030006F085FB0805061756955E
:105E10009697989900BFF248006802F017FB092096
:105E200000F0D7F9082000F0D4F9072000F0D1F9EC
:105E3000062000F0CEF982E0EA480078002809D078
:105E40000020E8490870092000F0C3F9072000F09D
:105E5000C0F908E00120E3490870092000F0B4F916
:105E6000072000F0B1F9E0480088002818D0DE488B
:105E70000088401EDC490880002201218903D8489F
:105E8000006802F0B2FA044600BF2546002D06D095
:105E900000BFD6A2BD212846FEF7EEF900BF09E0FB
:105EA000CF48006802F0D2FA092000F092F90720EA
:105EB00000F08FF943E0CB480078002809D000209B
:105EC000C8490870082000F084F9062000F081F924
:105ED00008E00120C3490870082000F075F9062089
:105EE00000F072F9C0480088002818D0BE48008829
:105EF000401EBD490880002201218903B84800687E
:105F000002F073FA044600BF2546002D06D000BFFC
:105F1000B6A2D9212846FEF7AFF900BF09E0B04884
:105F2000006802F093FA082000F053F9062000F010
:105F300050F904E003E002E001E000E000BF00BF30
:105F400070BD10B5092000F036F9082000F033F9D3
:105F5000072000F030F9062000F02DF9092000F0AC
:105F600038F9082000F035F9072000F032F9062052
:105F700000F02FF9A24A0021994802F0EFF910BD74
:105F800070B505469648006802F09DFA002803D1D6
:105F90009348006802F05AFA00BF2B0006F0BAFAE4
:105FA000080526476685A1BDD9F6082000F011F93D
:105FB000062000F00EF9092000F006F9072000F095
:105FC00003F900220321C9038548006802F00DFA95
:105FD000044600BF2646002E06D000BF83A24421FF
:105FE0003046FEF749F900BF00BFD0E0082000F0BE
:105FF000EBF8062000F0E8F8092000F0EAF80720A6
:1060000000F0E7F800220321C9037548006802F098
:10601000ECF9044600BF2646002E06D000BF73A24E
:106020004D213046FEF728F900BF00BFAFE0092040
:1060300000F0CFF8072000F0CCF84B20C0006A49F0
:1060400008800022012189036548006802F0CDF92B
:10605000044600BF2646002E06D000BF63A255218D
:106060003046FEF709F900BF00BF90E0082000F0BD
:10607000B0F8062000F0ADF84B20C0005A49088067
:106080000022012189035648006802F0AEF9044657
:1060900000BF2646002E06D000BF54A25D21304628
:1060A000FEF7EAF800BF00BF71E0092000F091F8A8
:1060B000FA2002F043FB092000F086F8FA2002F0F3
:1060C0003DFB092000F085F8FA2002F037FB09209B
:1060D00000F07AF8FA2002F031FB092000F079F89C
:1060E00055E0082000F075F8FA2002F027FB0820A0
:1060F00000F06AF8FA2002F021FB082000F069F8AD
:10610000FA2002F01BFB082000F05EF8FA2002F0F3
:1061100015FB082000F05DF839E0072000F059F881
:10612000FA2002F00BFB072000F04EF8FA2002F0F4
:1061300005FB072000F04DF8FA2002F0FFFA0720D7
:1061400000F042F8FA2002F0F9FA072000F041F8D6
:106150001DE0062000F03DF8FA2002F0EFFA0620DC
:1061600000F032F8FA2002F0E9FA062000F031F8E7
:10617000FA2002F0E3FA062000F026F8FA2002F0F6
:10618000DDFA062000F025F801E0FFE700BF00BFC0
:1061900070BD10B51248006802F058F9092000F0EF
:1061A00018F8082000F015F8072000F012F8062073
:1061B00000F00FF810BD01210522120707231B0272
:1061C000D2188300D1507047012181400D4A91605F
:1061D0007047012181400B4AD16070477C2000202C
:1061E0007820002076200020742000202E2E5C4E87
:1061F000505F4C45445C4E505F4C65642E6300001C
:10620000FD5D01000005005070B506465B48006862
:10621000002802D0012841D107E05948006802F067
:1062200015F90A2000F0A4F839E056480078002853
:1062300019D00020534908700A2000F094F8002279
:10624000012189034E48006802F0CFF8044600BFE0
:106250002546002D06D000BF4BA252212846FEF74E
:106260000BF800BF19E00120464908700A2000F031
:106270007FF80022012189034148006802F0B5F847
:10628000044600BF2546002D06D000BF3EA259217E
:106290002846FDF7F1FF00BF00BF00E000BF00BFD0
:1062A00070BD10B50A200121C20607231B02D218B7
:1062B0008300D15000BF00F05BF8394A002130481C
:1062C00002F04CF810BD70B505462D48006802F08C
:1062D000FAF8002803D12A48006802F0B7F82748E6
:1062E00005600068002802D0012830D117E00A209C
:1062F00000F039F80022012189032148006802F0EA
:1063000074F8044600BF2646002E06D000BF1EA229
:106310002F213046FDF7B0FF00BF00BF18E00A2074
:1063200000F021F80022012189031548006802F0DD
:106330005CF8044600BF2646002E06D000BF12A21D
:1063400035213046FDF798FF00BF00BF00E000BFD9
:1063500000BF70BD10B50A48006802F077F80A2047
:1063600000F006F810BD012181400E4A916070478F
:10637000012181400B4AD160704700008820002035
:1063800084200020802000202E2E5C4E505F4D6F18
:10639000746F725C4E505F4D6F746F722E630000AD
:1063A00009620100000500501520012102070723A2
:1063B0001B02D2188300D15000BF00BF8140914A18
:1063C000916000BF70477047FEB500221146022061
:1063D00003F0F1FF04F000F805468B4885420ADB24
:1063E0008120C000854206DC8848007820210843CF
:1063F0008649087005E08548007820218843834954
:10640000087083480078401C81490870084600786D
:10641000C82805D07F48007804210840042847D1C7
:1064200000207B4908707B480078042108437949A3
:10643000087000220121022003F0BDFF03F0CCFF11
:106440000546284600F083F80646AA2168460170F2
:106450000321417001218170C6700421FDF73DFFC9
:10646000694608716C48807F002821D005226A485F
:1064700000F0EDFC0446002C1AD0684884420BD191
:1064800000BF2746002F06D000BF65A2AE213846C8
:10649000FDF7F2FE00BF0BE000BF2746002F06D03D
:1064A00000BF5FA2B3213846FDF7E6FE00BF00BF84
:1064B000FEBD10B5044661480078012804D10020D3
:1064C0005E490870FFF780FF5C480078401C5B491C
:1064D000087010BD70B55A4A01215A4801F03EFFBC
:1064E000044600BF2546002D06D000BF4CA2452122
:1064F0002846FDF7C1FE00BF00BF70BD70B5044661
:10650000002221464F48006801F06FFF054600BF9A
:106510002E46002E06D000BF41A24C213046FDF78A
:10652000ABFE00BF00BF70BD70B54648006801F00B
:106530008DFF044600BF2546002D06D000BF38A2BF
:1065400053212846FDF798FE00BF00BF70BD0146ED
:106550002D4A521D914201DD642052E02A4A0F3239
:10656000914204DC284A914201DD5A2049E0264A42
:10657000914205DC244A0F3A914201DD502040E06F
:10658000214A0F3A914205DC9B229200914201DDA3
:10659000462036E09B229200914205DC1A4A2D3AB1
:1065A000914201DD3C202CE0174A2D3A914205DC56
:1065B000154A3C3A914201DD322022E0124A3C3A2F
:1065C000914205DC104A4B3A914201DD282018E047
:1065D0000D4A4B3A914205DC0B4A553A914201DD96
:1065E0001E200EE0084A553A914205DC87229200AF
:1065F000914201DD142004E087229200914200DCE8
:106600000A207047000500508A0200000720002081
:106610008E200020082000200827002003300000E2
:106620002E2E5C4E505F426174746572795C4E50E0
:106630005F426174746572792E6300008D200020C2
:10664000B3640100902000207047FEB5064602A901
:106650000C2002F013FB044600BF2546002D06D097
:1066600000BFA3A28B212846FDF706FE00BF00BF96
:106670006846007A01283DD1132001218140A54AB6
:10668000916000BFA4480078401CA34908700846E8
:10669000007832281BDD00200870A0480078C00771
:1066A000C00F09D19D480078012108439B4908701B
:1066B000501300F0A9F9AAE098480078400840007B
:1066C000964908700520C00300F0C2F99FE000223F
:1066D00093499448006801F088FE044600BF2546AF
:1066E000002D06D000BF82A2AE212846FDF7C4FDD2
:1066F00000BF8CE08848007801287ADB8648007863
:10670000142876DC85480078C007C00F71D032208D
:1067100002F014F800208049087001218248FEF739
:1067200056FD82480078C007C00F2DD1322002F0FC
:1067300005F801207C4988707C48007801210843D5
:106740007A490870AA21684601701621417001211A
:106750008170C1700421FDF7C0FD6946087174485D
:10676000807F002841D00522714800F070FB04466C
:1067700000BF2546002D06D000BF5DA2EE212846B1
:10678000FDF77AFD00BF30E0002067498870674858
:1067900000784008400065490870AA2168460170E9
:1067A00016214170012181700021C1700421FDF783
:1067B00094FD694608715E48807F002815D032201C
:1067C00001F0BCFF05226946594800F040FB044631
:1067D00000BF2546002D07D000BF45A2FF21033191
:1067E0002846FDF749FD00BF00BF01214E48FEF7D6
:1067F000D5FC49480078142806DD4748007832283F
:1068000002DC322001F09AFF002043490870FEBDEF
:1068100070B5132000F062F8142000F05FF800BF9C
:10682000002321220121434802F0C4F9054600BF9C
:106830002E46002E06D000BF2DA23B213046FDF78C
:106840001BFD00BF00BF00BF3B4A0021354801F0DF
:1068500085FD044600BF2546002D06D000BF24A2BA
:106860003F212846FDF708FD00BF00BF334A002145
:10687000334801F073FD044600BF2546002D06D0C5
:1068800000BF1BA244212846FDF7F6FC00BF00BF55
:1068900070BDF8B505460E46002E17D10C2D13D14C
:1068A00000221F491F48006801F09FFD044600BFF9
:1068B0002746002F06D000BF0DA25F213846FDF706
:1068C000DBFC00BF00BF00E000BF06E0012E04D1EA
:1068D0000C2D00D100E000BF00BFF8BD0121052252
:1068E000120707231B02D2188300D1507047000003
:1068F0002E2E5C4E505F496E7075744576656E74D1
:106900005C4E505F496E7075744576656E742E638B
:106910000000000000050050A120002006200020FB
:106920003D0A0000A420002068210020082000204B
:1069300008270020942000204B66010049660100D2
:10694000A820002070B586B00546142101A805F0E6
:10695000F3F8002168460171002002906846017337
:10696000002D02D0012D0ED105E040216846818224
:10697000B421C18208E07D21890168468182E1213C
:106980000901C18200E000BF00BF01A873DF044617
:1069900000BF2646002E06D000BF4CA24A2130463A
:1069A000FDF76AFC00BF00BF06B070BD10B504461D
:1069B000FFF7CAF9FEF7B1FD10BD704770B54C4A3C
:1069C00000214C4801F0CAFC044600BF2546002DBA
:1069D00006D000BF3DA25A212846FDF74DFC00BF5E
:1069E00000BF454A0021454801F0B8FC044600BFFD
:1069F0002546002D06D000BF34A25F212846FDF7B2
:106A00003BFC00BF00BF70BD10B504460020FFF77F
:106A100099FF102000F054F80120FFF7B1FA0A2086
:106A200000F049F8FA2001F089FE0A2000F048F849
:106A3000FA2001F083FE0A2000F03DF8FA2001F070
:106A40007DFE0A2000F03CF82D4801F077FE10BDD5
:106A500070B50446002221462848006801F0C5FCB4
:106A6000054600BF2E46002E06D000BF17A2822189
:106A70003046FDF701FC00BF00BF0020FFF780FAA1
:106A80000F2000F01DF80A2000F015F8FF20F53067
:106A900001F054FE0A2000F013F81948FA3001F012
:106AA0004DFEFFF776FBFF20F53001F047FE10208A
:106AB00000F001F870BD01218140124A91607047D9
:106AC000012181400F4AD160704700002E2E5C4E9C
:106AD000505F506F7765724D616E6167655C4E50B7
:106AE0005F506F7765724D616E6167652E63000060
:106AF000BB690100B0200020AD690100AC2000207E
:106B0000E2040000000500508A888283704700225A
:106B1000D2438283704770B504460E46B51D29885E
:106B2000208A814213D1288B022810D100BF00BFD8
:106B3000A97EEA7E120211430846C107C90F002947
:106B400002D00120A0770FE00020A0770CE0288879
:106B5000A188884208D1206A002805D02A8B2946BE
:106B60001A312046236A984770BD30B58FB004466D
:106B70000D460020079000BF6846007F010909010B
:106B8000491C68460177007FF02188431030694630
:106B9000087700BF00BF6846407F01090901491C12
:106BA00068464177407FF021884310306946487736
:106BB00000BF6846807F06218843811C6846817734
:106BC0001C2108A804F0B8FF08A800781021884309
:106BD000411808A80170002009900B900C9007A89C
:106BE0000D9000200E9021786846817106218180E9
:106BF0000020009000BF6846007801090901491C87
:106C0000684601700078F0218843103069460870AA
:106C100000BF00BF6846407801090901491C684669
:106C200041704078F021884310306946487000BFB9
:106C30006846807806218843811C68468170807888
:106C40000821884301466846817080781021884376
:106C5000014668468170807841084900491C6846B1
:106C60008170142102A804F067FF01A80290684611
:106C7000039001210182002141821D2181826088CF
:106C800023460C3302AA08A9A2DF0FB030BD30B5ED
:106C90008FB004460D4683A0006800901C2108A810
:106CA00004F04AFF6846099004F051FF81B268463B
:106CB000418504F04CFF81B26846018508A8007840
:106CC00008218843411808A80170007804218843EE
:106CD000011D08A8017000200B900C900D900E90E3
:106CE000217868468172052101810020019000BF52
:106CF0006846007901090901491C6846017100795B
:106D0000F021884310306946087100BF00BF684613
:106D1000407901090901491C684641714079F02117
:106D2000884310306946487100BF68468079062163
:106D30008843811C68468171807908218843014617
:106D400068468171807910218843014668468171C7
:106D5000807941084900491C68468171142103A8C3
:106D600004F0EAFE02A8039001A8049001216846FD
:106D700081820021C182202101836088231D03AA12
:106D800008A9A2DF0FB030BD70B505460C46002D36
:106D900001D0002C00D170BD2088102804D011280B
:106DA00007D050280FD109E021462846FFF7ACFE56
:106DB0000AE021462846FFF7AAFE05E021462846BC
:106DC000FFF7A9FE00E000BF00BF00BFE3E770B51A
:106DD00086B004460E46344B0FCB01AD0FC5002CD8
:106DE00001D0002E02D10E2006B070BD0020C0439D
:106DF000A083306820620020A077214601A862DFCE
:106E00000546002D01D02846EEE7217868468175B9
:106E100004218182A21C05A90120A0DF0546002DC6
:106E200001D02846E0E731462046FFF79EFE0546A2
:106E3000002D01D02846D7E731462046FFF727FF2F
:106E40000546002D01D02846CEE70020CCE737B517
:106E500084B004460D46002C02D10E2007B030BD90
:106E6000A08B1249884202D0A07F002801D10820BF
:106E7000F4E76846008B1D2801DD0720EEE70020BF
:106E80000090019002900390A189684601800395CB
:106E900006A80290012168468170A08B6946A6DF92
:106EA000DCE70000547800007CC90100FFFF00000F
:106EB000F7B584B004460F4606980678B01C1F2824
:106EC00003DC2079801C1F2802DD0C2007B0F0BDF8
:106ED0001F20801B801E85B20295B11C781802A964
:106EE0007DDF03900398002801D00398EEE7206827
:106EF000022808D168460089A84204DC09200190D4
:106F0000684605890BE0082001902079002804D00C
:106F10002079A84201DC257901E068460589681CD2
:106F2000C2B23046711CCEB23A543046721CD6B250
:106F30000199395406980178A81C0818C1B206981E
:106F400001700020C2E7F8B505460C462078001D08
:106F50001F2801DD0C20F8BD684679DF0646002EAB
:106F600001D03046F7E703212278501C2070A95445
:106F700019212278501C2070A954207841196846A4
:106F8000008800F08AFA2178401820700020E2E79B
:106F9000F8B505460F4616461C466868002801D11C
:106FA0000720F8BD2078801C298840181F2801DDA3
:106FB0000C20F6E72878401CC1B22278501C2070C3
:106FC000B1542178481C207077542A882378981966
:106FD000696804F098FD2078297840182070002016
:106FE000DFE730B503461078C01C1F2801DD0C20F8
:106FF00030BD02241578681C10704C550A24157891
:10700000681C10704C551578681C10704B5500208A
:10701000EEE7FFB587B006461D46109C002006909F
:1070200020780590002747E0B900706841180A8869
:107030006846028149884181002203A902A864DFD1
:1070400004900498002802D004980BB0F0BD684664
:10705000017B099881422ED10698002801D000209A
:1070600000E00220019020786946097B41180198D0
:1070700008181F2801DD0C20E7E70698002809D131
:107080002078401C20702278511C08982170A85448
:10709000012006902078421903A902A864DF049019
:1070A0000498002801D00498CFE720786946097B2E
:1070B0004018207000BF7F1C3088B842B4DC0698AE
:1070C000002806D021780598401C081AC1B20598FE
:1070D00029540020B9E7FFB581B0074615460A9E3E
:1070E000009602223846049B0299FFF792FF04465D
:1070F000002C02D0204605B0F0BD00961022294693
:107100003846049BFFF785FF0446002C01D020463B
:10711000F1E70020EFE701460888062808DB088829
:107120001922D201904205DD0888E04A904201D040
:10713000072070474888062808DB48881922D201B2
:10714000904205DD4888D94A904201D00720F0E7F7
:107150000888D64A904208D04888904205D00888CE
:107160004A88904201DD0720E3E70020E1E7F8B517
:1071700006460D4614462078801D1F2801D90C2094
:10718000F8BD3046FFF7C7FF0746002F01D038464D
:10719000F6E705212278501C2070A954122122788C
:1071A000501C2070A95422785119308800F075F9CC
:1071B00021784018207022785119708800F06DF9FC
:1071C0002178401820700020DAE7F8B505460E4611
:1071D00014462879801CC7B22078801CC0191F284B
:1071E00001DD0C20F8BD781CC1B22278501C207043
:1071F000B154FF212278501C2070B154227891198B
:10720000288800F04AF9217840182070A8880028C2
:107210000EDDA868002801D10720E3E7AA882378BB
:107220009819A96804F06FFC20782979401820701B
:107230000020D7E7FEB507460E461446786B0028B7
:1072400001D10720FEBD0020019032E0796B0C22B5
:10725000019850430D182879801CC0B20090009806
:10726000401CC1B22278501C2070B15416212278E3
:10727000501C2070B15422789119288800F00DF923
:10728000217840182070A88800280EDDA868002802
:1072900001D10720D6E7AA8823789819A96804F0B5
:1072A00032FC20782979401820700198401CC0B227
:1072B00001903820C15D01988142C7DC0020C1E700
:1072C000F8B504460F4616460025002030702068A9
:1072D000002809D0324639462046FFF7E9FD054629
:1072E000002D01D02846F8BD6079002808D031462D
:1072F0003846FFF728FE0546002D01D02846F2E764
:10730000208900280BDD33463A460121204608300B
:10731000FFF73EFE0546002D01D02846E3E7206931
:1073200000280BD000202169085632463946FFF765
:1073300058FE0546002D01D02846D4E7A08A002833
:107340000CDD3B4606220221204614300096FFF752
:10735000C2FE0546002D01D02846C4E7A08B0028B8
:107360000CDD3B460722032120461C300096FFF728
:10737000B2FE0546002D01D02846B4E7A08C0028B7
:107380000CDD3B4615221421204624300096FFF7E1
:10739000A2FE0546002D01D02846A4E7E06A002899
:1073A00009D032463946E06AFFF7E1FE0546002D76
:1073B00001D0284697E7206B002809D0324639468D
:1073C000206BFFF702FF0546002D01D028468AE713
:1073D0003820005D002809DD324639462046FFF797
:1073E00029FF0546002D01D028467CE728467AE78C
:1073F00001460889002807D0C868002804D0C8685A
:1074000000780422104201D1072070470020FCE7D9
:1074100001460889002801DD072070470020FCE7AD
:10742000F3B593B00D4600211291119113980028E5
:1074300014D01398FFF7DCFF0446002C02D020463E
:1074400015B0F0BD12AA09A91398FFF739FF044639
:10745000002C01D02046F3E709AE00E00026002D05
:1074600013D02846FFF7D4FF0446002C01D0204655
:10747000E6E711AA01A92846FFF722FF0446002CDF
:1074800001D02046DCE701AF00E0002710A8037917
:107490003A46017A304672DFD2E702460A70FF2090
:1074A000000210400012487002207047FFFF0000E9
:1074B00001464888B74A1288904206DB4888B54A98
:1074C0005288904201DC012070470020FCE738B56B
:1074D0000546B1480088B14988423BD0B0480078A1
:1074E000401CAF490870AF48007B097888420FDB29
:1074F000A849A948008875DF0446002C07D0A94890
:107500008069002803D0A74881692046884721E088
:107510000020A3490870A348007C00280FD03B211D
:107520009D48008876DF0446002C07D09D4880697E
:10753000002803D09B4881692046884700BF9948AE
:107540004069002806D000200090964841696846AE
:10755000884700BF38BD70B505461C2229469148B2
:1075600004F0D1FA002090490870286800280BD058
:1075700008228848296804F0C6FA86487ADF04465B
:10758000002C08D0204670BD82487BDF0446002CCA
:1075900001D02046F7E70020C0437F490880002043
:1075A0007F490870814A0021814800F0D7FEEAE750
:1075B00010B57F48006800F049FF10BD38B57D4820
:1075C000FFF776FF002829D17748007800280AD0F5
:1075D00074484069002820D000200090714841691B
:1075E0006846884719E06E480078002802D16D4847
:1075F000456801E06B488568002229466C480068B0
:1076000000F0F3FE0446002C07D06648806900288D
:1076100003D064488169204688470AE06148406990
:10762000002806D0012000905E48416968468847DE
:1076300000BF00205C49087038BD10B50446A08822
:1076400055490880082221460E315A4804F05BFA59
:107650000020534908705348C089002801D1FFF722
:10766000ADFF10BD70B505460020C0434A490880F3
:1076700000204B4908704E48006800F0E7FE0446C1
:10768000002C07D047488069002803D0454881690D
:107690002046884770BD70B50546AC1D208841491D
:1076A000C989884220D1208B02281DD100BF00BF8C
:1076B000A17EE27E120211430846C107C90F0029CC
:1076C00002D0FFF77BFF0FE03948006800F0BEFEF4
:1076D0000646002E07D033488069002803D0314881
:1076E00081693046884700BF70BD10B50446082246
:1076F000A11D304804F007FAFFF760FF10BD10B578
:1077000004462088102806D0112808D012280ED050
:10771000502810D107E02046FFF78FFF0CE02046ED
:10772000FFF7A0FF08E02046FFF7B5FF04E0204682
:10773000FFF7DBFF00E000BF00BF10BD38B5044617
:1077400008222146134804F0DEF912487ADF054684
:10775000002D1CD11748FFF7ABFE00280BD10120EC
:10776000114908700B490C48008875DF0546012057
:107770000B4908700BE00B484069002806D0012037
:107780000090084841696846884700BF00252846A0
:1077900038BD0000B6200020C0200020FFFF000000
:1077A000BE200020502B0020B4200020CF74010008
:1077B000CC200020C220002070B506460C4615469D
:1077C00029462046FCF797FD70BDF8B5594800786A
:1077D000002800D1F8BD58480068002801D10120D8
:1077E00000E00020054655480068002801D101202E
:1077F00000E00020064600BF002D14D168464EDF91
:107800000446052C01D101250CE0002C06D000BF58
:107810004BA269212046FCF72FFD03E04649009862
:107820000968884700BF002E1AD15348008800908D
:1078300069465248006860DF0446052C01D10126E4
:107840000DE0002C06D000BF3DA280212046FCF7B1
:1078500013FD04E04948006838490968884700BFBB
:10786000002D02D0002E00D000E0C5E700BF00BF11
:10787000B0E7FFB581B00C4616461F46002C02D17A
:10788000072005B0F0BD20468107890F01D10121F5
:1078900000E00021002901D10720F2E73748046009
:1078A00035480680364807603649019810DF05469E
:1078B000002D01D02846E4E701201E49087016205B
:1078C00023DFDEE710B511DF0446002C01D00120D4
:1078D00000E0002017490870204610BD014600292D
:1078E00001D10E207047154801600020FAE70146DB
:1078F000002901D10E2070470F4801600020FAE7EF
:1079000070B51F480068002811D01D4800688047E6
:10791000044600BF2546002D07D000BF08A2FF2166
:1079200033312846FCF7A8FC00BF00BF01E0FFF799
:107930004CFF70BDD0200020E4200020E02000207B
:107940002E2E5C2E2E5C2E2E5C2E2E5C2E2E5C2E71
:107950002E5C536F757263655C73645F636F6D6DEE
:107960006F6E5C736F66746465766963655F68618A
:107970006E646C65722E6300DC200020D82000202D
:10798000D4200020B977010000BF42488068012858
:10799000FBD100203F4988603F488069C0B27047F2
:1079A00070B504460D4601260AE02046641E0028F4
:1079B00004DB7D20C000FCF78DFB01E0002603E026
:1079C000344880680128F0D100BF002C05DB00207E
:1079D00030498860304880692870304670BD2E4933
:1079E000C86100BF2B49C9690129FBD10021294A7F
:1079F000D161704730B50346002528466D1C1C5CDC
:107A000005E02046FFF7EBFF28466D1C1C5C002CB0
:107A1000F7D130BDF8B507460C4615461E46204640
:107A200000F025F80021304600F02AF81A48C4601A
:107A30004661069800280DD0384600F018F800215D
:107A4000284600F01DF8144805618760012012499E
:107A50004031C86211481049486204200860012082
:107A60000F498860086000200A498860F8BD01213C
:107A70000522120707231B02D2188300D15070473A
:107A800010B58A0005231B07072424021B19840054
:107A90001A5110BD002100400025004000509D00FB
:107AA0000020004010B5002819DAFE4A03071B0F1A
:107AB000083B9B089B00D2588307DC0EFF23A340A2
:107AC0009A438B071B0E8407E40EA3401A43F54B21
:107AD0000407240F083CA408A4001A5118E0F24A35
:107AE00003231B02D21883089B00D2588307DC0EA5
:107AF000FF23A3409A438B071B0E8407E40EA34089
:107B00001A43E94B032424021B198408A4001A51C8
:107B100010BD10B50446E548846003211120FFF72D
:107B2000C1FF10BD10B501200004E1494860E049E3
:107B300040394860112000F098FD112000F087FDC9
:107B40000120DC4908602F20FCF7D4FA10BD10B5E5
:107B5000112001218140D44A8032116000BF0120F0
:107B60000004D3498860D249403988600120D14956
:107B700048602F20FCF7BEFA10BDF0B50246282061
:107B80005043CD4B1B68C118CC480068401C02D143
:107B9000CA48026057E0C9488B68006828246043DF
:107BA000C54C246800198068834217D8C348006810
:107BB00028235843C04B1B68C01880688B68C31AC1
:107BC000BE48006828246043BB4C246800198360C9
:107BD000BA4800684862B948026034E08B68B74D23
:107BE0002C6828680DE028254543B34E3668AD194A
:107BF000AD685B1B044628254543AF4E3668AD197A
:107C0000686A451C07D028254543AB4E3668AD1938
:107C1000AD689D42E7D3451C0CD028254543A64EB0
:107C20003668AD19AD68EE1A28254543A24F3F6866
:107C3000ED19AE608B604862282565439E4E36681C
:107C4000AD196A6200BFF0BD70B502469B4C216859
:107C5000084609E0904200D108E001462824444348
:107C6000954D2D686419606A441CF3D100BF441C13
:107C700000D170BD814209D1904C246828256C4305
:107C80008D4D2D686419646A8C4D2C602824444302
:107C9000894D2D686419A36828244443864D2D68B6
:107CA0006419656A28244C43834E3668A4196562BA
:107CB00028244C43804D2D686419606A441C0CD004
:107CC000282444437C4D2D686419A468E5182824B1
:107CD0004443794E3668A419A56000BFC9E710B5C2
:107CE000112000F0BBFC10BD10B5142000F0B6FC54
:107CF00010BD70B5044672480068002813D0704A61
:107D0000216AE06912689047054600BF2E46002EA2
:107D100007D000BF6BA2FF215F313046FCF7ACFA01
:107D200000BF00BF02E0E169206A884770BDF8B576
:107D300062480068401C39D0002700F0C8FC0446A7
:107D40006C480168204600F0C5FC06465B480568A3
:107D500011E028206843584909684418A068B042D7
:107D600000D90AE0A068361AA068C719656A2046DB
:107D7000FFF7BFFF00BF681CEBD100BF5E48007873
:107D80005E490978884209D15C480078401CC0B23D
:107D90005A490870022801D100200870574800781D
:107DA000800057490F50FFF79FFF00BFF8BD014605
:107DB00051480078514A127890421DD04E480078C0
:107DC000401C4D4A107010460078022801D1002056
:107DD0001070494800788000494A10580860454AA8
:107DE000086812688018434A106010460068000254
:107DF000000A1060012070470020086000BFFAE709
:107E0000FEB52E48006801903E48007800903FE0A3
:107E10000098C0003C4909684418257834E01820CF
:107E2000684361680F18681CC5B2A078A84200D1E9
:107E300000253868022802D0032822D10EE028212C
:107E4000786848431C4909684618307E002804D0E9
:107E50007868FFF7F9FE0020307613E00CE0174950
:107E6000096828225143144A1268881800210176B3
:107E7000124A416A116000BF10480068401CEED1F0
:107E800000E000BF00BF00BF6078A842C7D100BFBC
:107E90000098411EC9B200910028B9D10748016875
:107EA000019833E01CED00E000E100E00015014026
:107EB0004013014000100140E8200020FC20002079
:107EC000102100202E2E5C2E2E5C2E2E5C2E2E5C81
:107ED0002E2E5C2E2E5C536F757263655C61707024
:107EE0005F636F6D6D6F6E5C6170705F74696D65FF
:107EF000722E6300002100200C2100200D210020A3
:107F000004210020F6200020F8200020814201D02A
:107F10000120FEBD0020FCE7F0B50346002426E06A
:107F2000FE4E366828277E43FD4F3F68F01986686D
:107F30009E4203D98668F61A86601CE086689B1B01
:107F400086683419002686600676F44E3568F34F4D
:107F5000466A3E604669002E08D00E193602360A7F
:107F6000C6604669066116684662156000BFEB4848
:107F70000068401CD4D100BFF0BDFEB50746E748FD
:107F800000680290E7480078019069E00198C0001D
:107F9000E549096845185CE0781C07D03E46282072
:107FA0007043DF4909684418676A23E02978182379
:107FB00059436A6850182978491C29702978AA7889
:107FC000914201D100212970466828217143D44A89
:107FD00012688C180168012902D1217E002900D085
:107FE00037E08168E160C1682161016961614169CF
:107FF000216200BFCD49E0680968401A0002000A0A
:10800000CB49884208D2C949E068096800F062FBA0
:1080100021694018A06011E0C448E168006800F0E0
:1080200059FB009021690098814204D92169009888
:10803000081AA06001E00020A06000BF0020E060FE
:10804000206101202076801E60623046FFF795FD9A
:1080500000BF781CA0D12878697888429CD100BFE5
:108060000198411EC9B2019100288FD1AB48016827
:108070000298814201D00120FEBD0020FCE7FEB540
:108080000546A6480068401C34D0A4480068282152
:108090004843A34909684018866800F018FB02901D
:1080A000A24804682146029800F014FBC01C01900D
:1080B000681C01D1FFF736FD0198B04201D230466D
:1080C00000E0019804192402240A20469949086016
:1080D00000BF00F0FCFA00900299009800F0FAFA54
:1080E000C71C2046029900F0F5FA874201D9FFF734
:1080F000F6FD01E0FFF72BFDFEBDFEB50020C043FD
:1081000001908A480468854807686846FFF74FFE73
:108110000546FFF775FE0646002D05D001AA21464B
:108120000098FFF7F9FE01260198FFF726FF0028C7
:1081300000D00126002E02D03846FFF7A0FFFEBD7A
:108140004170704770B502460B465078411C9078DC
:10815000884200D100211078884201D1002070BDF2
:10816000196050781826704355682C182046F6E799
:10817000FFB581B005460E461746E9006A4A126807
:1081800088186946FFF7DEFF0446002C02D1042060
:1081900005B0F0BD01202060666000F098FAA06094
:1081A000E760049820610A986061E9005E4A1268FD
:1081B00088180099FFF7C4FFFFF796FD0020E7E756
:1081C000F8B504460E46E100574A12688818694619
:1081D000FFF7B8FF0546002D01D10420F8BD0220AD
:1081E00028606E60E100504A126888180099FFF715
:1081F000A7FFFFF779FD0020F0E738B50446E1005E
:10820000494A126888186946FFF79CFF0546002D09
:1082100001D1042038BD03202860001F6860E10000
:10822000414A126888180099FFF78AFFFFF75CFD42
:108230000020EFE710B500203F49086000213E48CC
:1082400041608160C16000203B494039086048605E
:10825000FFF76DFD10BD10B5FFF74FFF10BDFFB567
:1082600081B00E4617461C4620468107890F01D172
:10827000012100E00021002902D1072005B0F0BD56
:10828000002C01D10720F9E7FFF761FC2B490A9880
:1082900008602B4806702248046000250CE000218D
:1082A000282068431E4A12681150282068431C4A3F
:1082B0001268801801766D1CB542F0DB28207043EF
:1082C0000419032017490870174804601834002562
:1082D0000CE0E900144A126888180021017041700E
:1082E00087704460182179430C196D1C032DF0DB55
:1082F0000020C04309490860002012490870124953
:108300000870142000F0B1F903211420FFF7CAFB14
:10831000142000F09CF9019818E00000FC200020D7
:10832000E8200020F6200020F82000200021002076
:10833000FFFF7F0040150140401101401021002047
:10834000F52000200C2100200D210020FFF7E1FB8B
:1083500000F0BDF9E249086000208FE770B50346E0
:108360000C46E0480068002801D1082070BD002AB2
:1083700001D10720FAE7002B01D10720F6E7002101
:108380001CE028204843D74D2D682858002814D1D8
:10839000012528204843D34E3668355028204843CD
:1083A000D04D2D684019446028204843CD4D2D689C
:1083B0004019C26119600020D8E7491CCA480078FA
:1083C0008142DEDB0420D1E710B500F056F9012828
:1083D00002D0032804D101E0002403E0012401E0DD
:1083E000022400BF00BF204610BDFEB504460D4666
:1083F0001646BC480068002801D10820FEBDBA48D6
:108400000078844201D2052D01D20720F6E728200A
:108410006043B44909680858012801D00820EDE7F5
:1084200028206043AF49096840184068012801D1FD
:10843000284600E000200746FFF7C6FF3B462A46D5
:10844000214600960190FFF793FED7E770B50446EA
:10845000A4480068002801D1082070BDA248007817
:10846000844201D30720F8E7282060439D4909682A
:108470000858012801D00820EFE7FFF7A5FF0546BF
:108480002146FFF79DFEE8E710B5964800680028F2
:1084900001D1082010BDFFF797FF0446FFF7ADFE9E
:1084A000F8E710B5044600F012F92060002010BD76
:1084B00070B505460E4614463146284600F00AF9C6
:1084C0002060002070BD014686480068002801D168
:1084D0000820704784480078814201D30720F8E7DC
:1084E000282048437F4A12681058012801D10020F3
:1084F000EFE70820EDE700207C4908607C49C86070
:10850000012088607047012078490860704700208A
:1085100076490860704777480068C007C00F02D0EE
:108520007548764908607047754800787549086055
:1085300008460068002801D10820086071480068DA
:10854000704710B50020704908600120810708605D
:1085500000BF6D4800680028FBD000206B494860D0
:1085600088600620086101206949C860FFF7DCFFC8
:10857000FF30013065494031086088156449152293
:10858000920189184860002061498918886001209B
:1085900040046049486010BD10B5FFF7C5FF0446B0
:1085A0005D484068002832D05A484068012149049B
:1085B00008422CD0002158484160554815218901B6
:1085C00040184068FF300130514915229201891846
:1085D000486052480078002808D04D48114640189D
:1085E000406800194949403108600AE048481521AF
:1085F00089014018406800194549152292018918DF
:10860000886046480078012148404449087010BD00
:10861000414843490861434843495122120189189E
:1086200048603D48001D4049891888603D493E48E2
:108630008018C160384808303B49891808613949B9
:108640003948801841610720354908607047C206E3
:10865000D20E01219140354A11607047C206D20EF8
:1086600001219140324A11607047C206D20E0121A9
:1086700091402F4A80321160704710B52D484068F4
:10868000C105C90D002920D00A46103A104600281D
:108690000DDA284B1C330407240F083CA408A4005F
:1086A0001B598407E40EE3401B069B0F0BE01F4B96
:1086B000032424021B198408A4001B598407E40E18
:1086C000E3401B069B0FD8B210BD0420FCE71A48FC
:1086D000406870470246501A0002000A70470000C6
:1086E00000210020E8200020F520002000000140AB
:1086F00000050140000401403546526E000601406D
:10870000EC200020F02000200001004000A50040E7
:1087100000A0004000A3004040A10040F420002041
:1087200000F501400060004000F0014000E100E081
:1087300000E200E000ED00E00015014001B505E0B9
:108740000098401E00900348FBF7E4FC00980028C6
:10875000F6D108BDE703000070B500BF012040035B
:10876000CD49886000BF00BF4000886000BF042082
:10877000FBF7E0FCC84800698004C00F06D0C6487B
:1087800000694004C00F01D0012426E0C2480069FE
:108790004004C00F20D00024122518E000BF0120A3
:1087A0008003BD49C86000BF0420FBF7C3FC00BFC5
:1087B00001208003B849886000BF0420FBF7BAFCA1
:1087C000B54800698004C00F01D0012403E02846A9
:1087D0006D1E0028E2D100E00024204670BD10B5D7
:1087E00000BFAE4805210907072212028918486315
:1087F00000BF00BF052109078918886300BF00BFBB
:1088000001208003A449886000BF00BF886100BFC9
:1088100000BF4010886000BF00BF886100BFFFF745
:108820009BFF10BD08B50320009000BF012080030E
:108830009949886000BF0420FBF77CFC05E00098A4
:10884000411E0091002800D108BD934800694004F2
:10885000C00FF4D00120F7E710B500BF012040039E
:108860008D49C86000BF0420FBF764FCFFF7DAFF06
:10887000002800D110BD00BF012040038649886058
:1088800000BF0420FBF756FC0120F3E770B5064655
:10889000012400BF60038049886100BF80251EE07D
:1088A00000BF012080037C49C86000BF0420FBF7A3
:1088B00041FC3046284205D000BF012040037649E4
:1088C000886005E000BF012040037349C86000BF15
:1088D000FFF7A8FF002801D1002402E06D08002D59
:1088E000DED100BF00BF012080036B49C86000BF1C
:1088F0000420FBF71FFC00BF012040036649C8614C
:1089000000BF0420FBF716FCFFF78CFF0440624811
:108910000069400B01214840044000BF88035E49C4
:10892000C86000BF0420FBF705FC00BF0120400326
:108930005949886100BF204670BDF8B505460E460E
:1089400000270120009000BF40035349C86100BFC9
:10895000802417E0FFF766FF002801D1009013E0A4
:108960004D4800698004C00F02D0384620430746B6
:1089700000BF012080034849C86000BF0420FBF706
:10898000D9FB6408002CE5D100BF00BF01204003E3
:108990004149886100BF2F70002E02D000BFC8601F
:1089A00005E000BF012040033B49886000BF042070
:1089B000FBF7C0FBFFF736FF002800D1009000BF97
:1089C000012080033449C86000BF0420FBF7B2FBDC
:1089D0000098F8BD10B500BF012040032E49886003
:1089E00000BF0420FBF7A6FBFFF71CFF002800D107
:1089F00010BD00BF012040032749C86000BF04200C
:108A0000FBF798FB00BF012080032349C86000BF2B
:108A10000420FBF78FFB0120EAE7FFB581B0074692
:108A20000D4616460124FFF7D5FF04403846FFF7F0
:108A30002DFF0440F807C00F16D00DE0002E05D121
:108A400000212846FFF779FF044004E00121284671
:108A5000FFF773FF04406D1C3046711ECEB2002834
:108A60000FD0002CEAD10CE004E02878FFF70EFFCD
:108A700004406D1C3046711ECEB2002801D0002C7F
:108A8000F3D10498002801D1002C02D1FFF7E4FEB5
:108A90000440204605B0F0BD000500500C06000063
:108AA000F8B504460D4690480068002813D0EAB295
:108AB00021788D4BA0681B689847064600BF374653
:108AC000002F06D000BF89A228213846FBF7D4FB2F
:108AD00000BF00BF0CE0002D04D120780021A26867
:108AE000904705E0012D03D120780121A26890472D
:108AF000F8BDF8B5074669468948007800F0E9FAFC
:108B00000646002E00D0F8BD002533E00C20684357
:108B100084490968441884480068227801219140FA
:108B200008420FD0A06800280CD06078012804D13A
:108B300001212046FFF7B4FF1AE000212046FFF78D
:108B4000AFFF15E078484068227801219140084243
:108B50000ED0A06800280BD06078012804D1002135
:108B60002046FFF79DFF03E001212046FFF798FF15
:108B7000681CC5B26D4800788542C7DB00BFC2E7FC
:108B800070B504460D466A480068FFF75FFC06466C
:108B9000002E00D070BD6448446005602046284324
:108BA00002466448016862480068FFF71EFC0646FA
:108BB00000BFEFE7FFB583B006460C461746052F0A
:108BC00002D2072007B0F0BD56480660574804702F
:108BD00058480760444906980860002516E00C21B3
:108BE00061438819027800924168019101998900D6
:108BF0000522120707231B02D318009A92009950EE
:108C000000BF0278012191400D4300BF2046611E44
:108C1000CCB20028E3D1484B2A462946404800F010
:108C200083F902900298002801D00298CAE7434ACB
:108C300000213F48FFF792FBC4E710B539480068B0
:108C4000002801D1082010BD3548007800F0B1F9A6
:108C5000F9E710B533480068002801D1082010BD9D
:108C60002F48007800F014FA0446002C01D020466A
:108C7000F5E72F480068FFF7E9FBF0E7F8B5054690
:108C80000C460C20684327490968471825480068A6
:108C9000002801D10820F8BD69462148007800F07D
:108CA00018FA0646002E01D03046F4E778780028FE
:108CB0000AD10098E840C007C00F02D00120207000
:108CC0000FE0002020700CE07878012809D100988E
:108CD000E840C007C00F02D00120207001E0002052
:108CE00020700020D7E70000202100202E2E5C2ECF
:108CF0002E5C2E2E5C2E2E5C2E2E5C2E2E5C536F48
:108D0000757263655C6170705F636F6D6D6F6E5CD3
:108D10006170705F627574746F6E2E630000000086
:108D200024210020142100202C21002018210020C3
:108D3000282100201C210020818B0100F38A0100E2
:108D4000F0B502460C46002035E001238340194669
:108D500023460B422ED0D5680D4205D101235B047A
:108D6000D5680D43D56004E003231B04D5688D430B
:108D7000D56005252D0707263602AD198600AD59A9
:108D800003263604B5430526360707273F02F619A2
:108D90008700F55105252D0707263602AD198600F7
:108DA000AD591D430526360707273F02F6198700F0
:108DB000F55100BF401C2028C7D3F0BDF0B585B0E9
:108DC000EC4805690020EC49C86300263DE014200A
:108DD0007043EA49096844180120B040E84909682D
:108DE000084230D0E068C043684021680840074628
:108DF00039462046FFF7A4FFDE480069684003902B
:108E0000039800280ED003980543E068C0436840EB
:108E100021680840009020460099FFF791FF0098D4
:108E2000074300BFA068A84338400190606828400D
:108E30003840029001990298084303D022690199B1
:108E40000298904700BF701CC6B2CE480078864298
:108E5000BDDB05B0F0BD10B50146002028E01422AE
:108E60004A43C64B1B689A58012383401A421ED0BE
:108E70000522120707231B02D2188300D2580323AE
:108E80001B049A4305231B07072424021B19840093
:108E90001A510522120707231B02D2188300D25849
:108EA00005231B07072424021B1984001A51401CA8
:108EB0002028D4D310BD70B505460C46002C01D136
:108EC000072070BD20468107890F01D1012100E0F4
:108ED0000021002901D10720F3E7A8480460AA482F
:108EE00005700020A7490870A5490860A6480078C9
:108EF000142250430146A148006802F01DFE0020E4
:108F0000C043A2498860062001218140A04A116027
:108F100000BF012100F0F7F80620012181409D4AA1
:108F2000116000BF0020CCE7F8B504460D46164698
:108F30001F4692480068002801D10820F8BD002F84
:108F400001D10720FAE78F4800788F4909788842D5
:108F500001DB0420F2E7284630438A4909781422CD
:108F60005143864A1268505086480078142148437D
:108F700082490968401845608248007814214843B6
:108F80007E490968401886607E480078142148436D
:108F90007A490968401807617A4800782070794852
:108FA0000078401C774908702078FFF754FF0020B4
:108FB000C4E7F0B5024671480068002801D10820D6
:108FC000F0BD70480078824201DB0720F8E70020FE
:108FD000694BD8636748046969480068002802D172
:108FE00058066A4B586001209040654B1B68184337
:108FF000634B1860002314205043604D2D684019C6
:10900000C360002140E001238B40184614235343E2
:109010005A4D2D68EB58034235D02546054202D003
:1090200003231B040EE001235B0414255543534E18
:109030003668AD19ED680543142656434F4F3F6817
:10904000F619F56005252D0707263602AD198E00A5
:10905000AD5903263604B5430526360707273F02D8
:10906000F6198F00F55105252D0707263602AD1993
:109070008E00AD591D430526360707273F02F61916
:109080008F00F55100BF491C2029BCD3002097E771
:1090900010B5044639480068002801D1082010BDE9
:1090A00038480078844201DB0720F8E72046FFF7C4
:1090B000D2FE0120A0403249096881433048016056
:1090C0000068002803D10120C007304988600020D3
:1090D000E5E710B5024629480068002801D10820BC
:1090E00010BD28480078824201DB0720F8E71420F1
:1090F0005043224C246803191E4800691C68204014
:1091000008600020ECE710B5002819DA224A0307AE
:109110001B0F083B9B089B00D2588307DC0EFF23E4
:10912000A3409A438B071B0E8407E40EA3401A4307
:10913000194B0407240F083CA408A4001A5118E096
:10914000144A03231B02D21883089B00D2588307BA
:10915000DC0EFF23A3409A438B071B0E8407E40E0B
:10916000A3401A430B4B032424021B198408A400B8
:109170001A5110BD0005005040610040342100200C
:10918000382100203D2100203C21002000630040C8
:1091900080E200E000E100E01CED00E0002314218B
:1091A0004143F64A53541421414389184B80042308
:1091B0001421414389188B600023142141438918ED
:1091C000CB601421414389180B6114214143891854
:1091D0008B80704710B50020E9490880E949086094
:1091E000E649091F087048708870002403E0204693
:1091F000FFF7D4FF641C202CF9D310BDFFB581B05C
:1092000004460F4615460326DE48006800280BD1A9
:10921000002D06D10498002803D10220D949086006
:1092200002E00120D7490860D6480068030003F037
:1092300071F907A3051A37567592A300012000079C
:1092400000690004820C01200007006980B27843A5
:109250000146F120800251DF0646002E02D1022095
:10926000C849086089E0384650DF0646002E16D10E
:10927000002D11D1049800280AD12078042803D1A8
:109280000720C04908600AE00520BE49086006E0E2
:109290000420BC49086002E00320BA4908606CE081
:1092A00001210907096989B2794308462A46F12153
:1092B000890251DF0646002E10D1049800280AD1F9
:1092C0002078042803D10620AE49086006E0052076
:1092D000AC49086002E00420AA4908604DE0AA00F9
:1092E000F1239B02D2186388D11801221207126958
:1092F00092B27A43AB00D2186388D018049A51DF37
:109300000646002E09D12078042803D106209D4965
:10931000086002E005209B4908602EE0012000075C
:10932000006980B27843AB00C01800906088820862
:109330002169009851DF0646002E0BD1002D06D181
:109340000498002803D107208E49086002E0062017
:109350008C49086011E001200007006981B2F1200A
:10936000800202F0BCFB009050DF0646002E02D1C6
:1093700007208449086000E000BF00BF304605B008
:10938000F0BDF0B585B00F277C48001F0078142190
:1093900048437A494418E5682078022804D0042814
:1093A00023D005286FD16FE02069039074480088AE
:1093B00086026088801B0490039880190390A0881F
:1093C00080194519012189020498884206D204981F
:1093D00082082846039951DF074605E0FF22013243
:1093E0002846039951DF074676E0A06800016649E8
:1093F000401800890490A06800014018408903903B
:10940000A06800014018406802900298A84205D167
:109410000399049848436188884202D0A0680528CF
:109420000DD101200007006981B2284602F041FBFE
:10943000534909884618304650DF074622E001208C
:109440000007006981B2284602F033FB064601207E
:109450000007006980B27043281A8008019001203B
:109460000007006980B2711C484361884919401A9D
:109470008008009031462046009B019AFFF7BEFE0F
:10948000074600BF28E026E001200007006981B2FE
:10949000284602F00EFB0646A0884119012000076D
:1094A000006980B27043081A80080490A0884019AF
:1094B0006188421801200007006980B2711C48438E
:1094C000801A8008039031462046039B049AFFF7D8
:1094D00095FE074600E000BF00BF002F03D101202A
:1094E0002649091F8870384605B0F0BDFFB581B028
:1094F0000646174600242148001F4078202839D00E
:109500001E48001F00781D49091F49784018C4B241
:10951000202C02DB20462038C4B2142060431749B7
:109520000E54142060434018076114206043411812
:10953000029805C8CA608860142060430F4A8018EA
:10954000049941801420604380180A998180002585
:10955000101F8078002805D1FFF713FF0546112D55
:1095600000D100250548001F4078401C0349091F11
:10957000487000E00425284605B0F0BD702B00209F
:109580005021002054210020F02D0020F8B5044681
:10959000FA48007814214843F849091D0E5C081F59
:1095A000007814214843F549091D401880680001DE
:1095B000F3490D58F148007814214843EF49091D3B
:1095C00040184088091F0090097814225143EB4A43
:1095D000121D89180B69111F097814225143E74A9B
:1095E000121D89180846083022463146A847F8BDA2
:1095F00010B50024E1484078002809DDFFF7C1FEDE
:109600000446002C04D0112C02D02046FFF7BEFFE8
:10961000204610BDFEB505460026D84880780128B2
:109620007ED10020D5498870D6480068082811D11D
:10963000022D03D10020D349086002E00020D24966
:109640000870FFF7D5FF0646002E02D03046FFF720
:109650009DFFFEBD022D02D0032D79D174E0C748D5
:10966000007814214843C549091D4418C74800889B
:10967000401CC64908802078022807D10846008887
:1096800080026188884201DB012000E0002007465B
:109690002078052805D1BB480068072801D10120A2
:1096A00000E0002002902078042805D1B548006829
:1096B000072801D1012000E0002001902078042833
:1096C0000BD1B248008880026188884205DBAD4832
:1096D0000068002801D1012000E0002000900298DD
:1096E000002807D10198002804D10098002801D152
:1096F000002F1FD00020A34908603046FFF746FF27
:109700009E490878FFF74AFD0020A04908809B4841
:109710004078401E9949487008460078401C00E097
:1097200019E0087008460078202803DB0846007816
:1097300020380870FFF75CFF0646002E02D0304646
:10974000FFF724FF05E003E00D20FFF71FFF00E017
:1097500000BF00BF00BF00BF7BE770B5FFF73AFD59
:1097600000208B4908808B4800688B4908600020E6
:109770008649088000BF0DE000210201804B99500E
:109780000201D21811810201D21891810201D2186E
:109790005181401C0428EFD308207A490860400614
:1097A000006981B2F120800202F099F9054650DF8C
:1097B0000446002C04D10120704988707249087059
:1097C000204670BD70B5024600BF6F480078002883
:1097D00001D1082070BD00BF002A01D10E20F9E799
:1097E000002901D10E20F5E71068002801D10E20D4
:1097F000F0E7908801252D072D69ADB2A84202DC63
:109800009088102801DA0720E4E7D088002809D0E2
:10981000D08895886843604D2D684019F125AD02C8
:10982000A84201D90720D5E710798007800F01D021
:109830000720CFE756480088042800D1CAE75448DB
:1098400000880860544800684860514D2D882D01FB
:109850004B4EAD19486868604D4D2D882D0110683C
:10986000705190884A4D2D882D01AD192881D088DE
:10987000474D2D882D01AD19688100249388D58826
:109880006B4300BF601C84B201200007006980B2F6
:10989000984205D201200007006980B21B1A00E03F
:1098A000002301200007006980B23B4D2D6840195C
:1098B000394D286001200007006980B29842E1D943
:1098C0003348008800012E4D4019848130480088BB
:1098D000401C2F4D288000207CE73CB5034600BF8C
:1098E00029480078002801D108203CBD00BF002B8A
:1098F00001D10E20F9E7002A01D10E20F5E7186802
:10990000042805D2186800011D4C2058002801D1F8
:109910000720EAE75C68186801940090019C1868C9
:109920000001174D40190089484320180190009804
:1099300000012C4600194089009C240164192489E7
:109940006043009C2401641964680019019CA042D2
:1099500001D80720C9E7019C0098546010600020DE
:10996000C3E7F8B504460E4615461F4600BF064835
:109970000078002812D10820F8BD00006C2B0020D0
:10998000F02D0020542100204021002050210020F3
:1099900048210020442100204C21002000BF002E3F
:1099A00001D10E20E8E7002C01D10E20E4E7206869
:1099B000042805D220680001EB490858002801D18D
:1099C0000720D9E720680001E7494018408921684D
:1099D0000901E54A8918098948432168090189185C
:1099E000496840186168884201D80720C4E7002D03
:1099F00006D020680001DC4940180089A84201DA3D
:109A00000720B9E7E81921680901D74A89180989A7
:109A1000884201DD0720AFE7304600F09CF90028BE
:109A200004D0384600F097F9002801D11020A3E7B0
:109A3000606800F090F9002801D110209CE72B46C7
:109A40003246214602200097FFF750FD94E7F8B513
:109A500004460E4615461F4600BFC448007800283D
:109A600001D10820F8BD00BF002E01D10E20F9E77A
:109A7000002C01D10E20F5E72068042805D22068CB
:109A80000001B9490858002801D10720EAE72068F9
:109A90000001B5494018408921680901B24A891876
:109AA0000989484321680901891849684018616893
:109AB000884201D80720D5E7002D06D02068000194
:109AC000A94940180089A84201DA0720CAE7E81925
:109AD00021680901A44A89180989884201DD072003
