:020000040001F9
:10400000403E0020754101008741010089410100C7
:1040100000000000000000000000000000000000A0
:104020000000000000000000000000008B410100C3
:1040300000000000000000008D4101008F410100E0
:1040400091410100914101001D4E0100914101008B
:104050009141010000000000C59201009141010062
:104060009141010091410100A18A010091410100AB
:1040700091410100914101009141010091410100F4
:10408000914101003D8701009141010091410100F2
:104090005F87010091410100097E0100914101000B
:1040A000914101009141010000000000000000006A
:1040B0000000000000000000000000000000000000
:1040C0000348854608F02EFC00480047AB4E01002F
:1040D000403E0020401E00BF00BF00BF00BF00BF29
:1040E00000BF00BF00BF00BF00BF00BF00BFF1D1D5
:1040F00070470000401E00BF00BF00BF00BF00BFF0
:1041000000BF00BF00BF00BF00BF00BF00BFF1D1B4
:1041100070470000401E00BF00BF00BF00BF00BFCF
:1041200000BF00BF00BF00BF00BF00BF00BFF1D194
:1041300070470000401E00BF00BF00BF00BF00BFAF
:1041400000BF00BF00BF00BF00BF00BF00BFF1D174
:1041500070470000401E00BF00BF00BF00BF00BF8F
:1041600000BF00BF00BF00BF00BF00BF00BFF1D154
:10417000704700000748026803210A4302600648AE
:10418000804706480047FEE7FEE7FEE7FEE7FEE75A
:10419000FEE700002405004037420100C140010055
:1041A0002E482F49086070472E48008CC0B2012865
:1041B00010D12C48808C0007000F0BD12948806A51
:1041C000F0210840402805D12648C06A084201D1A4
:1041D000012070470020FCE72248008CC0B2012873
:1041E00027D12048808C0007000F22D11D48806A0B
:1041F000F021084205D11B48C06A084201D10120C4
:1042000070471848806AF0210840102805D11548E9
:10421000C06A084201D10120F2E71248806AF02109
:104220000840302805D10F48C06A084201D101205A
:10423000E6E70020E4E710B5FFF7CEFF002805D041
:1042400009480A494860C81309498861FFF7ACFF6B
:10425000002802D001200749886010BD0024F40026
:1042600000200020C00F00F0DFFF07C00005004065
:10427000006C00400006004000F067FF70B500BF12
:10428000F749052005F09BF8044600BF2546002DA0
:1042900005D000BFF3A2A5212846FFF7EDFF00BF20
:1042A00000BF0B2000F08EFF002303220B211846D5
:1042B00000F055FF70BD10B502460B4600200021EE
:1042C00000BF03E0545C60404C1CA1B29942F9DB92
:1042D00010BD04460D462A462146E548FFF7CCFFAF
:1042E00038B500BF0020E34B05221121009004F0F7
:1042F0003AFA044600BF2546002D05D000BFD9A2DA
:10430000EE212846FFF7B8FF00BF00BF38BD3EB51D
:1043100000BF6846007801090901491C0091684600
:104320000078F02188431030009000BF0622D2A10F
:1043300068467CDF044600BF2546002D06D000BF3E
:10434000C8A2FF2102312846FFF796FF00BF0020D8
:10435000019002901021684681803C21C18000219B
:104360000181FF219131418101A87ADF044600BF1C
:104370002546002D06D000BFBAA2FF210B312846EA
:10438000FFF77AFF00BF3EBD30B5A1B00621029114
:10439000BB4800680190BB480178684681713C21A8
:1043A00012A807F04DFE02201290002110A84173C0
:1043B0000121018202A915913C2103A807F040FECA
:1043C00001216846018501A90B9103A912A803F0F8
:1043D000ABFA044600BF2546002D06D000BFA1A2BF
:1043E000FF2130312846FFF747FF00BF21B030BD25
:1043F000F7B586B01746781C0590059808F0ACFC18
:104400000646381D0490049808F0A6FC04460020D7
:10441000039000BF03E00799095C3154401CB84287
:10442000F9DB307855287DD1707830287BD00EDCD0
:104430001038030008F0BCFA13245F93FDFCFBFA6C
:10444000F98E8E8E8E8E8E8E8EF8F7F68E008028E8
:104450006AD00CDC602868D004DC502866D0512873
:1044600078D196E2612876D07028F9D102E38128CC
:1044700072D0902871D0912870D09228F0D136E374
:10448000F078252836DBF078502833DCF0787E4948
:10449000087001217D4800F0EEFE7B4800787B49E2
:1044A00008700121794800F0CDFEAA202070132069
:1044B00060700120A07074480078E07004212046EC
:1044C000FFF7F9FE20716F48807F002812D0052287
:1044D00021466C4802F03FFF054600BF0295029D51
:1044E000002D06D000BF5FA2FF2163310298FFF7C5
:1044F000C3FE00BFFDE2AA202070012060700220F0
:10450000A07063480078E07062480078207105214F
:104510002046FFF7D0FE60715A48807F002818D0EF
:10452000062204E0E6E218E2DDE25BE21CE221465C
:10453000544802F010FF054600BF0295029D002D71
:1045400006D000BF47A2FF2175310298FFF794FE05
:1045500000BFCEE2CCE267E2C6E2C6E2C6E20121DB
:104560004A4800F088FEB07801282BD14A480078EC
:104570000821084348490870012044494870AA208E
:104580002070082060700120A070E0700421204697
:10459000FFF791FE20713B48807F002812D0052252
:1045A0002146384802F0D7FE054600BF0295029D1D
:1045B000002D06D000BF2BA2FF218D310298FFF7FE
:1045C0005BFE00BFB078002835D133480078082161
:1045D00088433149087000202C494870AA20207077
:1045E000082060700120A0700020E07004212046A7
:1045F000FFF761FE20712348807F00281BD0052231
:104600002146204802F0A7FE054600BF0295029D04
:10461000002D06D000BF13A2FF21A1310298FFF7A1
:104620002BFE07E070E138E124E1D3E0B2E07CE06A
:1046300053E005E000BF0121144800F003FE58E2FA
:10464000AA202070082060700120A0701248007815
:1046500008210840082821D10120E07020E0000056
:10466000942100202E2E5C6D61696E2E6300000087
:10467000EFBEADDEF821002046656564657200007E
:1046800014CE0100142700200B20002074210020EC
:104690006020002061200020062000200020E07023
:1046A00004212046FFF707FE2071FE48807F002886
:1046B00012D005222146FB4802F04DFE054600BF00
:1046C0000295029D002D06D000BFF74AFF21B731A9
:1046D0000298FFF7D1FD00BF0BE2F4480290AA2038
:1046E0002070132060700120A07002980078E070A4
:1046F00004212046FFF7DFFD2071EA48807F002873
:1047000012D005222146E74802F025FE054600BFEB
:104710000195019D002D06D000BFE34AFF21CA315B
:104720000198FFF7A9FD00BFE3E1E14800784021CF
:104730000840402816D1AA20207015206070012062
:10474000A070E07004212046FFF7B5FD2071D54828
:10475000807F00281DD005222146D24802F0FBFDB3
:10476000054616E0AA202070152060700120A07078
:104770000020E07004212046FFF79DFD2071C9480C
:10478000807F002805D005222146C64802F0E3FDBF
:104790000546AEE1C7480078C007C00F02D001202F
:1047A000E07001E00020E070AA2020701620607008
:1047B0000120A07004212046FFF77DFD2071B9483B
:1047C000807F002805D005222146B64802F0C3FDAF
:1047D00005468EE10121B84800F04DFDB078002873
:1047E00020D1B448007840084000B2490870002049
:1047F000B1498870AA202070162060700120A07036
:10480000B078E07004212046FFF755FD2071A548DF
:10481000807F002829D005222146A24802F09BFD76
:10482000054622E0B07801281FD1A2480078012176
:104830000843A049087001209F498870AA20207071
:10484000162060700120A070B078E070042120462E
:10485000FFF731FD20719348807F002805D00522A5
:104860002146904802F077FD05460121924800F06C
:10487000E9FC3EE1B07891490870F0789049087001
:1048800030799049087070798F490870B0798F49F4
:104890000870F0798E4908702BE10121864800F0FC
:1048A000EAFCB078002802D18349C87002E00120F8
:1048B0008149C8700121804800F0C4FCAA20207002
:1048C000172060700120A0707B48C078E070042140
:1048D0002046FFF7F0FC20717248807F002812D03C
:1048E000052221466F4802F036FD054600BF0295BD
:1048F000029D002D06D000BF6B4A912189000298CD
:10490000FFF7BAFC00BFF4E06848C01C0290AA2080
:104910002070172060700120A07002980078E0706D
:1049200004212046FFF7C7FC20715E48807F0028E5
:1049300012D0052221465B4802F00DFD054600BF5E
:104940000195019D002D06D000BF574A9521890091
:104950000198FFF791FC00BFCBE056480078042196
:10496000084354490870C4E0B0780C2810D10021E5
:10497000514800F080FC002004E0C11C715C4E4AEC
:104980001154401C0C28F8DB00214B4800F05AFC65
:10499000AFE07520C0020290AA202070062060704F
:1049A0000C20A070002004E00299095CC21CA154F4
:1049B000401C0C28F8DB3B48807F002811D00F22D8
:1049C0002146384802F0C7FC054600BF0195019D0D
:1049D000002D05D000BF344A3E490198FFF74CFC3A
:1049E00000BF86E0FF203ADF054600BF0295029D2A
:1049F000002D06D000BF2C4A3649C91D0298FFF78A
:104A00003BFC00BF012039DF054600BF0295029D37
:104A1000002D06D000BF244AA12189000298FFF78B
:104A20002BFC00BF00F091FBAA20207007206070D3
:104A30000220A070E0700A20207105212046FFF7B7
:104A40003AFC60711748807F002812D00622214668
:104A5000144802F080FC054600BF0295029D002D1F
:104A600006D000BF104A1B491A310298FFF704FC18
:104A700000BF3EE00B48807F002802D0002009499B
:104A8000887701F0DBFE13211348008876DF74DF9E
:104A900001F03BFD002001F02FFC10480078400899
:104AA00040001DE0142700206446010020A80300F8
:104AB0000720002008200020742100200C20002066
:104AC0000D2000200E2000200F2000202C20002090
:104AD0002D2000207B020000042000200620002062
:104AE000FE49087005E004E003E002E001E000E0B8
:104AF00000BF00BF204608F005F9304608F002F973
:104B000009B0F0BD38B500200090F5480090694626
:104B1000F44802F0E0FB044600BF2546002D05D016
:104B200000BFF14AF1492846FFF7A6FB00BF38BD98
:104B30000A20EF4908800846807840084000401C61
:104B400088700846807802218843E94988700846C1
:104B500080781C2188430C30E549887008468078AD
:104B600020218843E24988700720C870102008710E
:104B7000704770B505462868002810D13B21DD48F4
:104B8000008876DF044600BF2646002E06D000BF10
:104B9000D54AD64925313046FFF76EFB00BF70BDC0
:104BA000044600BFD04AD14930312046FFF764FBAC
:104BB00030B587B01C21684607F042FA002000900B
:104BC0000520400401908010029003216846017383
:104BD0000021C1810174C8480590C8480690684604
:104BE00002F03DFF044600BF2546002D06D000BF61
:104BF000BD4AE32189002846FFF73EFB00BF07B00E
:104C000030BDF8B505462888142852D006DC102897
:104C10000BD011280DD0132876D11EE0172842D0D2
:104C2000192873D05228F7D12AE0A888B149088002
:104C300081E00020C043AF490880AA48807F002857
:104C400002D00020A7498877A4480078C007C00F89
:104C500002D0002002F0F0F86DE0A54A0021A5483E
:104C600000887FDF044600BF2746002F06D000BF24
:104C70009D4A9E4976313846FFF7FEFA00BF5AE05A
:104C8000002211469B480088A9DF044600BF274642
:104C9000002F06D000BF944A0F2189013846FFF744
:104CA000EBFA00BF47E03222A91D954807F0AFF9A3
:104CB00041E0934EB61D3188E889814211D100222E
:104CC00031468C48008881DF044600BF2746002F0C
:104CD00006D000BF844AF32189003846FFF7CCFA9A
:104CE00011E0002211468348008881DF044600BF9E
:104CF0002746002F06D000BF7B4A7C498D313846BD
:104D0000FFF7BAFA00BF16E014E0FFE7A879002821
:104D10000FD17C480078012108437A490870714816
:104D2000807F002802D000206E498877012002F0A1
:104D300083F800E000BF00BFF8BD10B50446204670
:104D400002F061FF2146674802F0A2FA2046FFF711
:104D500058FF10BD10B50446204604F0DFFE10BD1C
:104D600070B500BF0023582267490E2003F005F8F4
:104D7000054600BF2E46002E06D000BF5A4A8121AC
:104D8000C9003046FFF778FA00BF00BF5F4803F064
:104D900029F8044600BF2546002D06D000BF524A20
:104DA0005249C7312846FFF767FA00BF584803F059
:104DB00022F8044600BF2546002D06D000BF4A4A0F
:104DC0004A49CA312846FFF757FA00BF70BD70B58F
:104DD0003DDF044600BF2546002D06D000BF424AF5
:104DE0008321C9002846FFF747FA00BF70BD08B508
:104DF00000201223132211210090142003F08EF8BA
:104E00000420444948600321022000F067F9022091
:104E100001218140404A116000BF08BD70B503F018
:104E200037F83E493E4A127888543D480078401C85
:104E30003B49087008460078401E3849085C0A283B
:104E400003D0374800781C2818DB35480278521CFC
:104E50003249244802F07FFA0446082C0BD000BFE8
:104E60002546002D06D000BF1F4A2049FC312846A8
:104E7000FFF702FA00BF00202949087070BD10B585
:104E8000029C10BD10B5112000F09CF9122000F01A
:104E900099F9032001468A0005231B0707242402F1
:104EA0001B1984001A5100BF10BD00200B49087067
:104EB00014490870FFF714FA01F0EAFC152000F01D
:104EC0008AF901F08BFD0120C00301F09BFDFFF783
:104ED000D5F903F021FE03F0B8FD23E00620002001
:104EE000F14301001427002064460100450300003F
:104EF0001620002004200020734B0100A14B01006C
:104F000068260020072000209C2600203B4D010041
:104F1000554D01000023004000E100E0F426002090
:104F20001520002001F0EEFE04F00BF9044600BF4E
:104F30002546002D05D000BFAC4AAD492846FFF7F5
:104F40009BF900BF01F0B9F901F067FB01F03AFCF1
:104F5000FFF706FFFFF7DBF9FFF7D4FDFFF714FAC1
:104F6000FFF726FEFFF7E4FDFFF78CFF2020A149A5
:104F700088800120C880A048086001219F4800F077
:104F80007AF901219D4800F05DF99C4800789C4920
:104F9000087003209B490969C140C907C90F00294E
:104FA00040D101F089F80120C00301F09BF83220C4
:104FB00003F048FE00F082FB0120C00300F094FBE8
:104FC0000320C00301F09CFF2BE08F4800882128BC
:104FD00007DB8D4800883C2803DC112000F0FBF83B
:104FE00002E0112000F0FCF888480088002807DB68
:104FF00086480088142803DC122000F0ECF802E058
:10500000122000F0EDF8162000F0E5F8FF20F53052
:1050100003F018FE162000F0E3F8FF20F53003F04F
:1050200011FED2E759E075484078012806D178484A
:105030000078082108437649087005E07448007834
:1050400008218843724908706C488078002806D18E
:1050500070480078400840006E49087009E06748D1
:105060008078012805D16B480078012108436949FF
:1050700008706248C078002806D166480078082188
:1050800088436449087005E06248007808210843B5
:1050900060490870322003F0D5FD01F00DF80120C1
:1050A000C00301F01FF8322003F0CCFD00F006FB36
:1050B0000120C00300F018FB554800780121084387
:1050C000534908700320C00301F01AFF162000F0B6
:1050D00082F800BFFFF77BFEFCE7A4E710B50028CD
:1050E00019DA4D4A03071B0F083B9B089B00D25857
:1050F0008307DC0EFF23A3409A438B071B0E840714
:10510000E40EA3401A43444B0407240F083CA408B0
:10511000A4001A5118E0414A03231B02D218830845
:105120009B00D2588307DC0EFF23A3409A438B07D2
:105130001B0E8407E40EA3401A43384B03242402B9
:105140001B198408A4001A5110BDBFF34F8F3448B7
:1051500031491C39C860BFF34F8F00BFFEE770B5FF
:10516000002B0BD101248C40264DEC602D4C2E4D94
:1051700051263601AD198600AC510AE001248C405D
:10518000204DAC60294C284D51263601AD198600C2
:10519000AC5100BF00BF00BF01248500224EAD19F5
:1051A0002C600C0203252C4315042C431D052C43B5
:1051B000354651263601AD198600AC5100BF00BFFF
:1051C00000BF70BD01210522120707231B02D21860
:1051D0008300D1507047012181400A4A9160704795
:1051E00001218140074AD1607047000064460100F8
:1051F000A6040000242000207F4E0100742100201E
:105200000B200020000500506E20002058200020B8
:1052100006200020082000201CED00E000E100E056
:105220000400FA05031F020000600040031F010094
:1052300070B504460D46164632462946204605F00E
:10524000E2F870BD70B504460D4668017521C902CB
:105250004018FE490860002320222146FC4804F043
:1052600004FE002320222146F94804F074FE0A209F
:1052700003F0E8FC70BDF8B507460C4660017521E7
:10528000C9024018F149086004F0EBFC054600BF74
:105290002E46002E06D000BFEEA268213046FEF753
:1052A000EBFF00BF00BFEA49F24804F00FFD002306
:1052B0002022E749384604F0B3FE0A2003F0C2FC7E
:1052C000F8BD10B502460B460020002100BF03E0E8
:1052D000545C60404C1CA1B29942F9DB10BDF0B5A2
:1052E00087B00746002502A8033005F057FD0221CC
:1052F00006A805F0D4FE6846008B85B268460572A4
:105300000571007ADC4908800A2000F01DFADB48AC
:1053100000788021084080283CD1D9480078C00717
:10532000C00F37D0D648007841210840412807D126
:105330006846007A462803DB6846007A642809DD5F
:10534000CF48007841210840412816D16846007AAC
:10535000A52812DB0A2000F0F2F9C82003F072FC45
:105360000A2000F0F1F9C648007820218843C4499A
:10537000087000206946C87208E0C1480078202102
:105380000843BF49087001206946C8726846C17A5F
:1053900041710FE06846007A41280BDBB84800787D
:1053A000C007C00F06D0FF20913003F04BFC0A204D
:1053B00000F0C5F96846007A412806DBB14800785C
:1053C00002210843AF49087005E0AE480078022189
:1053D0008843AC4908706846007A1E2806DDA74855
:1053E000007802218843A549087005E0A3480078A9
:1053F00002210843A1490870A0480078C007C00FE7
:1054000023D09F480078C007C00F1ED06846007A9E
:105410009D490978401A072806DC6846007A9A49AF
:105420000978401AC11D10DA9448007840084000FD
:10543000924908709548807F002802D00020934947
:10544000887774DF002001F0F7FC6846007A642852
:105450005CDB6846007AAA2858DC8D480078401C3E
:105460008B4908708B480068401E8A49086088484C
:105470000078142849DB8548807F00283ED0AA2187
:1054800068460172042141720721817282480178C5
:105490006846C17281480178684601738048017886
:1054A000684641737F480178684681737E48017879
:1054B0006846C1737D480178684601747C4801786C
:1054C000684641740A2102A8FEF7F5FE6946887411
:1054D0006E48807F002811D00B2202A96B4801F092
:1054E0003AFF044600BF2646002E06D000BF59A250
:1054F000FA213046FEF7C0FE00BF00BF002064491D
:1055000008706C4908706349086072E06048007870
:1055100005286BDB5E480078052867DB5C4800786F
:10552000142863DC63480078002808D161480078BB
:10553000401C604908703C205649086056E05548B8
:10554000006800284DDB5B480078012849D14F48AE
:10555000807F00283FD0AA21684601720421417251
:10556000072181724C4801786846C1724B48017826
:10557000684601734A480178684641734948017892
:1055800068468173484801786846C1734748017886
:105590006846017446480178684641740A2102A8A9
:1055A000FEF789FE694688743848807F002812D04B
:1055B0000B2202A9354801F0CEFE044600BF264664
:1055C000002E07D000BF23A2FF2163313046FEF733
:1055D00053FE00BF00BF0020364908702D49086007
:1055E00004E00020334908702A4908600020284957
:1055F000087068464179C172017901730079062803
:1056000003DC00206946087306E068460079A52897
:1056100002DBB42069460873AA21684601720221A0
:1056200041728172052102A8FFF74BFE694648735B
:105630001648807F002808D0062202A9134801F0EE
:105640008AFE0446002C00D000BF35E05021002027
:105650001C2000202E2E5C4E505F416E676C655CF6
:105660004E505F416E676C655F4D65617375726525
:105670002E63000024200020582000200720002056
:1056800006200020082000203120002014270020C0
:1056900052200020542000200C2000200D2000204B
:1056A0000E2000200F2000202C2000202D20002084
:1056B0002E2000205320002007B0F0BD70B5254AF1
:1056C0000121254803F0CEF8044600BF2546002DF1
:1056D00006D000BF214A81212846FEF7CDFD00BF3C
:1056E00000BF05F027FC70BD70B5044600222146BE
:1056F0001948006803F0FDF8054600BF2E46002E4D
:1057000007D000BF154AFF21DB313046FEF7B4FD5C
:1057100000BF00BF70BD70B50F48006803F01AF9F4
:10572000044600BF2546002D07D000BF0B4AFF21CD
:10573000E2312846FEF7A0FD00BF00BF70BD012189
:105740008140074A9160704701218140044AD1603D
:1057500070470000DF5201005C2000205456010019
:105760000005005010B5162001210522120707235D
:105770001B02D2188300D15000BF00F0DEFC10BD28
:1057800000B5F8480078401CF649087008460078D3
:105790003C2873D100200870F3480078401CF2497F
:1057A0000870084600783C28F3D100200870EF48C4
:1057B0000078401CED490870084600781828E8D1A8
:1057C00000200870EA480078401CE9490870E94860
:1057D0000078030007F0ECF80DBD0815384553605C
:1057E0006D7A8794A1AEBD00E14800781F2807D1EB
:1057F0000120DF490870DF480078401CDD4908704F
:10580000A8E0DD490878C117890F091889108900B7
:10581000411A0CD0D64800781D2814D10120D44953
:105820000870D4480078401CD24908700BE0D0487A
:1058300000781C2807D10120CD490870CD48007898
:10584000401CCC49087085E0C94800781F2807D162
:105850000120C7490870C7480078401CC549087036
:1058600078E0C34800781E2807D10120C04908709D
:10587000C0480078401CBF4908706BE06BE0BC4832
:1058800000781F2807D10120B9490870B94800786D
:10589000401CB84908705DE0B54800781E2807D163
:1058A0000120B3490870B3480078401CB149087022
:1058B00050E0AF4800781F2807D10120AC4908709C
:1058C000AC480078401CAB49087043E0A848007819
:1058D0001F2807D10120A6490870A6480078401C5F
:1058E000A449087036E0A24800781E2807D101209C
:1058F0009F4908709F480078401C9E49087029E025
:105900009B4800781F2807D10120994908709948C1
:105910000078401C974908701CE0954800781E28C4
:1059200007D101209249087092480078401C9149A3
:1059300008700FE08E4800781F2809D101208C499B
:1059400008708C4908708C480078401C8A4908709F
:1059500000E000BF00BF00BDF0B589B00026002008
:105960000490FFF70DFF002108A805F033F8089E0A
:10597000012108A805F02EF8089804907F480078C7
:1059800040210840402854D17D4800787D4909884D
:10599000401A022824DA3046049906F0B4FB7A490A
:1059A00003907A48006806F0F3FB0290039906F032
:1059B000B2FB0746314606F0AAFB08907F21C905D5
:1059C0007248006806F09FFB7049086000216F482C
:1059D000006806F055FE50D200206C4908604CE08B
:1059E0003046049906F08FFB0390684801686648CA
:1059F00006F089FB6449019006F0CAFB0290039906
:105A000006F089FB0746049906F02CFB08907F21DD
:105A1000C9055E48006806F025FB5C4908605A49E4
:105A20005A48006806F036FE27D2574857490860A2
:105A300023E03046049906F066FB5349039053482F
:105A4000006806F0A5FB0290039906F064FB074688
:105A5000314606F05CFB08907F21C9054B48006881
:105A600006F051FB4949086000214848006806F0EB
:105A700007FE02D2002045490860089806F097FD0D
:105A800085B20A21284606F0AEFA3E49088000F0A9
:105A90003CFD3F480078C007C00F7FD03D480078EC
:105AA000032802D0042808D103E0062000F024FCDB
:105AB00004E0072000F020FC00E000BF00BF3148F8
:105AC0000088252811DA34480078C007C00F0CD0B0
:105AD000062000F032FB294800788021084327493E
:105AE000087001202B49087043E1264800882528CA
:105AF00015DB24480088292811DC27480078C007D6
:105B0000C00F0CD0072000F018FB1C480078802143
:105B100008431A49087002201E49087029E11948F3
:105B200000882928E0DD1C480078C007C00FDBD0C2
:105B30000120184908701648007802210840022800
:105B40002DD1062000F0F9FA082000F0F6FAFF2027
:105B5000913003F077F8062000F0F4FA082000F006
:105B6000F1FA06E12E2000202D2000202C2000201C
:105B70000F2000200E2000200D20002007200020F4
:105B80000B2000206E20002000001644682000201A
:105B900008200020622000200620002009E00620C6
:105BA00000F0CBFAFE48007880218843FC49087059
:105BB000DFE0FC480078012802D0022808D103E089
:105BC000042000F099FB04E0052000F095FB00E0C4
:105BD00000BF00BFF448008829283CDCF04800786A
:105BE00080210843EE490870F0480078801EEE4995
:105BF0000988884208DDEE480078C007C00F03D04E
:105C0000082000F09AFA7EE0E8480078801EE64915
:105C1000098888420FDCE4480188E4480078C01C09
:105C2000814208DCE2480078C007C00F03D0092099
:105C300000F083FA67E0DC480188DC480078C01C8B
:105C4000814260DDDA480078C007C00F5BD00820D1
:105C500000F073FA57E0D248007880218843D04999
:105C60000870D448007802210840022815D1D04895
:105C70000078C007C00F10D0062000F05EFA0820A0
:105C800000F05BFAFF20913002F0DCFF062000F00C
:105C900059FA082000F056FA35E0C4480078801E12
:105CA000C1490988884208DDC1480078C007C00F93
:105CB00003D0082000F041FA25E0BC480078801E9F
:105CC000B949098888420FDCB7480188B74800788D
:105CD000C01C814208DCB6480078C007C00F03D062
:105CE000092000F02AFA0EE0AF480188AF4800789A
:105CF000C01C814207DDAE480078C007C00F02D04B
:105D0000082000F01AFAA9480078801EA6490988E0
:105D1000884208DDA6480078C007C00F03D00320E2
:105D2000A049087025E0A1480078801E9E49098896
:105D300088420FDC9C4801889C480078C01C814246
:105D400008DC9B480078C007C00F03D004209549A9
:105D500008700EE09448018894480078C01C814285
:105D600007DD93480078C007C00F02D003208D499B
:105D7000087090480078C007C00F78D08A48008823
:105D800027282DDC162000F0DDF900220121022059
:105D900004F095FD052002F055FF04F0A1FD8649B1
:105DA0000880162000F0C9F9052002F04BFF04F02E
:105DB00097FD814948807A48007840210843784916
:105DC00008707D4800887C494988401A022803DD14
:105DD00001206946C87513E000206946C8750FE0C8
:105DE0007148008828280BDB162000F0ABF96C48BE
:105DF0000078402188436A49087000206946C875C8
:105E0000AA2168460175152141750121817504217A
:105E100005A8FEF750FA694608766848807F002892
:105E200016D0052205A9654801F095FA0446002C14
:105E3000F6D0634884420CD100BF2746002F07D01C
:105E400000BF60A2FF21CA313846FEF715FA00BF35
:105E50008EE000BF2746002F07D000BF59A2FF21C8
:105E6000CF313846FEF708FA00BF81E0FFE751481E
:105E70000078C007C00F7BD14B4800884B49097898
:105E800088422DDC162000F05DF90022012102205D
:105E900004F015FD052002F0D5FE04F021FD464971
:105EA0000880162000F049F9052002F0CBFE04F02E
:105EB00017FD414948803A48007840210843384955
:105EC00008703D4800883C494988401A032803DD92
:105ED00001206946C87516E000206946C87512E0C1
:105EE0003148018831480078801C81420BDB162044
:105EF00000F028F92A480078402188432849087092
:105F000000206946C875AA216846017515214175AA
:105F100001218175042105A8FEF7CDF969460876AF
:105F20002648807F002823D0052205A9234801F0B8
:105F300012FA0446002C1BD0214884420BD100BF2A
:105F40002746002F06D000BF1EA225493846FEF77F
:105F500093F900BF0CE000BF2746002F07D000BF19
:105F600018A21F49491D3846FEF786F900BF00BF39
:105F70000D480088252853DB00F060FC0C480078B1
:105F80004021084252D10A48007808430849087065
:105F9000AA2168460175052141750121817521E01D
:105FA00007200020622000206E2000200B2000200F
:105FB0000620002008200020642000201427002054
:105FC000033000002E2E5C53545343315C4E505F1F
:105FD00054656D5F4D6561737572652E63000000D9
:105FE000090200000021C175042105A8FEF763F92C
:105FF000694608765648807F002817D0052205A9F3
:10600000534801F0A8F9044600BF2746002F06D0E8
:1060100000BF504A50493846FEF72EF900BF05E050
:106020004E480078402188434C4908704C4800781D
:10603000401C4B4908700846007801283ADB0020D4
:106040000870AA21684601750121417502218175F8
:106050002912C1750576052105A8FEF72CF96946B8
:1060600048763B48807F002824D0062205A938487E
:1060700001F071F90446002C1CD03A4884420CD13E
:1060800000BF2746002F07D000BF324A32491E31D9
:106090003846FEF7F1F800BF0CE000BF2746002F9E
:1060A00007D000BF2B4A2C4923313846FEF7E4F8CD
:1060B00000BF00BF09B0F0BD70B52B4A01212B48CD
:1060C00002F0D0FB044600BF2546002D06D000BFDD
:1060D000204A3D212846FEF7CFF800BF00BFFFF75A
:1060E00041FB70BD70B50446002221461F48006880
:1060F00002F0FFFB054600BF2E46002E07D000BF72
:10610000144A952189003046FEF7B6F800BF00BF5B
:1061100070BD70B51548006802F01CFC044600BF55
:106120002546002D07D000BF0A4A0B4934312846C6
:10613000FEF7A2F800BF00BF70BD012181400C4AEC
:106140009160704701218140094AD1607047000089
:1061500014270020C45F0100270200000620002051
:106160006C200020033000005959010070200020ED
:106170000005005070B50646F6480068030006F0BA
:1061800017FC0805061756959697989900BFF24890
:10619000006802F0DFFB062000F0D7F9072000F0CE
:1061A000D4F9082000F0D1F9092000F0CEF982E0FE
:1061B000EA480078002809D00020E8490870062045
:1061C00000F0C3F9082000F0C0F908E00120E3491D
:1061D0000870062000F0B4F9082000F0B1F9E0489A
:1061E0000088002818D0DE480088401EDC4908805E
:1061F000002201218903D848006802F07AFB044696
:1062000000BF2546002D06D000BFD6A2BD212846DE
:10621000FEF732F800BF09E0CF48006802F09AFBB1
:10622000062000F092F9082000F08FF943E0CB48F7
:106230000078002809D00020C8490870072000F025
:1062400084F9092000F081F908E00120C3490870B1
:10625000072000F075F9092000F072F9C0480088A5
:10626000002818D0BE480088401EBD490880002282
:1062700001218903B848006802F03BFB044600BFD7
:106280002546002D06D000BFB6A2D9212846FDF72D
:10629000F3FF00BF09E0B048006802F05BFB072095
:1062A00000F053F9092000F050F904E003E002E0A7
:1062B00001E000E000BF00BF70BD10B5062000F097
:1062C00036F9072000F033F9082000F030F90920F2
:1062D00000F02DF9062000F038F9072000F035F91C
:1062E000082000F032F9092000F02FF9A24A00211D
:1062F000994802F0B7FA10BD70B505469648006897
:1063000002F065FB002803D19348006802F022FBED
:1063100000BF2B0006F04CFB080526476685A1BD93
:10632000D9F6072000F011F9092000F00EF9062037
:1063300000F006F9082000F003F900220321C90348
:106340008548006802F0D5FA044600BF2646002EB4
:1063500006D000BF83A244213046FDF78DFF00BF69
:1063600000BFD0E0072000F0EBF8092000F0E8F8CB
:10637000062000F0EAF8082000F0E7F800220321E8
:10638000C9037548006802F0B4FA044600BF264607
:10639000002E06D000BF73A24D213046FDF76CFFE2
:1063A00000BF00BFAFE0062000F0CFF8082000F0EB
:1063B000CCF84B20C0006A490880002201218903E3
:1063C0006548006802F095FA044600BF2646002E94
:1063D00006D000BF63A255213046FDF74DFF00BF38
:1063E00000BF90E0072000F0B0F8092000F0ADF801
:1063F0004B20C0005A4908800022012189035648D9
:10640000006802F076FA044600BF2646002E06D049
:1064100000BF54A25D213046FDF72EFF00BF00BF34
:1064200071E0062000F091F8FA2002F00BFC062043
:1064300000F086F8FA2002F005FC062000F085F84E
:10644000FA2002F0FFFB062000F07AF8FA2002F0B2
:10645000F9FB062000F079F855E0072000F075F808
:10646000FA2002F0EFFB072000F06AF8FA2002F0B1
:10647000E9FB072000F069F8FA2002F0E3FB0720AF
:1064800000F05EF8FA2002F0DDFB072000F05DF876
:1064900039E0082000F059F8FA2002F0D3FB082078
:1064A00000F04EF8FA2002F0CDFB082000F04DF885
:1064B000FA2002F0C7FB082000F042F8FA2002F0B0
:1064C000C1FB082000F041F81DE0092000F03DF874
:1064D000FA2002F0B7FB092000F032F8FA2002F0AF
:1064E000B1FB092000F031F8FA2002F0ABFB0920E3
:1064F00000F026F8FA2002F0A5FB092000F025F8AC
:1065000001E0FFE700BF00BF70BD10B51248006892
:1065100002F020FA062000F018F8072000F015F825
:10652000082000F012F8092000F00FF810BD01213A
:106530000522120707231B02D2188300D15070478F
:10654000012181400D4A91607047012181400B4A31
:10655000D16070477C200020782000207620002029
:10656000742000202E2E5C4E505F4C45445C4E50F3
:106570005F4C65642E6300007561010000050050EA
:1065800070B506465B480068002802D0012841D15A
:1065900007E05948006802F0DDF90A2000F0A4F88D
:1065A00039E056480078002819D000205349087077
:1065B0000A2000F094F80022012189034E48006867
:1065C00002F097F9044600BF2546002D06D000BF13
:1065D0004BA252212846FDF74FFE00BF19E00120D3
:1065E000464908700A2000F07FF800220121890343
:1065F0004148006802F07DF9044600BF2546002DA1
:1066000006D000BF3EA259212846FDF735FE00BF47
:1066100000BF00E000BF00BF70BD10B50A2001211F
:10662000C20607231B02D2188300D15000BF00F01E
:106630005BF8394A0021304802F014F910BD70B5FA
:1066400005462D48006802F0C2F9002803D12A4807
:10665000006802F07FF9274805600068002802D032
:10666000012830D117E00A2000F039F8002201217A
:1066700089032148006802F03CF9044600BF264621
:10668000002E06D000BF1EA22F213046FDF7F4FDDC
:1066900000BF00BF18E00A2000F021F8002201210D
:1066A00089031548006802F024F9044600BF264615
:1066B000002E06D000BF12A235213046FDF7DCFDCA
:1066C00000BF00BF00E000BF00BF70BD10B50A48AA
:1066D000006802F03FF90A2000F006F810BD012121
:1066E00081400E4A91607047012181400B4AD16080
:1066F0007047000088200020842000208020002097
:106700002E2E5C4E505F4D6F746F725C4E505F4D1D
:106710006F746F722E6300008165010000050050E8
:10672000FEB507464C480088002819D04A48008822
:10673000401E4949088000220121C90347480068DA
:1067400002F0D7F8054600BF2E46002E06D000BF47
:1067500043A240213046FDF78FFD00BF00BF30E06F
:106760003E48006802F0F6F80F2000F070F8444947
:10677000002008560421884341490870AA21684630
:10678000017005214170012181700021C170042137
:10679000FDF791FD694608713A48807F002810D0C6
:1067A0000522384800F0D7FD044600BF2546002DDD
:1067B00006D000BF2AA24F212846FDF75DFD00BF8D
:1067C00000BFFEBD10B50F200121052212070723CF
:1067D0001B02D2188300D15000BF00F038F82A4ABB
:1067E00000211E4802F03EF810BD70B505461B485A
:1067F000006802F0ECF8002803D11848006802F0A5
:10680000A9F80F2001218140204A916000BF124861
:10681000058000220121C9031048006802F069F8D0
:10682000044600BF2646002E06D000BF0CA22F2132
:106830003046FDF721FD00BF00BF70BD10B5074811
:10684000006802F087F80F2000F001F810BD012168
:1068500081400E4AD1607047902000208C2000209B
:106860002E2E5C4E505F56696F6C65745261795C78
:106870004E505F56696F6C65745261792E630000EB
:106880000620002014270020216701000005005089
:1068900010B515200121020707231B02D21883001F
:1068A000D15000BF00F034F910BD7047FEB5002292
:1068B0000121022004F003F804F012F8054697487D
:1068C00085421CDB8120C000854218DC944800789A
:1068D000202108420CD10A2000F01AF9C82002F049
:1068E000B1F90A20012181408E4AD16000BF00BF6A
:1068F0008B480078202108438949087005E08848C2
:106900000078202188438649087087480078401C19
:1069100085490870084600783C2805D083480078EF
:1069200004210840042847D100207F4908707F488F
:106930000078042188437D49087000221146022016
:1069400003F0BDFF03F0CCFF0546284600F083F8B6
:106950000646AA2168460170032141700121817019
:10696000C6700421FDF7A7FC694608717048807F56
:10697000002821D005226E4800F0EDFC0446002CD2
:106980001AD06C4884420BD100BF2746002F06D096
:1069900000BF69A2AD213846FDF76EFC00BF0BE0D9
:1069A00000BF2746002F06D000BF63A2B2213846A1
:1069B000FDF762FC00BF00BFFEBD10B50446654890
:1069C0000078012804D1002062490870FFF76EFFAB
:1069D00060480078401C5F49087010BD70B55E4A81
:1069E00001215E4801F03EFF044600BF2546002D10
:1069F00006D000BF50A244212846FDF73DFC00BF51
:106A000000BF70BD70B5044600222146534800689F
:106A100001F06FFF054600BF2E46002E06D000BFD6
:106A200045A24B213046FDF727FC00BF00BF70BDDB
:106A300070B54A48006801F08DFF044600BF254646
:106A4000002D06D000BF3CA252212846FDF714FCC1
:106A500000BF00BF70BD0146304A2332914201DDC4
:106A6000642054E02D4A2332914205DC2B4A143233
:106A7000914201DD5A204AE0284A1432914205DC55
:106A8000264A521D914201DD502040E0234A521D0A
:106A9000914205DC0522D201914201DD462036E01B
:106AA0000522D201914205DC1C4A193A914201DDCE
:106AB0003C202CE0194A193A914205DC174A283A41
:106AC000914201DD322022E0144A283A914205DC4D
:106AD000124A373A914201DD282018E00F4A373A2E
:106AE000914205DC91229200914201DD1E200EE0D0
:106AF00091229200914205DC87229200914201DDB1
:106B0000142004E087229200914200DC0A207047A2
:106B100001218140034A9160704700008A02000011
:106B200007200020000500509620002008200020AB
:106B300014270020033000002E2E5C4E505F42616F
:106B400074746572795C4E505F42617474657279D9
:106B50002E63000095200020BB69010098200020D2
:106B60007047FEB5064602A90C2002F00BFB044656
:106B700000BF2546002D06D000BF9AA28B212846D3
:106B8000FDF77AFB00BF00BF6846007A012840D1BC
:106B90001320012181409C4A916000BF9B480078EE
:106BA000401C9A4908700846007832281EDD0020F3
:106BB000087097480078C007C00F0CD1944800783F
:106BC0000121084392490870501300F099F9B4204C
:106BD000FFF70BFE95E08E480078400840008C4996
:106BE00008700520C00300F0ACF98AE00022894952
:106BF0008948006801F07DFE044600BF2546002D4F
:106C000006D000BF77A2AE212846FDF735FB00BFB6
:106C100077E07E480078012870DB7C4800781428F3
:106C20006CDC7B480078C007C00F67D00020774934
:106C3000087001217948FEF71EFB79480078C007EB
:106C4000C00F2AD10120754988707548007801214C
:106C5000084373490870AA216846017016214170E3
:106C600001218170C1700421FDF725FB694608717F
:106C70006C48807F00283DD005226A4800F06BFBFD
:106C8000044600BF2546002D06D000BF55A2EE21C8
:106C90002846FDF7F1FA00BF2CE000205F4988701C
:106CA0005F480078400840005D490870AA216846A6
:106CB000017016214170012181700021C1700421F1
:106CC000FDF7F9FA694608715648807F002811D00F
:106CD0000522544800F03FFB044600BF2546002D26
:106CE00007D000BF3FA2FF2102312846FDF7C4FABA
:106CF00000BF00BF01214948FEF7A4FA0020434924
:106D00000870FEBD70B5132000F062F8142000F08A
:106D10005FF800BF002321220121434802F0CEF991
:106D2000054600BF2E46002E06D000BF2DA23B21F7
:106D30003046FDF7A1FA00BF00BF00BF3B4A00216B
:106D4000354801F08FFD044600BF2546002D06D0D2
:106D500000BF24A23F212846FDF78EFA00BF00BFE6
:106D6000334A0021334801F07DFD044600BF25462B
:106D7000002D06D000BF1BA244212846FDF77CFA57
:106D800000BF00BF70BDF8B505460E46002E17D1F6
:106D90000C2D13D100221F491F48006801F0A9FDE6
:106DA000044600BF2746002F06D000BF0DA25F217A
:106DB0003846FDF761FA00BF00BF00E000BF06E003
:106DC000012E04D10C2D00D100E000BF00BFF8BDA2
:106DD00001210522120707231B02D2188300D1507C
:106DE000704700002E2E5C4E505F496E70757445E2
:106DF00076656E745C4E505F496E7075744576654D
:106E00006E742E630000000000050050A9200020D1
:106E1000062000201F050000AC2000207421002067
:106E200008200020142700209C200020636B010014
:106E3000616B0100B020002070B586B005461421BA
:106E400001A805F0FDF800216846017100200290BC
:106E500068460173002D02D0012D0ED105E04021BE
:106E600068468182B421C18208E07D21890168469B
:106E70008182E1210901C18200E000BF00BF01A8B9
:106E800073DF044600BF2646002E06D000BF4EA288
:106E900049213046FDF7F0F900BF00BF06B070BDD4
:106EA00010B50446FFF735F9FEF735FCFFF7C6FCD1
:106EB00010BD704770B54D4A00214D4801F0D2FC1D
:106EC000044600BF2546002D06D000BF3EA2592132
:106ED0002846FDF7D1F900BF00BF464A00214648C9
:106EE00001F0C0FC044600BF2546002D06D000BFBF
:106EF00035A25E212846FDF7BFF900BF00BF70BD77
:106F000010B504460020FFF797FF0120FFF7F4F9C2
:106F10000A2000F04EF8FA2001F094FE0A2000F05A
:106F20004DF8FA2001F08EFE0A2000F042F8FA2017
:106F300001F088FE0A2000F041F8304801F082FE9E
:106F400010BD70B50446002221462B48006801F0B0
:106F5000D0FC054600BF2E46002E06D000BF1AA268
:106F60007B213046FDF788F900BF00BF2448807FB1
:106F7000002802D000202249887713212148008868
:106F800076DF74DFFFF7C1FA0020FFF7B5F90F20B5
:106F900000F014F80A2000F00CF8FF20F53001F0A2
:106FA00051FE0A2000F00AF81448FA3001F04AFEB7
:106FB00070BD01218140144A9160704701218140D8
:106FC000114AD160704700002E2E5C4E505F506F0A
:106FD0007765724D616E6167655C4E505F506F778B
:106FE00065724D616E6167652E630000B36E0100CE
:106FF000BC200020A16E0100B8200020E2040000A7
:1070000014270020CC200020000500508A888283AD
:1070100070470022D2438283704770B504460E4603
:10702000B51D2988208A814213D1288B022810D1CE
:1070300000BF00BFA97EEA7E120211430846C107C5
:10704000C90F002902D00120A0770FE00020A0770F
:107050000CE02888A188884208D1206A002805D041
:107060002A8B29461A312046236A984770BD30B5CD
:107070008FB004460D460020079000BF6846007F91
:1070800001090901491C68460177007FF021884306
:1070900010306946087700BF00BF6846407F01098D
:1070A0000901491C68464177407FF0218843103030
:1070B0006946487700BF6846807F06218843811C67
:1070C000684681771C2108A804F0BAFF08A8007858
:1070D00010218843411808A80170002009900B90E6
:1070E0000C9007A80D9000200E90217868468171C1
:1070F000062181800020009000BF684600780109C9
:107100000901491C684601700078F021884310305D
:107110006946087000BF00BF684640780109090150
:10712000491C684641704078F02188431030694618
:10713000487000BF6846807806218843811C6846F5
:107140008170807808218843014668468170807884
:1071500010218843014668468170807841084900C3
:10716000491C68468170142102A804F069FF01A837
:1071700002906846039001210182002141821D2175
:107180008182608823460C3302AA08A9A2DF0FB0CF
:1071900030BD0246704730B58FB004460D4683A01F
:1071A000006800901C2108A804F04AFF6846099076
:1071B00004F051FF81B26846418504F04CFF81B272
:1071C0006846018508A8007808218843411808A866
:1071D0000170007804218843011D08A80170002077
:1071E0000B900C900D900E902178684681720521CD
:1071F00001810020019000BF684600790109090162
:10720000491C684601710079F021884310306946B5
:10721000087100BF00BF6846407901090901491C97
:10722000684641714079F0218843103069464871C1
:1072300000BF6846807906218843811C68468171B9
:107240008079082188430146684681718079102140
:107250008843014668468171807941084900491C8C
:1072600068468171142103A804F0EAFE02A8039085
:1072700001A804900121684681820021C182202159
:1072800001836088231D03AA08A9A2DF0FB030BDC7
:1072900070B505460C46002D01D0002C00D170BD04
:1072A0002088102804D0112807D050280FD109E0D9
:1072B00021462846FFF7AAFE0AE021462846FFF7A6
:1072C000A8FE05E021462846FFF7A7FE00E000BF24
:1072D00000BF00BFE3E770B586B004460E46344BEE
:1072E0000FCB01AD0FC5002C01D0002E02D10E2016
:1072F00006B070BD0020C043A0833068206200202B
:10730000A077214601A862DF0546002D01D028465E
:10731000EEE721786846817504218182A21C05A9C7
:107320000120A0DF0546002D01D02846E0E73146C8
:107330002046FFF79CFE0546002D01D02846D7E7E2
:1073400031462046FFF727FF0546002D01D028468D
:10735000CEE70020CCE737B584B004460D46002CBC
:1073600002D10E2007B030BDA08B1249884202D056
:10737000A07F002801D10820F4E76846008B1D2873
:1073800001DD0720EEE700200090019002900390BD
:10739000A18968460180039506A8029001216846EC
:1073A0008170A08B6946A6DFDCE7000054780000FE
:1073B00018CE0100FFFF0000F7B584B004460F4669
:1073C00006980678B01C1F2803DC2079801C1F2833
:1073D00002DD0C2007B0F0BD1F20801B801E85B28F
:1073E0000295B11C781802A97DDF0390039800284C
:1073F00001D00398EEE72068022808D1684600898A
:10740000A84204DC09200190684605890BE00820A9
:1074100001902079002804D02079A84201DC257948
:1074200001E068460589681CC2B23046711CCEB2C4
:107430003A543046721CD6B20199395406980178F4
:10744000A81C0818C1B2069801700020C2E7F8B560
:1074500005460C462078001D1F2801DD0C20F8BDD4
:10746000684679DF0646002E01D03046F7E7032153
:107470002278501C2070A95419212278501C2070A9
:10748000A954207841196846008800F08AFA2178CA
:10749000401820700020E2E7F8B505460F46164672
:1074A0001C466868002801D10720F8BD2078801CA0
:1074B000298840181F2801DD0C20F6E72878401C99
:1074C000C1B22278501C2070B1542178481C207021
:1074D00077542A8823789819696804F098FD2078F1
:1074E0002978401820700020DFE730B50346107877
:1074F000C01C1F2801DD0C2030BD02241578681C3B
:1075000010704C550A241578681C10704C5515786D
:10751000681C10704B550020EEE7FFB587B006469B
:107520001D46109C0020069020780590002747E01B
:10753000B900706841180A8868460281498841810B
:10754000002203A902A864DF04900498002802D056
:1075500004980BB0F0BD6846017B099881422ED19A
:107560000698002801D0002000E002200190207839
:107570006946097B4118019808181F2801DD0C2075
:10758000E7E70698002809D12078401C207022786F
:10759000511C08982170A8540120069020784219A7
:1075A00003A902A864DF04900498002801D004987D
:1075B000CFE720786946097B4018207000BF7F1C08
:1075C0003088B842B4DC0698002806D021780598A7
:1075D000401C081AC1B2059829540020B9E7FFB52C
:1075E00081B0074615460A9E009602223846049B43
:1075F0000299FFF792FF0446002C02D0204605B006
:10760000F0BD0096102229463846049BFFF785FFFF
:107610000446002C01D02046F1E70020EFE70146A8
:107620000888062808DB08881922D201904205DD67
:107630000888E04A904201D0072070474888062811
:1076400008DB48881922D201904205DD4888D94AD2
:10765000904201D00720F0E70888D64A904208D02F
:107660004888904205D008884A88904201DD07206A
:10767000E3E70020E1E7F8B506460D46144620781A
:10768000801D1F2801D90C20F8BD3046FFF7C7FF29
:107690000746002F01D03846F6E705212278501C16
:1076A0002070A95412212278501C2070A9542278ED
:1076B0005119308800F075F921784018207022782F
:1076C0005119708800F06DF9217840182070002061
:1076D000DAE7F8B505460E4614462879801CC7B28D
:1076E0002078801CC0191F2801DD0C20F8BD781CF3
:1076F000C1B22278501C2070B154FF212278501C56
:107700002070B15422789119288800F04AF9217824
:1077100040182070A88800280EDDA868002801D134
:107720000720E3E7AA8823789819A96804F06FFC7A
:1077300020782979401820700020D7E7FEB5074649
:107740000E461446786B002801D10720FEBD0020AC
:10775000019032E0796B0C22019850430D18287982
:10776000801CC0B200900098401CC1B22278501C0E
:107770002070B15416212278501C2070B154227808
:107780009119288800F00DF9217840182070A888F8
:1077900000280EDDA868002801D10720D6E7AA88B6
:1077A00023789819A96804F032FC207829794018C8
:1077B00020700198401CC0B201903820C15D019832
:1077C0008142C7DC0020C1E7F8B504460F461646E3
:1077D0000025002030702068002809D03246394644
:1077E0002046FFF7E9FD0546002D01D02846F8BDEB
:1077F0006079002808D031463846FFF728FE054654
:10780000002D01D02846F2E7208900280BDD334601
:107810003A46012120460830FFF73EFE0546002D7E
:1078200001D02846E3E7206900280BD00020216919
:10783000085632463946FFF758FE0546002D01D05E
:107840002846D4E7A08A00280CDD3B460622022108
:10785000204614300096FFF7C2FE0546002D01D0E9
:107860002846C4E7A08B00280CDD3B4607220321F5
:1078700020461C300096FFF7B2FE0546002D01D0D1
:107880002846B4E7A08C00280CDD3B4615221421C5
:10789000204624300096FFF7A2FE0546002D01D0B9
:1078A0002846A4E7E06A002809D032463946E06A53
:1078B000FFF7E1FE0546002D01D0284697E7206B33
:1078C000002809D032463946206BFFF702FF0546F3
:1078D000002D01D028468AE73820005D002809DD08
:1078E000324639462046FFF729FF0546002D01D0D4
:1078F00028467CE728467AE701460889002807D011
:10790000C868002804D0C86800780422104201D159
:10791000072070470020FCE701460889002801DDA8
:10792000072070470020FCE7F3B593B00D46002117
:10793000129111911398002814D01398FFF7DCFFCF
:107940000446002C02D0204615B0F0BD12AA09A9A9
:107950001398FFF739FF0446002C01D02046F3E7C7
:1079600009AE00E00026002D13D02846FFF7D4FF13
:107970000446002C01D02046E6E711AA01A92846BA
:10798000FFF722FF0446002C01D02046DCE701AFC0
:1079900000E0002710A803793A46017A304672DFEA
:1079A000D2E702460A70FF20000210400012487021
:1079B00002207047FFFF000001464888B74A12883E
:1079C000904206DB4888B54A5288904201DC01208B
:1079D00070470020FCE738B50546B1480088B1493A
:1079E00088423BD0B0480078401CAF490870AF488F
:1079F000007B097888420FDBA849A948008875DF19
:107A00000446002C07D0A9488069002803D0A74865
:107A100081692046884721E00020A3490870A348D7
:107A2000007C00280FD03B219D48008876DF04466B
:107A3000002C07D09D488069002803D09B488169AD
:107A40002046884700BF99484069002806D000209A
:107A50000090964841696846884700BF38BD70B5B8
:107A600005461C222946914804F0D1FA002090498D
:107A70000870286800280BD008228848296804F07C
:107A8000C6FA86487ADF0446002C08D0204670BD2E
:107A900082487BDF0446002C01D02046F7E7002017
:107AA000C0437F49088000207F490870814A002137
:107AB000814800F0D7FEEAE710B57F48006800F083
:107AC00049FF10BD38B57D48FFF776FF002829D162
:107AD0007748007800280AD074484069002820D0F0
:107AE00000200090714841696846884719E06E4857
:107AF0000078002802D16D48456801E06B48856830
:107B0000002229466C48006800F0F3FE0446002C71
:107B100007D066488069002803D064488169204600
:107B200088470AE061484069002806D0012000909B
:107B30005E4841696846884700BF00205C4908707C
:107B400038BD10B50446A088554908800822214652
:107B50000E315A4804F05BFA00205349087053482C
:107B6000C089002801D1FFF7ADFF10BD70B50546F3
:107B70000020C0434A49088000204B4908704E4805
:107B8000006800F0E7FE0446002C07D047488069F3
:107B9000002803D0454881692046884770BD70B5EC
:107BA0000546AC1D20884149C989884220D1208BD7
:107BB00002281DD100BF00BFA17EE27E1202114348
:107BC0000846C107C90F002902D0FFF77BFF0FE06D
:107BD0003948006800F0BEFE0646002E07D0334844
:107BE0008069002803D0314881693046884700BF4A
:107BF00070BD10B504460822A11D304804F007FAF4
:107C0000FFF760FF10BD10B504462088102806D08D
:107C1000112808D012280ED0502810D107E0204695
:107C2000FFF78FFF0CE02046FFF7A0FF08E020469B
:107C3000FFF7B5FF04E02046FFF7DBFF00E000BFE1
:107C400000BF10BD38B5044608222146134804F091
:107C5000DEF912487ADF0546002D1CD11748FFF7E0
:107C6000ABFE00280BD10120114908700B490C48CC
:107C7000008875DF054601200B4908700BE00B48B2
:107C80004069002806D001200090084841696846F4
:107C9000884700BF0025284638BD0000C2200020CC
:107CA000CC200020FFFF0000CA2000205C2B002019
:107CB000C0200020D7790100D8200020CE2000204D
:107CC00070B506460C46154629462046FCF701FBD2
:107CD00070BDF8B559480078002800D1F8BD584863
:107CE0000068002801D1012000E000200546554829
:107CF0000068002801D1012000E00020064600BFF6
:107D0000002D14D168464EDF0446052C01D1012513
:107D10000CE0002C06D000BF4BA269212046FCF7E6
:107D2000ABFA03E0464900980968884700BF002E77
:107D30001AD153480088009069465248006860DFB5
:107D40000446052C01D101260DE0002C06D000BF11
:107D50003DA280212046FCF78FFA04E049480068E4
:107D600038490968884700BF002D02D0002E00D096
:107D700000E0C5E700BF00BFB0E7FFB581B00C462B
:107D800016461F46002C02D1072005B0F0BD204644
:107D90008107890F01D1012100E00021002901D1D3
:107DA0000720F2E737480460354806803648076008
:107DB0003649019810DF0546002D01D02846E4E73A
:107DC00001201E490870162023DFDEE710B511DF01
:107DD0000446002C01D0012000E000201749087063
:107DE000204610BD0146002901D10E2070471548DC
:107DF00001600020FAE70146002901D10E207047FA
:107E00000F4801600020FAE770B51F48006800289D
:107E100011D01D4800688047044600BF2546002D4C
:107E200007D000BF08A2FF2133312846FCF724FA0F
:107E300000BF00BF01E0FFF74CFF70BDDC20002059
:107E4000F0200020EC2000202E2E5C2E2E5C2E2E0A
:107E50005C2E2E5C2E2E5C2E2E5C536F757263652D
:107E60005C73645F636F6D6D6F6E5C736F6674647B
:107E700065766963655F68616E646C65722E630028
:107E8000E8200020E4200020E0200020C17C010048
:107E900000BF424880680128FBD100203F4988602C
:107EA0003F488069C0B2704770B504460D46012650
:107EB0000AE02046641E002804DB7D20C000FCF799
:107EC00009F901E0002603E0344880680128F0D178
:107ED00000BF002C05DB00203049886030488069F5
:107EE0002870304670BD2E49C86100BF2B49C96952
:107EF0000129FBD10021294AD161704730B50346E1
:107F0000002528466D1C1C5C05E02046FFF7EBFFB2
:107F100028466D1C1C5C002CF7D130BDF8B5074617
:107F20000C4615461E46204600F025F80021304636
:107F300000F02AF81A48C4604661069800280DD05F
:107F4000384600F018F80021284600F01DF81448C3
:107F500005618760012012494031C862114810490B
:107F600048620420086001200F49886008600020F2
:107F70000A498860F8BD01210522120707231B0268
:107F8000D2188300D150704710B58A0005231B0713
:107F9000072424021B1984001A5110BD002100403F
:107FA0000025004000509D000020004010B5002832
:107FB00019DAFE4A03071B0F083B9B089B00D258A7
:107FC0008307DC0EFF23A3409A438B071B0E840715
:107FD000E40EA3401A43F54B0407240F083CA40801
:107FE000A4001A5118E0F24A03231B02D218830896
:107FF0009B00D2588307DC0EFF23A3409A438B07D4
:108000001B0E8407E40EA3401A43E94B0324240209
:108010001B198408A4001A5110BD10B50446E54888
:10802000846003211120FFF7C1FF10BD10B50120AE
:108030000004E1494860E04940394860112000F0FF
:1080400098FD112000F087FD0120DC4908602F20F9
:10805000FCF750F810BD10B5112001218140D44A21
:108060008032116000BF01200004D3498860D249EA
:10807000403988600120D14948602F20FCF73AF848
:1080800010BDF0B5024628205043CD4B1B68C118E7
:10809000CC480068401C02D1CA48026057E0C94879
:1080A0008B68006828246043C54C246800198068E8
:1080B000834217D8C348006828235843C04B1B6825
:1080C000C01880688B68C31ABE48006828246043C3
:1080D000BB4C246800198360BA4800684862B948FC
:1080E000026034E08B68B74D2C6828680DE02825C5
:1080F0004543B34E3668AD19AD685B1B0446282571
:108100004543AF4E3668AD19686A451C07D028252F
:108110004543AB4E3668AD19AD689D42E7D3451C6B
:108120000CD028254543A64E3668AD19AD68EE1A29
:1081300028254543A24F3F68ED19AE608B60486229
:10814000282565439E4E3668AD196A6200BFF0BDB2
:1081500070B502469B4C2168084609E0904200D168
:1081600008E0014628244443954D2D686419606A4F
:10817000441CF3D100BF441C00D170BD814209D121
:10818000904C246828256C438D4D2D686419646AD1
:108190008C4D2C6028244443894D2D686419A368B4
:1081A00028244443864D2D686419656A28244C436D
:1081B000834E3668A419656228244C43804D2D688F
:1081C0006419606A441C0CD0282444437C4D2D68FB
:1081D0006419A468E51828244443794E3668A41924
:1081E000A56000BFC9E710B5112000F0BBFC10BDB1
:1081F00010B5142000F0B6FC10BD70B504467248EE
:108200000068002813D0704A216AE069126890471C
:10821000054600BF2E46002E07D000BF6BA2FF21EF
:108220005F313046FCF728F800BF00BF02E0E1698B
:10823000206A884770BDF8B562480068401C39D094
:10824000002700F0C8FC04466C480168204600F096
:10825000C5FC06465B48056811E02820684358497C
:1082600009684418A068B04200D90AE0A068361A2C
:10827000A068C719656A2046FFF7BFFF00BF681CEA
:10828000EBD100BF5E4800785E490978884209D189
:108290005C480078401CC0B25A490870022801D1DD
:1082A0000020087057480078800057490F50FFF7AA
:1082B0009FFF00BFF8BD014651480078514A12782F
:1082C00090421DD04E480078401C4D4A1070104618
:1082D0000078022801D10020107049480078800001
:1082E000494A10580860454A086812688018434A8D
:1082F0001060104600680002000A106001207047FC
:108300000020086000BFFAE7FEB52E480068019023
:108310003E48007800903FE00098C0003C49096862
:108320004418257834E01820684361680F18681CE9
:10833000C5B2A078A84200D100253868022802D032
:10834000032822D10EE02821786848431C49096897
:108350004618307E002804D07868FFF7F9FE002028
:10836000307613E00CE01749096828225143144A7B
:108370001268881800210176124A416A116000BF14
:1083800010480068401CEED100E000BF00BF00BFF5
:108390006078A842C7D100BF0098411EC9B20091C1
:1083A0000028B9D107480168019833E01CED00E0CE
:1083B00000E100E0001501404013014000100140C1
:1083C000F4200020082100201C2100202E2E5C2EED
:1083D0002E5C2E2E5C2E2E5C2E2E5C2E2E5C536F71
:1083E000757263655C6170705F636F6D6D6F6E5CFD
:1083F0006170705F74696D65722E63000C210020DE
:108400001821002019210020102100200221002025
:1084100004210020814201D00120FEBD0020FCE7A4
:10842000F0B50346002426E0FE4E366828277E433A
:10843000FD4F3F68F01986689E4203D98668F61A98
:1084400086601CE086689B1B86683419002686605F
:108450000676F44E3568F34F466A3E604669002E54
:1084600008D00E193602360AC660466906611668DB
:108470004662156000BFEB480068401CD4D100BFC5
:10848000F0BDFEB50746E74800680290E74800786F
:10849000019069E00198C000E549096845185CE071
:1084A000781C07D03E4628207043DF4909684418ED
:1084B000676A23E02978182359436A685018297895
:1084C000491C29702978AA78914201D1002129708C
:1084D000466828217143D44A12688C180168012922
:1084E00002D1217E002900D037E08168E160C168B7
:1084F0002161016961614169216200BFCD49E06884
:108500000968401A0002000ACB49884208D2C949CA
:10851000E068096800F062FB21694018A06011E082
:10852000C448E168006800F059FB00902169009898
:10853000814204D921690098081AA06001E0002056
:10854000A06000BF0020E060206101202076801E36
:1085500060623046FFF795FD00BF781CA0D12878F7
:10856000697888429CD100BF0198411EC9B201912F
:1085700000288FD1AB4801680298814201D00120C8
:10858000FEBD0020FCE7FEB50546A6480068401C7D
:1085900034D0A448006828214843A34909684018FA
:1085A000866800F018FB0290A248046821460298F1
:1085B00000F014FBC01C0190681C01D1FFF736FDD0
:1085C0000198B04201D2304600E00198041924021B
:1085D000240A20469949086000BF00F0FCFA009088
:1085E0000299009800F0FAFAC71C2046029900F0A0
:1085F000F5FA874201D9FFF7F6FD01E0FFF72BFD01
:10860000FEBDFEB50020C04301908A48046885483D
:1086100007686846FFF74FFE0546FFF775FE0646FA
:10862000002D05D001AA21460098FFF7F9FE01268A
:108630000198FFF726FF002800D00126002E02D067
:108640003846FFF7A0FFFEBD4170704770B5024687
:108650000B465078411C9078884200D10021107858
:10866000884201D1002070BD1960507818267043EF
:1086700055682C182046F6E7FFB581B005460E4632
:108680001746E9006A4A126888186946FFF7DEFF54
:108690000446002C02D1042005B0F0BD012020606A
:1086A000666000F098FAA060E760049820610A987C
:1086B0006061E9005E4A126888180099FFF7C4FFFC
:1086C000FFF796FD0020E7E7F8B504460E46E10007
:1086D000574A126888186946FFF7B8FF0546002D0B
:1086E00001D10420F8BD022028606E60E100504AEC
:1086F000126888180099FFF7A7FFFFF779FD00209F
:10870000F0E738B50446E100494A1268881869461E
:10871000FFF79CFF0546002D01D1042038BD032042
:108720002860001F6860E100414A126888180099BB
:10873000FFF78AFFFFF75CFD0020EFE710B5002090
:108740003F49086000213E4841608160C1600020CF
:108750003B49403908604860FFF76DFD10BD10B51A
:10876000FFF74FFF10BDFFB581B00E4617461C4600
:1087700020468107890F01D1012100E00021002955
:1087800002D1072005B0F0BD002C01D10720F9E788
:10879000FFF761FC2B490A9808602B4806702248B5
:1087A000046000250CE00021282068431E4A12685E
:1087B0001150282068431C4A1268801801766D1CED
:1087C000B542F0DB282070430419032017490870D4
:1087D00017480460183400250CE0E900144A1268B8
:1087E0008818002101704170877044601821794316
:1087F0000C196D1C032DF0DB0020C04309490860F3
:1088000000201249087012490870142000F0B1F9D4
:1088100003211420FFF7CAFB142000F09CF90198F3
:1088200018E0000008210020F42000200221002090
:10883000042100200C210020FFFF7F004015014093
:10884000401101401C21002001210020182100209E
:1088500019210020FFF7E1FB00F0BDF9E2490860B3
:1088600000208FE770B503460C46E04800680028FA
:1088700001D1082070BD002A01D10720FAE7002BA2
:1088800001D10720F6E700211CE028204843D74DFE
:108890002D682858002814D1012528204843D34E9C
:1088A0003668355028204843D04D2D684019446023
:1088B00028204843CD4D2D684019C2611960002021
:1088C000D8E7491CCA4800788142DEDB0420D1E7A2
:1088D00010B500F056F9012802D0032804D101E0B8
:1088E000002403E0012401E0022400BF00BF204671
:1088F00010BDFEB504460D461646BC48006800286B
:1089000001D10820FEBDBA480078844201D2052D6D
:1089100001D20720F6E728206043B44909680858C7
:10892000012801D00820EDE728206043AF490968FD
:1089300040184068012801D1284600E00020074681
:10894000FFF7C6FF3B462A46214600960190FFF7F7
:1089500093FED7E770B50446A4480068002801D10B
:10896000082070BDA2480078844201D30720F8E7B0
:10897000282060439D4909680858012801D0082033
:10898000EFE7FFF7A5FF05462146FFF79DFEE8E765
:1089900010B596480068002801D1082010BDFFF7E7
:1089A00097FF0446FFF7ADFEF8E710B5044600F068
:1089B00012F92060002010BD70B505460E46144621
:1089C0003146284600F00AF92060002070BD0146BB
:1089D00086480068002801D1082070478448007844
:1089E000814201D30720F8E7282048437F4A1268D4
:1089F0001058012801D10020EFE70820EDE7002002
:108A00007C4908607C49C86001208860704701206B
:108A100078490860704700207649086070477748B9
:108A20000068C007C00F02D07548764908607047DB
:108A3000754800787549086008460068002801D12B
:108A40000820086071480068704710B50020704920
:108A5000086001208107086000BF6D480068002899
:108A6000FBD000206B494860886006200861012027
:108A70006949C860FFF7DCFFFF30013065494031CC
:108A80000860881564491522920189184860002001
:108A9000614989188860012040046049486010BD20
:108AA00010B5FFF7C5FF04465D484068002832D086
:108AB0005A4840680121490408422CD000215848F6
:108AC000416055481521890140184068FF30013048
:108AD00051491522920189184860524800780028AF
:108AE00008D04D48114640184068001949494031A6
:108AF00008600AE0484815218901401840680019BB
:108B0000454915229201891888604648007801215C
:108B100048404449087010BD4148434908614348F2
:108B2000434951221201891848603D48001D4049BF
:108B3000891888603D493E488018C160384808302F
:108B40003B49891808613949394880184161072033
:108B5000354908607047C206D20E01219140354A5E
:108B600011607047C206D20E01219140324A116055
:108B70007047C206D20E012191402F4A8032116007
:108B8000704710B52D484068C105C90D002920D097
:108B90000A46103A104600280DDA284B1C33040709
:108BA000240F083CA408A4001B598407E40EE340EA
:108BB0001B069B0F0BE01F4B032424021B19840888
:108BC000A4001B598407E40EE3401B069B0FD8B298
:108BD00010BD0420FCE71A48406870470246501A4E
:108BE0000002000A704700000C210020F420002041
:108BF0000121002000000140000501400004014067
:108C00003546526E00060140F8200020FC2000206E
:108C10000001004000A5004000A0004000A300406B
:108C200040A100400021002000F50140006000400C
:108C300000F0014000E100E000E200E000ED00E0B3
:108C40000015014001B505E00098401E0090034862
:108C5000FBF760FA00980028F6D108BDE703000092
:108C600070B500BF01204003CD49886000BF00BF40
:108C70004000886000BF0420FBF75CFAC848006928
:108C80008004C00F06D0C64800694004C00F01D060
:108C9000012426E0C24800694004C00F20D000240F
:108CA000122518E000BF01208003BD49C86000BF45
:108CB0000420FBF73FFA00BF01208003B849886019
:108CC00000BF0420FBF736FAB54800698004C00FE6
:108CD00001D0012403E028466D1E0028E2D100E007
:108CE0000024204670BD10B500BFAE48052109071D
:108CF000072212028918486300BF00BF0521090737
:108D00008918886300BF00BF01208003A4498860E0
:108D100000BF00BF886100BF00BF4010886000BF77
:108D200000BF886100BFFFF79BFF10BD08B503209F
:108D3000009000BF012080039949886000BF042093
:108D4000FBF7F8F905E00098411E0091002800D1DA
:108D500008BD934800694004C00FF4D00120F7E734
:108D600010B500BF012040038D49C86000BF04203A
:108D7000FBF7E0F9FFF7DAFF002800D110BD00BFD4
:108D8000012040038649886000BF0420FBF7D2F928
:108D90000120F3E770B50646012400BF6003804957
:108DA000886100BF80251EE000BF012080037C4950
:108DB000C86000BF0420FBF7BDF93046284205D04B
:108DC00000BF012040037649886005E000BF012014
:108DD00040037349C86000BFFFF7A8FF002801D116
:108DE000002402E06D08002DDED100BF00BF01208D
:108DF00080036B49C86000BF0420FBF79BF900BFEC
:108E0000012040036649C86100BF0420FBF792F9C6
:108E1000FFF78CFF044062480069400B0121484085
:108E2000044000BF88035E49C86000BF0420FBF710
:108E300081F900BF012040035949886100BF2046E5
:108E400070BDF8B505460E4600270120009000BF12
:108E500040035349C86100BF802417E0FFF766FF55
:108E6000002801D1009013E04D4800698004C00F34
:108E700002D038462043074600BF012080034849FE
:108E8000C86000BF0420FBF755F96408002CE5D149
:108E900000BF00BF012040034149886100BF2F701F
:108EA000002E02D000BFC86005E000BF01204003D3
:108EB0003B49886000BF0420FBF73CF9FFF736FF11
:108EC000002800D1009000BF012080033449C86011
:108ED00000BF0420FBF72EF90098F8BD10B500BFC5
:108EE000012040032E49886000BF0420FBF722F9CF
:108EF000FFF71CFF002800D110BD00BF0120400378
:108F00002749C86000BF0420FBF714F900BF012007
:108F100080032349C86000BF0420FBF70BF9012040
:108F2000EAE7FFB581B007460D4616460124FFF774
:108F3000D5FF04403846FFF72DFF0440F807C00F67
:108F400016D00DE0002E05D100212846FFF779FF4D
:108F5000044004E001212846FFF773FF04406D1C24
:108F60003046711ECEB200280FD0002CEAD10CE0A2
:108F700004E02878FFF70EFF04406D1C3046711E98
:108F8000CEB2002801D0002CF3D10498002801D1E2
:108F9000002C02D1FFF7E4FE0440204605B0F0BDEE
:108FA000000500500C060000F8B504460D46904838
:108FB0000068002813D0EAB221788D4BA0681B68A6
:108FC0009847064600BF3746002F06D000BF89A24B
:108FD00028213846FBF750F900BF00BF0CE0002DF8
:108FE00004D120780021A268904705E0012D03D12B
:108FF00020780121A2689047F8BDF8B50746694678
:109000008948007800F0E9FA0646002E00D0F8BD45
:10901000002533E00C2068438449096844188448DB
:10902000006822780121914008420FD0A0680028F2
:109030000CD06078012804D101212046FFF7B4FF4D
:109040001AE000212046FFF7AFFF15E0784840689E
:1090500022780121914008420ED0A06800280BD050
:109060006078012804D100212046FFF79DFF03E02E
:1090700001212046FFF798FF681CC5B26D480078B3
:109080008542C7DB00BFC2E770B504460D466A489B
:109090000068FFF75FFC0646002E00D070BD6448F4
:1090A00044600560204628430246644801686248DF
:1090B0000068FFF71EFC064600BFEFE7FFB583B070
:1090C00006460C461746052F02D2072007B0F0BD12
:1090D0005648066057480470584807604449069847
:1090E0000860002516E00C2161438819027800927F
:1090F00041680191019989000522120707231B028B
:10910000D318009A9200995000BF02780121914033
:109110000D4300BF2046611ECCB20028E3D1484B6E
:109120002A462946404800F083F902900298002818
:1091300001D00298CAE7434A00213F48FFF792FB5B
:10914000C4E710B539480068002801D1082010BDD7
:109150003548007800F0B1F9F9E710B533480068F8
:10916000002801D1082010BD2F48007800F014FA23
:109170000446002C01D02046F5E72F480068FFF791
:10918000E9FBF0E7F8B505460C460C206843274993
:109190000968471825480068002801D10820F8BD53
:1091A00069462148007800F018FA0646002E01D0E2
:1091B0003046F4E7787800280AD10098E840C007E4
:1091C000C00F02D0012020700FE0002020700CE0C2
:1091D0007878012809D10098E840C007C00F02D074
:1091E0000120207001E0002020700020D7E700005F
:1091F0002C2100202E2E5C2E2E5C2E2E5C2E2E5C22
:109200002E2E5C2E2E5C536F757263655C617070E0
:109210005F636F6D6D6F6E5C6170705F62757474AB
:109220006F6E2E63000000003021002020210020FE
:109230003821002024210020342100202821002072
:1092400089900100FB8F0100F0B502460C4600201A
:1092500035E001238340194623460B422ED0D568C2
:109260000D4205D101235B04D5680D43D56004E0B0
:1092700003231B04D5688D43D56005252D070726DC
:109280003602AD198600AD5903263604B5430526CE
:10929000360707273F02F6198700F55105252D07E8
:1092A00007263602AD198600AD591D43052636073F
:1092B00007273F02F6198700F55100BF401C202800
:1092C000C7D3F0BDF0B585B0EC4805690020EC4986
:1092D000C86300263DE014207043EA490968441839
:1092E0000120B040E8490968084230D0E068C04336
:1092F000684021680840074639462046FFF7A4FF2A
:10930000DE48006968400390039800280ED0039857
:109310000543E068C043684021680840009020464B
:109320000099FFF791FF0098074300BFA068A8438A
:1093300038400190606828403840029001990298B6
:10934000084303D0226901990298904700BF701C1E
:10935000C6B2CE4800788642BDDB05B0F0BD10B580
:109360000146002028E014224A43C64B1B689A5845
:10937000012383401A421ED00522120707231B0235
:10938000D2188300D25803231B049A4305231B07DA
:10939000072424021B1984001A51052212070723EF
:1093A0001B02D2188300D25805231B07072424026E
:1093B0001B1984001A51401C2028D4D310BD70B54D
:1093C00005460C46002C01D1072070BD20468107C0
:1093D000890F01D1012100E00021002901D10720DE
:1093E000F3E7A8480460AA4805700020A749087060
:1093F000A5490860A6480078142250430146A148B8
:10940000006802F01DFE0020C043A24988600620CB
:1094100001218140A04A116000BF012100F0F7F84E
:109420000620012181409D4A116000BF0020CCE749
:10943000F8B504460D4616461F46924800680028B7
:1094400001D10820F8BD002F01D10720FAE78F488D
:1094500000788F490978884201DB0420F2E728462A
:1094600030438A49097814225143864A1268505081
:1094700086480078142148438249096840184560AD
:1094800082480078142148437E4909684018866064
:109490007E480078142148437A49096840180761DA
:1094A0007A480078207079480078401C7749087025
:1094B0002078FFF754FF0020C4E7F0B5024671485A
:1094C0000068002801D10820F0BD70480078824271
:1094D00001DB0720F8E70020694BD863674804697F
:1094E00069480068002802D158066A4B586001207C
:1094F0009040654B1B681843634B18600023142091
:109500005043604D2D684019C360002140E00123A5
:109510008B401846142353435A4D2D68EB58034291
:1095200035D02546054202D003231B040EE001235B
:109530005B0414255543534E3668AD19ED68054359
:10954000142656434F4F3F68F619F56005252D0741
:1095500007263602AD198E00AD5903263604B543F1
:109560000526360707273F02F6198F00F551052516
:109570002D0707263602AD198E00AD591D4305266D
:10958000360707273F02F6198F00F55100BF491C27
:109590002029BCD3002097E710B50446394800685D
:1095A000002801D1082010BD38480078844201DB32
:1095B0000720F8E72046FFF7D2FE0120A0403249FD
:1095C00009688143304801600068002803D1012008
:1095D000C007304988600020E5E710B502462948F9
:1095E0000068002801D1082010BD28480078824278
:1095F00001DB0720F8E714205043224C24680319AC
:109600001E4800691C68204008600020ECE710B587
:10961000002819DA224A03071B0F083B9B089B000E
:10962000D2588307DC0EFF23A3409A438B071B0EFF
:109630008407E40EA3401A43194B0407240F083C87
:10964000A408A4001A5118E0144A03231B02D218DC
:1096500083089B00D2588307DC0EFF23A3409A4364
:109660008B071B0E8407E40EA3401A430B4B032405
:1096700024021B198408A4001A5110BD00050050D3
:109680004061004040210020442100204921002069
:10969000482100200063004080E200E000E100E09B
:1096A0001CED00E0002314214143F64A53541421D9
:1096B000414389184B8004231421414389188B604E
:1096C0000023142141438918CB6014214143891898
:1096D0000B611421414389188B80704710B500201D
:1096E000E9490880E9490860E649091F087048709F
:1096F0008870002403E02046FFF7D4FF641C202C70
:10970000F9D310BDFFB581B004460F4615460326B8
:10971000DE48006800280BD1002D06D104980028EF
:1097200003D10220D949086002E00120D74908602E
:10973000D6480068030003F03BF907A3051A375623
:109740007592A3000120000700690004820C01202B
:109750000007006980B278430146F120800251DFA2
:109760000646002E02D10220C849086089E038462A
:1097700050DF0646002E16D1002D11D10498002886
:109780000AD12078042803D10720C04908600AE0E4
:109790000520BE49086006E00420BC49086002E0DC
:1097A0000320BA4908606CE001210907096989B200
:1097B000794308462A46F121890251DF0646002EE8
:1097C00010D1049800280AD12078042803D106205B
:1097D000AE49086006E00520AC49086002E00420BC
:1097E000AA4908604DE0AA00F1239B02D2186388C1
:1097F000D11801221207126992B27A43AB00D21833
:109800006388D018049A51DF0646002E09D12078CB
:10981000042803D106209D49086002E005209B49E9
:1098200008602EE001200007006980B27843AB0099
:10983000C0180090608882082169009851DF0646B0
:10984000002E0BD1002D06D10498002803D107204B
:109850008E49086002E006208C49086011E0012072
:109860000007006981B2F120800202F0BCFB009089
:1098700050DF0646002E02D107208449086000E030
:1098800000BF00BF304605B0F0BDF0B585B00F2772
:109890007C48001F0078142148437A494418E56841
:1098A0002078022804D0042823D005286FD16FE047
:1098B000206903907448008886026088801B0490A9
:1098C000039880190390A088801945190121890205
:1098D0000498884206D2049882082846039951DFEA
:1098E000074605E0FF2201322846039951DF07466B
:1098F00076E0A06800016649401800890490A068DD
:109900000001401840890390A06800014018406899
:1099100002900298A84205D10399049848436188AF
:10992000884202D0A06805280DD1012000070069F7
:1099300081B2284602F041FB534909884618304657
:1099400050DF074622E001200007006981B2284667
:1099500002F033FB064601200007006980B2704325
:10996000281A8008019001200007006980B2711C4C
:10997000484361884919401A8008009031462046C2
:10998000009B019AFFF7BEFE074600BF28E026E0D5
:1099900001200007006981B2284602F00EFB06464E
:1099A000A088411901200007006980B27043081A9D
:1099B00080080490A088401961884218012000079F
:1099C000006980B2711C4843801A800803903146B8
:1099D0002046039B049AFFF795FE074600E000BF70
:1099E00000BF002F03D101202649091F8870384687
:1099F00005B0F0BDFFB581B00646174600242148EA
:109A0000001F4078202839D01E48001F00781D49CB
:109A1000091F49784018C4B2202C02DB20462038A8
:109A2000C4B21420604317490E54142060434018F8
:109A30000761142060434118029805C8CA60886015
:109A4000142060430F4A8018049941801420604319
:109A500080180A9981800025101F8078002805D180
:109A6000FFF713FF0546112D00D100250548001F03
:109A70004078401C0349091F487000E0042528462F
:109A800005B0F0BD7C2B00205C210020602100206F
:109A9000FC2D0020F8B50446FA480078142148430C
:109AA000F849091D0E5C081F007814214843F54948
:109AB000091D401880680001F3490D58F1480078ED
:109AC00014214843EF49091D40184088091F0090A0
:109AD000097814225143EB4A121D89180B69111F92
