:020000040001F9
:10400000483E0020754101008741010089410100BF
:1040100000000000000000000000000000000000A0
:104020000000000000000000000000008B410100C3
:1040300000000000000000008D4101008F410100E0
:1040400091410100914101009D4E0100914101000B
:104050009141010000000000D19301009141010055
:104060009141010091410100858B010091410100C6
:1040700091410100914101009141010091410100F4
:104080009141010027880100914101009141010007
:104090004988010091410100D77E01009141010052
:1040A000914101009141010000000000000000006A
:1040B0000000000000000000000000000000000000
:1040C0000348854608F0ECFC00480047534F0100C8
:1040D000483E0020401E00BF00BF00BF00BF00BF21
:1040E00000BF00BF00BF00BF00BF00BF00BFF1D1D5
:1040F00070470000401E00BF00BF00BF00BF00BFF0
:1041000000BF00BF00BF00BF00BF00BF00BFF1D1B4
:1041100070470000401E00BF00BF00BF00BF00BFCF
:1041200000BF00BF00BF00BF00BF00BF00BFF1D194
:1041300070470000401E00BF00BF00BF00BF00BFAF
:1041400000BF00BF00BF00BF00BF00BF00BFF1D174
:1041500070470000401E00BF00BF00BF00BF00BF8F
:1041600000BF00BF00BF00BF00BF00BF00BFF1D154
:10417000704700000748026803210A4302600648AE
:10418000804706480047FEE7FEE7FEE7FEE7FEE75A
:10419000FEE700002405004045420100C140010047
:1041A00032483349086070473248008CC0B2012859
:1041B00012D13048808C0007000F00280CD12D4808
:1041C000806AF0210840402806D12A48C06A084089
:1041D000002801D1012070470020FCE72548008C11
:1041E000C0B201282CD12348808C0007000F002882
:1041F00026D12048806AF0210840002806D11D48B9
:10420000C06A0840002801D1012070471948806A1F
:10421000F0210840102806D11648C06A084000283E
:1042200001D10120F1E71348806AF02108403028CD
:1042300006D11048C06A0840002801D10120E4E7F7
:104240000020E2E710B5FFF7C9FF002805D00A48B3
:104250000A494860C8130A498861FFF7A5FF00288A
:1042600002D001200749886010BD00000024F4003E
:1042700000200020C00F00F0DFFF07C00005004055
:10428000006C00400006004000F030FF70B500BF39
:10429000F949052005F01CF9044600BF2546002D0C
:1042A00005D000BFF5A29F212846FFF7EDFF00BF14
:1042B00000BF082001210522120707231B02D21884
:1042C0008300D15000BF002303220821184600F0CC
:1042D00017FF70BD10B502460B460020002100BF3D
:1042E00003E0545C60404C1CA1B29942F9DB10BD64
:1042F00004460D462A462146E348FFF7C5FF38B578
:1043000000BF0020E14B05221121009004F0A0FA2B
:10431000044600BF2546002D05D000BFD7A2E821E6
:104320002846FFF7B1FF00BF00BF38BD3EB500BF54
:104330006846007801090901491C00916846007827
:10434000F02188431030009000BF0622D0A16846BB
:104350007CDF044600BF2546002D05D000BFC7A264
:10436000FB212846FFF790FF00BF0020019002903C
:104370001021684681803C21C18000210181FF21FC
:104380009131418101A87ADF044600BF2546002D06
:1043900006D000BFB9A2FF2105312846FFF774FF00
:1043A00000BF3EBD30B5A1B006210291BA480068F9
:1043B0000190BA480178684681713C2112A807F043
:1043C000FEFE02201290002110A8417301210182FB
:1043D00002A915913C2103A807F0F1FE01216846CE
:1043E000018501A90B9103A912A803F002FB044661
:1043F00000BF2546002D06D000BFA0A2FF212A3114
:104400002846FFF741FF00BF21B030BDF7B586B0A9
:104410001746781C0590059808F060FD0646381D83
:104420000490049808F05AFD04460020039000BF51
:1044300003E00799095C3154401CB842F9DB30783D
:1044400055287DD1707850287BD013DC152879D081
:1044500007DC1038030008F069FB05225D95FFFDBD
:10446000790016286FD017286ED020286DD03028FC
:104470006CD11FE280286AD008DC512868D06028FF
:1044800067D0612866D07028F2D1A1E2812876D069
:10449000902875D0912874D09228E9D166E3F078FD
:1044A000252836DBF078502833DCF0787C4908701A
:1044B00001217C4800F09DFE794800787949087018
:1044C0000121784800F07CFEAA2020701320607043
:1044D0000120A07072480078E07004212046FFF7A8
:1044E000F9FE20716D48807F002812D005222146F8
:1044F0006A4802F094FF054600BF0295029D002D18
:1045000006D000BF5DA2FF215D310298FFF7BCFE1F
:1045100000BF2DE3AA202070012060700220A0704F
:1045200061480078E07061480078207105212046DC
:10453000FFF7D0FE60715948807F00281ED00AE046
:1045400017E3BEE1FDE031E151E1A0E10FE359E203
:10455000CCE1F4E115E206222146504802F05FFF6B
:10456000054600BF0295029D002D06D000BF43A264
:10457000FF216F310298FFF787FE00BFF8E2C5E226
:10458000F2E2F2E20121474800F033FEB078012860
:104590002BD147480078082108434549087001207D
:1045A00040494870AA202070082060700120A07047
:1045B000E07004212046FFF78DFE20713748807F90
:1045C000002812D005222146344802F028FF054673
:1045D00000BF0295029D002D06D000BF27A2FF213B
:1045E00087310298FFF750FE00BFB07800282CD129
:1045F0002F480078082188432D4908700020294958
:104600004870AA202070082060700120A07000204F
:10461000E07004212046FFF75DFE20711F48807F77
:10462000002812D0052221461C4802F0F8FE05465B
:1046300000BF0295029D002D06D000BF0FA2FF21F2
:104640009B310298FFF720FE00BF0121154800F0C2
:10465000B7FD8DE24DE0FFE7AA20207008206070D2
:104660000120A0701248007808210840082821D1B4
:104670000120E07020E00000E82500202E2E5C6D77
:1046800061696E2E63000000EFBEADDE4C26002097
:10469000466565646572000094CF010080210020AA
:1046A00022200020C8210020642000206520002056
:1046B0000C2000200020E07004212046FFF70AFEB5
:1046C0002071FE48807F002812D005222146FB4839
:1046D00002F0A5FE054600BF0295029D002D06D002
:1046E00000BFF74AFF21B1310298FFF7CDFD00BFAF
:1046F0003EE2F4480290AA2020701320607001204E
:10470000A07002980078E07004212046FFF7E2FDD7
:104710002071EA48807F002812D005222146E74810
:1047200002F07DFE054600BF0195019D002D06D0DB
:1047300000BFE34AFF21C4310198FFF7A5FD00BF88
:1047400016E2E148007840210840402816D1AA200E
:104750002070152060700120A070E07004212046B8
:10476000FFF7B8FD2071D548807F00281DD00522B5
:104770002146D24802F053FE054616E0AA202070DA
:10478000152060700120A0700020E07004212046F8
:10479000FFF7A0FD2071C948807F002805D00522C1
:1047A0002146C64802F03BFE0546E1E1C7480078D5
:1047B000C007C00F002802D00120E07001E00020F7
:1047C000E070AA202070162060700120A0700421E3
:1047D0002046FFF77FFD2071B848807F002805D074
:1047E00005222146B54802F01AFE0546C0E1012126
:1047F000B74800F0FEFCB078002820D1B34800781C
:1048000040084000B14908700020B1498870AA20D2
:104810002070162060700120A070B078E070042134
:104820002046FFF757FD2071A448807F002829D03B
:1048300005222146A14802F0F2FD054622E0B078AB
:1048400001281FD1A1480078012108439F49087021
:1048500001209F498870AA202070162060700120D6
:10486000A070B078E07004212046FFF733FD20717E
:104870009248807F002805D0052221468F4802F00B
:10488000CEFD05460121924800F09AFC70E1B07817
:1048900090490870F0789049087030798F49087015
:1048A00070798F490870B0798E490870F0798E4917
:1048B00008705DE185480078042108438349087049
:1048C00056E1B0780C2810D10021814800F091FC0D
:1048D000002004E0C11C715C7D4A1154401C0C286E
:1048E000F8DB00217A4800F06BFC41E17520C00242
:1048F0000290AA202070062060700C20A07000207A
:1049000004E00299095CC21CA154401C0C28F8DB8D
:104910006A48807F002811D00F222146674802F0A4
:104920007EFD054600BF0195019D002D05D000BF0D
:10493000634A6E490198FFF7A7FC00BF18E1FF200A
:104940003ADF054600BF0295029D002D06D000BF4C
:104950005B4A6649C91D0298FFF796FC00BF01201B
:1049600039DF054600BF0295029D002D06D000BF2D
:10497000534A952189000298FFF786FC00BF00F09A
:10498000B5FBAA202070072060700220A0700120D3
:10499000E0701020207105212046FFF79BFC60711C
:1049A0004648807F002812D006222146434802F064
:1049B00036FD054600BF0295029D002D06D000BFC2
:1049C0003F4A4A491A310298FFF75EFC00BFCFE028
:1049D0003A48807F002802D000203849887701F0CB
:1049E0008FFF13214248008876DF74DF01F0EFFD6E
:1049F000002001F0E3FC3F480078400840003D49BA
:104A00000870B5E0B078012832D13A4800784021EA
:104A1000084000282CD13748007804210843354944
:104A200008704B20C00001F042FFAA202070052032
:104A300060700120A070E07004212046FFF74AFC5E
:104A400020711E48807F002812D0052221461B4875
:104A500002F0E5FC054600BF0295029D002D06D040
:104A600000BF174A21493C310298FFF70DFC00BFF7
:104A7000B078002849D11F480078042188431D4997
:104A8000087001F03DFFAA20207005206070012011
:104A9000A0700020E07004212046FFF71BFC20716D
:104AA0000648807F002830D005222146034802F0C6
:104AB000B6FC054600BF0295029D1DE08021002046
:104AC0007C46010020A803000D2000200E200020BD
:104AD000C8210020232000202420002025200020A1
:104AE0002620002027200020282000204B02000044
:104AF0000A2000200C200020002D05D000BFFE4A17
:104B0000FE490298FFF7C0FB00BF31E0FC48007887
:104B100004210840042802D10120E07001E00020B7
:104B2000E070AA202070052060700120A070042190
:104B30002046FFF7CFFB2071F248807F002812D07B
:104B400005222146EF4802F06AFC054600BF0295A7
:104B5000029D002D06D000BFE74AE84919310298AE
:104B6000FFF792FB00BF03E002E001E000E000BFBE
:104B700000BF204608F088F9304608F085F909B0F2
:104B8000F0BD38B500200090DF4800906946DD4850
:104B900002F005FC044600BF2546002D06D000BFEC
:104BA000D54AD6497C312846FFF76EFB00BF38BD99
:104BB0000A20D64908800846807840084000401CFA
:104BC00088700846807802218843D049887008465A
:104BD00080781C2188430C30CC4988700846807846
:104BE00020218843C94988700720C87010200871A7
:104BF000704770B505462868002810D13B21C4488D
:104C0000008876DF044600BF2646002E06D000BF8F
:104C1000B94ABA49A1313046FFF736FB00BF70BD33
:104C2000044600BFB44AB549AC312046FFF72CFB1F
:104C300030B587B01C21684607F0C1FA002000900B
:104C40000520400401908010029003216846017302
:104C50000021C1810174AF480590AF4806906846B5
:104C600002F063FF044600BF2546002D06D000BFBA
:104C7000A14AD72189002846FFF706FB00BF07B0ED
:104C800030BDF8B505462888142853D006DC102816
:104C90000BD011280DD0132876D11FE0172843D050
:104CA000192873D05228F7D12BE0A888984908809A
:104CB00081E00020C043964908809248807F002808
:104CC00002D000208F4988778D480078C007C00F38
:104CD000002802D0002002F013F96CE08B4A00217A
:104CE0008B4800887FDF044600BF2746002F06D090
:104CF00000BF814A8149F2313846FFF7C5FA00BF4B
:104D000059E00022114682480088A9DF044600BF0E
:104D10002746002F06D000BF774A392109013846BF
:104D2000FFF7B2FA00BF46E03222A91D7B4807F028
:104D30002DFA40E0794EB61D3188E889814211D1C3
:104D4000002231467248008881DF044600BF2746B2
:104D5000002F06D000BF684AE72189003846FFF7D8
:104D600093FA10E0002211466948008881DF04466A
:104D700000BF2746002F05D000BF5F4A684938466C
:104D8000FFF782FA00BF16E014E0FFE7A8790028D9
:104D90000FD16448007801210843624908705948DE
:104DA000807F002802D0002056498877012002F039
:104DB000A7F800E000BF00BFF8BD10B504462046CC
:104DC00002F087FF21464F4802F0C6FA2046FFF75F
:104DD00058FF10BD10B50446204604F02BFF10BD4F
:104DE00070B500BF002358224F490E2003F02BF866
:104DF000054600BF2E46002E06D000BF3E4A7B214E
:104E0000C9003046FFF740FA00BF00BF474803F033
:104E100050F8044600BF2546002D06D000BF364A94
:104E2000F72189002846FFF72FFA00BF404803F01A
:104E300049F8044600BF2546002D06D000BF2E4A83
:104E400037493D312846FFF71FFA00BF70BD70B5E6
:104E50003DDF044600BF2546002D06D000BF264A90
:104E60007D21C9002846FFF70FFA00BF70BD08B5C5
:104E70000020102313220F210090142003F0B6F815
:104E800004202C4948600321022000F0F8F8022099
:104E900001218140284A116000BF08BD70B503F0B0
:104EA0005FF82649264A1278885425480078401C25
:104EB0002349087008460078401E2049085C0A28EB
:104EC00003D01F4800781C283FDB1D480278521C85
:104ED0001A490C4802F0A3FA0446082C0BD000BF74
:104EE0002546002D06D000BF034A0D496F312846E4
:104EF000FFF7CAF900BF25E07C46010099020000D7
:104F00000C200020802100200D44010004200020FE
:104F10000A200020F34B0100214C0100BC2A002094
:104F2000A20300000D200020F02A0020BB4D01004C
:104F3000D54D01000023004000E100E0482B002097
:104F40003120002000208849087070BD10B5029CF7
:104F500010BD00208549087085490870FFF7CFF91A
:104F600001F0F8FC152001218140824A916000BFC8
:104F700001F097FD0120C00301F0A7FDFFF786F9BE
:104F800003F03DFE03F0D3FD01F021FF04F05BF9D7
:104F9000044600BF2546002D05D000BF764A77495C
:104FA0002846FFF771F900BF01F0E9F901F097FB1E
:104FB00001F06AFCFFF714FFFFF7B8F9FFF7E1FD16
:104FC000FFF7F0F9FFF734FEFFF7F2FD20206C4900
:104FD00088800120C8806B48086001216A4800F081
:104FE00008F90121684800F0EBF867480078674944
:104FF000087065488078002806D165480078400828
:1050000040006349087009E05F488078012805D1B5
:105010005F480078012108435D4908705A4840788C
:10502000012806D151480078082108434F490870EB
:1050300005E04E480078082188434C49087032202A
:1050400003F078FE01F098F80120C00301F0AAF8FF
:10505000322003F06FFE00F0F0FA0120C00300F0F0
:1050600002FB4248007801210843404908700320B0
:10507000C00301F0A9FF00BFFFF7E9FEFCE710B590
:10508000002819DA434A03071B0F083B9B089B00C3
:10509000D2588307DC0EFF23A3409A438B071B0ED5
:1050A0008407E40EA3401A433A4B0407240F083C3C
:1050B000A408A4001A5118E0374A03231B02D2188F
:1050C00083089B00D2588307DC0EFF23A3409A433A
:1050D0008B071B0E8407E40EA3401A432E4B0324B8
:1050E00024021B198408A4001A5110BDBFF34F8F6E
:1050F0002A4828491C39C860BFF34F8F00BFFEE71C
:1051000070B5002B0BD101248C401A4DEC60244C5F
:10511000244D51263601AD198600AC510AE0012418
:105120008C40144DAC60204C1E4D51263601AD19FB
:105130008600AC5100BF00BF00BF01248500194E9E
:10514000AD192C600C0203252C4315042C431D05BE
:105150002C43354651263601AD198600AC5100BFAF
:1051600000BF00BF70BD0000312000200C200020D7
:105170000D200020000500507C4601004504000081
:10518000182000204D4F0100C821002022200020BF
:105190000E2000201CED00E000E100E00400FA0514
:1051A000031F020000600040031F010070B50446A9
:1051B0000D46164632462946204605F0B0F970BD28
:1051C00070B504460D4668017521C9024018FE49B4
:1051D0000860002320222146FC4804F0D3FE00236F
:1051E00020222146F94804F042FF0A2003F0A2FDE4
:1051F00070BDF8B507460C4660017521C90240181C
:10520000F149086004F0B9FD054600BF2E46002EA6
:1052100006D000BFEEA268213046FFF735F800BF88
:1052200000BFEA49F24804F0DDFD00232022E749EF
:10523000384604F081FF0A2003F07CFDF8BD10B56C
:1052400002460B460020002100BF03E0545C604092
:105250004C1CA1B29942F9DB10BDF0B587B00746EE
:10526000002502A8033005F02DFE022106A805F056
:10527000ABFF6846008B85B2684605720571072052
:1052800000F021FADB4800788021084080283DD1D9
:10529000D9480078C007C00F002837D0D64800781A
:1052A00041210840412807D16846007A462803DB9F
:1052B0006846007A642809DDCF480078412108401B
:1052C000412816D16846007AA52812DB072000F095
:1052D000F5F9C82003F02EFD072000F0F4F9C648C8
:1052E000007820218843C449087000206946C872AC
:1052F00008E0C148007820210843BF490870012018
:105300006946C8726846C17A417110E06846007A01
:1053100041280CDBB8480078C007C00F002806D031
:10532000FF20913003F006FD072000F0C7F9684622
:10533000007A412806DBB148007802210843AF49D2
:10534000087005E0AD48007802218843AB49087039
:105350006846007A1E2806DDA648007802218843A8
:10536000A449087005E0A348007802210843A14938
:105370000870A0480078C007C00F002826D09E48BB
:105380000078C007C00F002820D06846007A9C49EA
:105390000978401A072808DC6846007A9849097895
:1053A000401A0621C943884210DA92480078400822
:1053B0004000904908709348807F002802D0002068
:1053C0009049887774DF002001F09AFD6846007AE2
:1053D00064285CDB6846007AAA2858DC8A48007892
:1053E000401C8949087089480068401E8749086048
:1053F00085480078142849DB8248807F00283ED009
:10540000AA216846017204214172072181728048F5
:1054100001786846C1727F480178684601737E480A
:105420000178684641737D480178684681737C48FD
:1054300001786846C1737B480178684601747A48F0
:105440000178684641740A2102A8FEF743FF6946C5
:1054500088746C48807F002811D00B2202A969480B
:1054600001F0DDFF044600BF2646002E06D000BF37
:1054700057A2F8213046FEF707FF00BF00BF00200B
:1054800061490870694908706049086072E05E48C7
:10549000007805286BDB5C480078052867DB5A48F4
:1054A0000078142863DC61480078002808D15F4840
:1054B0000078401C5D4908703C205449086056E063
:1054C0005248006800284DDB58480078012849D12F
:1054D0004C48807F00283FD0AA21684601720421F1
:1054E0004172072181724A4801786846C172494871
:1054F0000178684601734848017868464173474817
:10550000017868468173464801786846C17345480A
:1055100001786846017444480178684641740A215C
:1055200002A8FEF7D7FE694688743648807F0028B7
:1055300012D00B2202A9334801F071FF044600BFCC
:105540002646002E07D000BF21A2FF216131304640
:10555000FEF79AFE00BF00BF0020344908702B49B7
:10556000086004E0002031490870284908600020E4
:105570002549087068464179C17201790173007943
:10558000062803DC00206946087306E068460079B7
:10559000A52802DBB42069460873AA216846017277
:1055A000022141728172052102A8FFF748FE694677
:1055B00048731448807F00283DD0062202A9114874
:1055C00001F02DFF044633E06C2100201020002064
:1055D0002E2E5C4E505F416E676C655C4E505F4195
:1055E0006E676C655F4D6561737572652E63000053
:1055F000182000200D2000200C2000200E2000206C
:1056000035200020802100205C2000206020002028
:1056100023200020242000202520002026200020F8
:105620002720002028200020292000205D200020A5
:10563000002C00D000BF07B0F0BD70B5244A012196
:10564000244803F080F9044600BF2546002D06D00B
:1056500000BF214A81212846FEF716FE00BF00BF89
:1056600005F0FDFC70BD70B50446002221461948C6
:10567000006803F0AFF9054600BF2E46002E07D0A4
:1056800000BF154AFF21D9313046FEF7FDFD00BFAE
:1056900000BF70BD70B50F48006803F0CCF9044638
:1056A00000BF2546002D07D000BF0B4AFF21E03187
:1056B0002846FEF7E9FD00BF00BF70BD0121814013
:1056C000064A9160704701218140044AD1607047C9
:1056D0005B52010058200020D05501000005005009
:1056E00010B5162001210522120707231B02D2182C
:1056F0008300D15000BF00F080FD10BD00B5FB4815
:105700000078401CF9490870084600783C2873D19D
:1057100000200870F6480078401CF54908700846DB
:1057200000783C28F3D100200870F2480078401C33
:10573000F0490870084600781828E8D10020087061
:10574000ED480078401CEC490870EC4800780300F4
:1057500007F0ECF90DBD0815384553606D7A879454
:10576000A1AEBD00E44800781F2807D10120E2491E
:105770000870E2480078401CE0490870A8E0E04961
:105780000878C117890F091889108900411A0CD0AF
:10579000D94800781D2814D10120D7490870D7486E
:1057A0000078401CD54908700BE0D34800781C28CD
:1057B00007D10120D0490870D0480078401CCF495B
:1057C000087085E0CC4800781F2807D10120CA491D
:1057D0000870CA480078401CC849087078E0C6487C
:1057E00000781E2807D10120C3490870C3480078FB
:1057F000401CC24908706BE06BE0BF4800781F286E
:1058000007D10120BC490870BC480078401CBB4946
:1058100008705DE0B84800781E2807D10120B6491D
:105820000870B6480078401CB449087050E0B2488F
:1058300000781F2807D10120AF490870AF480078D1
:10584000401CAE49087043E0AB4800781F2807D1E0
:105850000120A9490870A9480078401CA749087090
:1058600036E0A54800781E2807D10120A24908701B
:10587000A2480078401CA149087029E09E480078A1
:105880001F2807D101209C4908709C480078401CC3
:105890009A4908701CE0984800781E2807D101201A
:1058A0009549087095480078401C944908700FE0AD
:1058B000914800781F2809D101208F4908708F492D
:1058C00008708F480078401C8D49087000E000BFC8
:1058D00000BF00BDF0B589B0002005900490FFF72F
:1058E0000DFF002108A805F002F908980590012194
:1058F00008A805F0FCF80898049082480078402138
:105900000840402852D180480078401B022824DA01
:105910000499059806F0B6FC7C4903907C48006821
:1059200006F0F5FC0290039906F0B4FC07460599D1
:1059300006F0ACFC08907F21C9057548006806F0A8
:10594000A1FC7349086000217148006806F058FF07
:1059500050D200206E4908604CE00499059806F08A
:1059600091FC03906A480168684806F08BFC67491F
:10597000019006F0CCFC0290039906F08BFC0746E0
:10598000049906F02EFC08907F21C9056048006844
:1059900006F027FC5E4908605C495D48006806F037
:1059A00039FF27D259485A49086023E004990598DD
:1059B00006F068FC554903905548006806F0A7FCBE
:1059C0000290039906F066FC0746059906F05EFC16
:1059D00008907F21C9054E48006806F053FC4C49E9
:1059E000086000214A48006806F00AFF02D2002041
:1059F00047490860089806F09AFE86B20A213046A8
:105A000006F0B0FB85B200F0E2FD42480078C00726
:105A1000C00F002868D040480078032802D004282E
:105A200008D103E0062000F0C9FC04E0072000F0E4
:105A3000C5FC00E000BF00BF252D12DA3748007812
:105A4000C007C00F00280CD0032000F0D6FB2D4863
:105A50000078802108432B49087001202E490870E6
:105A60002EE1252D14DB292D12DC2C480078C007EF
:105A7000C00F00280CD0042000F0BFFB21480078A4
:105A8000802108431F49087002202349087017E14C
:105A9000292DE5DD21480078C007C00F0028DFD0A0
:105AA00001201D4908701B48007802210840022887
:105AB00010D1032000F0A1FB052000F09EFBFF2089
:105AC000913003F037F9032000F09CFB052000F033
:105AD00099FBF5E0032000F090FB0A480078802154
:105AE000884308490870EBE01AE0000029200020F4
:105AF000282000202720002026200020252000200C
:105B0000242000200D200020222000200000164428
:105B1000742000200E2000206C2000200C2000208B
:105B2000FE480078012802D0022808D103E00420B2
:105B300000F044FC04E0052000F040FC00E000BF61
:105B400000BF292D37DCF648007880210843F4494E
:105B50000870F4480078801EA84209DDF2480078F9
:105B6000C007C00F002803D0052000F046FB76E0F8
:105B7000EC480078801EA8420EDCEA480078C01C81
:105B8000854209DCE8480078C007C00F002803D030
:105B9000062000F032FB62E0E2480078C01C85423B
:105BA0005DDDE1480078C007C00F002857D0052010
:105BB00000F023FB53E0DA48007880218843D8497D
:105BC0000870DA48007802210840022816D1D64829
:105BD0000078C007C00F002810D0032000F00DFB94
:105BE000052000F00AFBFF20913003F0A3F803200A
:105BF00000F008FB052000F005FB30E0C948007804
:105C0000801EA84209DDC8480078C007C00F0028E0
:105C100003D0052000F0F1FA21E0C2480078801E90
:105C2000A8420EDCBF480078C01C854209DCBE4893
:105C30000078C007C00F002803D0062000F0DDFA6E
:105C40000DE0B8480078C01C854208DDB6480078F1
:105C5000C007C00F002802D0052000F0CEFAB148DE
:105C60000078801EA84209DDAF480078C007C00F49
:105C7000002803D00320A949087021E0A948007832
:105C8000801EA8420EDCA7480078C01C854209DCB3
:105C9000A5480078C007C00F002803D004209F4902
:105CA00008700DE09F480078C01C854208DD9E48C2
:105CB0000078C007C00F002802D003209749087061
:105CC0009A480078C007C00F00287BD0964800781B
:105CD00009210840092876D19148007822210840FE
:105CE000222870D1272D2DDC162000F08BFA0022FF
:105CF0000121022004F070FE0A2003F01BF804F0DA
:105D00007CFE8B490880162000F077FA0A2003F009
:105D100011F804F072FE86494880814800784021DD
:105D200008437F4908708248008881494988401AA1
:105D30001E2803DD01206946C87621E0002069465F
:105D4000C8761DE0282D12DB162000F056FA6420DC
:105D500002F0F0FF162000F055FA7148007840215B
:105D600088436F49087000206946C87608E016200D
:105D700000F043FA642002F0DDFF162000F042FA42
:105D8000AA216846017615214176012181760421F8
:105D900006A8FEF79FFA694608776648807F0028C4
:105DA00019D0052206A9634801F039FB0446002CEE
:105DB000F6D0614884420FD100BF2746002F0AD099
:105DC00000BF01E05CE014E05CA2FF21C93138466D
:105DD000FEF75AFA00BF4EE100BF2746002F07D05A
:105DE00000BF56A2FF21CE313846FEF74DFA00BF64
:105DF00041E1162000F001FA642002F09BFF16201A
:105E000000F000FA46480078402188434449087071
:105E1000AA2168460176152141760121817600216B
:105E2000C176042106A8FEF755FA6946087741486D
:105E3000807F0028CFD0052206A93E4801F0EFFA66
:105E40000446002CC7D03C4884420CD100BF2746F2
:105E5000002F07D000BF39A2FF21EB313846FEF7F3
:105E600013FA00BF07E100BF2746002F07D000BF8D
:105E700032A2FF21F0313846FEF706FA00BFFAE001
:105E8000294800780921084009286ED12448007863
:105E900022210840222868D12248007885422DDC42
:105EA000162000F0AFF900220121022004F094FD39
:105EB0000A2002F03FFF04F0A0FD1D4908801620D3
:105EC00000F09BF90A2002F035FF04F096FD184916
:105ED000488013480078402108431149087014484D
:105EE000008813494988401A1E2803DD01206946AD
:105EF000C87644E000206946C87640E0094800784A
:105F0000801C854232DB162000F077F9642002F015
:105F100011FF162000F076F901481DE06C200020EA
:105F20000D200020222000200C2000200E20002028
:105F30006E20002080210020033000002E2E5C53B4
:105F4000545343315C4E505F54656D5F4D656173D2
:105F50007572652E63000000007840218843AC49CB
:105F6000087000206946C87609E03DE0162000F080
:105F700044F9642002F0DEFE162000F043F9AA2165
:105F8000684601761521417601218176042106A813
:105F9000FEF7A0F9694608779E48807F00286AD0FE
:105FA000052206A99B4801F03AFA0446002C62D06B
:105FB000994884420CD100BF2746002F07D000BF6C
:105FC000964A8B2189003846FEF75EF900BF52E001
:105FD00000BF2746002F06D000BF904A90493846A0
:105FE000FEF752F900BF46E0162000F006F96420E3
:105FF00002F0A0FE162000F005F985480078402147
:10600000884383490870AA216846017615214176A4
:10601000012181760021C176042106A8FEF75AF9F4
:10602000694608777B48807F002824D0052206A98E
:10603000784801F0F4F90446002C1CD076488442DC
:106040000CD100BF2746002F07D000BF734A744908
:106050001C313846FEF718F900BF0CE000BF274698
:10606000002F07D000BF6D4A6D4921313846FEF739
:106070000BF900BF00BF252D32DB00F041FC694861
:10608000007840210840002830D166480078084355
:1060900064490870AA2168460176052141760121EC
:1060A00081760021C176042106A8FEF713F969461E
:1060B00008775848807F002818D0052206A955483F
:1060C00001F0ADF9044600BF2746002F07D000BFFE
:1060D000524A534939313846FEF7D6F800BF05E039
:1060E00050480078402188434E4908704E48007857
:1060F000401C4D4908700846007801283ADB002012
:106100000870AA2168460176012141760221817634
:106110003112C1760677052106A8FEF7DBF869463D
:1061200048773C48807F002824D0062206A93948B9
:1061300001F075F90446002C1CD0374884420CD17C
:1061400000BF2746002F07D000BF344A5121C900A5
:106150003846FEF799F800BF0CE000BF2746002F35
:1061600007D000BF2D4A2E495C313846FEF78CF827
:1061700000BF00BF09B0F0BD70B52C4A01212C480A
:1061800002F0E1FB044600BF2546002D06D000BF0B
:10619000224A3C212846FEF777F800BF00BFFFF7F0
:1061A0009FFA70BD70B50446002221462048006861
:1061B00002F010FC054600BF2E46002E07D000BF9F
:1061C000164A174966313046FEF75EF800BF00BF39
:1061D00070BD70B51648006802F02DFC044600BF83
:1061E0002546002D07D000BF0C4A0D496D312846C9
:1061F000FEF74AF800BF00BF70BD012181400D4A83
:1062000091607047012181400A4AD16070470000C7
:106210000D20002080210020033000003C5F0100A1
:10622000310200000C20002078200020D558010009
:10623000682000200005005070B50646F64800684A
:10624000030006F073FC0805061756959697989973
:1062500000BFF248006802F0EEFB032000F0D7F91F
:10626000042000F0D4F9052000F0D1F9062000F058
:10627000CEF982E0EA480078002809D00020E849F9
:106280000870032000F0C3F9052000F0C0F908E011
:106290000120E3490870032000F0B4F9052000F064
:1062A000B1F9E0480088002818D0DE480088401E78
:1062B000DC490880002201218903D848006802F0E7
:1062C00089FB044600BF2546002D06D000BFD6A29C
:1062D000BD212846FDF7D8FF00BF09E0CF48006880
:1062E00002F0A9FB032000F092F9052000F08FF9DD
:1062F00043E0CB480078002809D00020C849087046
:10630000042000F084F9062000F081F908E0012063
:10631000C3490870042000F075F9062000F072F9F6
:10632000C0480088002818D0BE480088401EBD49DB
:106330000880002201218903B848006802F04AFB66
:10634000044600BF2546002D06D000BFB6A2D921C5
:106350002846FDF799FF00BF09E0B048006802F049
:106360006AFB042000F053F9062000F050F904E025
:1063700003E002E001E000E000BF00BF70BD10B527
:10638000032000F036F9042000F033F9052000F076
:1063900030F9062000F02DF9032000F038F9042030
:1063A00000F035F9052000F032F9062000F02FF951
:1063B000A24A0021994802F0C6FA10BD70B5054600
:1063C0009648006802F074FB002803D193480068E7
:1063D00002F031FB00BF2B0006F0A8FB08052647A2
:1063E0006685A1BDD9F6042000F011F9062000F061
:1063F0000EF9032000F006F9052000F003F9002251
:106400000321C9038548006802F0E4FA044600BF8E
:106410002646002E06D000BF83A244213046FDF759
:1064200033FF00BF00BFD0E0042000F0EBF80620EF
:1064300000F0E8F8032000F0EAF8052000F0E7F8A3
:1064400000220321C9037548006802F0C3FA04461C
:1064500000BF2646002E06D000BF73A24D21304655
:10646000FDF712FF00BF00BFAFE0032000F0CFF840
:10647000052000F0CCF84B20C0006A4908800022BB
:10648000012189036548006802F0A4FA044600BFB0
:106490002646002E06D000BF63A255213046FDF7E8
:1064A000F3FE00BF00BF90E0042000F0B0F806202B
:1064B00000F0ADF84B20C0005A49088000220121AD
:1064C00089035648006802F085FA044600BF264654
:1064D000002E06D000BF54A25D213046FDF7D4FE49
:1064E00000BF00BF71E0032000F091F8FA2002F035
:1064F00021FC032000F086F8FA2002F01BFC0320A8
:1065000000F085F8FA2002F015FC032000F07AF87C
:10651000FA2002F00FFC032000F079F855E0042087
:1065200000F075F8FA2002F005FC042000F06AF88B
:10653000FA2002F0FFFB042000F069F8FA2002F0D4
:10654000F9FB042000F05EF8FA2002F0F3FB0420CF
:1065500000F05DF839E0052000F059F8FA2002F06B
:10656000E9FB052000F04EF8FA2002F0E3FB0520DD
:1065700000F04DF8FA2002F0DDFB052000F042F8B3
:10658000FA2002F0D7FB052000F041F81DE00620BC
:1065900000F03DF8FA2002F0CDFB062000F032F8C2
:1065A000FA2002F0C7FB062000F031F8FA2002F0D2
:1065B000C1FB062000F026F8FA2002F0BBFB062003
:1065C00000F025F801E0FFE700BF00BF70BD10B587
:1065D0001248006802F02FFA032000F018F8042097
:1065E00000F015F8052000F012F8062000F00FF872
:1065F00010BD01210522120707231B02D2188300B8
:10660000D1507047012181400D4A916070470121AE
:1066100081400B4AD1607047802000207C20002000
:1066200086200020842000202E2E5C4E505F4C459A
:10663000445C4E505F4C65642E630000396201007B
:106640000005005070B506465B480068002802D07F
:10665000012841D107E05948006802F0ECF9072011
:1066600000F0A4F839E056480078002819D000203E
:1066700053490870072000F094F800220121890393
:106680004E48006802F0A6F9044600BF2546002DDA
:1066900006D000BF4BA252212846FDF7F5FD00BFF2
:1066A00019E0012046490870072000F07FF8002219
:1066B000012189034148006802F08CF9044600BFBB
:1066C0002546002D06D000BF3EA259212846FDF7E1
:1066D000DBFD00BF00BF00E000BF00BF70BD10B514
:1066E00007200121052212070302D2188300D1508E
:1066F00000BF00F05BF8394A0021304802F023F96E
:1067000010BD70B505462D48006802F0D1F900288B
:1067100003D12A48006802F08EF927480560006816
:10672000002802D0012830D117E0072000F039F806
:106730000022012189032148006802F04BF9044638
:1067400000BF2646002E06D000BF1EA22F213046D5
:10675000FDF79AFD00BF00BF18E0072000F021F808
:106760000022012189031548006802F033F904462C
:1067700000BF2646002E06D000BF12A235213046AB
:10678000FDF782FD00BF00BF00E000BF00BF70BD8D
:1067900010B50A48006802F04EF9072000F006F82C
:1067A00010BD012181400E4A916070470121814056
:1067B0000B4AD160704700008C2000208820002008
:1067C000902000202E2E5C4E505F4D6F746F725CD7
:1067D0004E505F4D6F746F722E630000456601006E
:1067E00000050050FEB507464C480088002819D027
:1067F0004A480088401E4949088000220121C903F7
:106800004748006802F0E6F8054600BF2E46002E15
:1068100006D000BF43A240213046FDF735FD00BF42
:1068200000BF30E03E48006802F005F90F2000F09C
:1068300070F84449002008560421884341490870F3
:10684000AA21684601700521417001218170002153
:10685000C1700421FDF73EFD694608713A48807F0A
:10686000002810D00522384800F0D9FD044600BFAA
:106870002546002D06D000BF2AA24F212846FDF74D
:1068800003FD00BF00BFFEBD10B50F200121052292
:10689000120707231B02D2188300D15000BF00F05B
:1068A00038F82A4A00211E4802F04DF810BD70B594
:1068B00005461B48006802F0FBF8002803D1184881
:1068C000006802F0B8F80F2001218140204A916051
:1068D00000BF1248058000220121C903104800684A
:1068E00002F078F8044600BF2646002E06D000BF0E
:1068F0000CA22F213046FDF7C7FC00BF00BF70BDC2
:1069000010B50748006802F096F80F2000F001F873
:1069100010BD012181400E4AD160704798200020AF
:10692000942000202E2E5C4E505F56696F6C65746B
:106930005261795C4E505F56696F6C657452617933
:106940002E6300000C20002080210020E56701005C
:106950000005005010B515200121020707231B0276
:10696000D2188300D15000BF00F035F910BD704738
:10697000FEB500220121022004F02EF804F03DF8BB
:106980000546974885421DDB0720C001854219DC7A
:10699000944800782021084000280CD1072000F0FE
:1069A0001AF9C82002F0C6F90720012181408E4A59
:1069B000D16000BF00BF8B4800782021084389497F
:1069C000087005E0874800782021884385490870D1
:1069D00086480078401C85490870084600783C28A5
:1069E00005D08348007804210840042847D10020BE
:1069F0007E4908707E480078042188437C490870ED
:106A000000221146022003F0E7FF03F0F6FF0546DF
:106A1000284600F083F80646AA2168460170032143
:106A2000417001218170C6700421FDF753FC694655
:106A300008717048807F002821D005226D4800F041
:106A4000EEFC0446002C1AD06B4884420BD100BFE8
:106A50002746002F06D000BF68A2AD213846FDF7BB
:106A600013FC00BF0BE000BF2746002F06D000BF7D
:106A700062A2B2213846FDF707FC00BF00BFFEBD91
:106A800010B5044664480078012804D1002062490A
:106A90000870FFF76DFF60480078401C5E49087081
:106AA00010BD70B55D4A01215D4801F04CFF044600
:106AB00000BF2546002D06D000BF50A24421284625
:106AC000FDF7E2FB00BF00BF70BD70B504460022B9
:106AD00021465348006801F07DFF054600BF2E4661
:106AE000002E06D000BF45A24B213046FDF7CCFB5F
:106AF00000BF00BF70BD70B54948006801F09BFF42
:106B0000044600BF2546002D06D000BF3BA25221FF
:106B10002846FDF7B9FB00BF00BF70BD0146304AF3
:106B20002332914201DD642054E02D4A2332914208
:106B300005DC2B4A1432914201DD5A204AE0284AF2
:106B40001432914205DC264A521D914201DD50204B
:106B500040E0234A521D914205DC0522D2019142B8
:106B600001DD462036E00522D201914205DC1C4AB7
:106B7000193A914201DD3C202CE0194A193A914220
:106B800005DC174A283A914201DD322022E0144AFE
:106B9000283A914205DC124A373A914201DD282019
:106BA00018E00F4A373A914205DC91229200914257
:106BB00001DD1E200EE091229200914205DC872229
:106BC0009200914201DD142004E08722920091425C
:106BD00000DC0A20704701218140034A9160704720
:106BE0008A0200000D20002000050050A520002092
:106BF0000E20002080210020033000002E2E5C4E4D
:106C0000505F426174746572795C4E505F4261748A
:106C1000746572792E630000A4200020816A01004F
:106C2000A02000207047FEB5064602A9092002F008
:106C30002BFB044600BF2546002D06D000BF9BA2BB
:106C40008B212846FDF720FB00BF00BF6846007A75
:106C5000012841D11320012181409D4A916000BF4C
:106C60009C480078401C9B490870084600783228F0
:106C70001FDD0020087098480078C007C00F00286A
:106C80000CD19548007801210843934908705013AE
:106C900000F09AF9B420FFF70AFE97E08E480078DA
:106CA000400840008C4908700520C00300F0ADF991
:106CB0008CE0002289498A48006801F08BFE044676
:106CC00000BF2546002D06D000BF78A2AE21284681
:106CD000FDF7DAFA00BF79E07E480078012872DB20
:106CE0007C48007814286EDC7B480078C007C00F11
:106CF000002868D000207749087001217948FEF704
:106D000078FA79480078C007C00F00282AD10120FE
:106D100074498870744800780121084372490870EA
:106D2000AA21684601701621417001218170C1704D
:106D30000421FDF7CFFA694608716C48807F00286E
:106D40003DD00522694800F06AFB044600BF254695
:106D5000002D06D000BF55A2EE212846FDF794FA7B
:106D600000BF2CE000205F4988705F480078400831
:106D700040005D490870AA216846017016214170E3
:106D8000012181700021C1700421FDF7A3FA694639
:106D900008715648807F002811D00522534800F022
:106DA0003EFB044600BF2546002D07D000BF3FA292
:106DB000FF2102312846FDF767FA00BF00BF01211D
:106DC0004848FEF7FDF9002042490870FEBD70B545
:106DD000132000F062F8142000F05FF800BF0023D9
:106DE00021220121424802F0EBF9054600BF2E4660
:106DF000002E06D000BF2DA23B213046FDF744FAFD
:106E000000BF00BF00BF3B4A0021354801F09BFD99
:106E1000044600BF2546002D06D000BF23A23F2117
:106E20002846FDF731FA00BF00BF334A002133483E
:106E300001F089FD044600BF2546002D06D000BFA5
:106E40001AA244212846FDF71FFA00BF00BF70BDFB
:106E5000F8B505460E46002E17D1092D13D1002294
:106E60001E491F48006801F0B5FD044600BF2746D3
:106E7000002F06D000BF0DA25F213846FDF704FAAF
:106E800000BF00BF00E000BF06E0012E04D1092DC5
:106E900000D100E000BF00BFF8BD012105221207AC
:106EA00007231B02D2188300D15070472E2E5C4E50
:106EB000505F496E7075744576656E745C4E505FB8
:106EC000496E7075744576656E742E63000000001F
:106ED00000050050A92000200C2000201F05000004
:106EE000AC200020C82100200E200020802100209E
:106EF000B8200020276C0100256C0100B020002084
:106F000070B586B00546142101A805F058F9002196
:106F1000684601710020029068460173002D02D07E
:106F2000012D0ED105E0402168468182B421C18245
:106F300008E07D21890168468182E1210901C18241
:106F400000E000BF00BF01A873DF044600BF264673
:106F5000002E06D000BF4EA249213046FDF794F91D
:106F600000BF00BF06B070BD10B50446FFF731F991
:106F7000FEF790FBFFF7C4FC10BD704770B54D4A9B
:106F800000214D4801F0DFFC044600BF2546002DDE
:106F900006D000BF3EA259212846FDF775F900BF73
:106FA00000BF464A0021464801F0CDFC044600BF20
:106FB0002546002D06D000BF35A25E212846FDF7EC
:106FC00063F900BF00BF70BD10B504460020FFF795
:106FD00097FF0120FFF7F2F9072000F04EF8FA20A2
:106FE00001F0A8FE072000F04DF8FA2001F0A2FE03
:106FF000072000F042F8FA2001F09CFE072000F084
:1070000041F8304801F096FE10BD70B504460022EC
:1070100021462B48006801F0DDFC054600BF2E46E6
:10702000002E06D000BF1AA27A213046FDF72CF9B7
:1070300000BF00BF2448807F002802D000202249E2
:10704000887713212148008876DF74DFFFF7BFFAC5
:107050000020FFF7B3F90F2000F014F8072000F02C
:107060000CF8FF20F53001F065FE072000F00AF86B
:107070001448FA3001F05EFE70BD01218140144ACF
:107080009160704701218140114AD1607047000032
:107090002E2E5C4E505F506F7765724D616E61674A
:1070A000655C4E505F506F7765724D616E616765CC
:1070B0002E6300007B6F0100C8200020696F010073
:1070C000C4200020E204000080210020D6200020FF
:1070D000000500508A88828370470022D243828351
:1070E000704770B504460E46B51D2988208A814236
:1070F00013D1288B022810D100BF00BFA97EEA7EE1
:10710000120211430846C107C90F002902D001200D
:10711000A0770FE00020A0770CE02888A1888842A3
:1071200008D1206A002805D02A8B29461A3120462A
:10713000236A984770BD30B58FB004460D460020D5
:10714000079000BF6846007F01090901491C684695
:107150000177007FF021884310306946087700BF2F
:1071600000BF6846407F01090901491C6846417714
:10717000407FF021884310306946487700BF684659
:10718000807F06218843811C684681771C2108A8DE
:1071900005F015F808A8007810218843411808A8C0
:1071A0000170002009900B900C9007A80D90002012
:1071B0000E90217868468171062181800020009020
:1071C00000BF6846007801090901491C6846017042
:1071D0000078F021884310306946087000BF00BF76
:1071E0006846407801090901491C684641704078A9
:1071F000F021884310306946487000BF68468078A7
:1072000006218843811C6846817080780821884364
:10721000014668468170807810218843014668469F
:107220008170807841084900491C684681701421AA
:1072300002A804F0C4FF01A802906846039001214F
:107240000182002141821D218182608823460C3306
:1072500002AA08A9A2DF0FB030BD0246704730B5C0
:107260008FB004460D4683A0006800901C2108A83A
:1072700004F0A5FF6846099004F0ACFF81B26846AF
:10728000418504F0A7FF81B26846018508A800780F
:1072900008218843411808A8017000780421884318
:1072A000011D08A8017000200B900C900D900E900D
:1072B000217868468172052101810020019000BF7C
:1072C0006846007901090901491C68460171007985
:1072D000F021884310306946087100BF00BF68463E
:1072E000407901090901491C684641714079F02142
:1072F000884310306946487100BF6846807906218E
:107300008843811C68468171807908218843014641
:1073100068468171807910218843014668468171F1
:10732000807941084900491C68468171142103A8ED
:1073300004F045FF02A8039001A8049001216846CB
:1073400081820021C182202101836088231D03AA3C
:1073500008A9A2DF0FB030BD70B505460C46002D60
:1073600001D0002C00D170BD2088102804D0112835
:1073700007D050280FD109E021462846FFF7AAFE82
:107380000AE021462846FFF7A8FE05E021462846E8
:10739000FFF7A7FE00E000BF00BF00BFE3E770B546
:1073A00086B004460E46344B0FCB01AD0FC5002C02
:1073B00001D0002E02D10E2006B070BD0020C043C7
:1073C000A083306820620020A077214601A862DFF8
:1073D0000546002D01D02846EEE7217868468175E4
:1073E00004218182A21C05A90120A0DF0546002DF1
:1073F00001D02846E0E731462046FFF79CFE0546CF
:10740000002D01D02846D7E731462046FFF727FF59
:107410000546002D01D02846CEE70020CCE737B541
:1074200084B004460D46002C02D10E2007B030BDBA
:10743000A08B1249884202D0A07F002801D10820E9
:10744000F4E76846008B1D2801DD0720EEE70020E9
:107450000090019002900390A189684601800395F5
:1074600006A80290012168468170A08B6946A6DFBC
:10747000DCE700005478000098CF0100FFFF000017
:10748000F7B584B004460F4606980678B01C1F284E
:1074900003DC2079801C1F2802DD0C2007B0F0BD22
:1074A0001F20801B801E85B20295B11C781802A98E
:1074B0007DDF03900398002801D00398EEE7206851
:1074C000022808D168460089A84204DC09200190FE
:1074D000684605890BE0082001902079002804D037
:1074E0002079A84201DC257901E068460589681CFD
:1074F000C2B23046711CCEB23A543046721CD6B27B
:107500000199395406980178A81C0818C1B2069848
:1075100001700020C2E7F8B505460C462078001D32
:107520001F2801DD0C20F8BD684679DF0646002ED5
:1075300001D03046F7E703212278501C2070A9546F
:1075400019212278501C2070A954207841196846CE
:10755000008800F08BFA2178401820700020E2E7C4
:10756000F8B505460F4616461C466868002801D146
:107570000720F8BD2078801C298840181F2801DDCD
:107580000C20F6E72878401CC1B22278501C2070ED
:10759000B1542178481C207077542A882378981990
:1075A000696804F0F3FD20782978401820700020E5
:1075B000DFE730B503461078C01C1F2801DD0C2022
:1075C00030BD02241578681C10704C550A241578BB
:1075D000681C10704C551578681C10704B550020B5
:1075E000EEE7FFB587B006461D46109C00200690CA
:1075F00020780590002747E0B900706841180A8894
:107600006846028149884181002203A902A864DFFB
:1076100004900498002802D004980BB0F0BD68468E
:10762000017B099881422ED10698002801D00020C4
:1076300000E00220019020786946097B41180198FA
:1076400008181F2801DD0C20E7E70698002809D15B
:107650002078401C20702278511C08982170A85472
:10766000012006902078421903A902A864DF049043
:107670000498002801D00498CFE720786946097B58
:107680004018207000BF7F1C3088B842B4DC0698D8
:10769000002806D021780598401C081AC1B2059828
:1076A00029540020B9E7FFB581B0074615460A9E68
:1076B000009602223846049B0299FFF792FF044687
:1076C000002C02D0204605B0F0BD009610222946BD
:1076D0003846049BFFF785FF0446002C01D0204666
:1076E000F1E70020EFE701460888062808DB088854
:1076F0001922D201904205DD0888E14A904201D06A
:10770000072070474888062808DB48881922D201DC
:10771000904205DD4888DA4A904201D00720F0E720
:107720000888D74A904208D04888904205D00888F7
:107730004A88904201DD0720E3E70020E1E7F8B541
:1077400006460D4614462078801D1F2801D90C20BE
:10775000F8BD3046FFF7C7FF0746002F01D0384677
:10776000F6E705212278501C2070A95412212278B6
:10777000501C2070A95422785119308800F076F9F5
:1077800021784018207022785119708800F06EF925
:107790002178401820700020DAE7F8B505460E463B
:1077A00014462879801CC7B22078801CC0191F2875
:1077B00001DD0C20F8BD781CC1B22278501C20706D
:1077C000B154FF212278501C2070B15422789119B5
:1077D000288800F04BF9217840182070A8880028EC
:1077E0000EDDA868002801D10720E3E7AA882378E6
:1077F0009819A96804F0CAFC2078297940182070EB
:107800000020D7E7FEB507460E461446786B0028E1
:1078100001D10720FEBD0020019032E0796B0C22DF
:10782000019850430D182879801CC0B20090009830
:10783000401CC1B22278501C2070B154162122780D
:10784000501C2070B15422789119288800F00EF94C
:10785000217840182070A88800280EDDA86800282C
:1078600001D10720D6E7AA8823789819A96804F0DF
:107870008DFC20782979401820700198401CC0B2F6
:1078800001903820C15D01988142C7DC0020C1E72A
:10789000F8B504460F4616460025002030702068D3
:1078A000002809D0324639462046FFF7E9FD054653
:1078B000002D01D02846F8BD6079002808D0314657
:1078C0003846FFF728FE0546002D01D02846F2E78E
:1078D000208900280BDD33463A4601212046083036
:1078E000FFF73EFE0546002D01D02846E3E720695C
:1078F00000280BD000202169085632463946FFF790
:1079000058FE0546002D01D02846D4E7A08A00285D
:107910000CDD3B4606220221204614300096FFF77C
:10792000C2FE0546002D01D02846C4E7A08B0028E2
:107930000CDD3B460722032120461C300096FFF752
:10794000B2FE0546002D01D02846B4E7A08C0028E1
:107950000CDD3B4615221421204624300096FFF70B
:10796000A2FE0546002D01D02846A4E7E06A0028C3
:1079700009D032463946E06AFFF7E1FE0546002DA0
:1079800001D0284697E7206B002809D032463946B7
:10799000206BFFF702FF0546002D01D028468AE73D
:1079A0003820005D002809DD324639462046FFF7C1
:1079B00029FF0546002D01D028467CE728467AE7B6
:1079C00001460889002808D0C868002805D0C86882
:1079D000007804221040002801D1072070470020C1
:1079E000FCE701460889002801DD072070470020D8
:1079F000FCE7F3B593B00D46002112911191139855
:107A0000002814D01398FFF7DBFF0446002C02D0A7
:107A1000204615B0F0BD12AA09A91398FFF738FF48
:107A20000446002C01D02046F3E709AE00E0002612
:107A3000002D13D02846FFF7D4FF0446002C01D0B8
:107A40002046E6E711AA01A92846FFF721FF0446D0
:107A5000002C01D02046DCE701AF00E0002710A891
:107A600003793A46017A304672DFD2E702460A705D
:107A7000FF200002104000124870022070470000F2
:107A8000FFFF000001464888B74A1288904206DB93
:107A90004888B54A5288904201DC01207047002096
:107AA000FCE738B50546B1480088B14988423BD06B
:107AB000B0480078401CAF490870AF48007B097897
:107AC00088420FDBA849A948008875DF0446002CCE
:107AD00007D0A9488069002803D0A74881692046BB
:107AE000884721E00020A3490870A348007C0028B3
:107AF0000FD03B219D48008876DF0446002C07D03C
:107B00009D488069002803D09B48816920468847AA
:107B100000BF99484069002806D000200090964890
:107B200041696846884700BF38BD70B505461C22CC
:107B30002946914804F02AFB0020904908702868E3
:107B400000280BD008228848296804F01FFB8648CB
:107B50007ADF0446002C08D0204670BD82487BDFC7
:107B60000446002C01D02046F7E70020C0437F499F
:107B7000088000207F490870814A0021814800F078
:107B8000E2FEEAE710B57F48006800F054FF10BD40
:107B900038B57D48FFF776FF002829D1774800786F
:107BA00000280AD074484069002820D000200090A6
:107BB000714841696846884719E06E480078002896
:107BC00002D16D48456801E06B488568002229466E
:107BD0006C48006800F0FEFE0446002C07D06648A2
:107BE0008069002803D064488169204688470AE0FC
:107BF00061484069002806D0012000905E48416934
:107C00006846884700BF00205C49087038BD10B541
:107C10000446A08855490880082221460E315A485A
:107C200004F0B4FA0020534908705348C089002872
:107C300001D1FFF7ADFF10BD70B505460020C04370
:107C40004A49088000204B4908704E48006800F0FF
:107C5000F2FE0446002C07D047488069002803D074
:107C6000454881692046884770BD70B50546AC1D02
:107C700020884149C989884220D1208B02281DD102
:107C800000BF00BFA17EE27E120211430846C10779
:107C9000C90F002902D0FFF77BFF0FE039480068C9
:107CA00000F0C9FE0646002E07D033488069002840
:107CB00003D0314881693046884700BF70BD10B598
:107CC00004460822A11D304804F060FAFFF760FF67
:107CD00010BD10B504462088102806D0112808D001
:107CE00012280ED0502810D107E02046FFF78FFF52
:107CF0000CE02046FFF7A0FF08E02046FFF7B5FFA5
:107D000004E02046FFF7DBFF00E000BF00BF10BD2E
:107D100038B5044608222146134804F037FA1248C1
:107D20007ADF0546002D1CD11748FFF7ABFE00286F
:107D30000BD10120114908700B490C48008875DFF0
:107D4000054601200B4908700BE00B4840690028EC
:107D500006D001200090084841696846884700BF66
:107D60000025284638BD0000CC200020D620002069
:107D7000FFFF0000D4200020682B0020E42000201A
:107D8000A37A0100E0200020D820002070B506462C
:107D90000C46154629462046FCF7AAFA70BDF8B5F0
:107DA0005A480078002800D1F8BD594800680028DA
:107DB00001D1012000E00020054656480068002857
:107DC00001D1012000E00020064600BF002D14D1A3
:107DD00068464EDF0446052C01D101250CE0002C3D
:107DE00006D000BF4CA269212046FCF74DFA03E003
:107DF000474900980968884700BF002E1AD15448A7
:107E00000088009069465348006860DF0446052CEE
:107E100001D101260DE0002C06D000BF3EA280213A
:107E20002046FCF731FA04E04A48006839490968FD
:107E3000884700BF002D02D0002E00D000E0C5E72B
:107E400000BF00BFB0E7FFB581B00C4616461F4625
:107E5000002C02D1072005B0F0BD20468107890F14
:107E6000002901D1012100E00021002901D10720D2
:107E7000F1E73848046036480680374807603749DC
:107E8000019810DF0546002D01D02846E3E70120C8
:107E90001E490870162023DFDDE710B511DF044608
:107EA000002C01D0012000E0002018490870204675
:107EB00010BD0146002901D10E2070471548016010
:107EC0000020FAE70146002901D10E207047104832
:107ED00001600020FAE770B51F480068002811D043
:107EE0001D4800688047044600BF2546002D07D086
:107EF00000BF09A2FF2133312846FCF7C5F900BFB6
:107F000000BF01E0FFF74BFF70BD0000F220002032
:107F1000F8200020F42000202E2E5C2E2E5C2E2E29
:107F20005C2E2E5C2E2E5C2E2E5C536F757263655C
:107F30005C73645F636F6D6D6F6E5C736F667464AA
:107F400065766963655F68616E646C65722E630057
:107F5000F0200020EC200020E82000208D7D010092
:107F600000BF424880680128FBD100203F4988605B
:107F70003F488069C0B2704770B504460D4601267F
:107F80000AE02046641E002804DB7D20C000FCF7C8
:107F9000A1F801E0002603E0344880680128F0D110
:107FA00000BF002C05DB0020304988603048806924
:107FB0002870304670BD2E49C86100BF2B49C96981
:107FC0000129FBD10021294AD161704730B5034610
:107FD000002528466D1C1C5C05E02046FFF7EBFFE2
:107FE00028466D1C1C5C002CF7D130BDF8B5074647
:107FF0000C4615461E46204600F025F80021304666
:1080000000F02AF81A48C4604661069800280DD08E
:10801000384600F018F80021284600F01DF81448F2
:1080200005618760012012494031C862114810493A
:1080300048620420086001200F4988600860002021
:108040000A498860F8BD01210522120707231B0297
:10805000D2188300D150704710B58A0005231B0742
:10806000072424021B1984001A5110BD002100406E
:108070000025004000509D000020004010B5002861
:1080800019DAFA4A03071B0F083B9B089B00D258DA
:108090008307DC0EFF23A3409A438B071B0E840744
:1080A000E40EA3401A43F14B0407240F083CA40834
:1080B000A4001A5118E0EE4A03231B02D2188308C9
:1080C0009B00D2588307DC0EFF23A3409A438B0703
:1080D0001B0E8407E40EA3401A43E54B032424023D
:1080E0001B198408A4001A5110BD10B50446E148BC
:1080F000846003211120FFF7C1FF10BD10B50120DE
:108100000004DD494860DC4940394860112000F036
:10811000A3FD112000F092FD0120D84908602F2016
:10812000FBF7E8FF10BD10B5112001218140D04AB6
:108130008032116000BF01200004CF498860CE4921
:10814000403988600120CD4948602F20FBF7D2FFDD
:1081500010BDF0B5024628205043C94B1B68C1181A
:10816000C8480068401C002802D1C648026059E097
:10817000C4488B68006828246043C14C24680019F7
:108180008068834217D8BF48006828235843BC4BF7
:108190001B68C01880688B68C31ABA480068282416
:1081A0006043B74C246800198360B6480068486291
:1081B000B448026036E08B68B24D2C6828680DE048
:1081C00028254543AE4E3668AD19AD685B1B0446A5
:1081D00028254543AA4E3668AD19686A451C002D0E
:1081E00007D028254543A64E3668AD19AD689D4297
:1081F000E6D3451C002D0CD028254543A04E3668FB
:10820000AD19AD68EE1A282545439D4F3F68ED191D
:10821000AE608B60486228256543994E3668AD197B
:108220006A6200BFF0BD70B50246964C21680846F0
:1082300009E0904200D109E0014628244443904DD2
:108240002D686419606A441C002CF2D100BF441CE4
:10825000002C00D170BD814209D18A4C24682825A8
:108260006C43874D2D686419646A864D2C60282400
:108270004443834D2D686419A36828244443804DEA
:108280002D686419656A28244C437D4E3668A4190C
:10829000656228244C437A4D2D686419606A441C39
:1082A000002C0CD028244443754D2D686419A46813
:1082B000E51828244443724E3668A419A56000BF0F
:1082C000C8E710B5112000F0C0FC10BD10B5142097
:1082D00000F0BBFC10BD70B504466B480068002878
:1082E00013D0694A216AE06912689047054600BFC9
:1082F0002E46002E07D000BF64A2FF215F3130461A
:10830000FBF7C2FF00BF00BF02E0E169206A8847B7
:1083100070BDF8B55B480068401C00283AD00027C3
:1083200000F0CCFC044665480168204600F0C9FC1A
:1083300006465448056811E02820684350490968FA
:108340004418A068B04200D90BE0A068361AA068B3
:10835000C719656A2046FFF7BEFF00BF681C0028EA
:10836000EAD100BF5648007856490978884209D1B9
:1083700054480078401CC0B252490870022801D10C
:10838000002008704F48007880004F490F50FFF7D9
:108390009DFF00BFF8BD014649480078494A127860
:1083A00090421DD046480078401C454A1070104647
:1083B0000078022801D10020107041480078800028
:1083C000414A105808603D4A0868126880183B4AC4
:1083D0001060104600680002000A1060012070471B
:1083E0000020086000BFFAE7FEB52648006801904B
:1083F00036480078009074E00098C000344909685D
:108400004418257869E01820684361680F18681CD3
:10841000C5B2A078A84200D100253868022802D051
:10842000032857D10EE02821786848431449096889
:108430004618307E002804D07868FFF7F4FE00204C
:10844000307648E00CE00F490968282251430C4A75
:1084500012688818002101760A4A416A116000BF3B
:1084600008480068401C0028EDD134E01CED00E015
:1084700000E100E000150140401301400010014000
:10848000002100200C210020202100202E2E5C2E17
:108490002E5C2E2E5C2E2E5C2E2E5C2E2E5C536FB0
:1084A000757263655C6170705F636F6D6D6F6E5C3C
:1084B0006170705F74696D65722E63001021002019
:1084C0001C2100201D210020142100200421002057
:1084D0000821002000BF00BF00BF6078A84292D1F1
:1084E00000BF0098411EC9B20091002884D1FE4807
:1084F00001680198814201D00120FEBD0020FCE707
:10850000F0B50346002426E0F74E366828277E4360
:10851000F64F3F68F01986689E4203D98668F61ABE
:1085200086601DE086689B1B86683419002686607D
:108530000676ED4E3568EC4F466A3E604669002E81
:1085400008D00E193602360AC660466906611668FA
:108550004662156000BFE4480068401C0028D3D183
:1085600000BFF0BDFEB50746DF4800680290E04856
:10857000007801906BE00198C000DE490968451859
:108580005DE0781C002807D03E4628207043D7497C
:1085900009684418676A23E02978182359436A68F0
:1085A00050182978491C29702978AA78914201D15C
:1085B00000212970466828217143CC4A12688C1822
:1085C0000168012902D1217E002900D037E08168AD
:1085D000E160C1682161016961614169216200BF97
:1085E000C549E0680968401A0002000AC349884288
:1085F00008D2C149E068096800F063FB21694018AE
:10860000A06011E0BC48E168006800F05AFB0090EF
:1086100021690098814204D921690098081AA06054
:1086200001E00020A06000BF0020E0602061012088
:108630002076801E60623046FFF78BFD00BF781CFD
:1086400000289ED12878697888429AD100BF019885
:10865000411EC9B2019100288DD1A348016802983A
:10866000814201D00120FEBD0020FCE7FEB5054699
:108670009D480068401C002835D09B480068282190
:1086800048439A4909684018866800F017FB029031
:10869000994804682146029800F013FBC01C019021
:1086A000681C002801D1FFF729FD0198B04201D2D2
:1086B000304600E0019804192402240A204690491B
:1086C000086000BF00F0FAFA00900299009800F0EC
:1086D000F8FAC71C2046029900F0F3FA874201D944
:1086E000FFF7EFFD01E0FFF71EFDFEBDFEB5002028
:1086F000C0430190804804687B4807686846FFF7DC
:108700004AFE0546FFF770FE0646002D05D001AA79
:1087100021460098FFF7F4FE01260198FFF722FF9B
:10872000002800D00126002E02D03846FFF79EFF19
:10873000FEBD4170704770B502460B465078411C33
:108740009078884200D100211078884201D1002021
:1087500070BD196050781826704355682C18204653
:10876000F6E7FFB581B005460E461746E900614AB7
:10877000126888186946FFF7DEFF0446002C02D114
:10878000042005B0F0BD01202060666000F096FA7C
:10879000A060E760049820610A986061E900554A8A
:1087A000126888180099FFF7C4FFFFF78FFD0020BB
:1087B000E7E7F8B504460E46E1004E4A126888180D
:1087C0006946FFF7B8FF0546002D01D10420F8BD2A
:1087D000022028606E60E100464A126888180099FD
:1087E000FFF7A7FFFFF772FD0020F0E738B504465A
:1087F000E100404A126888186946FFF79CFF054669
:10880000002D01D1042038BD03202860001F6860BE
:10881000E100384A126888180099FFF78AFFFFF7CD
:1088200055FD0020EFE710B5002036490860002113
:10883000344841608160C16000203249403908609D
:108840004860FFF766FD10BD10B5FFF74FFF10BD84
:10885000FFB581B00E4617461C4620468107890F9A
:10886000002901D1012100E00021002902D10720C7
:1088700005B0F0BD002C01D10720F9E7FFF753FC4C
:1088800021490A98086021480670184804600025AC
:108890000CE0002128206843144A12681150282057
:1088A0006843124A1268801801766D1CB542F0DBED
:1088B00028207043041903200D4908700D480460F6
:1088C000183400250CE0E9000A4A126888180021D3
:1088D0000170417087704460182179430C196D1C38
:1088E000032DF0DB002013E00C21002000210020EC
:1088F000042100200821002010210020FFFF7F001C
:10890000401501404011014020210020FC200020A2
:10891000C043EE4908600020ED490870ED49087039
:10892000142000F099F903211420FFF7A7FB14206D
:1089300000F084F90198FFF7D8FB00F0BFF9E64991
:108940000860002094E770B503460C46E3480068D1
:10895000002801D1082070BD002A01D10720FAE7C4
:10896000002B01D10720F6E700211CE02820484316
:10897000DA4D2D682858002814D1012528204843B5
:10898000D64E3668355028204843D44D2D684019BE
:10899000446028204843D14D2D684019C2611960B8
:1089A0000020D8E7491CCE4800788142DEDB042055
:1089B000D1E710B500F058F9012802D0032804D1FE
:1089C00001E0002403E0012401E0022400BF00BF15
:1089D000204610BDFEB504460D461646BF48006849
:1089E000002801D10820FEBDBD480078844201D294
:1089F000052D01D20720F6E728206043B749096812
:108A00000858012801D00820EDE728206043B34929
:108A1000096840184068012801D1284600E000207C
:108A20000746FFF7C6FF3B462A46214600960190BF
:108A3000FFF797FED7E770B50446A84800680028FE
:108A400001D1082070BDA6480078844201D30720D8
:108A5000F8E728206043A14909680858012801D097
:108A60000820EFE7FFF7A5FF05462146FFF7A1FE27
:108A7000E8E710B599480068002801D1082010BD2A
:108A8000FFF797FF0446FFF7B1FEF8E710B504467D
:108A900000F014F92060002010BD70B505460E46A8
:108AA00014463146284600F00CF92060002070BDC5
:108AB00001468A480068002801D10820704788488C
:108AC0000078814201D30720F8E728204843834AF1
:108AD00012681058012801D10020EFE70820EDE7C7
:108AE0000020804908608049C86001208860704784
:108AF00001207C490860704700207A49086070476F
:108B00007A480068C007C00F002802D07848794929
:108B1000086070477848007878490860084600681F
:108B2000002801D10820086074480068704710B51B
:108B300000207349086001208107086000BF704869
:108B400000680028FBD000206E494860886006203D
:108B5000086101206C49C860FFF7DCFFFF3001307D
:108B600068494031086088156749152292018918C3
:108B700048600020644989188860012040046349E6
:108B8000486010BD10B5FFF7C5FF04466048406857
:108B9000002833D05D48406801214904084000287E
:108BA0002CD000215A4841605748152189014018AE
:108BB0004068FF30013054491522920189184860FD
:108BC00054480078002808D04F48114640184068A3
:108BD00000194C49403108600AE04B4815218901D1
:108BE0004018406800194849152292018918886088
:108BF00048480078012148404649087010BD444863
:108C00004549086145484649512212018918486082
:108C10003F48001D424989188860404940488018F3
:108C2000C1603B4808303E49891808613B493C48CF
:108C3000801841610720384908607047C206D20E8B
:108C400001219140374A11607047C206D20E0121BE
:108C50009140354A11607047C206D20E0121914001
:108C6000314A80321160704710B530484068C10504
:108C7000C90D002920D00A46103A104600280DDA06
:108C80002A4B1C330407240F083CA408A4001B59DA
:108C90008407E40EE3401B069B0F0BE0214B0324EB
:108CA00024021B198408A4001B598407E40EE34026
:108CB0001B069B0FD8B210BD0420FCE71C4840687F
:108CC00070470246501A0002000A70470C2100202B
:108CD0001C2100201D210020102100200021002047
:108CE000FC2000200000014000050140000401407C
:108CF0003546526E00060140242100202821002024
:108D00000001004000A5004000A0004000A300407A
:108D100040A100402C21002000F5014000600040EF
:108D200000F0014000E100E000E200E000ED00E0C2
:108D30000015014001B505E00098401E0090034871
:108D4000FBF7E8F900980028F6D108BDE70300001A
:108D500070B500BF01204003D149886000BF00BF4B
:108D60004000886000BF0420FBF7E4F9CC480069AC
:108D70008004C00F002807D0C94800694004C00F14
:108D8000002801D0012428E0C54800694004C00F34
:108D9000002821D00024122519E000BF0120800303
:108DA000BF49C86000BF0420FBF7C4F900BF012021
:108DB0008003BB49886000BF0420FBF7BBF9B848BB
:108DC00000698004C00F002801D0012403E0284678
:108DD0006D1E0028E1D100E00024204670BD10B5D2
:108DE00000BFB0480521090707221202891848630D
:108DF00000BF00BF052109078918886300BF00BFB5
:108E000001208003A649886000BF00BF886100BFC1
:108E100000BF4010886000BF00BF886100BFFFF73F
:108E200097FF10BD08B50320009000BF012080030C
:108E30009B49886000BF0420FBF77CF905E000989F
:108E4000411E0091002800D108BD954800694004EA
:108E5000C00F0028F3D00120F6E710B500BF0120B5
:108E600040038F49C86000BF0420FBF763F9FFF798
:108E7000D9FF002800D110BD00BF01204003884960
:108E8000886000BF0420FBF755F90120F3E770B5B7
:108E90000646012400BF60038149886100BF802528
:108EA0001FE000BF012080037D49C86000BF04208F
:108EB000FBF740F930462840002805D000BF0120CC
:108EC00040037749886005E000BF012040037449F2
:108ED000C86000BFFFF7A6FF002801D1002402E010
:108EE0006D08002DDDD100BF00BF012080036C495B
:108EF000C86000BF0420FBF71DF900BF012040033C
:108F00006749C86100BF0420FBF714F9FFF78AFF27
:108F1000044063480069400B01214840044000BF01
:108F200088035F49C86000BF0420FBF703F900BF56
:108F3000012040035A49886100BF204670BDF8B542
:108F400005460E4600270120009000BF400354490B
:108F5000C86100BF802418E0FFF764FF002801D13A
:108F6000009014E04E4800698004C00F002802D031
:108F700038462043074600BF012080034849C860A7
:108F800000BF0420FBF7D6F86408002CE4D100BF32
:108F900000BF012040034249886100BF2F70002EAE
:108FA00002D000BFC86005E000BF012040033C497B
:108FB000886000BF0420FBF7BDF8FFF733FF0028EF
:108FC00000D1009000BF012080033549C86000BF78
:108FD0000420FBF7AFF80098F8BD10B500BF0120E2
:108FE00040032F49886000BF0420FBF7A3F8FFF778
:108FF00019FF002800D110BD00BF012040032849FF
:10900000C86000BF0420FBF795F800BF0120800373
:109010002349C86000BF0420FBF78CF80120EAE771
:10902000FFB581B007460D4616460124FFF7D5FF70
:1090300004403846FFF72BFF0440F807C00F002814
:1090400016D00DE0002E05D100212846FFF777FF4E
:10905000044004E001212846FFF771FF04406D1C25
:109060003046711ECEB200280FD0002CEAD10CE0A1
:1090700004E02878FFF70BFF04406D1C3046711E9A
:10908000CEB2002801D0002CF3D10498002801D1E1
:10909000002C02D1FFF7E1FE0440204605B0F0BDF0
:1090A000000500500C060000F8B504460D46924835
:1090B0000068002813D0EAB221788F4BA0681B68A3
:1090C0009847064600BF3746002F06D000BF8BA248
:1090D00028213846FBF7D8F800BF00BF0CE0002D70
:1090E00004D120780021A268904705E0012D03D12A
:1090F00020780121A2689047F8BDF8B50746694677
:109100008B48007800F0F5FA0646002E00D0F8BD36
:10911000002535E00C2068438649096844188648D4
:109120000068227801219140084000280FD0A068F3
:1091300000280CD06078012804D101212046FFF7D7
:10914000B3FF1BE000212046FFF7AEFF16E07A4890
:109150004068227801219140084000280ED0A06884
:1091600000280BD06078012804D100212046FFF7A9
:109170009BFF03E001212046FFF796FF681CC5B264
:109180006E4800788542C5DB00BFC0E770B5044675
:109190000D466B480068FFF74EFC0646002E00D0D7
:1091A00070BD654844600560204628430246654816
:1091B000016863480068FFF70DFC064600BFEFE753
:1091C000FFB583B006460C461746052F02D207208E
:1091D00007B0F0BD5748066058480470594807600A
:1091E000454906980860002516E00C21614388195E
:1091F00002780092416801910199890005221207C5
:1092000007231B02D318009A9200995000BF0278DE
:10921000012191400D4300BF2046611ECCB20028C1
:10922000E3D1494B2A462946414800F08BF9029088
:109230000298002801D00298CAE7444A0021404819
:10924000FFF781FBC4E710B53A480068002801D158
:10925000082010BD3648007800F0B9F9F9E710B5DC
:1092600034480068002801D1082010BD304800783B
:1092700000F01EFA0446002C01D02046F5E73048E5
:109280000068FFF7D8FBF0E7F8B505460C460C2060
:10929000684328490968471826480068002801D112
:1092A0000820F8BD69462248007800F022FA0646F8
:1092B000002E01D03046F4E7787800280BD10098D2
:1092C000E840C007C00F002802D00120207010E045
:1092D000002020700DE0787801280AD10098E8403D
:1092E000C007C00F002802D00120207001E000203C
:1092F00020700020D5E700003C2100202E2E5C2E9F
:109300002E5C2E2E5C2E2E5C2E2E5C2E2E5C536F31
:10931000757263655C6170705F636F6D6D6F6E5CBD
:109320006170705F627574746F6E2E630000000070
:10933000402100203021002048210020342100203D
:1093400044210020382100208D910100FB90010074
:10935000F0B502460C46002037E001238340194651
:1093600023460B40002B2FD0D5680D40002D05D192
:1093700001235B04D5680D43D56004E003231B047F
:10938000D5688D43D56005252D0707263602AD1912
:109390008600AD5903263604B54305263607072750
:1093A0003F02F6198700F55105252D0707263602DD
:1093B000AD198600AD591D430526360707273F0224
:1093C000F6198700F55100BF401C2028C5D3F0BD19
:1093D000F0B585B0EF4805690020EF49C863002665
:1093E0003FE014207043ED49096844180120B04063
:1093F000EB4909680840002831D0E068C043684064
:1094000021680840074639462046FFF7A1FFE1489A
:10941000006968400390039800280ED00398054324
:10942000E068C043684021680840009020460099E9
:10943000FFF78EFF0098074300BFA068A84338409D
:1094400001906068284038400290019902980843D2
:10945000002803D0226901990298904700BF701C30
:10946000C6B2D04800788642BBDB05B0F0BD10B56F
:109470000146002029E014224A43C84B1B689A5831
:10948000012383401A40002A1ED005221207072319
:109490001B02D2188300D25803231B049A430523CE
:1094A0001B07072424021B1984001A5105221207E6
:1094B00007231B02D2188300D25805231B07072459
:1094C00024021B1984001A51401C2028D3D310BD3C
:1094D00070B505460C46002C01D1072070BD204612
:1094E0008107890F002901D1012100E00021002915
:1094F00001D10720F2E7A9480460AB4805700020BD
:10950000A8490870A6490860A7480078142250436B
:109510000146A248006802F052FE0020C043A34961
:109520008860062001218140A14A116000BF01210D
:1095300000F0F9F80620012181409E4A116000BF29
:109540000020CBE7F8B504460D4616461F46934863
:109550000068002801D10820F8BD002F01D10720A4
:10956000FAE79048007890490978884201DB0420A6
:10957000F2E7284630438B49097814225143874A41
:10958000126850508748007814214843834909687D
:109590004018456083480078142148437F49096892
:1095A000401886607F480078142148437B49096849
:1095B000401807617B48007820707A480078401C8A
:1095C000784908702078FFF752FF0020C4E7F0B513
:1095D000024672480068002801D10820F0BD714899
:1095E0000078824201DB0720F8E700206A4BD8634D
:1095F000684804696A480068002802D158066B4B25
:10960000586001209040664B1B681843644B1860FB
:10961000002314205043614D2D684019C360002180
:1096200042E001238B401846142353435B4D2D68C1
:10963000EB580340002B36D025460540002D02D0C4
:1096400003231B040EE001235B0414255543534EF2
:109650003668AD19ED680543142656434F4F3F68F1
:10966000F619F56005252D0707263602AD198E007F
:10967000AD5903263604B5430526360707273F02B2
:10968000F6198F00F55105252D0707263602AD196D
:109690008E00AD591D430526360707273F02F619F0
:1096A0008F00F55100BF491C2029BAD3002095E74F
:1096B00010B5044639480068002801D1082010BDC3
:1096C00038480078844201DB0720F8E72046FFF79E
:1096D000CEFE0120A0403249096881433048016034
:1096E0000068002803D10120C007304988600020AD
:1096F000E5E710B5024629480068002801D1082096
:1097000010BD28480078824201DB0720F8E71420CA
:109710005043224C246803191E4800691C682040ED
:1097200008600020ECE710B5002819DA224A030788
:109730001B0F083B9B089B00D2588307DC0EFF23BE
:10974000A3409A438B071B0E8407E40EA3401A43E1
:10975000194B0407240F083CA408A4001A5118E070
:10976000144A03231B02D21883089B00D258830794
:10977000DC0EFF23A3409A438B071B0E8407E40EE5
:10978000A3401A430B4B032424021B198408A40092
:109790001A5110BD000500504061004058210020C2
:1097A000502100205521002054210020006300405A
:1097B00080E200E000E100E01CED00E00023142165
:1097C0004143F64A53541421414389184B800423E2
:1097D0001421414389188B600023142141438918C7
:1097E000CB601421414389180B611421414389182E
:1097F0008B80704710B50020E9490880E94908606E
:10980000E649091F087048708870002403E020466C
:10981000FFF7D4FF641C202CF9D310BDFFB581B035
:1098200004460F4615460326DE48006800280BD183
:10983000002D06D10498002803D10220D9490860E0
:1098400002E00120D7490860D6480068030003F011
:109850006DF907A3051A37567592A300012000077A
:1098600000690004820C01200007006980B278437F
:109870000146F120800251DF0646002E02D102206F
:10988000C849086089E0384650DF0646002E16D1E8
:10989000002D11D1049800280AD12078042803D182
:1098A0000720C04908600AE00520BE49086006E0BC
:1098B0000420BC49086002E00320BA4908606CE05B
:1098C00001210907096989B2794308462A46F1212D
:1098D000890251DF0646002E10D1049800280AD1D3
:1098E0002078042803D10620AE49086006E0052050
:1098F000AC49086002E00420AA4908604DE0AA00D3
:10990000F1239B02D2186388D11801221207126931
:1099100092B27A43AB00D2186388D018049A51DF10
:109920000646002E09D12078042803D106209D493F
:10993000086002E005209B4908602EE00120000736
:10994000006980B27843AB00C0180090608882083C
:109950002169009851DF0646002E0BD1002D06D15B
:109960000498002803D107208E49086002E00620F1
:109970008C49086011E001200007006981B2F120E4
:10998000800202F0EFFB009050DF0646002E02D16D
:1099900007208449086000E000BF00BF304605B0E2
:1099A000F0BDF0B585B00F277C48001F007814216A
:1099B00048437A494418E5682078022804D00428EE
:1099C00023D005286FD16FE0206903907448008888
:1099D00086026088801B0490039880190390A088F9
:1099E00080194519012189020498884206D20498F9
:1099F00082082846039951DF074605E0FF2201321D
:109A00002846039951DF074676E0A06800016649C1
:109A1000401800890490A068000140184089039014
:109A2000A06800014018406802900298A84205D141
:109A30000399049848436188884202D0A0680528A9
:109A40000DD101200007006981B2284602F074FBA5
:109A5000534909884618304650DF074622E0012066
:109A60000007006981B2284602F066FB0646012025
:109A70000007006980B27043281A80080190012015
:109A80000007006980B2711C484361884919401A77
:109A90008008009031462046009B019AFFF7BEFEE9
:109AA000074600BF28E026E001200007006981B2D8
:109AB000284602F041FB0646A08841190120000714
:109AC000006980B27043081A80080490A088401989
:109AD0006188421801200007006980B2711C484368
