:020000040001F9
:10400000103F0020754101008741010089410100F6
:1040100000000000000000000000000000000000A0
:104020000000000000000000000000008B410100C3
:1040300000000000000000008D4101008F410100E0
:1040400091410100914101007F4E01009141010029
:104050009141010000000000259201009141010002
:104060009141010091410100D98901009141010074
:1040700091410100914101009141010091410100F4
:10408000914101007B8601009141010091410100B5
:104090009D860100914101002B7D010091410100AD
:1040A000914101009141010000000000000000006A
:1040B0000000000000000000000000000000000000
:1040C0000348854608F09EFB00480047334F010037
:1040D000103F0020401E00BF00BF00BF00BF00BF58
:1040E00000BF00BF00BF00BF00BF00BF00BFF1D1D5
:1040F00070470000401E00BF00BF00BF00BF00BFF0
:1041000000BF00BF00BF00BF00BF00BF00BFF1D1B4
:1041100070470000401E00BF00BF00BF00BF00BFCF
:1041200000BF00BF00BF00BF00BF00BF00BFF1D194
:1041300070470000401E00BF00BF00BF00BF00BFAF
:1041400000BF00BF00BF00BF00BF00BF00BFF1D174
:1041500070470000401E00BF00BF00BF00BF00BF8F
:1041600000BF00BF00BF00BF00BF00BF00BFF1D154
:10417000704700000748026803210A4302600648AE
:10418000804706480047FEE7FEE7FEE7FEE7FEE75A
:10419000FEE700002405004045420100C140010047
:1041A00032483349086070473248008CC0B2012859
:1041B00012D13048808C0007000F00280CD12D4808
:1041C000806AF0210840402806D12A48C06A084089
:1041D000002801D1012070470020FCE72548008C11
:1041E000C0B201282CD12348808C0007000F002882
:1041F00026D12048806AF0210840002806D11D48B9
:10420000C06A0840002801D1012070471948806A1F
:10421000F0210840102806D11648C06A084000283E
:1042200001D10120F1E71348806AF02108403028CD
:1042300006D11048C06A0840002801D10120E4E7F7
:104240000020E2E710B5FFF7C9FF002805D00A48B3
:104250000A494860C8130A498861FFF7A5FF00288A
:1042600002D001200749886010BD00000024F4003E
:1042700000200020C00F00F0DFFF07C00005004055
:10428000006C00400006004000F00BFF70B500BF5E
:10429000F949052005F046F8044600BF2546002DE3
:1042A00005D000BFF5A29F212846FFF7EDFF00BF14
:1042B00000BF082001210522120707231B02D21884
:1042C0008300D15000BF002303220821184600F0CC
:1042D000F2FE70BD10B502460B460020002100BF63
:1042E00003E0545C60404C1CA1B29942F9DB10BD64
:1042F00004460D462A462146E348FFF7C5FF38B578
:1043000000BF0020E14B05221121009004F0CAF902
:10431000044600BF2546002D05D000BFD7A2E321EB
:104320002846FFF7B1FF00BF00BF38BD3EB500BF54
:104330006846007801090901491C00916846007827
:10434000F02188431030009000BF0622D0A16846BB
:104350007CDF044600BF2546002D05D000BFC7A264
:10436000F6212846FFF790FF00BF00200190029041
:104370001021684681803C21C18000210181FF21FC
:104380009131418101A87ADF044600BF2546002D06
:1043900005D000BFB9A2FF212846FFF775FF00BF77
:1043A0003EBD30B5A1B006210291BB480068019026
:1043B000BA480178684681713C2112A807F0EFFDE8
:1043C00002201290002110A841730121018202A94C
:1043D00015913C2103A807F0E2FD01216846018503
:1043E00001A90B9103A912A803F02DFA044600BFFE
:1043F0002546002D06D000BFA0A2FF21253128466A
:10440000FFF742FF00BF21B030BDF7B586B01746B9
:10441000781C0590059808F013FC0646381D04909A
:10442000049808F00DFC04460020039000BF03E050
:104430000799095C3154401CB842F9DB30785528A3
:104440007ED1707850287CD013DC15287AD007DC18
:104450001038030008F01CFA05225D95FCFB7A0079
:10446000162870D017286FD020286ED030286DD134
:1044700012E280286BD008DC512869D0602868D00F
:10448000612867D07028F2D194E2812876D09028F4
:1044900075D0912874D09228E9D158E3F078252876
:1044A00036DBF078322833DCF0787D490870012162
:1044B0007C4800F074FE7A4800787A49087001213F
:1044C000784800F053FEAA2020701320607001206D
:1044D000A07073480078E07004212046FFF7FAFED0
:1044E00020716E48807F002812D0052221466B483B
:1044F00002F0BFFE054600BF0295029D002D06D0CA
:1045000000BF5EA2FF2158310298FFF7BDFE00BF39
:104510001FE3AA202070012060700220A070624872
:104520000078E07061480078207105212046FFF78F
:10453000D1FE60715948807F00281ED006220AE013
:1045400008E3B0E1FDE031E151E192E100E34BE24B
:10455000BEE1E6E107E22146504802F08AFE054648
:1045600000BF0295029D002D06D000BF43A2FF218F
:104570006A310298FFF788FE00BFEAE2B8E2E4E29F
:10458000E4E20121474800F00AFEB07801282BD16F
:1045900047480078082108434549087001204149EF
:1045A0004870AA202070082060700120A070E07080
:1045B00004212046FFF78EFE20713848807F0028B6
:1045C00012D005222146354802F053FE054600BFB1
:1045D0000295029D002D06D000BF28A2FF21823146
:1045E0000298FFF751FE00BFB07800282CD1304868
:1045F0000078082188432E49087000202949487016
:10460000AA202070082060700120A0700020E070B7
:1046100004212046FFF75EFE20712048807F00289D
:1046200012D0052221461D4802F023FE054600BF98
:104630000295029D002D06D000BF10A2FF219631E9
:104640000298FFF721FE00BF0121164801E050E06B
:1046500002E000F08BFD7CE2AA2020700820607050
:104660000120A0701248007808210840082821D1B4
:104670000120E07020E00000B02600202E2E5C6DAE
:1046800061696E2E63000000EFBEADDE14270020CE
:104690004665656465720000F8CC01004822002080
:1046A000222000209022002064200020652000208D
:1046B0000C2000200020E07004212046FFF70AFEB5
:1046C0002071FC48807F002812D005222146F9483D
:1046D00002F0CFFD054600BF0295029D002D06D0D9
:1046E00000BFF54AFF21AC310298FFF7CDFD00BFB6
:1046F0002FE2F2480290AA2020701320607001205F
:10470000A07002980078E07004212046FFF7E2FDD7
:104710002071E848807F002812D005222146E54814
:1047200002F0A7FD054600BF0195019D002D06D0B2
:1047300000BFE14AFF21BF310198FFF7A5FD00BF8F
:1047400007E2DF48007840210840402816D1AA201F
:104750002070152060700120A070E07004212046B8
:10476000FFF7B8FD2071D348807F00281DD00522B7
:104770002146D04802F07DFD054616E0AA202070B3
:10478000152060700120A0700020E07004212046F8
:10479000FFF7A0FD2071C748807F002805D00522C3
:1047A0002146C44802F065FD0546D2E1C5480078BF
:1047B000C007C00F002802D00120E07001E00020F7
:1047C000E070AA202070162060700120A0700421E3
:1047D0002046FFF77FFD2071B648807F002805D076
:1047E00005222146B34802F044FD0546B1E1B07808
:1047F00000281DD1B348007840084000B149087036
:10480000AA202070162060700120A070B078E0709F
:1048100004212046FFF75EFD2071A648807F002816
:1048200026D005222146A34802F023FD05461FE0BD
:10483000B07801281CD1A348007801210843A14980
:104840000870AA202070162060700120A070B07837
:10485000E07004212046FFF73DFD20719548807FE0
:10486000002805D005222146924802F002FD0546A7
:104870006FE1B07894490870F07894490870307905
:1048800093490870707993490870B079924908701B
:10489000F079924908705CE18A4800780421084365
:1048A0008849087055E1B0780C2810D100218C4857
:1048B00000F075FC002004E0C11C715C884A1154B2
:1048C000401C0C28F8DB0021854800F04FFC40E13B
:1048D0007520C0020290AA202070062060700C2073
:1048E000A070002004E00299095CC21CA154401C85
:1048F0000C28F8DB6F48807F002811D00F2221465A
:104900006C4802F0B6FC054600BF0195019D002DE4
:1049100005D000BF684A73490198FFF7B5FC00BF96
:1049200017E1FF203ADF054600BF0295029D002DEA
:1049300006D000BF604A6B49C91D0298FFF7A4FC6E
:1049400000BF012039DF054600BF0295029D002D02
:1049500006D000BF584A634909310298FFF794FC1A
:1049600000BF00F09EFBAA2020700720607002208C
:10497000A0700120E0700D20207105212046FFF776
:10498000A9FC60714B48807F002812D00622214686
:10499000484802F06EFC054600BF0295029D002DBE
:1049A00006D000BF444A972189000298FFF76CFCAB
:1049B00000BFCEE03F48807F002802D000203D4964
:1049C000887701F0D7FE13214748008876DF74DF2F
:1049D00001F037FD002001F02BFC4448007840082E
:1049E000400042490870B4E0B078012832D13F4815
:1049F00000784021084000282CD13C480078042150
:104A000008433A4908704B20C00001F08AFEAA20F2
:104A10002070052060700120A070E0700421204605
:104A2000FFF758FC20712348807F002812D0052210
:104A30002146204802F01DFC054600BF0295029D5C
:104A4000002D06D000BF1C4A26493C310298FFF7D2
:104A50001BFC00BFB07800282BD12448007804212B
:104A600088432249087001F085FEAA2020700520A5
:104A700060700120A0700020E07004212046FFF744
:104A800029FC20710B48807F002812D00522214686
:104A9000084802F0EEFB054600BF0295029D002D7E
:104AA00006D000BF044A292109010298FFF7ECFB58
:104AB00000BF4EE0482200207C46010020A80300F1
:104AC0000D2000200E200020232000202420002084
:104AD000252000202620002027200020282000203C
:104AE00090220020420200000A2000200C2000201A
:104AF000FB48007804210840042802D10120E0701E
:104B000001E00020E070AA202070052060700120E4
:104B1000A07004212046FFF7DDFB2071F148807F63
:104B2000002811D005222146EE4802F0A2FB0546DE
:104B300000BF0295029D002D05D000BFEA4AEB4957
:104B40000298FFF7A1FB00BF03E002E001E000E0F4
:104B500000BF00BF204608F049F8304608F046F88C
:104B600009B0F0BD38B500200090E14800906946DA
:104B7000DC4802F03EFB044600BF2546002D06D06F
:104B800000BFD94AC32189002846FFF77DFB00BF3B
:104B900038BD0A20D7490880084680784008400080
:104BA000401C88700846807802218843D14988706B
:104BB000084680781C2188430C30CE49887008460E
:104BC000807820218843CB4988700720C870102046
:104BD0000871704770B505462868002810D13B2140
:104BE000C548008876DF044600BF2646002E06D062
:104BF00000BFBD4ABD4988313046FFF745FB00BFC5
:104C000070BD044600BFB84ACF2189002046FFF797
:104C10003BFB30B587B01C21684607F0C0F9002087
:104C20000090052040040190801002900321684606
:104C300001730021C1810174B0480590B04806900D
:104C4000684602F09CFE044600BF2546002D06D0B3
:104C500000BFA54AA549AA312846FFF715FB00BFAA
:104C600007B030BDF8B505462888142853D006DCB7
:104C700010280BD011280DD0132877D11FE017284A
:104C800043D0192874D05228F7D12BE0A8889A492C
:104C9000088082E00020C04397490880904800784F
:104CA000C007C00F002809D08E48807F002802D09E
:104CB00000208C498877002002F04CF86DE08D4A86
:104CC00000218D4800887FDF044600BF2746002F63
:104CD00006D000BF844ADF2189003846FFF7D4FAA6
:104CE00000BF5AE00022114683480088A9DF04462D
:104CF00000BF2746002F06D000BF7B4A7B49D83132
:104D00003846FFF7C1FA00BF47E03222A91D7D48AF
:104D100007F02CF941E07B4EB61D3188E8898142CD
:104D200011D1002231467448008881DF044600BF5B
:104D30002746002F06D000BF6B4A6C49E431384645
:104D4000FFF7A2FA11E0002211466B48008881DFCC
:104D5000044600BF2746002F06D000BF624A6349C1
:104D6000EA313846FFF790FA00BF16E014E0FFE79B
:104D7000A87900280FD164480078012108436249CE
:104D800008705848807F002802D000205549887755
:104D9000012001F0DFFF00E000BF00BFF8BD10B54B
:104DA0000446204602F0BFFE21464E4802F0FEF9BE
:104DB0002046FFF757FF10BD10B50446204604F00B
:104DC00063FE10BD70B500BF002358224F490E206E
:104DD00002F063FF054600BF2E46002E05D000BF3F
:104DE000414A4B493046FFF74FFA00BF00BF4948E0
:104DF00002F089FF044600BF2546002D06D000BF03
:104E0000394A4349091D2846FFF73EFA00BF424888
:104E100002F082FF044600BF2546002D06D000BFE9
:104E2000314A3D2109012846FFF72EFA00BF70BD27
:104E300070B53DDF044600BF2546002D06D000BFFB
:104E4000294A334910312846FFF71EFA00BF70BDCA
:104E500008B50020102313220F210090142002F027
:104E6000EFFF04202D4948600321022000F0E2F802
:104E70000220012181402A4A116000BF08BD70B59F
:104E800002F098FF2749284A12788854264800786B
:104E9000401C2549087008460078401E2149085CDE
:104EA0000A2803D0204800781C2818DB1E48027806
:104EB000521C1C490B4802F0DCF90446082C0BD0AC
:104EC00000BF2546002D06D000BF074A10493931E2
:104ED0002846FFF7D9F900BF00201349087070BDBC
:104EE0000C200020482200207C460100A90200007E
:104EF0000B440100042000200A200020D54B0100B3
:104F0000034C0100842B00200D200020B82B002032
:104F1000C90300009F4D0100B94D0100002300406E
:104F200000E100E0102C00203120002010B5029C90
:104F300010BD00207949087079490870FFF7DFF942
:104F400001F042FC152001218140764A916000BFAA
:104F500001F0E2FC0120C00301F0F2FCFFF796F93A
:104F600003F077FD03F00DFD01F05CFE04F095F811
:104F7000044600BF2546002D05D000BF6A4A6B4994
:104F80002846FFF781F900BF01F033F901F0E1FA9B
:104F900001F0B4FBFFF716FFFFF7C8F9FFF7E2FDDA
:104FA000FFF7FFF9FFF735FEFFF7F3FD202060491B
:104FB00088800120C8805F48086001215E4800F0B9
:104FC000EEF801215C4800F0D1F85B4800785B49BD
:104FD000087059484078012806D1504800780821C7
:104FE00008434E49087005E04C4800780821884382
:104FF0004A490870322003F0C7FD00F0F9FF012094
:10500000C00301F00BF8322003F0BEFD00F0EBFA14
:105010000120C00300F0FDFA404800780121084358
:105020003E4908700320C00301F0F8FE00BFFFF7FF
:10503000FFFEFCE710B5002819DA414A03071B0FF1
:10504000083B9B089B00D2588307DC0EFF23A3403C
:105050009A438B071B0E8407E40EA3401A43384B78
:105060000407240F083CA408A4001A5118E0354A8C
:1050700003231B02D21883089B00D2588307DC0E3F
:10508000FF23A3409A438B071B0E8407E40EA34023
:105090001A432C4B032424021B198408A4001A5120
:1050A00010BDBFF34F8F284825491C39C860BFF396
:1050B0004F8F00BFFEE770B5002B0BD101248C4051
:1050C000184DEC60214C224D51263601AD19860059
:1050D000AC510AE001248C40124DAC601D4C1C4DBB
:1050E00051263601AD198600AC5100BF00BF00BF8C
:1050F00001248500164EAD192C600C0203252C43AB
:1051000015042C431D052C43354651263601AD1997
:105110008600AC5100BF00BF00BF70BD0C20002056
:105120000D200020000500507C46010036040000E0
:10513000182000202D4F0100902200202220002066
:105140001CED00E000E100E00400FA05031F02008E
:1051500000600040031F010070B504460D4616466E
:1051600032462946204605F004F970BD70B5044664
:105170000D4668017521C9024018FE4908600023E8
:1051800020222146FC4804F027FE0023202221464D
:10519000F94804F096FE0A2003F0F6FC70BDF8B55D
:1051A00007460C4660017521C9024018F1490860A4
:1051B00004F00DFD054600BF2E46002E06D000BFB0
:1051C000EEA268213046FFF75FF800BF00BFEA4952
:1051D000F24804F031FD00232022E749384604F06C
:1051E000D5FE0A2003F0D0FCF8BD10B502460B46F0
:1051F0000020002100BF03E0545C60404C1CA1B2C1
:105200009942F9DB10BDF0B587B00746002502A82A
:10521000033005F047FD022106A805F0C5FE6846EB
:10522000008B85B2684605720571072000F021FAEF
:10523000DB4800788021084080283DD1D94800789B
:10524000C007C00F002837D0D64800784121084059
:10525000412807D16846007A462803DB6846007A71
:10526000642809DDCF48007841210840412816D143
:105270006846007AA52812DB072000F0F5F9C8205F
:1052800003F082FC072000F0F4F9C64800782021E2
:105290008843C449087000206946C87208E0C148C4
:1052A000007820210843BF49087001206946C87270
:1052B0006846C17A417110E06846007A41280CDBEB
:1052C000B8480078C007C00F002806D0FF209130F2
:1052D00003F05AFC072000F0C7F96846007A41281D
:1052E00006DBB148007802210843AF49087005E0A9
:1052F000AD48007802218843AB4908706846007ABF
:105300001E2806DDA648007802218843A4490870BB
:1053100005E0A348007802210843A1490870A0488D
:105320000078C007C00F002826D09E480078C0072C
:10533000C00F002820D06846007A9C490978401A9E
:10534000072808DC6846007A98490978401A06213F
:10535000C943884210DA92480078400840009049DA
:1053600008709348807F002802D0002090498877F9
:1053700074DF002001F0EEFC6846007A64285CDBF4
:105380006846007AAA2858DC8A480078401C894977
:10539000087089480068401E874908608548007881
:1053A000142849DB8248807F00283ED0AA21684625
:1053B0000172042141720721817280480178684698
:1053C000C1727F480178684601737E48017868465B
:1053D00041737D480178684681737C48017868464E
:1053E000C1737B480178684601747A480178684641
:1053F00041740A2102A8FEF76DFF694688746C4863
:10540000807F002811D00B2202A9694801F031FFEA
:10541000044600BF2646002E06D000BF57A2F82142
:105420003046FEF731FF00BF00BF00206149087021
:10543000694908706049086072E05E480078052894
:105440006BDB5C480078052867DB5A480078142835
:1054500063DC61480078002808D15F480078401C70
:105460005D4908703C205449086056E05248006885
:1054700000284DDB58480078012849D14C48807FEE
:1054800000283FD0AA2168460172042141720721F9
:1054900081724A4801786846C17249480178684675
:1054A0000173484801786846417347480178684667
:1054B0008173464801786846C1734548017868465B
:1054C000017444480178684641740A2102A8FEF735
:1054D00001FF694688743648807F002812D00B226D
:1054E00002A9334801F0C5FE044600BF2646002E3F
:1054F00007D000BF21A2FF2161313046FEF7C4FE74
:1055000000BF00BF0020344908702B49086004E048
:10551000002031490870284908600020254908709A
:1055200068464179C172017901730079062803DC6C
:1055300000206946087306E068460079A52802DB6A
:10554000B42069460873AA2168460172022141729B
:105550008172052102A8FFF748FE69464873144886
:10556000807F00283DD0062202A9114801F081FE6B
:10557000044633E064210020102000202E2E5C4ED3
:10558000505F416E676C655C4E505F416E676C6545
:105590005F4D6561737572652E63000018200020F1
:1055A0000D2000200C2000200E200020352000209F
:1055B000482200205C2000206020002023200020C2
:1055C0002420002025200020262000202720002045
:1055D00028200020292000205D200020002C00D061
:1055E00000BF07B0F0BD70B5244A0121244803F084
:1055F000D4F8044600BF2546002D06D000BF214A3E
:1056000081212846FEF740FE00BF00BF05F017FCD1
:1056100070BD70B50446002221461948006803F0A9
:1056200003F9054600BF2E46002E07D000BF154ADD
:10563000FF21D9313046FEF727FE00BF00BF70BD05
:1056400070B50F48006803F020F9044600BF2546F6
:10565000002D07D000BF0B4AFF21E0312846FEF79E
:1056600013FE00BF00BF70BD01218140064A91605A
:10567000704701218140044AD16070470752010000
:10568000582000207C5501000005005010B5162060
:1056900001210522120707231B02D2188300D150D3
:1056A00000BF00F0E6FC10BD00B5FE480078401CCD
:1056B000FC490870084600783C2873D10020087027
:1056C000F9480078401CF8490870084600783C28E2
:1056D000F3D100200870F5480078401CF3490870A9
:1056E000084600781828E8D100200870F0480078B3
:1056F000401CEF490870EF480078030007F0C8F835
:105700000DBD0815384553606D7A8794A1AEBD0074
:10571000E74800781F2807D10120E5490870E548CF
:105720000078401CE3490870A8E0E3490878C117F5
:10573000890F091889108900411A0CD0DC480078BB
:105740001D2814D10120DA490870DA480078401C7D
:10575000D84908700BE0D64800781C2807D10120F2
:10576000D3490870D3480078401CD249087085E0BE
:10577000CF4800781F2807D10120CD490870CD48B7
:105780000078401CCB49087078E0C94800781E2892
:1057900007D10120C6490870C6480078401CC54999
:1057A00008706BE06BE0C24800781F2807D1012029
:1057B000BF490870BF480078401CBE4908705DE0D2
:1057C000BB4800781E2807D10120B9490870B948A4
:1057D0000078401CB749087050E0B54800781F2891
:1057E00007D10120B2490870B2480078401CB14985
:1057F000087043E0AE4800781F2807D10120AC496B
:105800000870AC480078401CAA49087036E0A848E7
:1058100000781E2807D10120A5490870A548007806
:10582000401CA449087029E0A14800781F2807D12E
:1058300001209F4908709F480078401C9D490870CE
:105840001CE09B4800781E2807D101209849087069
:1058500098480078401C974908700FE094480078F9
:105860001F2809D101209249087092490870924876
:105870000078401C9049087000E000BF00BF00BDE8
:10588000FEB5FFF711FF02A805F025F8029806F013
:1058900000FE86B20A21304606F054FB85B200F0C5
:1058A000D0FD86480078C007C00F002868D0844823
:1058B0000078032802D0042808D103E0062000F075
:1058C000B7FC04E0072000F0B3FC00E000BF00BF1D
:1058D000252D12DA7B480078C007C00F00280CD0B5
:1058E000032000F0C6FB7848007880210843764901
:1058F000087001207249087029E1252D14DB292D3B
:1059000012DC70480078C007C00F00280CD00420BB
:1059100000F0AFFB6C480078802108436A490870AA
:1059200002206749087012E1292DE5DD65480078FD
:10593000C007C00F0028DFD00120614908705F4810
:10594000007802210840022810D1032000F091FBCA
:10595000052000F08EFBFF20913003F015F90320A5
:1059600000F08CFB052000F089FBF0E0032000F044
:1059700080FB554800788021884353490870E6E051
:105980004F480078012802D0022808D103E0042003
:1059900000F04EFC04E0052000F04AFC00E000BFEF
:1059A00000BF292D37DC484800788021084346494C
:1059B000087046480078801EA84209DD41480078FA
:1059C000C007C00F002803D0052000F052FB8DE077
:1059D0003E480078801EA8420EDC3C480078C01C7F
:1059E000854209DC37480078C007C00F002803D083
:1059F000062000F03EFB79E034480078C01C854268
:105A000074DD30480078C007C00F00286ED0052034
:105A100000F02FFB6AE02C480078802188432A4957
:105A200008702648007802210840022816D125482F
:105A30000078C007C00F002810D0032000F019FB29
:105A4000052000F016FBFF20913003F09DF80320A5
:105A500000F014FB052000F011FB47E01B48007824
:105A6000801EA84209DD17480078C007C00F002833
:105A700003D0052000F0FDFA38E014480078801EBD
:105A8000A84225DC11480078C01C854220DC0D4866
:105A90000078C007C00F00281AD0062000F0E9FAED
:105AA00024E00000292000202820002027200020BA
:105AB0002620002025200020242000200E20002069
:105AC0006C2000200C2000200D200020222000202F
:105AD000FE480078C01C854208DDFD480078C007FC
:105AE000C00F002802D0052000F0C3FAF748007864
:105AF000801EA84209DDF6480078C007C00F0028C4
:105B000003D00320F349087021E0F0480078801E9C
:105B1000A8420EDCED480078C01C854209DCEC4848
:105B20000078C007C00F002803D00420E94908709E
:105B30000DE0E6480078C01C854208DDE4480078A6
:105B4000C007C00F002802D00320E2490870E248D5
:105B50000078C007C00F00287DD0DD4800780921FB
:105B60000840092878D1DD48007822210840222801
:105B7000F8D1272D2DDC162000F080FA002201211B
:105B8000022004F053FE0A2002F0FEFF04F05FFE44
:105B9000D3490880162000F06CFA0A2002F0F4FFC6
:105BA00004F055FECE494880CC4800784021084397
:105BB000CA490870CA480088C9494988401A1E283D
:105BC00003DD01206946C87021E000206946C870E5
:105BD0001DE0282D12DB162000F04BFA642002F0A5
:105BE000D3FF162000F04AFABC48007840218843D1
:105BF000BA49087000206946C87008E0162000F015
:105C000038FA642002F0C0FF162000F037FAAA210B
:105C10006846017015214170012181700421FEF751
:105C200059FB69460871AF48807F002818D00522CB
:105C3000AC4801F01EFB0446002CF7D0AA48844271
:105C40000FD100BF2746002F0AD000BFA7A2FF2117
:105C5000A531384601E056E010E0FEF715FB00BF25
:105C60002AE100BF2746002F07D000BF9FA2FF21D7
:105C7000AA313846FEF708FB00BF1DE1162000F0F0
:105C8000F8F9642002F080FF162000F0F7F993483D
:105C900000784021884391490870AA216846017024
:105CA00015214170012181700021C1700421FEF78E
:105CB00011FB694608718B48807F0028D0D00522EF
:105CC000884801F0D6FA0446002CC9D086488442A0
:105CD0000CD100BF2746002F07D000BF83A2FF21B1
:105CE000C7313846FEF7D0FA00BFE5E000BF2746CF
:105CF000002F07D000BF7DA2FF21CC313846FEF730
:105D0000C3FA00BFD8E0724800780921084009288A
:105D10007ED17248007822210840222878D16B4831
:105D2000007885422DDC162000F0A8F90022012120
:105D3000022004F07BFD0A2002F026FF04F087FD1C
:105D400067490880162000F094F90A2002F01CFF31
:105D500004F07DFD62494880604800784021084396
:105D60005E4908705E4800885D494988401A1E28CF
:105D700003DD01206946C87024E000206946C87030
:105D800020E052480078801C854212DB162000F08B
:105D900070F9642002F0F8FE162000F06FF94F4809
:105DA0000078402188434D49087000206946C8703A
:105DB00008E0162000F05DF9642002F0E5FE1620F0
:105DC00000F05CF9AA21684601701521417001219B
:105DD00081700421FEF77EFA694608714148807F90
:105DE000002869D005223F4801F043FA0446002C00
:105DF00062D03D4884420ED100BF2746002F09D013
:105E000000BF3AA24121C9003846FEF73DFA00E042
:105E10000DE000BF50E000BF2746002F06D000BFB6
:105E200032A239493846FEF72FFA00BF44E0162067
:105E300000F01FF9642002F0A7FE162000F01EF902
:105E4000264800784021884324490870AA216846E2
:105E5000017015214170012181700021C170042160
:105E6000FEF738FA694608711E48807F002823D063
:105E700005221C4801F0FDF90446002C1CD01A48EC
:105E800084420CD100BF2746002F07D000BF17A2C5
:105E90001D491C313846FEF7F7F900BF0CE000BF82
:105EA0002746002F07D000BF10A2174921313846DE
:105EB000FEF7EAF900BF00BF252D50DB00F05AFCC9
:105EC000034800784021084000281FE022200020DD
:105ED0000C2000206C2000200E2000200D2000202F
:105EE0006E20002048220020033000002E2E5C533C
:105EF000545343315C4E505F54656D5F4D65617323
:105F00007572652E630000000D0200002DD15E4801
:105F1000007808435C490870AA2168460170052191
:105F20004170012181700021C1700421FEF7D2F976
:105F3000694608715548807F002816D005225348CD
:105F400001F097F9044600BF2746002F06D000BF96
:105F50004F4A50493846FEF797F900BF05E04A48D6
:105F6000007840218843484908704B480078401C1D
:105F70004949087008460078012838DB002008707D
:105F8000AA216846017001214170022181703112FD
:105F9000C17006710521FEF79DF9694648713B48BD
:105FA000807F002823D00622384801F062F9044699
:105FB000002C1CD0394884420CD100BF2746002F4A
:105FC00007D000BF324A992189003846FEF75CF9B4
:105FD00000BF0CE000BF2746002F07D000BF2C4AAF
:105FE0002C4923313846FEF74FF900BF00BFFEBDF4
:105FF00070B52B4A01212B4802F0CFFB044600BFAD
:106000002546002D06D000BF214A3C212846FEF738
:106010003BF900BF00BFFFF739FB70BD70B5044608
:10602000002221461F48006802F0FEFB054600BF23
:106030002E46002E07D000BF154A16492D31304696
:10604000FEF722F900BF00BF70BD70B515480068AB
:1060500002F01BFC044600BF2546002D07D000BF00
:106060000B4A0C4934312846FEF70EF900BF00BF39
:1060700070BD012181400C4A91607047012181402F
:10608000094AD160704700000C20002048220020FF
:10609000EC5E010046020000722000200330000088
:1060A00081580100682000200005005070B50646A8
:1060B000F6480068030006F0EBFB08050617569546
:1060C0009697989900BFF248006802F0DEFB032023
:1060D00000F0D7F9042000F0D4F9052000F0D1F940
:1060E000062000F0CEF982E0EA480078002809D0C6
:1060F0000020E8490870032000F0C3F9052000F0F3
:10610000C0F908E00120E3490870032000F0B4F969
:10611000052000F0B1F9E0480088002818D0DE48DA
:106120000088401EDC490880002201218903D848EC
:10613000006802F079FB044600BF2546002D06D01A
:1061400000BFD6A2BD212846FEF79EF800BF09E099
:10615000CF48006802F099FB032000F092F9052077
:1061600000F08FF943E0CB480078002809D00020E8
:10617000C8490870042000F084F9062000F081F975
:1061800008E00120C3490870042000F075F90620DA
:1061900000F072F9C0480088002818D0BE48008876
:1061A000401EBD490880002201218903B8480068CB
:1061B00002F03AFB044600BF2546002D06D000BF82
:1061C000B6A2D9212846FEF75FF800BF09E0B04823
:1061D000006802F05AFB042000F053F9062000F09A
:1061E00050F904E003E002E001E000E000BF00BF7E
:1061F00070BD10B5032000F036F9042000F033F92B
:10620000052000F030F9062000F02DF9032000F001
:1062100038F9042000F035F9052000F032F90620A5
:1062200000F02FF9A24A0021994802F0B6FA10BDF9
:1062300070B505469648006802F064FB002803D15B
:106240009348006802F021FB00BF2B0006F020FB02
:10625000080526476685A1BDD9F6042000F011F98E
:10626000062000F00EF9032000F006F9052000F0EA
:1062700003F900220321C9038548006802F0D4FA1B
:10628000044600BF2646002E06D000BF83A244214C
:106290003046FDF7F9FF00BF00BFD0E0042000F05A
:1062A000EBF8062000F0E8F8032000F0EAF80520FB
:1062B00000F0E7F800220321C9037548006802F0E6
:1062C000B3FA044600BF2646002E06D000BF73A2D4
:1062D0004D213046FDF7D8FF00BF00BFAFE00320DF
:1062E00000F0CFF8052000F0CCF84B20C0006A4940
:1062F00008800022012189036548006802F094FAB1
:10630000044600BF2646002E06D000BF63A25521DA
:106310003046FDF7B9FF00BF00BF90E0042000F059
:10632000B0F8062000F0ADF84B20C0005A490880B4
:106330000022012189035648006802F075FA0446DC
:1063400000BF2646002E06D000BF54A25D21304675
:10635000FDF79AFF00BF00BF71E0032000F091F845
:10636000FA2002F011FC032000F086F8FA2002F077
:106370000BFC032000F085F8FA2002F005FC032056
:1063800000F07AF8FA2002F0FFFB032000F079F821
:1063900055E0042000F075F8FA2002F0F5FB042027
:1063A00000F06AF8FA2002F0EFFB042000F069F830
:1063B000FA2002F0E9FB042000F05EF8FA2002F077
:1063C000E3FB042000F05DF839E0052000F059F807
:1063D000FA2002F0D9FB052000F04EF8FA2002F076
:1063E000D3FB052000F04DF8FA2002F0CDFB05208C
:1063F00000F042F8FA2002F0C7FB052000F041F857
:106400001DE0062000F03DF8FA2002F0BDFB06205A
:1064100000F032F8FA2002F0B7FB062000F031F865
:10642000FA2002F0B1FB062000F026F8FA2002F074
:10643000ABFB062000F025F801E0FFE700BF00BF3E
:1064400070BD10B51248006802F01FFA032000F07A
:1064500018F8042000F015F8052000F012F80620C6
:1064600000F00FF810BD01210522120707231B02BF
:10647000D2188300D1507047012181400D4A9160AC
:106480007047012181400B4AD1607047782000207D
:10649000742000207E2000207C2000202E2E5C4EC8
:1064A000505F4C45445C4E505F4C65642E63000069
:1064B000AD6001000005005070B506465B480068FD
:1064C000002802D0012841D107E05948006802F0B5
:1064D000DCF9072000F0A4F839E0564800780028DD
:1064E00019D0002053490870072000F094F80022CA
:1064F000012189034E48006802F096F9044600BF66
:106500002546002D06D000BF4BA252212846FDF79C
:10651000BBFE00BF19E0012046490870072000F0CB
:106520007FF80022012189034148006802F07CF9CC
:10653000044600BF2546002D06D000BF3EA25921CB
:106540002846FDF7A1FE00BF00BF00E000BF00BF6E
:1065500070BD10B507200121052212070302D218D1
:106560008300D15000BF00F05BF8394A0021304869
:1065700002F013F910BD70B505462D48006802F011
:10658000C1F9002803D12A48006802F07EF92748A3
:1065900005600068002802D0012830D117E00720EC
:1065A00000F039F80022012189032148006802F037
:1065B0003BF9044600BF2646002E06D000BF1EA2AF
:1065C0002F213046FDF760FE00BF00BF18E0072016
:1065D00000F021F80022012189031548006802F02B
:1065E00023F9044600BF2646002E06D000BF12A2A3
:1065F00035213046FDF748FE00BF00BF00E000BF78
:1066000000BF70BD10B50A48006802F03EF90720CF
:1066100000F006F810BD012181400E4A91607047DC
:10662000012181400B4AD160704700008420002086
:1066300080200020882000202E2E5C4E505F4D6F61
:10664000746F725C4E505F4D6F746F722E630000FA
:10665000B964010000050050FEB507464C480088AB
:10666000002819D04A480088401E49490880002265
:106670000121C9034748006802F0D6F8054600BF6B
:106680002E46002E06D000BF43A240213046FDF723
:10669000FBFD00BF00BF30E03E48006802F0F5F8A7
:1066A0000F2000F070F84449002008560421884368
:1066B00041490870AA2168460170052141700121F5
:1066C00081700021C1700421FDF704FE6946087144
:1066D0003A48807F002810D00522384800F0C9FDD4
:1066E000044600BF2546002D06D000BF2AA24F2138
:1066F0002846FDF7C9FD00BF00BFFEBD10B50F2045
:1067000001210522120707231B02D2188300D15052
:1067100000BF00F038F82A4A00211E4802F03DF878
:1067200010BD70B505461B48006802F0EBF8002864
:1067300003D11848006802F0A8F80F200121814019
:10674000204A916000BF1248058000220121C90340
:106750001048006802F068F8044600BF2646002E84
:1067600006D000BF0CA22F213046FDF78DFD00BFE3
:1067700000BF70BD10B50748006802F086F80F2012
:1067800000F001F810BD012181400E4AD160704730
:10679000902000208C2000202E2E5C4E505F5669E9
:1067A0006F6C65745261795C4E505F56696F6C65B1
:1067B000745261792E6300000C20002048220020D2
:1067C000596601000005005010B51520012102078F
:1067D00007231B02D2188300D15000BF00F034F908
:1067E00010BD7047FEB500220121022004F01EF802
:1067F00004F02DF805461520400185421DDB0720D9
:10680000C001854219DC9348007820210840002807
:106810000CD1072000F018F9C82002F0B5F90720C4
:10682000012181408C4AD16000BF00BF89480078B7
:10683000202108438749087005E086480078202118
:1068400088438449087085480078401C8349087053
:10685000084600783C2805D081480078042108408B
:10686000042847D100207D4908707D480078042124
:1068700088437B49087000221146022003F0D6FFAE
:1068800003F0E5FF0546284600F083F80646AA21F6
:10689000684601700321417001218170C670042196
:1068A000FDF718FD694608716E48807F002821D0E9
:1068B00005226C4800F0DDFC0446002C1AD06A4822
:1068C00084420BD100BF2746002F06D000BF67A22D
:1068D000AD213846FDF7D8FC00BF0BE000BF2746CE
:1068E000002F06D000BF61A2B2213846FDF7CCFCD4
:1068F00000BF00BFFEBD10B5044663480078012804
:1069000004D1002060490870FFF76CFF5E480078F2
:10691000401C5D49087010BD70B55C4A01215C489F
:1069200001F03BFF044600BF2546002D06D000BF06
:106930004EA244212846FDF7A7FC00BF00BF70BD52
:1069400070B50446002221465148006801F06CFFF2
:10695000054600BF2E46002E06D000BF43A24B21A5
:106960003046FDF791FC00BF00BF70BD70B54848D0
:10697000006801F08AFF044600BF2546002D06D0BE
:1069800000BF3AA252212846FDF77EFC00BF00BF9F
:1069900070BD01463F4A914201DD642053E03D4A0B
:1069A000914205DC3B4A0F3A914201DD5A204AE010
:1069B000384A0F3A914205DC364A1E3A914201DDCF
:1069C000502040E0334A1E3A914205DC0522D201B4
:1069D000914201DD462036E00522D201914205DCDC
:1069E0002C4A3C3A914201DD3C202CE0294A3C3AB9
:1069F000914205DC274A4B3A914201DD322022E0E8
:106A0000244A4B3A914205DC224A5A3A914201DD2E
:106A1000282018E01F4A5A3A914205DC9122920040
:106A2000914201DD1E200EE091229200914205DC90
:106A300087229200914201DD142004E08722920017
:106A4000914200DC0A20704701218140024A916096
:106A5000704700000D200020000500509D20002000
:106A60000E20002048220020033000002E2E5C4E15
:106A7000505F426174746572795C4E505F4261741C
:106A8000746572792E6300009C200020F768010075
:106A900098200020AD0200007047FEB5064602A90E
:106AA000092002F01BFB044600BF2546002D06D03E
:106AB00000BF94A287212846FDF7E6FB00BF00BF78
:106AC0006846007A012841D1132001218140964A6D
:106AD000916000BF95480078401C944908700846B2
:106AE000007832281FDD0020087091480078C00728
:106AF000C00F00280CD18E480078012108438C4932
:106B00000870501300F08AF9B420FFF70AFE88E0FD
:106B10008748007840084000854908700520C00378
:106B200000F09DF97DE0002282498348006801F071
:106B30007BFE044600BF2546002D06D000BF71A293
:106B4000AA212846FDF7A0FB00BF6AE0774800783D
:106B5000012863DB7548007814285FDC74480078EE
:106B6000C007C00F002859D0002070490870734832
:106B70000078C007C00F002827D170480078012195
:106B800008436E490870AA216846017016214170B9
:106B900001218170C1700421FDF79CFB69460871D9
:106BA0006748807F002839D00522654800F061FBE6
:106BB000044600BF2546002D06D000BF51A2E721A4
:106BC0002846FDF761FB00BF28E05C4800784008DC
:106BD00040005A490870AA21684601701621417088
:106BE000012181700021C1700421FDF773FB69460A
:106BF00008715348807F002810D00522504800F0CB
:106C000038FB044600BF2546002D06D000BF3DA23C
:106C1000F9212846FDF738FB00BF00BF002043499B
:106C20000870FEBD70B5132000F062F8142000F06B
:106C30005FF800BF002321220121424802F0EAF957
:106C4000054600BF2E46002E06D000BF2DA23721DC
:106C50003046FDF719FB00BF00BF00BF3A4A0021D4
:106C6000354801F09AFD044600BF2546002D06D0A8
:106C700000BF24A23B212846FDF706FB00BF00BF52
:106C8000324A0021324801F088FD044600BF254603
:106C9000002D06D000BF1BA240212846FDF7F4FAC4
:106CA00000BF00BF70BDF8B505460E46002E17D1D7
:106CB000092D13D100221F491F48006801F0B4FDBF
:106CC000044600BF2746002F06D000BF0DA25B215F
:106CD0003846FDF7D9FA00BF00BF00E000BF06E06C
:106CE000012E04D1092D00D100E000BF00BFF8BD86
:106CF00001210522120707231B02D2188300D1505D
:106D0000704700002E2E5C4E505F496E70757445C2
:106D100076656E745C4E505F496E7075744576652D
:106D20006E742E630000000000050050A1200020BA
:106D30000C2000201F050000A42000200E200020B1
:106D400048220020B02000209B6A0100996A0100BF
:106D5000A820002070B586B00546142101A805F0D2
:106D60001EF90021684601710020029068460173F7
:106D7000002D02D0012D0ED105E040216846818210
:106D80007821C18208E07D21890168468182E12164
:106D90000901C18200E000BF00BF01A873DF044603
:106DA00000BF2646002E06D000BF4EA24921304625
:106DB000FDF76AFA00BF00BF06B070BD10B504460B
:106DC000FFF743F9FEF73CFCFFF7D4FC10BD70471A
:106DD00070B54D4A00214D4801F0DFFC044600BF6C
:106DE0002546002D06D000BF3EA259212846FDF7BA
:106DF0004BFA00BF00BF464A0021464801F0CDFCD7
:106E0000044600BF2546002D06D000BF35A25E21F6
:106E10002846FDF739FA00BF00BF70BD10B5044623
:106E20000020FFF797FF0120FFF702FA072000F08C
:106E30004EF8FA2001F0A8FE072000F04DF8FA20E5
:106E400001F0A2FE072000F042F8FA2001F09CFEBB
:106E5000072000F041F8304801F096FE10BD70B5F3
:106E60000446002221462B48006801F0DDFC05465F
:106E700000BF2E46002E06D000BF1AA27A2130464F
:106E8000FDF702FA00BF00BF2448807F002802D02F
:106E900000202249887713212148008876DF74DF9B
:106EA000FFF7CFFA0020FFF7C3F90F2000F014F826
:106EB000072000F00CF8FF20F53001F065FE0720F8
:106EC00000F00AF81448FA3001F05EFE70BD0121AE
:106ED0008140144A9160704701218140114AD1607C
:106EE000704700002E2E5C4E505F506F7765724DDC
:106EF000616E6167655C4E505F506F7765724D6182
:106F00006E6167652E630000CF6D0100C020002018
:106F1000BD6D0100BC200020E204000048220020DA
:106F2000CE200020000500508A888283704700220E
:106F3000D2438283704770B504460E46B51D29883A
:106F4000208A814213D1288B022810D100BF00BFB4
:106F5000A97EEA7E120211430846C107C90F002923
:106F600002D00120A0770FE00020A0770CE0288855
:106F7000A188884208D1206A002805D02A8B29469A
:106F80001A312046236A984770BD30B58FB0044649
:106F90000D460020079000BF6846007F01090901E7
:106FA000491C68460177007FF0218843103069460C
:106FB000087700BF00BF6846407F01090901491CEE
:106FC00068464177407FF021884310306946487712
:106FD00000BF6846807F06218843811C6846817710
:106FE0001C2108A804F0DBFF08A8007810218843C2
:106FF000411808A80170002009900B900C9007A878
:107000000D9000200E9021786846817106218180C4
:107010000020009000BF6846007801090901491C62
:10702000684601700078F021884310306946087086
:1070300000BF00BF6846407801090901491C684645
:1070400041704078F021884310306946487000BF95
:107050006846807806218843811C68468170807864
:107060000821884301466846817080781021884352
:10707000014668468170807841084900491C68468D
:107080008170142102A804F08AFF01A802906846CA
:10709000039001210182002141821D2181826088AB
:1070A00023460C3302AA08A9A2DF0FB030BD024666
:1070B000704730B58FB004460D4683A0006800903D
:1070C0001C2108A804F06BFF6846099004F072FFC9
:1070D00081B26846418504F06DFF81B26846018542
:1070E00008A8007808218843411808A80170007892
:1070F00004218843011D08A8017000200B900C900A
:107100000D900E9021786846817205210181002042
:10711000019000BF6846007901090901491C6846D1
:1071200001710079F021884310306946087100BF71
:1071300000BF6846407901090901491C6846417150
:107140004079F021884310306946487100BF684695
:10715000807906218843811C6846817180790821E5
:107160008843014668468171807910218843014631
:1071700068468171807941084900491C68468171DF
:10718000142103A804F00BFF02A8039001A80490A7
:107190000121684681820021C1822021018360880B
:1071A000231D03AA08A9A2DF0FB030BD70B50546A4
:1071B0000C46002D01D0002C00D170BD2088102875
:1071C00004D0112807D050280FD109E021462846C5
:1071D000FFF7AAFE0AE021462846FFF7A8FE05E0D1
:1071E00021462846FFF7A7FE00E000BF00BF00BF12
:1071F000E3E770B586B004460E46344B0FCB01ADC5
:107200000FC5002C01D0002E02D10E2006B070BD9B
:107210000020C043A083306820620020A077214670
:1072200001A862DF0546002D01D02846EEE721784F
:107230006846817504218182A21C05A90120A0DF76
:107240000546002D01D02846E0E731462046FFF7ED
:107250009CFE0546002D01D02846D7E73146204642
:10726000FFF727FF0546002D01D02846CEE7002076
:10727000CCE737B584B004460D46002C02D10E2071
:1072800007B030BDA08B1249884202D0A07F0028F1
:1072900001D10820F4E76846008B1D2801DD072096
:1072A000EEE700200090019002900390A1896846CB
:1072B0000180039506A80290012168468170A08B89
:1072C0006946A6DFDCE7000054780000FCCC010032
:1072D000FFFF0000F7B584B004460F460698067815
:1072E000B01C1F2803DC2079801C1F2802DD0C2025
:1072F00007B0F0BD1F20801B801E85B20295B11C17
:10730000781802A97DDF03900398002801D0039824
:10731000EEE72068022808D168460089A84204DC0C
:1073200009200190684605890BE00820019020792A
:10733000002804D02079A84201DC257901E06846C4
:107340000589681CC2B23046711CCEB23A54304630
:10735000721CD6B20199395406980178A81C0818F5
:10736000C1B2069801700020C2E7F8B505460C4688
:107370002078001D1F2801DD0C20F8BD684679DF4C
:107380000646002E01D03046F7E703212278501C34
:107390002070A95419212278501C2070A9542078FB
:1073A00041196846008800F08BFA21784018207057
:1073B0000020E2E7F8B505460F4616461C46686809
:1073C000002801D10720F8BD2078801C29884018AA
:1073D0001F2801DD0C20F6E72878401CC1B2227876
:1073E000501C2070B1542178481C207077542A8892
:1073F00023789819696804F0B9FD20782978401835
:1074000020700020DFE730B503461078C01C1F282D
:1074100001DD0C2030BD02241578681C10704C551D
:107420000A241578681C10704C551578681C10706B
:107430004B550020EEE7FFB587B006461D46109C71
:107440000020069020780590002747E0B90070687A
:1074500041180A886846028149884181002203A9AF
:1074600002A864DF04900498002802D004980BB0AE
:10747000F0BD6846017B099881422ED1069800280C
:1074800001D0002000E00220019020786946097BAD
:107490004118019808181F2801DD0C20E7E706981D
:1074A000002809D12078401C20702278511C0898AF
:1074B0002170A854012006902078421903A902A83F
:1074C00064DF04900498002801D00498CFE7207866
:1074D0006946097B4018207000BF7F1C3088B84285
:1074E000B4DC0698002806D021780598401C081ABC
:1074F000C1B2059829540020B9E7FFB581B007460D
:1075000015460A9E009602223846049B0299FFF710
:1075100092FF0446002C02D0204605B0F0BD009634
:10752000102229463846049BFFF785FF0446002CAD
:1075300001D02046F1E70020EFE701460888062841
:1075400008DB08881922D201904205DD0888E14A4B
:10755000904201D0072070474888062808DB4888F9
:107560001922D201904205DD4888DA4A904201D0C2
:107570000720F0E70888D74A904208D04888904210
:1075800005D008884A88904201DD0720E3E7002003
:10759000E1E7F8B506460D4614462078801D1F2801
:1075A00001D90C20F8BD3046FFF7C7FF0746002F72
:1075B00001D03846F6E705212278501C2070A954E6
:1075C00012212278501C2070A95422785119308839
:1075D00000F076F9217840182070227851197088CF
:1075E00000F06EF92178401820700020DAE7F8B535
:1075F00005460E4614462879801CC7B22078801CA8
:10760000C0191F2801DD0C20F8BD781CC1B22278FA
:10761000501C2070B154FF212278501C2070B154AE
:1076200022789119288800F04BF9217840182070B1
:10763000A88800280EDDA868002801D10720E3E70C
:10764000AA8823789819A96804F090FC20782979F1
:10765000401820700020D7E7FEB507460E461446B6
:10766000786B002801D10720FEBD0020019032E098
:10767000796B0C22019850430D182879801CC0B2F8
:1076800000900098401CC1B22278501C2070B15468
:1076900016212278501C2070B15422789119288824
:1076A00000F00EF9217840182070A88800280EDD1F
:1076B000A868002801D10720D6E7AA88237898195E
:1076C000A96804F053FC20782979401820700198AB
:1076D000401CC0B201903820C15D01988142C7DCD6
:1076E0000020C1E7F8B504460F46164600250020E5
:1076F00030702068002809D0324639462046FFF70E
:10770000E9FD0546002D01D02846F8BD6079002826
:1077100008D031463846FFF728FE0546002D01D037
:107720002846F2E7208900280BDD33463A4601213E
:1077300020460830FFF73EFE0546002D01D02846C2
:10774000E3E7206900280BD0002021690856324663
:107750003946FFF758FE0546002D01D02846D4E7EC
:10776000A08A00280CDD3B46062202212046143068
:107770000096FFF7C2FE0546002D01D02846C4E75B
:10778000A08B00280CDD3B460722032120461C303D
:107790000096FFF7B2FE0546002D01D02846B4E75B
:1077A000A08C00280CDD3B461522142120462430F5
:1077B0000096FFF7A2FE0546002D01D02846A4E75B
:1077C000E06A002809D032463946E06AFFF7E1FE58
:1077D0000546002D01D0284697E7206B002809D0E8
:1077E00032463946206BFFF702FF0546002D01D0D7
:1077F00028468AE73820005D002809DD32463946F0
:107800002046FFF729FF0546002D01D028467CE7DA
:1078100028467AE701460889002808D0C868002869
:1078200005D0C868007804221040002801D1072044
:1078300070470020FCE701460889002801DD072089
:1078400070470020FCE7F3B593B00D46002112917C
:1078500011911398002814D01398FFF7DBFF04460A
:10786000002C02D0204615B0F0BD12AA09A9139829
:10787000FFF738FF0446002C01D02046F3E709AE9D
:1078800000E00026002D13D02846FFF7D4FF044661
:10789000002C01D02046E6E711AA01A92846FFF7EF
:1078A00021FF0446002C01D02046DCE701AF00E0B8
:1078B000002710A803793A46017A304672DFD2E7F2
:1078C00002460A70FF200002104000124870022099
:1078D00070470000FFFF000001464888B74A128841
:1078E000904206DB4888B54A5288904201DC01206C
:1078F00070470020FCE738B50546B1480088B1491B
:1079000088423BD0B0480078401CAF490870AF486F
:10791000007B097888420FDBA849A948008875DFF9
:107920000446002C07D0A9488069002803D0A74846
:1079300081692046884721E00020A3490870A348B8
:10794000007C00280FD03B219D48008876DF04464C
:10795000002C07D09D488069002803D09B4881698E
:107960002046884700BF99484069002806D000207B
:107970000090964841696846884700BF38BD70B599
:1079800005461C222946914804F0F0FA002090494F
:107990000870286800280BD008228848296804F05D
:1079A000E5FA86487ADF0446002C08D0204670BDF0
:1079B00082487BDF0446002C01D02046F7E70020F8
:1079C000C0437F49088000207F490870814A002118
:1079D000814800F0E2FEEAE710B57F48006800F059
:1079E00054FF10BD38B57D48FFF776FF002829D138
:1079F0007748007800280AD074484069002820D0D1
:107A000000200090714841696846884719E06E4837
:107A10000078002802D16D48456801E06B48856810
:107A2000002229466C48006800F0FEFE0446002C47
:107A300007D066488069002803D0644881692046E1
:107A400088470AE061484069002806D0012000907C
:107A50005E4841696846884700BF00205C4908705D
:107A600038BD10B50446A088554908800822214633
:107A70000E315A4804F07AFA0020534908705348EE
:107A8000C089002801D1FFF7ADFF10BD70B50546D4
:107A90000020C0434A49088000204B4908704E48E6
:107AA000006800F0F2FE0446002C07D047488069C9
:107AB000002803D0454881692046884770BD70B5CD
:107AC0000546AC1D20884149C989884220D1208BB8
:107AD00002281DD100BF00BFA17EE27E1202114329
:107AE0000846C107C90F002902D0FFF77BFF0FE04E
:107AF0003948006800F0C9FE0646002E07D033481A
:107B00008069002803D0314881693046884700BF2A
:107B100070BD10B504460822A11D304804F026FAB5
:107B2000FFF760FF10BD10B504462088102806D06E
:107B3000112808D012280ED0502810D107E0204676
:107B4000FFF78FFF0CE02046FFF7A0FF08E020467C
:107B5000FFF7B5FF04E02046FFF7DBFF00E000BFC2
:107B600000BF10BD38B5044608222146134804F072
:107B7000FDF912487ADF0546002D1CD11748FFF7A2
:107B8000ABFE00280BD10120114908700B490C48AD
:107B9000008875DF054601200B4908700BE00B4893
:107BA0004069002806D001200090084841696846D5
:107BB000884700BF0025284638BD0000C4200020AB
:107BC000CE200020FFFF0000CC200020302C002021
:107BD000DC200020F7780100D8200020D0200020F1
:107BE00070B506460C46154629462046FCF780FB34
:107BF00070BDF8B55A480078002800D1F8BD594842
:107C00000068002801D1012000E000200546564808
:107C10000068002801D1012000E00020064600BFD6
:107C2000002D14D168464EDF0446052C01D10125F4
:107C30000CE0002C06D000BF4CA269212046FCF7C6
:107C400023FB03E0474900980968884700BF002EDE
:107C50001AD154480088009069465348006860DF94
:107C60000446052C01D101260DE0002C06D000BFF2
:107C70003EA280212046FCF707FB04E04A4800684A
:107C800039490968884700BF002D02D0002E00D076
:107C900000E0C5E700BF00BFB0E7FFB581B00C460C
:107CA00016461F46002C02D1072005B0F0BD204625
:107CB0008107890F002901D1012100E0002100295D
:107CC00001D10720F1E7384804603648068037487C
:107CD00007603749019810DF0546002D01D028467E
:107CE000E3E701201E490870162023DFDDE710B509
:107CF00011DF0446002C01D0012000E000201849CB
:107D00000870204610BD0146002901D10E207047A1
:107D1000154801600020FAE70146002901D10E2034
:107D20007047104801600020FAE770B51F480068EE
:107D3000002811D01D4800688047044600BF254632
:107D4000002D07D000BF09A2FF2133312846FCF7E0
:107D50009BFA00BF00BF01E0FFF74BFF70BD0000C2
:107D6000EA200020F0200020EC2000202E2E5C2EA7
:107D70002E5C2E2E5C2E2E5C2E2E5C2E2E5C536FD7
:107D8000757263655C73645F636F6D6D6F6E5C735A
:107D90006F66746465766963655F68616E646C655F
:107DA000722E6300E8200020E4200020E020002064
:107DB000E17B010000BF424880680128FBD1002020
:107DC0003F4988603F488069C0B2704770B504463B
:107DD0000D4601260AE02046641E002804DB7D20B3
:107DE000C000FCF777F901E0002603E03448806822
:107DF0000128F0D100BF002C05DB0020304988604D
:107E0000304880692870304670BD2E49C86100BF77
:107E10002B49C9690129FBD10021294AD161704749
:107E200030B50346002528466D1C1C5C05E0204645
:107E3000FFF7EBFF28466D1C1C5C002CF7D130BD12
:107E4000F8B507460C4615461E46204600F025F8B4
:107E50000021304600F02AF81A48C46046610698AE
:107E600000280DD0384600F018F80021284600F010
:107E70001DF8144805618760012012494031C8622D
:107E80001148104948620420086001200F498860A9
:107E9000086000200A498860F8BD01210522120708
:107EA00007231B02D2188300D150704710B58A00F7
:107EB00005231B07072424021B1984001A5110BD37
:107EC000002100400025004000509D00002000409F
:107ED00010B5002819DAFA4A03071B0F083B9B0864
:107EE0009B00D2588307DC0EFF23A3409A438B07E5
:107EF0001B0E8407E40EA3401A43F14B0407240F22
:107F0000083CA408A4001A5118E0EE4A03231B02FF
:107F1000D21883089B00D2588307DC0EFF23A340AE
:107F20009A438B071B0E8407E40EA3401A43E54BCC
:107F3000032424021B198408A4001A5110BD10B593
:107F40000446E148846003211120FFF7C1FF10BD02
:107F500010B501200004DD494860DC494039486023
:107F6000112000F0A3FD112000F092FD0120D8495E
:107F700008602F20FCF7BEF810BD10B511200121BC
:107F80008140D04A8032116000BF01200004CF49F7
:107F90008860CE49403988600120CD4948602F2053
:107FA000FCF7A8F810BDF0B5024628205043C94B95
:107FB0001B68C118C8480068401C002802D1C64888
:107FC000026059E0C4488B68006828246043C14CB3
:107FD000246800198068834217D8BF4800682823A6
:107FE0005843BC4B1B68C01880688B68C31ABA48DA
:107FF000006828246043B74C246800198360B648A1
:1080000000684862B448026036E08B68B24D2C6864
:1080100028680DE028254543AE4E3668AD19AD6899
:108020005B1B044628254543AA4E3668AD19686A8D
:10803000451C002D07D028254543A64E3668AD19AE
:10804000AD689D42E6D3451C002D0CD02825454344
:10805000A04E3668AD19AD68EE1A282545439D4FF0
:108060003F68ED19AE608B60486228256543994EE4
:108070003668AD196A6200BFF0BD70B50246964C15
:108080002168084609E0904200D109E00146282411
:108090004443904D2D686419606A441C002CF2D151
:1080A00000BF441C002C00D170BD814209D18A4C14
:1080B000246828256C43874D2D686419646A864DB1
:1080C0002C6028244443834D2D686419A368282418
:1080D0004443804D2D686419656A28244C437D4EC5
:1080E0003668A419656228244C437A4D2D686419BA
:1080F000606A441C002C0CD028244443754D2D6824
:108100006419A468E51828244443724E3668A419FB
:10811000A56000BFC8E710B5112000F0C0FC10BD7D
:1081200010B5142000F0BBFC10BD70B504466B48C0
:108130000068002813D0694A216AE06912689047F4
:10814000054600BF2E46002E07D000BF64A2FF21C7
:108150005F313046FCF798F800BF00BF02E0E169EC
:10816000206A884770BDF8B55B480068401C00284D
:108170003AD0002700F0CCFC044665480168204650
:1081800000F0C9FC06465448056811E02820684301
:10819000504909684418A068B04200D90BE0A068B3
:1081A000361AA068C719656A2046FFF7BEFF00BFF0
:1081B000681C0028EAD100BF564800785649097863
:1081C000884209D154480078401CC0B25249087016
:1081D000022801D1002008704F48007880004F49E4
:1081E0000F50FFF79DFF00BFF8BD014649480078DA
:1081F000494A127890421DD046480078401C454AB2
:10820000107010460078022801D1002010704148FB
:1082100000788000414A105808603D4A086812689A
:1082200080183B4A1060104600680002000A106087
:10823000012070470020086000BFFAE7FEB526481D
:108240000068019036480078009074E00098C00003
:10825000344909684418257869E018206843616842
:108260000F18681CC5B2A078A84200D10025386854
:10827000022802D0032857D10EE02821786848430D
:10828000144909684618307E002804D07868FFF742
:10829000F4FE0020307648E00CE00F4909682822FF
:1082A00051430C4A12688818002101760A4A416A33
:1082B000116000BF08480068401C0028EDD134E080
:1082C0001CED00E000E100E000150140401301401A
:1082D00000100140F8200020042100201821002077
:1082E0002E2E5C2E2E5C2E2E5C2E2E5C2E2E5C2EC8
:1082F0002E5C536F757263655C6170705F636F6D48
:108300006D6F6E5C6170705F74696D65722E630075
:108310000821002014210020152100200C2100201C
:10832000FC2000200021002000BF00BF00BF6078BB
:10833000A84292D100BF0098411EC9B20091002806
:1083400084D1FE4801680198814201D00120FEBD20
:108350000020FCE7F0B50346002426E0F74E36681F
:1083600028277E43F64F3F68F01986689E4203D95E
:108370008668F61A86601DE086689B1B866834193D
:10838000002686600676ED4E3568EC4F466A3E6004
:108390004669002E08D00E193602360AC6604669B4
:1083A000066116684662156000BFE4480068401C1C
:1083B0000028D3D100BFF0BDFEB50746DF480068F6
:1083C0000290E048007801906BE00198C000DE491F
:1083D000096845185DE0781C002807D03E46282033
:1083E0007043D74909684418676A23E0297818233D
:1083F00059436A6850182978491C29702978AA7845
:10840000914201D100212970466828217143CC4A4C
:1084100012688C180168012902D1217E002900D040
:1084200037E08168E160C16821610169616141698A
:10843000216200BFC549E0680968401A0002000ACD
:10844000C349884208D2C149E068096800F063FB6B
:1084500021694018A06011E0BC48E168006800F0A4
:108460005AFB009021690098814204D92169009843
:10847000081AA06001E00020A06000BF0020E060BA
:10848000206101202076801E60623046FFF78BFD60
:1084900000BF781C00289ED12878697888429AD13C
:1084A00000BF0198411EC9B2019100288DD1A34897
:1084B00001680298814201D00120FEBD0020FCE746
:1084C000FEB505469D480068401C002835D09B48F5
:1084D0000068282148439A4909684018866800F0D6
:1084E00017FB0290994804682146029800F013FB9C
:1084F000C01C0190681C002801D1FFF729FD0198DC
:10850000B04201D2304600E0019804192402240A46
:1085100020469049086000BF00F0FAFA00900299E6
:10852000009800F0F8FAC71C2046029900F0F3FA10
:10853000874201D9FFF7EFFD01E0FFF71EFDFEBD09
:10854000FEB50020C0430190804804687B4807685E
:108550006846FFF74AFE0546FFF770FE0646002D07
:1085600005D001AA21460098FFF7F4FE01260198E4
:10857000FFF722FF002800D00126002E02D0384647
:10858000FFF79EFFFEBD4170704770B502460B4677
:108590005078411C9078884200D1002110788842A0
:1085A00001D1002070BD19605078182670435568BD
:1085B0002C182046F6E7FFB581B005460E46174653
:1085C000E900614A126888186946FFF7DEFF044631
:1085D000002C02D1042005B0F0BD012020606660AF
:1085E00000F096FAA060E760049820610A98606144
:1085F000E900554A126888180099FFF7C4FFFFF791
:108600008FFD0020E7E7F8B504460E46E1004E4A2C
:10861000126888186946FFF7B8FF0546002D01D19A
:108620000420F8BD022028606E60E100464A12680E
:1086300088180099FFF7A7FFFFF772FD0020F0E709
:1086400038B50446E100404A126888186946FFF7C9
:108650009CFF0546002D01D1042038BD0320286071
:10866000001F6860E100384A126888180099FFF717
:108670008AFFFFF755FD0020EFE710B500203649CF
:1086800008600021344841608160C16000203249A7
:10869000403908604860FFF766FD10BD10B5FFF770
:1086A0004FFF10BDFFB581B00E4617461C46204651
:1086B0008107890F002901D1012100E00021002953
:1086C00002D1072005B0F0BD002C01D10720F9E749
:1086D000FFF753FC21490A980860214806701848A2
:1086E000046000250CE0002128206843144A126829
:1086F000115028206843124A1268801801766D1CB8
:10870000B542F0DB28207043041903200D4908709E
:108710000D480460183400250CE0E9000A4A12688C
:1087200088180021017041708770446018217943D6
:108730000C196D1C032DF0DB002013E00421002038
:10874000F8200020FC20002000210020082100202B
:10875000FFFF7F004015014040110140182100201B
:10876000F4200020C043EE4908600020ED49087065
:10877000ED490870142000F099F903211420FFF747
:10878000A7FB142000F084F90198FFF7D8FB00F054
:10879000BFF9E6490860002094E770B503460C462F
:1087A000E3480068002801D1082070BD002A01D1EB
:1087B0000720FAE7002B01D10720F6E700211CE093
:1087C00028204843DA4D2D682858002814D1012567
:1087D00028204843D64E3668355028204843D44D8B
:1087E0002D684019446028204843D14D2D68401918
:1087F000C26119600020D8E7491CCE480078814248
:10880000DEDB0420D1E710B500F058F9012802D0D2
:10881000032804D101E0002403E0012401E0022444
:1088200000BF00BF204610BDFEB504460D461646EB
:10883000BF480068002801D10820FEBDBD4800786F
:10884000844201D2052D01D20720F6E7282060439B
:10885000B74909680858012801D00820EDE7282009
:108860006043B349096840184068012801D128468F
:1088700000E000200746FFF7C6FF3B462A46214698
:1088800000960190FFF797FED7E770B50446A84819
:108890000068002801D1082070BDA64800788442F5
:1088A00001D30720F8E728206043A1490968085848
:1088B000012801D00820EFE7FFF7A5FF0546214674
:1088C000FFF7A1FEE8E710B599480068002801D13C
:1088D000082010BDFFF797FF0446FFF7B1FEF8E749
:1088E00010B5044600F014F92060002010BD70B5EA
:1088F00005460E4614463146284600F00CF9206025
:10890000002070BD01468A480068002801D1082077
:10891000704788480078814201D30720F8E7282073
:108920004843834A12681058012801D10020EFE71C
:108930000820EDE70020804908608049C8600120D8
:108940008860704701207C490860704700207A49A0
:10895000086070477A480068C007C00F002802D03E
:108960007848794908607047784800787849086005
:1089700008460068002801D1082008607448006893
:10898000704710B500207349086001208107086016
:1089900000BF704800680028FBD000206E49486086
:1089A00088600620086101206C49C860FFF7DCFF81
:1089B000FF30013068494031086088156749152249
:1089C0009201891848600020644989188860012054
:1089D00040046349486010BD10B5FFF7C5FF044669
:1089E00060484068002833D05D4840680121490450
:1089F000084000282CD000215A48416057481521D2
:108A0000890140184068FF30013054491522920115
:108A10008918486054480078002808D04F4811460B
:108A20004018406800194C49403108600AE04B4842
:108A30001521890140184068001948491522920102
:108A400089188860484800780121484046490870E4
:108A500010BD444845490861454846495122120124
:108A6000891848603F48001D42498918886040497C
:108A700040488018C1603B4808303E498918086169
:108A80003B493C48801841610720384908607047DD
:108A9000C206D20E01219140374A11607047C206CA
:108AA000D20E01219140354A11607047C206D20EA4
:108AB00001219140314A80321160704710B5304831
:108AC0004068C105C90D002920D00A46103A104659
:108AD00000280DDA2A4B1C330407240F083CA40895
:108AE000A4001B598407E40EE3401B069B0F0BE018
:108AF000214B032424021B198408A4001B5984075A
:108B0000E40EE3401B069B0FD8B210BD0420FCE727
:108B10001C48406870470246501A0002000A70471D
:108B2000042100201421002015210020082100200C
:108B3000F8200020F4200020000001400005014042
:108B4000000401403546526E000601401C21002001
:108B5000202100200001004000A5004000A00040AE
:108B600000A3004040A100402421002000F5014066
:108B70000060004000F0014000E100E000E200E0A1
:108B800000ED00E00015014001B505E00098401E31
:108B900000900348FBF7BEFA00980028F6D108BD04
:108BA000E703000070B500BF01204003D149886091
:108BB00000BF00BF4000886000BF0420FBF7BAFA86
:108BC000CC4800698004C00F002807D0C94800695C
:108BD0004004C00F002801D0012428E0C5480069E6
:108BE0004004C00F002821D00024122519E000BF46
:108BF00001208003BF49C86000BF0420FBF79AFA38
:108C000000BF01208003BB49886000BF0420FBF740
:108C100091FAB84800698004C00F002801D00124EF
:108C200003E028466D1E0028E1D100E00024204624
:108C300070BD10B500BFB048052109070722120218
:108C40008918486300BF00BF052109078918886398
:108C500000BF00BF01208003A649886000BF00BF9D
:108C6000886100BF00BF4010886000BF00BF8861FE
:108C700000BFFFF797FF10BD08B50320009000BFAD
:108C8000012080039B49886000BF0420FBF752FA53
:108C900005E00098411E0091002800D108BD9548CC
:108CA00000694004C00F0028F3D00120F6E710B59A
:108CB00000BF012040038F49C86000BF0420FBF7BC
:108CC00039FAFFF7D9FF002800D110BD00BF0120FD
:108CD00040038849886000BF0420FBF72BFA01207D
:108CE000F3E770B50646012400BF6003814988613F
:108CF00000BF80251FE000BF012080037D49C860C0
:108D000000BF0420FBF716FA30462840002805D0A3
:108D100000BF012040037749886005E000BF0120C3
:108D200040037449C86000BFFFF7A6FF002801D1C7
:108D3000002402E06D08002DDDD100BF00BF01203E
:108D400080036C49C86000BF0420FBF7F3F900BF43
:108D5000012040036749C86100BF0420FBF7EAF91E
:108D6000FFF78AFF044063480069400B0121484037
:108D7000044000BF88035F49C86000BF0420FBF7C0
:108D8000D9F900BF012040035A49886100BF20463D
:108D900070BDF8B505460E4600270120009000BFC3
:108DA00040035449C86100BF802418E0FFF764FF06
:108DB000002801D1009014E04E4800698004C00FE3
:108DC000002802D038462043074600BF0120800318
:108DD0004849C86000BF0420FBF7ACF96408002CC8
:108DE000E4D100BF00BF012040034249886100BFB9
:108DF0002F70002E02D000BFC86005E000BF012028
:108E000040033C49886000BF0420FBF793F9FFF75B
:108E100033FF002800D1009000BF012080033549B6
:108E2000C86000BF0420FBF785F90098F8BD10B5B5
:108E300000BF012040032F49886000BF0420FBF7DA
:108E400079F9FFF719FF002800D110BD00BF0120FC
:108E500040032849C86000BF0420FBF76BF900BF3E
:108E6000012080032349C86000BF0420FBF762F99A
:108E70000120EAE7FFB581B007460D4616460124FA
:108E8000FFF7D5FF04403846FFF72BFF0440F807F3
:108E9000C00F002816D00DE0002E05D10021284675
:108EA000FFF777FF044004E001212846FFF771FF38
:108EB00004406D1C3046711ECEB200280FD0002C2D
:108EC000EAD10CE004E02878FFF70BFF04406D1CAA
:108ED0003046711ECEB2002801D0002CF3D1049888
:108EE000002801D1002C02D1FFF7E1FE044020460A
:108EF00005B0F0BD000500500C060000F8B50446B2
:108F00000D4692480068002813D0EAB221788F4BB2
:108F1000A0681B689847064600BF3746002F06D05A
:108F200000BF8BA228213846FBF7AEF900BF00BF77
:108F30000CE0002D04D120780021A268904705E0C4
:108F4000012D03D120780121A2689047F8BDF8B522
:108F5000074669468B48007800F0F5FA0646002E71
:108F600000D0F8BD002535E00C206843864909682B
:108F70004418864800682278012191400840002862
:108F80000FD0A06800280CD06078012804D10121FE
:108F90002046FFF7B3FF1BE000212046FFF7AEFF9E
:108FA00016E07A4840682278012191400840002864
:108FB0000ED0A06800280BD06078012804D10021D1
:108FC0002046FFF79BFF03E001212046FFF796FFB5
:108FD000681CC5B26E4800788542C5DB00BFC0E79B
:108FE00070B504460D466B480068FFF74EFC064618
:108FF000002E00D070BD65484460056020462843BF
:1090000002466548016863480068FFF70DFC0646A4
:1090100000BFEFE7FFB583B006460C461746052FA5
:1090200002D2072007B0F0BD5748066058480470C8
:1090300059480760454906980860002516E00C214C
:109040006143881902780092416801910199890071
:109050000522120707231B02D318009A9200995089
:1090600000BF0278012191400D4300BF2046611EE0
:10907000CCB20028E3D1494B2A462946414800F0AA
:109080008BF902900298002801D00298CAE7444A5E
:1090900000214048FFF781FBC4E710B53A4800685B
:1090A000002801D1082010BD3648007800F0B9F939
:1090B000F9E710B534480068002801D1082010BD38
:1090C0003048007800F01EFA0446002C01D02046FB
:1090D000F5E730480068FFF7D8FBF0E7F8B505463C
:1090E0000C460C2068432849096847182648006840
:1090F000002801D10820F8BD69462248007800F018
:1091000022FA0646002E01D03046F4E7787800288F
:109110000BD10098E840C007C00F002802D0012002
:10912000207010E0002020700DE0787801280AD12E
:109130000098E840C007C00F002802D0012020702E
:1091400001E0002020700020D5E70000342100203D
:109150002E2E5C2E2E5C2E2E5C2E2E5C2E2E5C2E49
:109160002E5C536F757263655C6170705F636F6DC9
:109170006D6F6E5C6170705F627574746F6E2E637C
:10918000000000003821002028210020402100207C
:109190002C2100203C21002030210020E18F010003
:1091A0004F8F0100F0B502460C46002037E0012346
:1091B0008340194623460B40002B2FD0D5680D4025
:1091C000002D05D101235B04D5680D43D56004E073
:1091D00003231B04D5688D43D56005252D0707267D
:1091E0003602AD198600AD5903263604B54305266F
:1091F000360707273F02F6198700F55105252D0789
:1092000007263602AD198600AD591D4305263607DF
:1092100007273F02F6198700F55100BF401C2028A0
:10922000C5D3F0BDF0B585B0EF4805690020EF4922
:10923000C86300263FE014207043ED4909684418D4
:109240000120B040EB4909680840002831D0E068AF
:10925000C043684021680840074639462046FFF76A
:10926000A1FFE148006968400390039800280ED0F0
:1092700003980543E068C0436840216808400090B7
:1092800020460099FFF78EFF0098074300BFA068B3
:10929000A843384001906068284038400290019906
:1092A00002980843002803D0226901990298904748
:1092B00000BF701CC6B2D04800788642BBDB05B048
:1092C000F0BD10B50146002029E014224A43C84BE6
:1092D0001B689A58012383401A40002A1ED0052299
:1092E000120707231B02D2188300D25803231B0442
:1092F0009A4305231B07072424021B1984001A51D3
:109300000522120707231B02D2188300D258052317
:109310001B07072424021B1984001A51401C202813
:10932000D3D310BD70B505460C46002C01D10720E3
:1093300070BD20468107890F002901D1012100E07D
:109340000021002901D10720F2E7A9480460AB48B9
:1093500005700020A8490870A6490860A748007851
:10936000142250430146A248006802F018FE002073
:10937000C043A3498860062001218140A14A1160B1
:1093800000BF012100F0F9F80620012181409E4A2A
:10939000116000BF0020CBE7F8B504460D46164625
:1093A0001F4693480068002801D10820F8BD002F0F
:1093B00001D10720FAE7904800789049097888425F
:1093C00001DB0420F2E7284630438B490978142258
:1093D0005143874A12685050874800781421484307
:1093E0008349096840184560834800781421484340
:1093F0007F490968401886607F48007814214843F7
:109400007B490968401807617B48007820707A48DA
:109410000078401C784908702078FFF752FF002040
:10942000C4E7F0B5024672480068002801D1082060
:10943000F0BD71480078824201DB0720F8E7002088
:109440006A4BD863684804696A480068002802D1FA
:1094500058066B4B586001209040664B1B681843C0
:10946000644B1860002314205043614D2D6840194F
:10947000C360002142E001238B401846142353436C
:109480005B4D2D68EB580340002B36D02546054038
:10949000002D02D003231B040EE001235B041425DE
:1094A0005543534E3668AD19ED68054314265643AF
:1094B0004F4F3F68F619F56005252D070726360240
:1094C000AD198E00AD5903263604B543052636077F
:1094D00007273F02F6198F00F55105252D070726AE
:1094E0003602AD198E00AD591D43052636070727F4
:1094F0003F02F6198F00F55100BF491C2029BAD34D
:10950000002095E710B5044639480068002801D1CD
:10951000082010BD38480078844201DB0720F8E7B6
:109520002046FFF7CEFE0120A04032490968814362
:10953000304801600068002803D10120C00730498D
:1095400088600020E5E710B5024629480068002839
:1095500001D1082010BD28480078824201DB072095
:10956000F8E714205043224C246803191E48006970
:109570001C68204008600020ECE710B5002819DACC
:10958000224A03071B0F083B9B089B00D258830706
:10959000DC0EFF23A3409A438B071B0E8407E40EC7
:1095A000A3401A43194B0407240F083CA408A40045
:1095B0001A5118E0144A03231B02D21883089B0097
:1095C000D2588307DC0EFF23A3409A438B071B0E60
:1095D0008407E40EA3401A430B4B032424021B19F7
:1095E0008408A4001A5110BD0005005040610040DD
:1095F00050210020482100204D2100204C21002036
:109600000063004080E200E000E100E01CED00E0CB
:10961000002314214143F64A53541421414389182D
:109620004B8004231421414389188B6000231421AB
:1096300041438918CB601421414389180B611421DF
:10964000414389188B80704710B50020E949088094
:10965000E9490860E649091F0870487088700024CD
:1096600003E02046FFF7D4FF641C202CF9D310BD83
:10967000FFB581B004460F4615460326DE48006854
:1096800000280BD1002D06D10498002803D1022018
:10969000D949086002E00120D7490860D64800682F
:1096A000030003F0F5F807A3051A37567592A300D7
:1096B0000120000700690004820C012000070069F6
:1096C00080B278430146F120800251DF0646002E29
:1096D00002D10220C849086089E0384650DF0646BA
:1096E000002E16D1002D11D1049800280AD120781F
:1096F000042803D10720C04908600AE00520BE49BC
:10970000086006E00420BC49086002E00320BA4972
:1097100008606CE001210907096989B279430846AC
:109720002A46F121890251DF0646002E10D1049805
:1097300000280AD12078042803D10620AE49086009
:1097400006E00520AC49086002E00420AA49086050
:109750004DE0AA00F1239B02D2186388D1180122A0
:109760001207126992B27A43AB00D2186388D018FC
:10977000049A51DF0646002E09D12078042803D12F
:1097800006209D49086002E005209B4908602EE004
:1097900001200007006980B27843AB00C018009038
:1097A000608882082169009851DF0646002E0BD19F
:1097B000002D06D10498002803D107208E490860A7
:1097C00002E006208C49086011E0012000070069D2
:1097D00081B2F120800202F0B5FB009050DF064616
:1097E000002E02D107208449086000E000BF00BFBE
:1097F000304605B0F0BDF0B585B00F277C48001F9E
:109800000078142148437A494418E56820780228F2
:1098100004D0042823D005286FD16FE0206903907D
:109820007448008886026088801B04900398801921
:109830000390A08880194519012189020498884263
:1098400006D2049882082846039951DF074605E0AE
:10985000FF2201322846039951DF074676E0A068CF
:1098600000016649401800890490A0680001401872
:1098700040890390A0680001401840680290029857
:10988000A84205D10399049848436188884202D0D0
:10989000A06805280DD101200007006981B2284683
:1098A00002F03AFB534909884618304650DF074614
:1098B00022E001200007006981B2284602F02CFB5B
:1098C000064601200007006980B27043281A80080C
:1098D000019001200007006980B2711C4843618833
:1098E0004919401A8008009031462046009B019A91
:1098F000FFF7BEFE074600BF28E026E00120000774
:10990000006981B2284602F007FB0646A08841198B
:1099100001200007006980B27043081A8008049093
:10992000A08840196188421801200007006980B2B0
:10993000711C4843801A8008039031462046039BDF
:10994000049AFFF795FE074600E000BF00BF002F16
:1099500003D101202649091F8870384605B0F0BDA3
:10996000FFB581B00646174600242148001F407805
:10997000202839D01E48001F00781D49091F49784A
:109980004018C4B2202C02DB20462038C4B2142078
:10999000604317490E541420604340180761142097
:1099A00060434118029805C8CA608860142060436B
:1099B0000F4A8018049941801420604380180A9946
:1099C00081800025101F8078002805D1FFF713FF44
:1099D0000546112D00D100250548001F4078401C88
:1099E0000349091F487000E00425284605B0F0BD72
:1099F000502C00205C21002060210020D02E00206F
:109A0000F8B50446FA48007814214843F849091D7E
:109A10000E5C081F007814214843F549091D4018C1
:109A200080680001F3490D58F1480078142148433B
:109A3000EF49091D40184088091F00900978142239
:109A40005143EB4A121D89180B69111F0978142222
:109A50005143E74A121D891808460830224631460C
:109A6000A847F8BD10B50024E1484078002809DD7A
:109A7000FFF7C1FE0446002C04D0112C02D0204672
:109A8000FFF7BEFF204610BDFEB505460026D848AC
:109A9000807801287ED10020D5498870D64800689A
:109AA000082811D1022D03D10020D349086002E01B
:109AB0000020D2490870FFF7D5FF0646002E02D0DD
:109AC0003046FFF79DFFFEBD022D02D0032D79D158
:109AD00074E0C748007814214843C549091D44185B
