:020000040001F9
:10400000203F0020E1410100F3410100F5410100A2
:1040100000000000000000000000000000000000A0
:10402000000000000000000000000000F741010057
:104030000000000000000000F9410100FB41010008
:10404000FD410100FD410100FD410100FD41010074
:10405000FD41010000000000917601003770010071
:10406000FD410100FD410100AB5E0100FD41010089
:10407000FD410100FD410100FD410100FD41010044
:10408000FD410100D1520100FD410100FD4101004F
:10409000F9520100FD41010083500100FD41010082
:1040A000FD410100FD410100000000000000000092
:1040B0000000000000000000000000000000000000
:1040C00000F002F800F040F80CA030C808382418BE
:1040D0002D18A246671EAB4654465D46AC4201D140
:1040E00000F032F87E460F3E0FCCB6460126334232
:1040F00000D0FB1AA246AB46334318476C6F000052
:104100008C6F0000103A02D378C878C1FAD85207F1
:1041100001D330C830C101D504680C60704700007D
:104120000023002400250026103A01D378C1FBD8D3
:10413000520700D330C100D50B6070471FB5C04691
:10414000C0461FBD10B510BD04F00CFF1146FFF7AF
:10415000F5FF00F0F1F904F024FF03B4FFF7F2FFDC
:1041600003BC04F057FF0000401E00BF00BF00BFAB
:1041700000BF00BF00BF00BF00BF00BF00BF00BF47
:1041800000BFF1D170470000401E00BF00BF00BF5C
:1041900000BF00BF00BF00BF00BF00BF00BF00BF27
:1041A00000BFF1D17047000070B505460C461646B9
:1041B00002E00FCC0FC5103E102EFAD2082E02D30B
:1041C00003CC03C5083E042E07D301CC01C5361F1E
:1041D00003E021782970641C6D1C761EF9D270BD35
:1041E0000A4802680F210A430260094880470948CB
:1041F0000047FEE7FEE7FEE7FEE7FEE7FEE700001A
:1042000005480649064A074B704700002405004050
:1042100031420100C1400100202F0020203F00203A
:1042200020370020203700202349224808607047AB
:1042300010B500F01DF8002805D021491F4848603E
:10424000C813204988612048018CC9B201290ED1C8
:10425000818C09070BD1018D0906090F042906D1AC
:10426000808D0006000F02D118490120886010BD22
:104270001548018CC9B2012917D1818C090714D1C5
:10428000018D09060A0F03D1828D1206120F0ED07E
:10429000090F012903D1828D1206120F07D00329BD
:1042A00003D1808D0006000F01D00020704701204F
:1042B000704700000024F40000200020DFFF07C04A
:1042C00000050040006C0040C00F00F000060040F8
:1042D000BFF34F8FF049EF48C860BFF34F8FFEE741
:1042E000BFF34F8FEC49EB48C860BFF34F8FFEE739
:1042F0000EB5694611200872E8490878AA2808D046
:104300000922E7A102A87CDF002807D0E7A2E2216A
:1043100015E04A78891C02A87CDFF5E700200090B0
:104320006422694601900A80C8224A808880500031
:10433000C88068467ADF002803D0DCA2EC21FFF7B2
:10434000C7FF0EBD10B5A0B0052118A80177DA4847
:1043500000681E90D1481C38017818A881763C214D
:10436000684603F01EFF022000900021684641715C
:10437000012404811FA803903C210FA803F011FF22
:1043800010A804831EA817900FA9684600F0ECFB44
:10439000002804D0FF21C5A20A31FFF799FF20B001
:1043A00010BD10B5006800280AD1C4483B214088E0
:1043B00076DF002804D0FF21BCA24E31FFF788FF32
:1043C00010BDFF21B9A25931FFF782FF00B585B0BA
:1043D0001421684603F0E5FE00206946087001904C
:1043E0000872FF20C3300882B4488088488268463B
:1043F00073DF002804D0FF21ACA28731FFF768FFEC
:1044000005B000BDF8B5AD4D07886B880446142F84
:104410005BD016DCAA49AB480322AB4E0978007882
:10442000102F1ED0112F33D0132F30D12A4608322F
:10443000002118467FDF002829D0FF219BA2C6312A
:104440005BE0172F3AD0192F59D0522F1FD10022DD
:1044500011461846A9DF002819D0FF2193A2CC31BC
:104460004BE09A4F62233B6001232B7000290CD054
:10447000012807D1964908203260086002F0C6FA88
:1044800002F0DBFA93499B200880A0886880F8BD81
:1044900000232B70002909D0012807D18C4908205E
:1044A0003260086002F0B2FA02F0C7FA0020C0439E
:1044B0006880FFF71DFFFFF745FF27E077483222AE
:1044C000A11DA03803F00EFEF8BD7449E2899A39A7
:1044D0000888904208D10022184681DF0028F3D0D6
:1044E000FF2172A2D83108E000221146184681DF70
:1044F0000028E9D0FF216DA2DE31FFF7E9FE8079C7
:104500000028E1D1012074498004C860FFF75EFFF4
:10451000F8BD10B5044600F0C5FC604821461C38C3
:1045200000F043F92046FFF76DFF10BD10B501F014
:104530005FFA10BD00207047684888B00125856388
:1045400028463CDF0024664B0522162120460094B5
:1045500000F0F8FE002802D054A2C72169E05B48B1
:104560006426066000F079F802F0A8FE02F06DFF04
:1045700003F03BFB02F008F803F086F803F0A8F91B
:1045800003F06FFD55484038C0694C49C0B24870CF
:104590007B2818D1002002F072FF4949FF200870E3
:1045A00050491E2008605048504906600A200860A3
:1045B00001F0E9FF01204E49800208604248444969
:1045C00005600C200860FFF793FE4A4800903348CE
:1045D00069461C3800F015F9002803D0FF2133A2EA
:1045E0002B3126E0FFF7AEFE1C21684603F0D9FD13
:1045F000414801900120C0030290009403216846C5
:104600000173C48104743D4805903D480690684696
:1046100000F0F3FB002803D0FF2124A2713108E051
:1046200000F009F8FFF7D2FE3DDF0028FCD01FA202
:104630003449FFF74DFE21491E2008310880887853
:1046400001221043E12210400C30DF22104088701C
:104650000720C870102008717047104910B500235A
:1046600050226C390E2000F0DFFC002803D02549D1
:104670000EA2123907E0244800F0F3FC002804D011
:1046800020490AA20E39FFF723FE204800F0F1FC72
:1046900010BD00000400FA0500ED00E0FC2600203B
:1046A000536D61727454656D700000002E2E5C6D48
:1046B00061696E2E630000008892010004200020D2
:1046C000E12000207A2000208C200020D020002033
:1046D00088200020E4200020000500504005004014
:1046E0002421002090200020EC200020D820002051
:1046F00000E100E019750100291C0000A34301003E
:10470000C343010023020000134501002D450100B1
:1047100070B500240546601C90B00007000F08A982
:10472000103008940870601C0007000F10304870AB
:104730008878F9263040801C88701C2101A803F07D
:1047400030FD6946087910210843694608710294D2
:1047500008A80494059407940690287808A98871FD
:104760000320694688841120009408704870887876
:10477000E7213040801C084001263043694688709C
:1047800014210AA803F00DFD09A80A9068460B90B1
:1047900069460E8614204C8688862B4668880C3322
:1047A0000AAA01A9A2DF10B070BD00281ED00029FE
:1047B0001CD00A88102A14D0112A14D0502A15D1DE
:1047C000891D0A88038A9A4202D10B8B022B0ED0D4
:1047D00083889A420AD18369002B07D00A8B1A3149
:1047E0001847898801E00021C94381827047CA7E49
:1047F0008B7E11021943C907C90F00D001218175B1
:10480000704730B54A4B0D4604000FCB85B003937B
:104810006B4607C324D0002D22D00020C043A082C5
:104820002868A0610020A0752146684662DF002844
:1048300014D121786846817401210182A21C04A947
:104840000120A0DF002809D129462046FFF760FF9C
:10485000002803D12946204600F02BF805B030BDD2
:104860000E20FBE707B584B000280DD0828A314BBB
:104870009A420BD0827D002A08D06A46128B142AF5
:1048800006D9072007B000BD0E20FBE70820F9E796
:104890000022009201920292039282896B461A8052
:1048A000039106A9029101219970808A6946A6DFC9
:1048B000E8E770B58EB005461C21684603F071FC30
:1048C000694608780C210843694608700024019461
:1048D0000394049405940694287808A9887002200B
:1048E00069460884601C0007000F103007940877A1
:1048F00011204877887FF9210840801CE721084073
:104900000126304369468877142109A803F049FC41
:1049100008A8099007A80A9069468E851420CC85BE
:10492000088668882B1D09AAA2DF0EB070BD0000A2
:104930008C920100FFFF0000FFB583B00746002006
:104940000C9C8646267805463AE07868A90041180E
:104950000A88684682804988C1800022694601A889
:1049600064DF002810D1684601780598814226D17D
:104970007046002801D0002200E002222078891829
:1049800041181F2902D90C2007B0F0BD714600293B
:1049900008D1401CC0B2411C069B049A21701A54D5
:1049A00001208646217806980A18694601A864DF26
:1049B0000028E9D1694620780978401820706D1CDC
:1049C0003888A842C1DC7046002804D020780699B7
:1049D000801B401E88550020D6E7F8B51546069C7A
:1049E0001E46074602220094FFF7A6FF002806D1C4
:1049F00033461022294638460094FFF79DFFF8BD44
:104A0000F7B582B0002605461670006814460028E7
:104A100005D02846039900F0DFF806002DD168790B
:104A200000281BD02078039F001D1F2824D868462B
:104A300079DF002821D121780322481C20707A5484
:104A400021781922481C20707A542078C1196846B0
:104A5000008800F0BCF821784018207029890029CE
:104A600023D001208446EA680398002A07D02278E0
:104A700053189B1C1F2B04D90C2005B0F0BD072038
:104A8000FBE71346521C491C2270C154227867462A
:104A9000511C2170875423782A891818E96803F07B
:104AA00021FB2078297A401820702869002815D029
:104AB0000021415622788C46D01C03991F28DBD850
:104AC000501C022320708B5422780A23501C207023
:104AD0008B5420786246431C23700A54A88A00280D
:104AE00009D028460094062202211430039BFFF7C8
:104AF00074FF0600C1D1A88B002809D02846009475
:104B0000072203211C30039BFFF767FF0600B4D187
:104B1000A88C002809D0284600941522142124309E
:104B2000039BFFF75AFF0600A7D1E86A002805D0CB
:104B30002246039900F085F806009ED1286B0028D4
:104B400005D02246039900F0BBF8060095D1382025
:104B5000405D002806D022462846039900F0E2F87E
:104B600006008AD1304688E770B50D4692B0002124
:104B70006A46117007241171002812D0018900299A
:104B800005D0C168002902D00978490702D420461F
:104B900012B070BD02A9FFF733FF0028F8D102AEB2
:104BA00000E00026002D0BD028890028EFD101AAB3
:104BB0000AA92846FFF724FF0028E9D10AAA00E045
:104BC0000022684603790178304672DFE0E708701A
:104BD000000A487002207047F8B514780746A01CF8
:104BE00015460E461F2803D83879801C1F2801D986
:104BF0000C20F8BD1D20001B80B269468646088047
:104C00003019801C7DDF0028F3D13868022805D1D7
:104C100068460088704501D8092107E038790821E5
:104C2000002801D0704501D968460088421C3255E1
:104C3000641CE2B2B1542978801C08182870002046
:104C4000F8BDF8B50D4611780646881D14461F2894
:104C500001D90C20F8BD33880720062BFAD3192779
:104C6000FF01BB4202D94E4A9342F3D17288062A11
:104C7000F0D3BA4202D94A4FBA42EBD1484FBB42B5
:104C800003D0BA4201D09342E4D8481C05222070D8
:104C90006A5420781222411C21702A54207841192C
:104CA0003088FFF794FF21784018C0B22070411976
:104CB0007088FFF78CFF2178401820700020F8BD25
:104CC00070B5054600790E46801C1446C0B21178B6
:104CD000821C8A181F2A01D90C2070BD0A46491C63
:104CE000401C2170B0542078FF22411C21703254A6
:104CF000207881192888FFF76AFF21784018C0B210
:104D00002070AA88002A09D0A968002908D0801933
:104D100003F0E8F92078297940182070002070BD50
:104D2000072070BDF7B582B002981446406B0F465D
:104D3000002832D0029800252030009028E0029808
:104D4000416B0C2068430E18217830794A1CC01C36
:104D50002270785421781622481C20707A542078CA
:104D6000C1193088FFF733FF21784018C0B2207096
:104D7000B288002A09D0B16800290ED0C01903F00A
:104D8000B1F920783179401820706D1C0098EDB28F
:104D9000007EA842D3D800206FE607206DE6000011
:104DA000FFFF000038B57A497A4A488890420FD010
:104DB0004A78794C521CD2B24A70237B934208D372
:104DC000083175DF002803D0A169002900D0884789
:104DD00038BD00254D70217C002907D03B2176DFAE
:104DE000002803D0A169002900D088476169002903
:104DF000EED068460095884738BD70B50546014637
:104E00001C226548FFF7D0F9614C002626702968FE
:104E1000002907D00822A01803F064F920460830C2
:104E20007ADF02E05A4808307BDF002808D1401EB4
:104E3000608057486670594A0021001D00F0D4FA7E
:104E400070BD10B55248406800F07AFB10BDF8B54F
:104E50004F48103000F08EF800264D4D4E4C002883
:104E600006D06169002919D001200090684614E03D
:104E70002878002804D0616900290FD00096F5E752
:104E8000687800280CD0A1680022686800F0F3FA66
:104E9000002803D0A169002900D088472E70F8BDF2
:104EA0006168F1E7F8B53C4C02880027384DE68987
:104EB000102A18D029464968112A21D0122A2DD04B
:104EC000502A0FD1801D0288B2420BD1028B022AD8
:104ED00008D1C27E837E10021843C007C00F13D0D2
:104EE000FFF7B5FFF8BD8188698001462848082290
:104EF0000E31103003F0F6F86F70002EF0D0F8BDD0
:104F00000020C04368806F70084600F019FB00283D
:104F1000F5D0A1690029F2D08847F8BD811D1C4851
:104F20000822103003F0DEF8DAE7F8B50146184839
:104F30000822083003F0D6F8154808307ADF04005C
:104F40000DD11348103000F015F80125002808D0C5
:104F500011484169002902D06846009588472046DB
:104F6000F8BD0B4E357031460831708875DF044648
:104F70007570F4E74188064808300288914204D3EE
:104F80004088814201D8012070470020704700000E
:104F90001C200020FFFF000010270020A54D01006D
:104FA00010B508461146FFF79BF910BDF8B53D4C0A
:104FB0002078002837D02069002807D00026E06834
:104FC000002805D00025002E04D013E00126F6E7C6
:104FD0000125F8E768464EDF052806D0002806D0F0
:104FE00031A26921FFF774F904E0012602E021698A
:104FF00000988847002D12D1608869460880A06813
:1050000060DF052806D0002806D027A28021FFF700
:105010005FF904E0012502E0E168A0688847002EFE
:10502000D8D0002DCFD0F8BD70B5002901D08C07A5
:1050300001D0072070BD1B4C0125A160628028496A
:10504000636010DF0028F5D12570162023DF70BDC6
:1050500011DF002801D0012100E00021114A117068
:105060007047002803D00F49C860002070470E2009
:105070007047002803D00B490861002070470E20BC
:10508000704710B507484068002808D080470028BE
:1050900004D0FF2104A23331FFF71AF910BDFFF746
:1050A00085FF10BD342000202E2E5C2E2E5C2E2E6F
:1050B0005C2E2E5C2E2E5C2E2E5C536F75726365FB
:1050C0005C73645F636F6D6D6F6E5C736F66746449
:1050D00065766963655F68616E646C65722E6300F6
:1050E000A14F01008307FF22DB0E9A408907090EBA
:1050F000994000280BDA0007000F08388308FA48A7
:105100009B001B18D86990430843D86170478308F7
:10511000F6489B001B1818689043084318607047B6
:10512000F0B5F34F28217C6841430D1939694A1CB9
:1051300009D028224A431619AB68B268934204D8B2
:10514000D21AB26069623861F0BD0A4602E00A46CE
:10515000796A9B1B4E1C0BD028264E433719BE681C
:105160009E42F4D328264E433619B768FF1AB7601B
:10517000AB60696228214A4311194862F0BDF8B555
:10518000DB4C2569681C36D0DA4800264068616926
:10519000401A07023F0A1AE02820454360682A188F
:1051A0009068B84215D8A3693F1A8619556A002B32
:1051B0000AD0116AD0699847002808D0FF21CEA2F2
:1051C0005831FFF785F802E0D169106A8847681CFA
:1051D000E2D1A178E078814206D1401CC0B2E070F3
:1051E000022801D10020E070C1490006800D1C3169
:1051F0000E5000F008FAF8BDF8B50446BC48016945
:105200000091467856E0BA48F100C2688D184BE02C
:10521000601C07D0B64A282152686143204689188D
:105220004C6A20E02878182141436A68401CC0B2CB
:1052300052182870A978884201D100202870AC4B00
:10524000506828215B684143C9181368012B2DD190
:105250000B7E002B2AD19368CB60D3680B61136956
:105260004B6152690A62A24ACF685369BC46FA1A76
:105270001202AD4F120ABA4202D20B69D21809E0EB
:1052800062469A1A12020B69120A934201D99A1ABB
:1052900000E000228A600022CA600A6101220A76C8
:1052A000921E4A62FFF73CFF601CB1D128786978F2
:1052B0008842ADD13046761EF6B20028A3D18C4884
:1052C00001690098814201D00120F8BD0020F8BD9D
:1052D00096490020086048608860C860934940395A
:1052E00008604860824903238A681B02521C8A6056
:1052F0009A4200D1886042E7F0B5002087B0C043F1
:1053000002907B4846690569684600F082F90746C5
:1053100000F09CF90446002F08D002AA31460098FC
:1053200000F0DCF90298FFF767FF06E00298FFF74C
:1053300063FF002801D1002C02D0284600F0F7F9C5
:1053400007B0F0BDFFB59807002481B01E46154692
:105350000F4600280BD1002E09D000F043F9644914
:105360000A9888610F70324600204E6008E00720DE
:1053700005B0F0BD28234343D4509B181C76401C35
:10538000B842F7DB28204743BB19032048700F467B
:105390001846CB6019461830002218232E465E436B
:1053A000D3005B181C705C709D7058603018521CE4
:1053B000032AF5DB0020C0433861BC70FC70012477
:1053C0005B482405046003211420FFF78BFE594835
:1053D0000460484C0198A06003211120FFF782FE71
:1053E000606878610020C3E770B5414C6568002DA6
:1053F00006D0002A06D0002804D00023247809E033
:10540000082070BD072070BD28265E43AE59002ECF
:1054100004D05B1CA342F7DB042070BD28240126C6
:105420005C432E516419E26161600360002070BD2D
:105430002D494868C005C00D17D0103807D50207A0
:10544000120F083A920892005118C96904E08108C5
:10545000264A8900891809688007C00EC1400806DD
:10546000800F012803D0032803D0022070470020BA
:10547000704701207047FEB504461D481746426834
:105480000D46002A0CD001788C4201D2052D01D2A4
:105490000720FEBD2146282359435358012B01D034
:1054A0000820FEBD88184068012845D00026FFF777
:1054B000BFFFC0000E490190C9684018694600F05E
:1054C00079F900283AD0012144600160094949680E
:1054D0000830E2C006490198C96841180098487030
:1054E00000F091F80020FEBD00ED00E000E400E0D7
:1054F00048200020001501402E2E5C2E2E5C2E2E02
:105500005C2E2E5C2E2E5C2E2E5C536F75726365A6
:105510005C6170705F636F6D6D6F6E5C6170705F0A
:1055200074696D65722E6300FFFF7F0040110140BA
:1055300080E200E000E100E02E46B8E70420FEBD76
:10554000F8B5BB4D04466868002809D029788C421C
:1055500001D30720F8BD282161434058012801D01C
:105560000820F8BDFFF764FFC600E86869463018F8
:1055700000F020F9002809D0022112C0E868311893
:105580000098487000F03FF80020F8BD0420F8BDF6
:1055900038B5A74C6068002815D0FFF749FFC50053
:1055A000E0686946281800F005F900280DD00321AD
:1055B0000160091F4160E06829180098487000F0F8
:1055C00022F8002038BD082038BD042038BD994994
:1055D0004968016000207047401A0002000A10600C
:1055E0000020704710B50121934A48041060934A87
:1055F00040109060914A403A9060914841602F205D
:10560000FEF7B2FD10BD01208B4900058031086016
:10561000704710B5864900238A78CC78A24212D010
:10562000521CD2B28A70022A00D18B708A78804BC9
:1056300092001C339A580260486910180002000A50
:105640004861012010BD0360002010BDF8B5784806
:1056500001690091457833E07548E900C0680E188B
:1056600034782AE0182060437168641C0818B17807
:10567000E4B2A14200D100240168022902D003292A
:105680001BD113E06A4A40682821526841438F18B1
:10569000397E002911D000F09FF8002038760CE008
:1056A00028277843C0180276406A03E06049002248
:1056B0004B680869471CF3D108617078A042D1D1CA
:1056C00028466D1EEDB20028C6D1594801690098E0
:1056D000814201D00120F8BD0020F8BDF7B5544C3F
:1056E0000025676823691EE028215943C9198E687F
:1056F000864202D9301A886017E0801B751900268F
:105700008E600E764E699C464B6AB646002E0AD0D5
:10571000019E76193602360ACE6076460E6116680C
:105720004E6261461160591CDED12361FEBDF8B5A1
:105730003F490A69531C3AD028235A434B68D21870
:1057400096683C4A54684F69401CE11B0D022D0AC3
:10575000ED1C0121002810D1384A08045060374A56
:10576000403A5060374A40001060334A803A106037
:10577000334801602F20FEF7F7FCB54200D23546D2
:10578000E81900022B49000A40310860294949689C
:10579000001B091B0902090A0002C91C000A8142F8
:1057A00004D901202449400480310860F8BDFFF786
:1057B00019FFF8BD42788378521C934200D1002231
:1057C0000378934201D1002070470A604168407815
:1057D000182250430818704770B5154D2A696B6838
:1057E0001446114606E0814207D00A462826714336
:1057F000C918496A4E1CF6D170BD002EFCD08A42F1
:1058000004D128204443E018406A286128204143FD
:10581000C818282481686243406AD2185062421C2A
:10582000EAD028225043C01882685118816070BDA8
:10583000482000200015014080E100E040130140B5
:105840000010014080E200E010B501788A0701797C
:10585000920F4907C90E806811438207540E0C430A
:105860008103890F03D00321090408400443002069
:1058700000F018F812494868FF2212021040204335
:10588000486010BD10B500F00DF80E4A01211160FE
:105890000D4800230468002CFCD003600848806891
:1058A000516010BD10B5064902024B68FF24240266
:1058B000A3431A434A60002800D00120086010BDAD
:1058C00000750040007000400071004014225043F9
:1058D000F74A002180180171C1800A220161C2606B
:1058E00041610181704770B5F14E14223078F14C5E
:1058F00050438219121D13780F21A588D068042BFC
:1059000002D0022B0DD024E001210907096989B2D8
:1059100002F049FC401950DF01001AD1A088401C58
:1059200014E011699388528840194919521B0125C6
:105930001818AD02AA4202D2920851DF02E0FF22FB
:10594000013251DF010004D1A0884019A08001205C
:10595000B070084670BDF8B5D54C0546A778264608
:1059600004207678002F01D1002E17D01E2E28D0CB
:1059700020788019C0B21E2801D31E38C0B2142668
:10598000704300190571426106C90261C160C3809C
:10599000069901816078401C607011E00020207041
:1059A0002571626103C92161E060E380069820816E
:1059B00001206070FFF797FF002801D0112800D167
:1059C0000020F8BD38B50246B94814230178BA4C16
:1059D00059430818C36801791B01E458042905D00C
:1059E000C388009343690C30A04738BD0023F8E713
:1059F00010B5AF4902468B780020012B1CD1002343
:105A00008B70022A03D0032A16D10D2012E00A78E7
:105A100014235A435118091D0A78042A04D1A54AAF
:105A200049889288914201D8FFF7CCFF00F057F9DE
:105A3000002801D0FFF7C6FF10BD70B500249D4DB2
:105A40009B48AC8004704470847026463046FFF753
:105A50003DFF761C1E2EF9D30F206C804003A860FA
:105A60009549AC80002002018C5052181481948119
:105A7000401C54810A28F6D301202870002070BDF4
:105A8000F0B58C4D2A78002A20D0002820D000299B
:105A90001ED00268002A1BD00122120783881469D5
:105AA000A4B2A34210D8202B0ED3C488002C0BD054
:105AB0005C43AB68E61814690A27A4B27C430F273D
:105AC0007F03E419A64205D90720F0BD0820F0BDE8
:105AD0000E20F0BD6C880A2C19D0774D0C60260181
:105AE0004B6071194B600768AF5185880D81C5887F
:105AF0004D818588C08800264543761C1069B6B262
:105B000080B2A84205D2106980B22D1A02E00420AA
:105B1000F0BD0025106980B2C318106980B2A84298
:105B2000EBD96448641C83608E8144800020F0BD02
:105B300070B5604B1B78002B18D0002818D0002AB5
:105B400016D003680A2B0FD25B4C1E01A559002DFD
:105B50000AD045683019048961436918458940684D
:105B600065432818884205D8072070BD082070BDFD
:105B70000E2070BD13600020516070BDF8B5054661
:105B80004C481F46007814460E4600281DD0002EB3
:105B90001DD0002D1BD028680A2814D201014648C8
:105BA0004258002A0FD009184A8908894968424397
:105BB00051186A68914206D9002C04D0A04202D341
:105BC000E119814205D90720F8BD0820F8BD0E2053
:105BD000F8BD304600F07DF800280CD0F01900F038
:105BE00078F8002807D0234632462946022000973D
:105BF000FFF7B1FEF8BD1020F8BDF8B507462D48F7
:105C00001D46007816460C4600281DD0002C1DD0DD
:105C1000002F1BD020680A2814D2274900010A58F7
:105C2000002A0FD041184A8908894968424351180F
:105C30006268914206D9002E04D0B04202D3711995
:105C4000814205D90720F8BD0820F8BD0E20F8BD17
:105C5000384600F03EF800280CD0781900F039F8EA
:105C6000002807D0606832464119384602F03AFAF7
:105C70000020F8BD1020F8BD08B50E4909780029AC
:105C800014D000281AD001680A290DD20A4A090145
:105C90005358002B08D089184A890B895A434B68FE
:105CA000D21843689A420BD8072008BD082008BDC7
:105CB0002C2700206C200020882900200E20F6E7E9
:105CC0008B8900210A46009101460420FFF743FE1C
:105CD000EDE7800701D0002070470120704770B5C4
:105CE000104D14212878104C41434919C988A288C5
:105CF000914209D8FFF7EAFD0020A0806878401E95
:105D000068702878401C287068780024002807D024
:105D1000FFF7E9FD040003D0112C01D0FFF752FE7C
:105D2000204670BD2C2700206C20002010B50B20D1
:105D300001F0D0F800BF0C2001F0C7F800BF00BF91
:105D40000B2001F0C2F810BD10B503210B2001F0AB
:105D5000B6F8FE4800690005C40F0B2001F0A9F851
:105D6000204610BD70B5FA4C0025E070C0B2C009E5
:105D7000C0012071802824D00B2001F0ABF800BFB7
:105D80000C2001F0A2F800BF00BF0C2001F0A2F827
:105D9000E0786D1C4000EDB2E070082DE6D30B20DA
:105DA00001F093F800BF00BF0C2001F08EF800BF97
:105DB00000BFFFF7C9FF04460C2001F08BF8204616
:105DC00070BD0B2001F081F8D9E710B50B2001F070
:105DD0007CF80C2001F079F800BF0B2001F07AF874
:105DE00000BF00BF0C2001F075F810BD10B50446CF
:105DF000FFF7EBFF7820FFF7B5FF4020FFF7B2FF7A
:105E00002046FFF7AFFFFFF791FF10BD10B5044626
:105E1000FFF7DBFF7820FFF7A5FF0020FFF7A2FFC9
:105E20002046FFF79FFFFFF781FF10BDF8B5C94E71
:105E300000242046B030C0B2FFF7E8FF0020FFF793
:105E4000E5FF1220FFF7E2FF2046602100254843CE
:105E50008719785DFFF7CAFF6D1C602DF9D3641CAC
:105E6000042CE6D3F8BD30B5BA4C002160230022E3
:105E70004B431B1905789D54521C401CD2B2402A3A
:105E8000F8D3491CC9B20429F0D330BD10B5B248CB
:105E9000FFF7E9FFFFF7CAFF10BD10B5AF48FFF7E6
:105EA000E2FFFFF7C3FF10BD7047F8B50024AC4810
:105EB00021460460AB4A0120D060AB48A44F007873
:105EC00000287DD038783E46401CC0B20B36A74D26
:105ED0003870082801D9397010E000280ED0012848
:105EE00032D0022856D003286BD004286AD0052867
:105EF00069D0062868D0072867D091E1132000F008
:105F0000D8FF132000F0E1FF0021122000F0D7FF9E
:105F10000021112000F0D3FF0021102000F0CFFF5E
:105F20003678F007285D05D000F0C3FF285D00F04B
:105F3000D1FF04E000F0BDFF285D00F0C6FF760849
:105F4000641C082CEDD36BE1132000F0B2FF13208A
:105F500000F0C0FF0021122000F0B1FF002111204D
:105F600000F0ADFF0021102000F0A9FF3678F00707
:105F7000285D05D000F09DFF285D00F0A6FF04E03D
:105F800000F097FF285D00F0A5FF7608641C082C40
:105F9000EDD345E10021132000F091FF122000F025
:105FA00088FF122000F091FF0021112000F087FFF0
:105FB0000021102000F083FF7678F007285D05E0CF
:105FC000E6E014E039E05EE083E0A8E005D000F010
:105FD00070FF285D00F07EFF04E000F06AFF285D9E
:105FE00000F073FF7608641C082CE6D318E100214A
:105FF000132000F064FF122000F05BFF122000F07D
:1060000069FF0021112000F05AFF0021102000F04C
:1060100056FF7678F007285D05D000F04AFF285D2E
:1060200000F053FF04E000F044FF285D00F052FF51
:106030007608641C082CEDD3F2E00021132000F058
:106040003EFF0021122000F03AFF112000F031FF46
:10605000112000F03AFF0021102000F030FFB67848
:10606000F007285D05D000F024FF285D00F032FF26
:1060700004E000F01EFF285D00F027FF7608641C96
:10608000082CEDD3CCE00021132000F018FF0021F4
:10609000122000F014FF112000F00BFF112000F07F
:1060A00019FF0021102000F00AFFB678F007285DE4
:1060B00005D000F0FEFE285D00F007FF04E000F0D0
:1060C000F8FE285D00F006FF7608641C082CEDD36E
:1060D000A6E00021132000F0F2FE0021122000F0C3
:1060E000EEFE0021112000F0EAFE102000F0E1FE9B
:1060F000102000F0EAFEF678F007285D05D000F0E9
:10610000D8FE285D00F0E6FE04E000F0D2FE285D37
:1061100000F0DBFE7608641C082CEDD380E0002143
:10612000132000F0CCFE0021122000F0C8FE002158
:10613000112000F0C4FE102000F0BBFE102000F083
:10614000C9FEF678F007285D18D011E00005005070
:1061500078200020282A00209CAA01009CAB010086
:1061600040A1004000A00040E12000209C920100DE
:1061700000F09FFE285D00F0A8FE04E000F099FE0C
:10618000285D00F0A7FE7608641C082CDAD347E0EF
:10619000132000F08EFE132000F09CFE122000F071
:1061A00088FE122000F096FE112000F082FE1120E1
:1061B00000F090FE102000F07CFE102000F08AFE1F
:1061C0000F2000F076FE0F2000F084FE0E2000F07D
:1061D00070FE0E2000F07EFE0D2000F06AFE0D2005
:1061E00000F078FE0C2000F064FE0C2000F072FE3F
:1061F0000B2000F05EFE0B2000F06CFE0A2000F089
:1062000058FE0A2000F066FE092000F052FE092028
:1062100000F060FE082000F04CFE082000F05AFE5E
:10622000B869002847D1132000F043FE132000F086
:1062300051FE122000F03DFE122000F04BFE112016
:1062400000F037FE112000F045FE102000F031FE76
:10625000102000F03FFE0F2000F02BFE0F2000F07A
:1062600039FE0E2000F025FE0E2000F033FE0D203A
:1062700000F01FFE0D2000F02DFE0C2000F019FE96
:106280000C2000F027FE0B2000F013FE0B2000F086
:1062900021FE0A2000F00DFE0A2000F01BFE09205E
:1062A00000F007FE092000F015FE082000F001FEB6
:1062B000082000F00FFEF8BD10B5FFF7F6FD10BD89
:1062C00010B5FD4A0121FD48FFF78EF8002803D0E4
:1062D000FBA2FE49FDF7FCFFF84800221C384221D2
:1062E000C069FFF7C8F8002804D0F849F4A2891C57
:1062F000FDF7EEFF10BD10B5F548FFF7B4FDFFF751
:1063000095FD10BD10B5F348FFF7ADFDFFF78EFD0D
:1063100010BD10B5F048FFF7A6FDFFF787FD10BDD3
:10632000CA08602310B55A43EC4B4C07D218135CD3
:10633000640F0121A1408B43135410BDCA08602390
:1063400010B55A43E54B4C07D3181A5C640F012172
:10635000A1400A431A5410BDF7B5E14990010C1849
:10636000002620786178000247180198A41C0025B7
:10637000801984463804604606D5C1B20098401999
:10638000C0B2FFF7DBFF05E0C1B200984019C0B210
:10639000FFF7C6FF6D1C7F00EDB2102DEAD3761C0F
:1063A000F6B2202EDDD3FEBD70B5642101F0FBFEF8
:1063B0000C46C5B220460A2101F0F5FE06462046ED
:1063C0000A2101F0F0FE0C462A4602210020FFF7C8
:1063D000C3FF324602210F20FFF7BEFF0A2202212F
:1063E0001E20FFF7B9FF224602212220FFF7B4FF4B
:1063F0000C2200213120FFF7AFFFFFF717FD70BD22
:1064000070B5642101F0CFFE0C46C5B220460A21CA
:1064100001F0C9FE064620460A2101F0C4FE0C46E2
:106420002A4602210020FFF797FF324602210F2063
:10643000FFF792FF0A2202211E20FFF78DFF22465E
:1064400002212220FFF788FF0B2200213120FFF7D5
:1064500083FFFFF7EBFC70BD70B5002806D0012864
:106460002CD0022801D1FFF74DFF70BDFF20A530D1
:106470009C4C9D4D9D4E814208D20846FF384238C3
:10648000632803D3FF2041308142EED8002A11D087
:10649000012AEAD1084602F08EFB22462B4602F082
:1064A0008DFB0022334602F0E6F802F037FBFFF7DF
:1064B0007BFF70BD0846FFF7A3FF70BDFFF729FF04
:1064C00070BD10B50D2000F005FD0B2000F002FDA1
:1064D0000C2000F0FFFC072000F0FCFC10BD10B504
:1064E000764C1C3CA078012814D1204621694069D3
:1064F000002910D0491E2161012816D07C4A7D490F
:1065000012780968022815D0032815D0042801D173
:10651000FFF7F1FE10BD652802D0FFF7D2FF10BDD6
:10652000032060610420206110BDFFF7E4FE6520B8
:10653000606110BD002004E06F480078002803D09F
:106540000220FFF789FF10BD0120FAE710B56B4A62
:1065500001215A48FEF748FF002804D0292158A2FB
:106560004901FDF7B5FE554801211C3800224903B9
:10657000C069FEF780FF002804D0544950A20B31B7
:10658000FDF7A6FE10BD70474C4810B51C38817849
:10659000002916D0012181700C2000F08AFC0B200C
:1065A00000F087FC0D2000F084FC072000F081FC47
:1065B0000B2000F08AFC0C2000F087FCFFF7C6FFE0
:1065C00010BD132000F075FC132000F07EFC12209B
:1065D00000F06FFC122000F078FC112000F069FC44
:1065E000112000F072FC102000F063FC102000F07D
:1065F0006CFC0F2000F05DFC0F2000F06BFC0E2007
:1066000000F057FC0E2000F065FC0D2000F051FC5E
:106610000D2000F05FFC0C2000F04BFC0C2000F083
:1066200059FC0B2000F045FC0B2000F053FC0A2025
:1066300000F03FFC0A2000F04DFC092000F039FC7E
:10664000092000F047FC082000F033FC082000F08F
:1066500041FCFFF735FE10BDF0B51849174C113954
:106660000B784A7808258978113CE4788C462B43CE
:106670002A4329432C4300284CD0104FF725113FC3
:106680003E78FF782E402F4001284DD0022855D06B
:1066900003285DD0042864D0084DF726113D6D789D
:1066A0003540052866D006286ED0072878D00828FF
:1066B0007FD0092841D123E0B96201009420002055
:1066C0002E2E5C4C43442E63000000001705000092
:1066D0009CA90100A49F0100A49E0100282A00207B
:1066E0009CAC0100CDCCCCCCCCCCFC3F00007440A9
:1066F000F4200020B420002004200020DF640100EA
:10670000FE48C470FB242140817004210B430370B8
:106710000A4311E0F948C4700424214381702343E3
:10672000FB2103700A4007E0FB23F4481940C770BF
:106730001E40817006701A404270F0BDEF486146FD
:10674000C4702940042421438170FB210B4036E0B2
:10675000EA48C470FB242140817023400370042167
:10676000D6E7E648FB23C7701940817004210E4329
:106770000670CDE7E148FB22C4701140817004210E
:106780000B4303700D4307E00422DC481143C4703F
:1067900013438170037015434570F0BD00E008E0BD
:1067A000FB24D6482140C7702340817003702240EB
:1067B000C2E7D248C470042421438170234303708C
:1067C0002243B9E7F0B5CD4902250B784A78CB4C86
:1067D0008978E4788C462B432A4329432C430028AC
:1067E00024D0C64FFD263D78FF783540374001283C
:1067F00024D002282ED0032837D0042841D0BF4D02
:106800006D783540052845D006284DD0072855D04D
:1068100008285CD00928C0D1B8484908C47049008C
:10682000817001210B4303700A4328E0B348C47010
:106830000124214381702343037007E0AF484908D6
:10684000C77049008170690849003EE0510849005D
:106850004170A2E7A9486146C47031400124214338
:10686000817059084900017038E0A4484908C47093
:10687000490081705908490001700121D4E7427034
:106880008BE79E484908C7704900817001210D437C
:106890000570C9E799484908C47049008170012111
:1068A0000B4303700D4307E0012294481143C47069
:1068B000134381700370154345706EE78F48490894
:1068C000C77049008170590849000170BEE78B48C4
:1068D000C470012421438170234303702243CEE717
:1068E000F0B5864920250B784A78844C8978E4787D
:1068F0008C462B432A4329432C43002825D07F4F25
:10690000DF253E78FF782E402F40012827D002282F
:106910002FD0032837D004283ED0784DDF266D785D
:106920003540052841D0062849D0072851D00828ED
:1069300058D009281CD17148C470EF2421408170BF
:1069400010210B4303700A4311E06C48C4701024FB
:10695000214381702343EF2103700A4007E0EF23B6
:1069600066481940C7701E40817006701A40427018
:1069700013E762486146C4702940102421438170A6
:10698000EF210B4034E05D48C470EF24214081705A
:10699000234003701021D6E75848EF23C7701940F1
:1069A000817010210E430670CDE75448EF22C47069
:1069B0001140817010210B4303700D4307E010223A
:1069C0004E481143C47013438170037015434570E2
:1069D000E3E6EF2449482140C770234081700370EB
:1069E0002240C4E74548C4701024214381702343EA
:1069F00003702243BBE7424900200860414901205F
:106A0000C86070477047401EFDD2704710B5FFF751
:106A1000BBFD072000F059FA3B48401EFDD20D2077
:106A200000F058FA3948401EFDD20D2000F04DFA12
:106A30003548401E401EFDD210BD10B5AE20FFF7F8
:106A4000E5F9D520FFF7E2F9D120FFF7DFF9A8201B
:106A5000FFF7DCF91F20FFF7D9F9D320FFF7D6F9AC
:106A60000020FFF7D3F94020FFF7D0F98D20FFF782
:106A7000CDF91420FFF7CAF9A120FFF7C7F9C82004
:106A8000FFF7C4F9DA20FFF7C1F91220FFF7BEF9CA
:106A90008120FFF7BBF9CF20FFF7B8F9D920FFF726
:106AA000B5F9F120FFF7B2F9DB20FFF7AFF940208D
:106AB000FFF7ACF9A420FFF7A9F9A620FFF7A6F984
:106AC000AF20FFF7A3F910BDF7B51001FF38FF386D
:106AD00002380F4980B20F1800253E7801987F1CBC
:106AE0000024401984463006604613D5C1B2009890
:106AF0000019C0B2FFF722FC12E000008320002042
:106B000040A1004000A00040E70300008613000001
:106B1000A4920100C1B200980019C0B2FFF700FCB6
:106B20007004641C060CE4B2082CDCD36D1CEDB2BE
:106B3000102DD2D3FEBD70B50E460546144606E0B4
:106B400031462846FFF7C0FF641C0835EDB22278B5
:106B5000002AF5D170BDFFB581B0019800255E1AFD
:106B60008C46171A11E0019800244019009008E0A3
:106B700060460019C1B20098C0B2FFF7D1FB641C97
:106B8000E4B2A642F4DC6D1CEDB2AF42EBDC05B022
:106B900003E6F7B5D24950010C1800262078617839
:106BA000000247180198A41C002580198446380467
:106BB000604606D5C1B200984019C0B2FFF7BEFBCF
:106BC00005E0C1B200984019C0B2FFF7A9FB6D1CE7
:106BD0007F00EDB2102DEAD3761CF6B2102EDDD375
:106BE000FEBDF7B530204243BE4884180026217808
:106BF000607809020F180198A41C002580198446AA
:106C00003804604606D5C1B200984019C0B2FFF7FB
:106C100095FB05E0C1B200984019C0B2FFF780FBB8
:106C20006D1C7F00EDB20C2DEAD3761CF6B2182E47
:106C3000DDD3FEBDF7B5AC4950010C180026207815
:106C40006178000247180198A41C00258019844629
:106C50003804604606D5C1B200984019C0B2FFF7AB
:106C60006DFB05E0C1B200984019C0B2FFF758FBB8
:106C70006D1C7F00EDB2102DEAD3761CF6B2102EFB
:106C8000DDD3FEBD99488179491CC9B281713C2987
:106C90000FD3002181714279521CD2B242713C2A39
:106CA00007D34171C279521CD2B2C271182A00D3E3
:106CB000C171704710B500208D4C03466022002141
:106CC000424312195354491CC9B24029FAD3401CFB
:106CD000C0B20428F2D310BD70B586A207CA86B030
:106CE00000266B4647C31F233F2231463046049699
:106CF000FFF731FF7D4C0A21E07901F054FA6D462F
:106D00002A5C2A73695C69733A21A9730A21607944
:106D100001F049FA2A5C6846C273695C01744674E2
:106D200003AA03210C20FFF706FF0A21A07901F036
:106D30003AFA024610210846FFF72BFF0A21A079F4
:106D400001F031FA0A4610212020FFF722FFFFF759
:106D50006DF806B070BD10B500280AD001280AD021
:106D600002280AD003280AD004280AD005280AD00D
:106D70000CE0634808E0634806E0634804E06348C9
:106D800002E0634800E06348FFF76DF8FFF74EF854
:106D900010BD70B557A207CA86B000256B4627C341
:106DA0001F233F22294628460495FFF7D4FE4F4E65
:106DB0000A21307A01F0F7F96C46225C2273615C9B
:106DC00061732D21A1730A21707A01F0ECF9225C24
:106DD0006846C273615C0174457403AA02210C20E9
:106DE000FFF7A9FEB27A10211820FFF723FFFFF763
:106DF0001DF8AEE710B53D494878401CC0B2487058
:106E0000022802D90020487006E0002804D001289A
:106E100004D0022804D006E03F4802E03F4800E0EA
:106E20003F48FFF720F8FFF701F810BD10B53D48C7
:106E3000FFF719F8FEF7FAFF10BD10B53A48FFF753
:106E400012F8FEF7F3FF10BD10B53848FFF70BF846
:106E5000FEF7ECFF10BD10B5244C607801280AD075
:106E60001F2315220A210020FFF775FE0120607004
:106E7000FEF7DCFF10BD002060702C48FEF7F3FF2A
:106E8000F6E710B501280ED1184C6078012808D01B
:106E90001F2315220A210020FFF75DFE01206070EC
:106EA00004E0002060702148FEF7DDFFFEF7BEFF22
:106EB00010BD1F4A012180008018016070471C4AE4
:106EC00089008000801801607047012181401948C5
:106ED00081607047012181401648C1607047000001
:106EE000A4A40100E4A60100BCA8010078200020B1
:106EF000282A002030313233343536373839000013
:106F0000A4980100A4990100A49A0100A49B010087
:106F1000A49C0100A49D0100A4A00100A49F010065
:106F2000A4A10100E4A50100A4A20100A4A3010002
:106F30000007005000050050F8B5F1480125016830
:106F4000ED07F04C4068002902D0012903D006E08B
:106F500001F0B2FF02E001F0AFFF6840A062EA4832
:106F600001684068002902D0012903D006E001F041
:106F7000A3FF02E001F0A0FF68406062E34F00253C
:106F8000284601F018FE0022E14B01F0A1FB01F0C0
:106F9000BBF90646616AA06A02F0E2F803D2616AB0
:106FA000A06A009002E0A16A0091606A02F004F910
:106FB000314602F07DF8009902F034F801F02AFF22
:106FC00069006D1C7852782DDAD3F8BDF0B5002336
:106FD00013E00022CF1A0DE05500AC46445F2D1897
:106FE0000226AE5FB44204DDA646644606537446EC
:106FF0006C80521C9742EFDC5B1C8B42E9DBF0BDDE
:1070000010B5C04988898B8880B2984201D364202A
:1070100010BD4A88904201D8002010BD991A491C21
:10702000801A09041922890C50434018401E01F0AF
:10703000C4F8C0B210BDB74900200860B64980202E
:10704000086070470EB5B54B00280ECB0293019235
:10705000009103D0012801D0022802D16846FEF732
:10706000F3FB0EBD70B5A74E0025B068401CB060A4
:10707000032801DBB56010E000280ED0A34CF03CE3
:1070800001280FD002280CD19E487269037831691B
:1070900058008A4220DD21521FE00420FEF7F2FB57
:1070A000F06070BD2020FEF7EDFB30614020FEF760
:1070B000E9FB70613169884203DD3078400021527C
:1070C00002E031784900605230780F2800D33570E3
:1070D0003078401C307070BD2252102B00D33570B8
:1070E00030781021401C30708848F038FFF76EFF70
:1070F0000421615EB1617278844853007838C152CE
:10710000521CD1B27170372900D97570002102224A
:10711000415E825E062389180422825EC35ED21815
:1071200089180822825E89180A22825E89180C2238
:10713000825E89180E22825E89181022825E89186A
:107140001222825E89181422825E89181622825EBB
:1071500089181822825E89181A22825E89181C22D8
:10716000825E89181E22825E89182022825E89181A
:107170002222825E89182422825E89182622825E5B
:1071800089182822825E89182A22825E89182C2278
:10719000825E89182E22825E89183022825E8918CA
:1071A0003222825E89183422825E89183622825EFB
:1071B00089183822825E89183A22825E89183C2218
:1071C000825E89183E22825E504889183838002233
:1071D000825E89180222825E89180422825E8918E2
:1071E0000622825E89180822825E89180A22825E3F
:1071F00089180C22825E89180E22825E891810225C
:10720000825E89181222825E89181422825E891891
:107210001622825E89181822825E89181A22825EDE
:1072200089181C22825E89181E22825E20308918ED
:107230000022825E89180222825E89180422825E00
:1072400089180622825E89180822825E89180A221D
:10725000825E89180C22825E89180E22825E88184E
:10726000382100F0AAFF2E49B061884200DD32E7E4
:10727000FF212D318842FADB294A183A101A234A95
:10728000F061884202DA0021515E08E00146FF39D0
:107290002D39782905D8234B4100C918515E0818AB
:1072A00008E0FF21A531884205DD18490C22E031B4
:1072B0008A5E1018F0610838F06170BD10B50020CA
:1072C000FFF7C0FE18490120086001460D48174A23
:1072D0002030FEF789F8002803D015A29F21FCF783
:1072E000F7FF0F49074800228239006AFEF7C3F80A
:1072F000002803D00EA2A121FCF7EAFF10BD000078
:10730000FC2000209820002004210020982C002040
:1073100000C05D400071004080E100E0DCAF010092
:10732000B5030000A8FDFFFF00700040657001007C
:107330002E2E5C6D795F6164635F746F5F74656D41
:1073400070657261747572652E6300000A4610B52F
:107350000146B948FDF786FA10BD034610B5002076
:10736000024603E09C5C6040521C92B28A42F9D310
:1073700010BD10B5B14C0420207002206070FFF7E2
:107380003FFEA07003212046FFF7E7FFE0700421D5
:107390002046FFF7DBFF10BD10B5A84C052020707C
:1073A00001206070A6480068C117090E09180A126A
:1073B000A270E07004212046FFF7CFFF2071052165
:1073C0002046FFF7C3FF10BD70B59E489E4C007865
:1073D00000280AD19D499E48626909780078002AF0
:1073E0000FD0521E626100F0C3FB60680025401C94
:1073F0006060216888421ED965606069002818D0E5
:1074000019E08F4AFF23126855339A4202DA00F0DE
:1074100065FBEAE7FF23A5339A4202DD00F015FB86
:10742000E3E795B20A4601460323284600F0A6FA90
:10743000DBE7FFF7B1FFE068401CE060A16888422D
:1074400002D9E560FFF795FF70BD7F4810B5814A0E
:1074500001211830FDF7C8FF002803D07EA29B2130
:10746000FCF736FF7848002280498069FEF703F870
:10747000002803D078A29D21FCF72AFF10BD10B58B
:10748000044639DFE0433ADF10BD6C48AA210170A1
:1074900032214170302181703122C2703622027156
:1074A00041718271C1713321017209214EE730B4FB
:1074B0006448AA23047861484C214422002C0CD053
:1074C000012C11D103704F23437081704521C1708D
:1074D0000271052130BC594838E7037041704321DF
:1074E0008170C2700421F5E730BC70475348AA216F
:1074F000017031214170302181703321C17004212C
:1075000024E770B50546002403E00820FCF73CFEA4
:10751000641CAC42F9D370BD70B5484814462330A2
:1075200000F0E0FD454923310878562823D14878FA
:10753000012821D0022822D0032826D001220428A5
:1075400026D0062835D0072836D0082813D0092899
:1075500035D00A2844D020284BD041284CD043288D
:107560004DD0532854D0542855D0552856D056289D
:1075700001D100F016FC70BDFFF70EFF70BD8878DA
:107580000C28FBD100F059FB70BD00F0D9FB70BD99
:107590003749402088603748FFF7B3FFAB20FFF73B
:1075A0006EFFBFF34F8F35493348C860BFF34F8F2D
:1075B000FEE7FFF79BFF70BDFFF779FF70BD304D11
:1075C0002246891CA81C00F08DFDAA202870A41E4C
:1075D0006C700023142229462A48FEF7CFFA70BDAA
:1075E00088780028FBD0E121090148431649086149
:1075F00070BDFFF7BEFE70BDFFF747FF70BD897815
:107600001248002901D0027070BD0021017070BDC8
:1076100000F033FB04E000F0A4FB70BD00F04FFB72
:10762000FFF78AFC70BD054902220A7003224A70E6
:1076300088701146014889E6E0260020882D002048
:10764000B42000207A200020C4200020F420002054
:1076500004200020C97301002E2E5C6D795F626CDE
:10766000655F736572766963652E63009A39000001
:1076700000050050102700000400FA0500ED00E0AE
:10768000FC26002014200020A9490420086070472F
:10769000A8480168012905D1A7494968C90701D04F
:1076A00000210160A5488168002901D10121816084
:1076B0007047F8B5A2480069A04CC002C20F227002
:1076C000A078012808D1E078401CC0B2E07064289E
:1076D00002D90020A070E07098490C274878994D95
:1076E000994E8968012A26D0491E182977D8002882
:1076F00075D0E078002853D0801EC6280CD2002216
:10770000A2709248E270017800294CD00270007893
:10771000401CC0B2FFF787FF6420E0608C49022064
:10772000376008608B48007801283FD08A4801689C
:10773000002947D04BE0491CA160002810D0491E09
:1077400018290DD86420E060814902203760086064
:107750001E202860FEF717FF012080498002086084
:10776000A0680146FF39193948D160786421C043C7
:10777000C0B26070E160002833D01E2028607649D6
:107780000A200860FEF7FFFE0120744A81021160A2
:107790006F4908606F4837600078012827D032E0D1
:1077A0000120A070B8E701210170B0E7FFF72EF9C2
:1077B000FFF743F965480278694801680020FEF741
:1077C0004BFE0CE02968002901D1032101601E2035
:1077D0002860FEF7D8FE0120604980020860002082
:1077E00010E01E2028605A4804210160D2E7FFF70C
:1077F0000DF9FFF722F9FEF77EFD04E059498842B2
:1078000001D9401EA060A088402500280BD1E06867
:10781000002802D0401EE06012E0062000F083F84D
:10782000A088002812D080B2401E80B2A080962886
:1078300006D2642807D0322802D0022803D005E0FF
:107840003F48856002E0062000F06DF841480322C1
:107850000178374812041038012961781BD00029BB
:1078600018D1E168002915D12178002912D10169C8
:107870009143016102220021142000F04BF8062000
:1078800000F051F831DF002804D0FF2136A22E315C
:10789000FCF71EFDF8BD0029FCD1E1680029F9D1F3
:1078A00031680029F6D121780029F3D1016991438B
:1078B000016102220021142000F02CF8062000F0C3
:1078C00032F831DF0028E5D0FF2127A21531DFE7AC
:1078D000174910B5012038390860154900200860A3
:1078E0001648254A01211030FDF77EFD002803D0FF
:1078F0001DA25E21FCF7ECFC1048FF21002249315B
:107900000069FDF7B8FD002803D017A26021FCF73D
:10791000DFFC10BD120489000A430549800050397C
:10792000401802607047012181400548C1607047DE
:10793000500700500061004000630040E02000203C
:10794000000500509020002088200020F420002016
:107950008C2000207A200020D820002000E100E0C8
:10796000B4200020FAFF00002E2E5C6D795F746F4A
:107970007563682E63000000B3760100F8B5964C7D
:1079800006466078BF234025002902D0012902D095
:1079900003E0184000E0284360708F48102781788A
:1079A000C078002A02D0012A06D018E019402843E6
:1079B000A1703843E07012E029431840A1703843A9
:1079C000E070304601F0F7F8844A854B01F0F6F894
:1079D0000022844B00F04FFE01F0A0F886B27D211A
:1079E000C900304600F0DFFB0D46C6B228466421D0
:1079F00000F0D9FBC0B200902846642100F0D3FB10
:107A000008460A2100F0CFFB07462846642100F013
:107A1000CAFB08460A2100F0C6FB0D46002E02D024
:107A2000012E04D007E0E0784008400002E0E07852
:107A300001210843E0700098FEF7C4FE3846FEF7C7
:107A40000BFE2846FEF74CFFF8BDF0B5624ABF2595
:107A500040245378002802D0012802D003E02B40B4
:107A600000E0234353705C4810268378C0780029D7
:107A700002D0012904D008E02B409370204302E09B
:107A80002343937028403043D070D078EF254308CB
:107A90005B001178FD262B4031400227334050789F
:107AA0009478012638433C43344331433043F7262E
:107AB0003140304034403340042634433143FB26C8
:107AC0003040DF263440334031402C40D3702940D1
:107AD00030409470117028405070F0BDF0B53E4AAF
:107AE000BF2540245378002802D0012802D003E0AB
:107AF0002B4000E023435370374810268378C0782A
:107B0000002902D0012904D008E02B4093702043C3
:107B100002E02343937028403043D070D078FD2694
:107B200041081078537894784900EF25304033406D
:107B30003440294002263143012634433043B343C5
:107B4000F72630403340082634433143042634437B
:107B50003343DF26FB2738403440314030402C404F
:107B6000D17028403340947010702B405370F0BD9A
:107B700070B5194C06460D46E07801210843E070C7
:107B80000820FEF71FFE0820FEF766FD0820FEF71E
:107B9000A7FEBF204021002E02D0012E03D005E019
:107BA0006278024001E062780A4362701022002D80
:107BB00009D0012D06D1A3780B43A370E1780140D1
:107BC0001143E17070BDA3780340A370E0780843CF
:107BD0001043E07070BD000083200020CDCCCCCCE1
:107BE000CCCCFC3F0000744070471CB501216846B6
:107BF000C1808902818080480090FDF71EFF7F4987
:107C00006846FDF73DFF002314227C497C48FDF7C0
:107C1000F4FF0023342279497A48FDF7EEFF7948D2
:107C20007949426A0A60826A4A600831C26A0A6017
:107C3000006B4860FFF780F91CBD724810B5002347
:107C400024226E497838FDF7D8FF24216B48FEF7CF
:107C500013F86C486C497838006A091F0860694855
:107C60000C226A49643800F03DFA66490023242258
:107C700078396248FDF782FF10BD624810B50023D5
:107C80002C225E495438FDF7B8FF2C215B48FDF7E4
:107C9000F3FF5E495B480822491E303800F022FAA3
:107CA000584859495438426A0A60806A48605549C0
:107CB00000232C2254395148FDF760FF10BD10B548
:107CC000002334224D494F48FDF797FF34214B489C
:107CD000FDF7D2FF4D494B480822491E2C3000F0D9
:107CE00001FA48484849C26A08310A60006B486096
:107CF0000023342243494148FDF740FF10BD41486D
:107D000010B578384249027D0A70427D4A70827D02
:107D10008A70C27DCA70027E0A71427E4A71827E7A
:107D20008A71C27ECA71027F0A72427F4A72827F62
:107D30008A72C07FC8720C213548FFF707FB10BD5F
:107D4000304810B5002324222C497838FDF755FF20
:107D50002C482D497838006A091F0860FFF7CFFFCB
:107D600010BD284810B500232C2224495438FDF7B3
:107D700044FF24482649303802780A7042784A7015
:107D800082788A70C278CA7002790A7142794A711F
:107D900082798A71C079C87108211D48FFF7D6FA27
:107DA00010BD10B50023342214491648FDF725FFF5
:107DB00014481549426A0A60826A4A600831C26AF8
:107DC0000A60006B48600F4811492C3002780A7035
:107DD00042784A7082788A70C278CA7002790A71D1
:107DE00042794A7182798A71C079C871082108483C
:107DF000FFF7ACFA10BD0000E97B01001420002061
:107E0000FC260020482E0020FC200020AE2D002063
:107E1000882D002010B50446800705D16421204636
:107E200000F0C1F9002908D1FF219131204600F06E
:107E3000BAF9002901D0002010BD012010BD9E49D3
:107E40000020086170479C490861704702461F2066
:107E5000012907D0062901D9491EC9B2C90700D096
:107E60001E2070471C32D0B27047F8B50A4604464F
:107E70009249104600F097F90D4606463C212846E7
:107E800000F091F92160E1210901284600F08BF909
:107E9000054608463C2100F086F9A5606060864DE5
:107EA00087486E80FF266F36771EE0600DE0E06841
:107EB000FFF7B0FF002801D0304600E0384669885F
:107EC000081A6880E068401CE060FFF7A3FF002804
:107ED00001D0304600E0384669888842E7D9002062
:107EE0000BE0E068FFF796FFC0B2217CFFF7AEFF22
:107EF0006988081A68802069401C2061E068FFF7E3
:107F000089FFC0B2217CFFF7A1FF69888842E8D3CE
:107F10002069401C20616888401C6061F8BDF8B58C
:107F2000044680683C214843616840183C2148432E
:107F300021684718A08A85B2207C401E46B208E01E
:107F4000E068FFF767FFC0B2F1B2FFF77FFF4019AB
:107F500085B2761E76B2002EF2DAA089584E84B22F
:107F60000BE02046FFF756FF002802D0FF206F30BD
:107F700001E0FF206E30401985B2641EA4B2B44205
:107F8000EFD24E484543E819F8BD4B4800697047A9
:107F900070B58189047C007D8DB2401CC6B2012C75
:107FA00001D0022C03D10C346D1EE4B2ADB2601CC2
:107FB00041004018052100F0F6F8610089194018C9
:107FC0004019A90844186421284600F0ECF8241A46
:107FD000FF219131284600F0E6F82018072100F033
:107FE000ECF80806000E00D1072070BD30B587B050
:107FF00004917D210A9D0B9C090140180094039077
:108000000195029305926846FFF789FF2A490861A6
:1080100007B030BD10B5284800230178491CC9B20B
:108020000170052900D303700169264A491C0161CA
:108030001468002C01D0641E14608268224C521C0B
:1080400082602468A24200D983604268521C426068
:108050004469A24200D943601C48FFF706FF1B4851
:1080600010BD10B586B00120009001900290122042
:10807000059004903F20400103906846FFF74FFFB2
:108080000D4C134A2061204601210C30FDF7ACF95C
:10809000002803D00FA2C921FCF71AF90121002200
:1080A000C903E068FDF7E7F9002803D009A2CD2154
:1080B000FCF70EF906B010BD0C2100208051010024
:1080C000B207000090200020D4200020A42E002021
:1080D000158001002E2E5C6D795F74696D65727379
:1080E0002E630000F8B5042A2CD3830712D00B7836
:1080F000491C0370401C521E83070BD00B78491C8F
:108100000370401C521E830704D00B78491C037077
:10811000401C521E8B079B0F05D0C91ADF0020237D
:10812000DE1B08C90AE0FCF73FF8F8BD1D4608C988
:10813000FD401C46B4402C4310C0121F042AF5D247
:10814000F308C91A521EF0D40B78491C0370401C66
:10815000521EEAD40B78491C0370401C521EE4D412
:1081600009780170F8BD01E004C0091F0429FBD2A1
:108170008B0701D50280801CC90700D002707047B0
:1081800000290BD0C30702D00270401C491E0229EF
:1081900004D3830702D50280801C891EE3E70022F6
:1081A000EEE70022DFE7002203098B422CD3030A0B
:1081B0008B4211D300239C464EE003460B433CD434
:1081C000002243088B4231D303098B421CD3030A9C
:1081D0008B4201D394463FE0C3098B4201D3CB01CC
:1081E000C01A524183098B4201D38B01C01A5241FC
:1081F00043098B4201D34B01C01A524103098B4200
:1082000001D30B01C01A5241C3088B4201D3CB00EA
:10821000C01A524183088B4201D38B00C01A5241CD
:1082200043088B4201D34B00C01A5241411A00D27D
:1082300001465241104670475DE0CA0F00D04942E6
:10824000031000D34042534000229C4603098B4256
:108250002DD3030A8B4212D3FC22890112BA030ADE
:108260008B420CD3890192118B4208D38901921160
:108270008B4204D389013AD0921100E08909C309E5
:108280008B4201D3CB01C01A524183098B4201D3E7
:108290008B01C01A524143098B4201D34B01C01AD2
:1082A000524103098B4201D30B01C01A5241C3084A
:1082B0008B4201D3CB00C01A524183088B4201D3B9
:1082C0008B00C01A5241D9D243088B4201D34B00D4
:1082D000C01A5241411A00D20146634652415B1016
:1082E000104601D34042002B00D5494270476346F7
:1082F0005B1000D3404201B50020C046C04602BD1D
:1083000070477047704700000246C80FC00781439E
:108310004B0030B54B405B009B0D20D01923DB0692
:10832000C91801231B05994220DB0324A407042557
:108330001346AB400BD3002B04D1EB0613409B003C
:108340001B1904D401246407002312195941FF2387
:108350001B0599420BD2C9000143500F09E0CB0223
:1083600004D501430803024305D0054830BDFF2171
:10837000C905084330BD084607210905884330BDBB
:108380000000C07FF0B50C46871A9C410D46861A46
:108390009D4103D2C01BA141D21963410D0D1F0D98
:1083A000C64EEC1BAE435BD07F057F0D0026002F31
:1083B00050D02D05AC46A943DD020123ED0A1B0573
:1083C0001D4320231B1B23D41746E7403818714157
:1083D0002F46E740CC199D402818314661410C0DCD
:1083E00026D161449A4012D50023401C59415200C5
:1083F0000DD140084000B24A4B00934207D30520FC
:108400004007081801D5511000E0AE493046F0BDD4
:108410006B00002A00D001229A18203C1F231B1B4E
:1084200001D5002302E0E540281871410C0DD8D099
:10843000012424050919C407CD0740084908E40FA1
:1084400028436144002CD6D00024401C61419A404E
:10845000D1D1CEE76A05520DD9D1C90FC907D5E7E9
:10846000974D4E00002801D0012400E0002434196B
:108470005F00002A01D0012600E00026BE19924FBD
:10848000AC420BD8AE4209D8B44205D0BD00AC42D4
:10849000BDD010461946F0BD9942FCD000203946A7
:1084A000F0BDF0B51FB40C460F46811A9F4125461A
:1084B000861A9D4106D20125ED076F40401ABC4146
:1084C00052187B41210D1E0D8D1BAC467B4D8D43FB
:1084D0007ED075056D0D7CD00D05AE46AC431B03FB
:1084E0001B0B7A4D52429D41202366469B1B14D3A1
:1084F0001746F740381800260090744160462F4612
:108500000741E41900989D402818664116D4714629
:1085100071189A4025D5012320E093182A466A4114
:108520005200002B00D0521C203E1E239B1B002B10
:1085300061DD3541EE1728186641E8D5001876410F
:108540005B1C9A4000D3401C4B05F3181524E340F4
:1085500010D3002B52D071467118D30FC01802D31C
:10856000491C05B0F0BD0123DB079A42F9D1400850
:108570004000F6E701225205B21801D1002853D07D
:108580000123CC0ADB029943891E002A08D1020C80
:1085900003D0020C0004103902E00246002020390A
:1085A0000023550B05D112020823550B01D15201AE
:1085B0000D23550C01D112011B1DD50C01D19200C8
:1085C0009B1C150D01D152005B1C2025EE1A01E009
:1085D0002CE022E00546F54015439840CA1AE10711
:1085E00069181305C918002ABBDA032040070818C8
:1085F000C10FC9070FE071466118B2E7F1074008E3
:108600000843711071444A000CD001235B059A4263
:10861000A7D2C90FC9070020A3E74905490D25D1F5
:10862000002001E00028F4D100219AE7244D6600E3
:10863000002801D0012100E0002171185F00002A0C
:1086400001D0012600E00026BE191F4FA9420FD815
:10865000AE420DD8B14207D0BD00A94206D019469E
:10866000A802414010467CE79C4201D0214678E7B1
:108670000020394675E730B40C465C4004D501242F
:10868000E407634030BC0CE730BC7BE630B40C46FA
:108690005C4004D50124E407634030BC72E630BC82
:1086A000FFE630B40124E40761400D465D4001D48B
:1086B00030BC67E6634030BCF3E60000FF07000013
:1086C0000000E0FF0000F07F0000F87F0000F0FFF6
:1086D000F0B51FB4FA4F0E091D09BC463E403D409F
:1086E0000C46B7435C408CB0002F7DD06746AF434B
:1086F000FBD0002D79D0002EFCD0E20F3243521B6C
:10870000FF24A40412190892420DCD02C7020E984C
:108710001543420DD9021143C202600305430143D0
:10872000080C0195150CAC4605040B46AB430A95A5
:1087300065462D04AA430995E24D040A7D44641957
:10874000803C257806466E4301247619E405A61B75
:108750007543ED0CAD1C490B69434919A401611A1D
:108760000E0CB6463604B143694376466E43090C97
:10877000711889090591F90700D0A10004910199A8
:108780007F08CC0727434C08059DE10B4D432D0C7A
:1087900029466646754302950D4645432E46029D81
:1087A0007D1BB44100950D465D4301942C0C2F04B4
:1087B0000D465543AE462D0C3D4302950394754638
:1087C000049C2D04641B049406D2029C039D641C2B
:1087D000002675410395029401AC70CC009F7D1B6F
:1087E000B4410904009501E03BE15FE10791019488
:1087F0000599A4086143090C0C464443650BE70442
:1088000064464C43A646640B3C430395029474466D
:10881000049DE4042C1B049406D2029C039D641C5A
:10882000002675410395029401AC70CC009F7D1B1E
:10883000B44101940C465C430095650FE7000C467B
:108840005443A646640F3C43039502947446049D2A
:10885000E4002C1B049406D2029C039D641C002699
:1088600075410395029401AC70CC009F7D1BB4410F
:10887000AE09AF06049DC900AD092F43049DA406AF
:10888000AD060495079D344369180791059DE10BDA
:108890004D432D0C29466646754302950D464543CA
:1088A0002E46029D7D1BB44100950D465D4301940B
:1088B0002C0C2F040D465543AE462D0C3D4302951E
:1088C00003947546049C2D04641B049406D2029CF8
:1088D000039D641C002675410395029401AC70CC85
:1088E000009F7D1BB44101948C050694079C890A66
:1088F000611800950791019C0599A4086143090C32
:108900000D464543680BEF040D46644665436C0B0A
:108910003C43049FED047D1BAC4602D20025641C41
:108920006841009E019D371B8541084658430195CB
:108930000C46460FC5005443600F28436546E400CB
:108940002C1B02D20025401C6E41019D3F1AB541EF
:108950002846BD09800628438446A009BF064E026A
:108960000699A40676180743079D002068410A99D6
:10897000079019430020099B00906046FF1913439C
:108980004041E20F64003A43A4460446D71A8C41A2
:10899000A04203D90120009020463A46C70F941800
:1089A00040416246D20F2243644664000494009C16
:1089B000BE466400D71AA446044602978C41774607
:1089C000002F01D1A04204D96046401C8446029A7F
:1089D0002046C40FA64694184041049A0546D20F7B
:1089E000224364466400D31A8D417146002901D1A7
:1089F000A84202D9641C28461A46104301220028C6
:108A000000D0164361020020079B044689195C418F
:108A10000223002C02DB491813466441089DCE0A4C
:108A20002D145D194B056705E10A2C050C190899F1
:108A30003E43C9076140002B08D0934006D3002273
:108A4000761C5141002B01D1760876001E4A002C7D
:108A500045DB2346134242D0A24340D0304611B0FA
:108A6000F0BD0E4607184E41184D7A42B5411AD353
:108A70000E9A1D4696185D41144A7642AA4112D3B9
:108A8000012252054D00D5420AD15C00D4420AD0E1
:108A90004B4002D592021143E1E749004908DEE765
:108AA000E10FC9070AE000200949D8E7064801425A
:108AB00012D0084821460143C01241400020CEE7B1
:108AC0000000FF07A82800000000F07F0000E0FF82
:108AD0000000F87FFFFFFF7F0342E4D0E0E70123BF
:108AE000089A9B069A4205DC032252078918C90F8F
:108AF000C907B4E7052252078918074A1143D21261
:108B00005140ACE75940504010B54B4042405940AD
:108B10005040FFF7DDFD10BDFFFFFF7FCB02420D90
:108B200010B51A430B1504D00124E4072243002B8F
:108B300006DB0A4CE31A05D41046D840FF2B00DDB3
:108B4000002010BD4A00002800D001201018044A5F
:108B50009042F5D8C817C04310BD00001E040000A5
:108B60000000E0FF1F22030C02D10F22000402D0FC
:108B7000030E03D004E0002001467047083A0002CB
:108B8000030F01D1121F0001830F01D1921E80003B
:108B9000002801DB521E4000120551184205C01288
:108BA000411810467047C10FC90700D0404201224A
:108BB00092071143D6E701218907D3E7F0B5904C1E
:108BC0000D092646AC46AE430D465D4087B0002EEB
:108BD0007ED01E092746B743FAD067462740ED0FDF
:108BE0003D43264075D024012142FBD07419FF2556
:108BF000AD04641B0494CC02D90201231B05C90AED
:108C00001943E40A1C430F012401030F110F1C43F5
:108C10000F430501A10B88032D0916018443A80BFE
:108C200082039543BB0B9A0397433609BC46B20BAC
:108C30009703BE430746574303972F467743029651
:108C4000BE46029F4619D71906967E430597039F95
:108C5000F71B7646BE1B77463F0100970196039FA0
:108C6000B60BF619B646019E009FB604BF1902D393
:108C70007646761CB64676467600002F01D0012750
:108C80003E4367467D43AE46029F25467D430095A1
:108C90006D00AE1975466D00AF1965465D19069EEB
:108CA00003956E437546751BAE460D19059E0295DC
:108CB0006E43009D5843761B75462D1A4A439646CF
:108CC000B21A00920195FA0606D07D09012201E050
:108CD00076E072E0154300E07D09020A00060027F5
:108CE00045197A417646300A360676195041019A7E
:108CF000950D9202961945410098820D80028019C7
:108D00006A41594363465C43039D029B6B435B1A74
:108D10001E1BB30EB601B6187B410A0B0905891953
:108D20005A41230A240624184B418B4200D2521C7C
:108D300001204002824203D315210226F64302E0BD
:108D400014210326F6432020451AAA401F46AF40AF
:108D5000CB402046C84004991343091471180905F3
:108D60005A1804993843C9075140AC4009D001232F
:108D70009C4006D30023401C5941002C01D14008DF
:108D80004000204B002A03DB1A4201D08B4312D152
:108D9000012204989206904207DB0520400709183B
:108DA00019480143C012414004E00320400708185D
:108DB000C10FC907002007B0F0BD0020E907FAE79E
:108DC00006180C464C4111487642A04114D3941821
:108DD0001A465A410D48644290410DD30120490082
:108DE0004005814208D35900814205D3E90F054A65
:108DF000C90700201143DEE700200549DBE700003A
:108E00000000FF070000F07FFFFFFF7F0000E0FF92
:108E10000000F87F10B502469E240002D115A3077A
:108E2000002902D01843002904DB611A00290CDD57
:108E3000C84010BD0906090E01D140004008611A62
:108E400003D4C84040420028F3DDFF21500009064A
:108E5000884201D9002010BDD017C043584010BD32
:108E60001F22030C02D10F2200041CD0030E01D1DB
:108E7000083A0002030F01D1121F0001830F01D134
:108E8000921E8000002801DB521E4000D2055118BE
:108E9000021251181922904004D3491C002801D114
:108EA0004908490008467047C10FC90700D0404231
:108EB000012292071143D3E701218907D0E700007F
:108EC00010B5FF231B0644009C421DD84C009C4259
:108ED0001AD80346124A0B4307D4401A02D3EFF3C1
:108EE000008010BDEFF3008010BD081A06D2EFF32A
:108EF000008001219043C907084302E0EFF300809E
:108F0000904380F3008810BD0D231B041A4204D047
:108F10001146002000F006F810BD00F01BF810BD4F
:108F200000000090CA0210D54A03520F04D0C803B3
:108F3000C043012188407047054AEFF300810801D2
:108F40000009104380F3008870470020704700003C
:108F50000000003010B5024800F029F810BD0000F4
:108F60000000C07F754600F051F8AE460500694626
:108F70005346C008C000854618B020B5FBF740F93D
:108F800060BC00274908B6460026C0C5C0C5C0C59C
:108F9000C0C5C0C5C0C5C0C5C0C5403D49008D469F
:108FA00070470446C046C0462046FBF7D6F810B5C9
:108FB0000C461107090F092904D00A290AD00829EB
:108FC0000CD104E011460820FFF7ACFF06E0510683
:108FD00006D501E0510601D50120C007214610BD8C
:108FE000D10607D501010909CC084907000E000682
:108FF000044309E0410F20024907000A0143200E03
:1090000000061D22D14101430846E7E700487047AA
:10901000BC2E002001491820ABBEFEE7260002004E
:109020007047000070B501250400ED074C4020D4C6
:10903000441A01D2001B0919C60D4B00F2B2FF2AD7
:1090400029D01B0E2CD000020C02D31A2C43DC407A
:109050002843051910D2280A02D3401C6D0611D0EE
:10906000761EF6058019FF2A00DA70BDC00DC00516
:1090700070BD694000F0A6F801200543C541521CAF
:10908000761CE8E764089C40C90161408900E7D18B
:109090000124A043E4E71B0E440200D0034870BD46
:1090A000002AFCD1C00FC00770BD00BF0000C07F08
:1090B00070B5420064414B005C41120E39D01B0E6A
:1090C00038D0FF2A3CD0FF2B3AD040024902400A58
:1090D000490A060045184E43000A090AD2184843B7
:1090E000ED017F3A0104731A4019190C4318990FC6
:1090F00004D001215B0849075B1A521CD80904D32C
:10910000401CF50301D19D0607D0FF2A08D2D505E2
:1091100006D0E4072043401970BD0125A843F4E7B9
:10912000002A01DCE00770BD2402FF202043C005B7
:1091300070BD1B0EFF2A03D0FF2B01D0E00770BDCE
:10914000FF2645003606B54206D84D00B54203D885
:10915000D218FF2A00D0E7E7004870BD0000C07FAA
:1091600001230A00DB0502430DD4DA4203D49A42FC
:1091700007D481427047D94214D4D84212D48142D4
:10918000704789427047DA4203D59A42F9D588423E
:1091900070475B004A00DA4204D24200DA4201D250
:1091A000884270474840414010B5024A4840FFF7A6
:1091B00087FE10BD0900160470B501250400ED07F7
:1091C0004C4022D4441A02D26C40001B0919C60D2F
:1091D0004B00F2B2FF2A4BD01B0E50D000020C0203
:1091E000D31A2C43DC40A843051B05D5AD0019D389
:1091F0006D08761E521E37D0F605280A01D2801956
:1092000070BD70416D0603D070BD6940FFF710FF5F
:109210009C4009026140490001D0401E70BD0124FC
:10922000A04370BD6D081DD001202B0C01D12D0471
:1092300010302B0E01D12D0208302B0F01D12D0142
:10924000001DAB0F01D1AD00801CEB0F01D16D00F3
:10925000401C6D00361A121A680AF5054019012AD9
:1092600002DB70BD002070BDC036300AC00770BD83
:109270001B0E440201D1FF2B00D1024870BD002A11
:10928000F0D070BD0000C07F01000000123456789D
:109290000EE5A9E093F3A3B50000406E0F0E0D0C90
:1092A0000B0A090800000000000000000000000098
:1092B000000000000000183C3C3C1818180018186A
:1092C0000000000000666666240000000000000048
:1092D000000000000000006C6CFE6C6C6CFE6C6C9E
:1092E0000000000018187CC6C2C07C0686C67C1828
:1092F0001800000000000000C2C60C183060C686CE
:10930000000000000000386C6C3876DCCCCCCC76E9
:10931000000000000030303060000000000000005D
:109320000000000000000C18303030303030180CD5
:1093300000000000000030180C0C0C0C0C0C183055
:10934000000000000000000000663CFF3C660000DA
:1093500000000000000000000018187E181800002F
:1093600000000000000000000000000000181818B5
:109370003000000000000000000000FE00000000BF
:1093800000000000000000000000000000001818AD
:10939000000000000000000002060C183060C080D1
:1093A0000000000000007CC6C6CED6D6E6C6C67C4D
:1093B0000000000000001838781818181818187ED7
:1093C0000000000000007CC6060C183060C0C6FE1D
:1093D0000000000000007CC606063C060606C67CAF
:1093E0000000000000000C1C3C6CCCFE0C0C0C1EA1
:1093F000000000000000FEC0C0C0FC0E0606C67CD7
:109400000000000000003860C0C0FCC6C6C6C67CB4
:10941000000000000000FEC606060C183030303098
:109420000000000000007CC6C6C67CC6C6C6C67C5E
:109430000000000000007CC6C6C67E0606060C784A
:1094400000000000000000001818000000181800BC
:10945000000000000000000018180000001818307C
:1094600000000000000000060C18306030180C06E8
:1094700000000000000000000000FE0000FE0000F0
:10948000000000000000006030180C060C1830606E
:109490000000000000007CC6C60C18181800181840
:1094A000000000000000007CC6C6DEDEDEDCC07C02
:1094B00000000000000010386CC6C6FEC6C6C6C656
:1094C000000000000000FC6666667C66666666FC5E
:1094D0000000000000003C66C2C0C0C0C0C2663CC4
:1094E000000000000000F86C6666666666666CF850
:1094F000000000000000FE6662687868606266FE38
:10950000000000000000FE6662687868606060F03D
:109510000000000000003C66C2C0C0DEC6C6663A5D
:10952000000000000000C6C6C6C6FEC6C6C6C6C647
:109530000000000000003C18181818181818183CF3
:109540000000000000001E0C0C0C0C0CCCCCCC78E5
:10955000000000000000E6666C6C78786C6666E6D9
:10956000000000000000F06060606060606266FE05
:10957000000000000000C6EEFEFED6C6C6C6C6C687
:10958000000000000000C6E6F6FEDECEC6C6C6C677
:10959000000000000000386CC6C6C6C6C6C66C38DF
:1095A000000000000000FC6666667C60606060F0A1
:1095B0000000000000007CC6C6C6C6C6C6D6DE7C5B
:1095C0000C0E00000000FC6666667C6C666666E653
:1095D0000000000000007CC6C660380C06C6C67CD1
:1095E0000000000000007E7E5A1818181818183C59
:1095F000000000000000C6C6C6C6C6C6C6C6C67CF9
:10960000000000000000C6C6C6C6C6C6C66C38103C
:10961000000000000000C6C6C6C6C6D6D6FE6C6CEA
:10962000000000000000C6C66C6C38386C6CC6C602
:10963000000000000000666666663C181818183CBA
:10964000000000000000FEC6860C183060C2C6FE96
:109650000000000000003C30303030303030303C12
:109660000000000000000080C0E070381C0E060200
:109670000000000000003C0C0C0C0C0C0C0C0C3C12
:109680000000000010386CC6000000000000000060
:1096900000000000000000000000000000000000CA
:1096A00000FF000030301800000000000000000043
:1096B000000000000000000000780C7CCCCCCC76D0
:1096C000000000000000E06060786C66666666DCA2
:1096D0000000000000000000007CC6C0C0C0C67CC6
:1096E0000000000000001C0C0C3C6CCCCCCCCC76F8
:1096F0000000000000000000007CC6FEC0C0C67C68
:10970000000000000000386C6460F060606060F091
:1097100000000000000000000076CCCCCCCCCC7C5B
:109720000CCC78000000E060606C7666666666E6E9
:109730000000000000001818003818181818183C0D
:109740000000000000000606000E060606060606DB
:1097500066663C000000E06060666C78786C66E6E7
:109760000000000000003818181818181818183CC5
:10977000000000000000000000ECFED6D6D6D6D6D1
:10978000000000000000000000DC66666666666699
:109790000000000000000000007CC6C6C6C6C67CF3
:1097A000000000000000000000DC66666666667C63
:1097B0006060F000000000000076CCCCCCCCCC7C0B
:1097C0000C0C1E000000000000DC7662606060F09F
:1097D0000000000000000000007CC660380CC67C61
:1097E000000000000000103030FC30303030361CFB
:1097F000000000000000000000CCCCCCCCCCCC762B
:1098000000000000000000000066666666663C1806
:10981000000000000000000000C6C6C6D6D6FE6CE0
:10982000000000000000000000C66C3838386CC62C
:10983000000000000000000000C6C6C6C6C6C67E06
:10984000060CF8000000000000FECC183060C6FED8
:109850000000000000000E18181870181818180ED4
:109860000000000000001818181800181818181820
:10987000000000000000701818180E181818187052
:1098800000000000000076DC000000000000000086
:10989000000000000000000010386CC6C6C6FE00C4
:1098A00000000000000000000000000000000000B8
:1098B0000000C0C0C0C0C0C0C0C0C0C0C0C0C0C028
:1098C000C0C0C0C0C0C0C0C0C0C0C0C0C0C0C0C098
:1098D000C0C0C0C0C0C0C0C0C0C0C0C00000000088
:1098E00000000000000000000000000000F0F0F0A8
:1098F000F0F0FFFF0000000000000000000000008A
:109900000E1C3870E0C080C0E070381C0E000000F3
:1099100000000000000000000000FFFF0000000049
:10992000000000000000000000000000001F1F1FDA
:109930001F1FFFFF000000000000000000000000EB
:10994000E070381C0E0703070E1C3870E0000000A2
:1099500000000000000000000000FFFF0000000009
:1099600000000000000000000000000000000000F7
:109970000000070706060606060606060606060691
:109980000606060606060606060606060606060677
:10999000060606060606060606060707000000007D
:1099A00000000000000000000000000000000000B7
:1099B0000000C0C0C0C0C0C0C0C0C0C0C0C0C0C027
:1099C000C0C0C0C0C0C0C0C0C0C0C0C0C0C0C0C097
:1099D000C0C0C0C0C0C0C0C0C0C0C0C00000000087
:1099E00000000000000000000000000000F0F0F0A7
:1099F000F0F0FFFF00000000000000000000000089
:109A00000000000000000000000000000000000056
:109A10000000FEFEFEFEFEFE0000FFFF0000000054
:109A2000000000000000000000000000001F1F1FD9
:109A30001F1FFFFF000000000000000000000000EA
:109A40000000000000000000000000000000000016
:109A50000000FFFFFFFFFFFF0000FFFF000000000E
:109A600000000000000000000000000000000000F6
:109A70000000070706060606060606060606060690
:109A80000606060606060606060606060606060676
:109A9000060606060606060606060707000000007C
:109AA00000000000000000000000000000000000B6
:109AB0000000C0C0C0C0C0C0C0C0C0C0C0C0C0C026
:109AC000C0C0C0C0C0C0C0C0C0C0C0C0C0C0C0C096
:109AD000C0C0C0C0C0C0C0C0C0C0C0C00000000086
