:020000040001F9
:10400000183F0020E1410100F3410100F5410100AA
:1040100000000000000000000000000000000000A0
:10402000000000000000000000000000F741010057
:104030000000000000000000F9410100FB41010008
:10404000FD410100FD410100FD410100FD41010074
:10405000FD41010000000000837701001B71010099
:10406000FD410100FD410100E3660100FD41010049
:10407000FD410100FD410100FD410100FD41010044
:10408000FD410100C9520100FD410100FD41010057
:10409000F1520100FD4101007B500100FD41010092
:1040A000FD410100FD410100000000000000000092
:1040B0000000000000000000000000000000000000
:1040C00000F002F800F040F80CA030C808382418BE
:1040D0002D18A246671EAB4654465D46AC4201D140
:1040E00000F032F87E460F3E0FCCB6460126334232
:1040F00000D0FB1AA246AB463343184708700000B5
:1041000028700000103A02D378C878C1FAD8520754
:1041100001D330C830C101D504680C60704700007D
:104120000023002400250026103A01D378C1FBD8D3
:10413000520700D330C100D50B6070471FB5C04691
:10414000C0461FBD10B510BD04F05AFF1146FFF761
:10415000F5FF00F0EEF904F072FF03B4FFF7F2FF91
:1041600003BC04F0A5FF0000401E00BF00BF00BF5D
:1041700000BF00BF00BF00BF00BF00BF00BF00BF47
:1041800000BFF1D170470000401E00BF00BF00BF5C
:1041900000BF00BF00BF00BF00BF00BF00BF00BF27
:1041A00000BFF1D17047000070B505460C461646B9
:1041B00002E00FCC0FC5103E102EFAD2082E02D30B
:1041C00003CC03C5083E042E07D301CC01C5361F1E
:1041D00003E021782970641C6D1C761EF9D270BD35
:1041E0000A4802680F210A430260094880470948CB
:1041F0000047FEE7FEE7FEE7FEE7FEE7FEE700001A
:1042000005480649064A074B704700002405004050
:1042100031420100C1400100182F0020183F00204A
:1042200018370020183700202349224808607047BB
:1042300010B500F01DF8002805D021491F4848603E
:10424000C813204988612048018CC9B201290ED1C8
:10425000818C09070BD1018D0906090F042906D1AC
:10426000808D0006000F02D118490120886010BD22
:104270001548018CC9B2012917D1818C090714D1C5
:10428000018D09060A0F03D1828D1206120F0ED07E
:10429000090F012903D1828D1206120F07D00329BD
:1042A00003D1808D0006000F01D00020704701204F
:1042B000704700000024F40000200020DFFF07C04A
:1042C00000050040006C0040C00F00F000060040F8
:1042D000BFF34F8FEF49EE48C860BFF34F8FFEE743
:1042E000BFF34F8FEB49EA48C860BFF34F8FFEE73B
:1042F0000EB5694611200872E7490878AA2808D047
:104300000922E6A102A87CDF002807D0E6A2E3216B
:1043100015E04A78891C02A87CDFF5E700200090B0
:104320006422694601900A80C8224A808880500031
:10433000C88068467ADF002803D0DBA2ED21FFF7B2
:10434000C7FF0EBD10B5A0B0052118A80177D94848
:1043500000681E90D0481C38017818A881763C214E
:10436000684603F06CFF022000900021684641710E
:10437000012404811FA803903C210FA803F05FFFD4
:1043800010A804831EA817900FA9684600F0E8FB48
:10439000002804D0FF21C4A20B31FFF799FF20B001
:1043A00010BD10B5006800280AD1C3483B214088E1
:1043B00076DF002804D0FF21BBA24F31FFF788FF32
:1043C00010BDFF21B8A25A31FFF782FF00B585B0BA
:1043D0001421684603F033FF0020694608700190FD
:1043E0000872FF20C3300882B3488088488268463C
:1043F00073DF002804D0FF21ABA28831FFF768FFEC
:1044000005B000BDF8B5AC4D07886B880446142F85
:1044100058D016DCA949AA480322AA4E0978007888
:10442000102F1ED0112F30D0132F2DD12A46083235
:10443000002118467FDF002826D0FF219AA2C6312E
:1044400058E0172F37D0192F56D0522F1CD10022E9
:1044500011461846A9DF002816D0FF2192A2CC31C0
:1044600048E0994F62233B6001232B70002909D05B
:10447000012807D1954908203260086002F03CFB12
:1044800002F051FBA0886880F8BD00232B70002942
:1044900009D0012807D18D4908203260086002F058
:1044A0002BFB02F040FB0020C0436880FFF720FF99
:1044B000FFF748FF27E078483222A11DA03803F01B
:1044C0005FFEF8BD7449E2899A390888904208D1A4
:1044D0000022184681DF0028F3D0FF2172A2D831D4
:1044E00008E000221146184681DF0028E9D0FF21AC
:1044F0006DA2DE31FFF7ECFE80790028E1D10120CA
:1045000073498004C860FFF761FFF8BD10B5044629
:1045100000F0C4FC604821461C3800F042F92046F7
:10452000FFF770FF10BD10B501F05EFA10BD00205E
:104530007047684888B00125856328463CDF042021
:1045400077DF0024644B052216212046009400F0FA
:10455000F5FE002802D054A2C82169E05A4864261A
:10456000066000F079F802F019FF02F0DEFF03F0B8
:104570008AFB01F053FE03F0F7F803F0F7F903F0BC
:10458000BEFD54484038C0694B49C0B248707B28D2
:1045900018D1002002F0E3FF4849FF2008704F497E
:1045A0003C2008604E484F4906600A20086001F030
:1045B00019FE01204C4980020860424843490560C9
:1045C0000C200860FFF794FE484800903248694686
:1045D0001C3800F012F9002803D0FF2132A22C3140
:1045E00026E0FFF7AFFE1C21684603F028FE404896
:1045F00001900120C00302900094032168460173DA
:10460000C48104743B4805903B480690684600F01E
:10461000F0FB002803D0FF2123A2723108E000F054
:1046200009F8FFF7D3FE3DDF0028FCD01EA2334976
:10463000FFF74EFE20491E200831088088780122AD
:104640001043E12210400C30DF2210408870072018
:10465000C8701020087170470F4910B50023502210
:104660006C390E2000F0DCFC002803D023490EA298
:10467000123907E0224800F0F0FC002804D01F495E
:1046800009A20E39FFF724FE1E4800F0EEFC10BD13
:104690000400FA0500ED00E0F8260020536D617279
:1046A0007454656D700000002E2E5C6D61696E2E75
:1046B000630000002493010004200020E12000207A
:1046C0007A2000208C200020D0200020882000208C
:1046D00000050050400500402021002090200020CF
:1046E000E8200020D820002000E100E0F77501005C
:1046F000291C0000A3430100C34301002302000062
:104700000D4501002745010070B500240546601CD9
:1047100090B00007000F08A9103008940870601CC2
:104720000007000F103048708878F9263040801C50
:1047300088701C2101A803F082FD694608791021C8
:10474000084369460871029408A8049405940794E4
:104750000690287808A9887103206946888411206A
:104760000094087048708878E7213040801C084029
:10477000012630436946887014210AA803F05FFDC2
:1047800009A80A9068460B9069460E8614204C864C
:1047900088862B4668880C330AAA01A9A2DF10B0CC
:1047A00070BD00281ED000291CD00A88102A14D001
:1047B000112A14D0502A15D1891D0A88038A9A42D9
:1047C00002D10B8B022B0ED083889A420AD18369C7
:1047D000002B07D00A8B1A311847898801E0002185
:1047E000C94381827047CA7E8B7E11021943C90773
:1047F000C90F00D001218175704730B54A4B0D4675
:1048000004000FCB85B003936B4607C324D0002D63
:1048100022D00020C043A0822868A0610020A0759B
:104820002146684662DF002814D1217868468174E9
:1048300001210182A21C04A90120A0DF002809D1C6
:1048400029462046FFF760FF002803D1294620466D
:1048500000F02BF805B030BD0E20FBE707B584B0A3
:1048600000280DD0828A314B9A420BD0827D002ADB
:1048700008D06A46128B142A06D9072007B000BD5B
:104880000E20FBE70820F9E7002200920192029235
:10489000039282896B461A80039106A90291012135
:1048A0009970808A6946A6DFE8E770B58EB0054644
:1048B0001C21684603F0C3FC694608780C210843B4
:1048C00069460870002401940394049405940694A6
:1048D000287808A98870022069460884601C0007AF
:1048E000000F10300794087711204877887FF9214E
:1048F0000840801CE721084001263043694688773C
:10490000142109A803F09BFC08A8099007A80A90A5
:1049100069468E851420CC85088668882B1D09AAD7
:10492000A2DF0EB070BD000028930100FFFF000061
:10493000FFB583B0074600200C9C864626780546C6
:104940003AE07868A90041180A8868468280498858
:10495000C1800022694601A864DF002810D16846A2
:1049600001780598814226D17046002801D00022A6
:1049700000E002222078891841181F2902D90C2052
:1049800007B0F0BD7146002908D1401CC0B2411CDF
:10499000069B049A21701A540120864621780698B5
:1049A0000A18694601A864DF0028E9D16946207821
:1049B0000978401820706D1C3888A842C1DC704608
:1049C000002804D020780699801B401E88550020BE
:1049D000D6E7F8B51546069C1E4607460222009407
:1049E000FFF7A6FF002806D1334610222946384695
:1049F0000094FFF79DFFF8BDF7B582B0002605468D
:104A0000167000681446002805D02846039900F067
:104A1000DFF806002DD1687900281BD02078039F8D
:104A2000001D1F2824D8684679DF002821D121786D
:104A30000322481C20707A5421781922481C2070C7
:104A40007A542078C1196846008800F0BCF82178B3
:104A5000401820702989002923D001208446EA6863
:104A60000398002A07D0227853189B1C1F2B04D9C7
:104A70000C2005B0F0BD0720FBE71346521C491C73
:104A80002270C15422786746511C217087542378C4
:104A90002A891818E96803F073FB2078297A4018EE
:104AA00020702869002815D00021415622788C46B4
:104AB000D01C03991F28DBD8501C022320708B5474
:104AC00022780A23501C20708B5420786246431CA5
:104AD00023700A54A88A002809D028460094062288
:104AE00002211430039BFFF774FF0600C1D1A88B8D
:104AF000002809D028460094072203211C30039B7C
:104B0000FFF767FF0600B4D1A88C002809D028461B
:104B10000094152214212430039BFFF75AFF06004E
:104B2000A7D1E86A002805D02246039900F085F84D
:104B300006009ED1286B002805D02246039900F07C
:104B4000BBF8060095D13820405D002806D02246EB
:104B50002846039900F0E2F806008AD1304688E73B
:104B600070B50D4692B000216A461170072411718C
:104B7000002812D00189002905D0C168002902D07F
:104B80000978490702D4204612B070BD02A9FFF788
:104B900033FF0028F8D102AE00E00026002D0BD034
:104BA00028890028EFD101AA0AA92846FFF724FF87
:104BB0000028E9D10AAA00E00022684603790178BA
:104BC000304672DFE0E70870000A48700220704744
:104BD000F8B514780746A01C15460E461F2803D8C2
:104BE0003879801C1F2801D90C20F8BD1D20001B1E
:104BF00080B26946864608803019801C7DDF002817
:104C0000F3D13868022805D168460088704501D87C
:104C1000092107E038790821002801D0704501D921
:104C200068460088421C3255641CE2B2B1542978AF
:104C3000801C081828700020F8BDF8B50D461178C2
:104C40000646881D14461F2801D90C20F8BD33885C
:104C50000720062BFAD31927FF01BB4202D94E4A7F
:104C60009342F3D17288062AF0D3BA4202D94A4F4E
:104C7000BA42EBD1484FBB4203D0BA4201D0934273
:104C8000E4D8481C052220706A5420781222411C66
:104C900021702A54207841193088FFF794FF217839
:104CA0004018C0B2207041197088FFF78CFF21783E
:104CB000401820700020F8BD70B5054600790E46FA
:104CC000801C1446C0B21178821C8A181F2A01D990
:104CD0000C2070BD0A46491C401C2170B05420783D
:104CE000FF22411C21703254207881192888FFF757
:104CF0006AFF21784018C0B22070AA88002A09D023
:104D0000A968002908D0801903F03AFA2078297997
:104D100040182070002070BD072070BDF7B582B02C
:104D200002981446406B0F46002832D002980025A6
:104D30002030009028E00298416B0C2068430E1848
:104D4000217830794A1CC01C2270785421781622B0
:104D5000481C20707A542078C1193088FFF733FF3F
:104D600021784018C0B22070B288002A09D0B168FA
:104D700000290ED0C01903F003FA207831794018C9
:104D800020706D1C0098EDB2007EA842D3D80020A0
:104D90006FE607206DE60000FFFF000038B57A4996
:104DA0007A4A488890420FD04A78794C521CD2B245
:104DB0004A70237B934208D3083175DF002803D063
:104DC000A169002900D0884738BD00254D70217C9D
:104DD000002907D03B2176DF002803D0A1690029F4
:104DE00000D0884761690029EED068460095884761
:104DF00038BD70B5054601461C226548FFF7D4F959
:104E0000614C002626702968002907D00822A018C6
:104E100003F0B6F9204608307ADF02E05A4808303D
:104E20007BDF002808D1401E608057486670594AD1
:104E30000021001D00F0D4FA70BD10B55248406842
:104E400000F07AFB10BDF8B54F48103000F08EF836
:104E500000264D4D4E4C002806D06169002919D01E
:104E600001200090684614E02878002804D0616989
:104E700000290FD00096F5E7687800280CD0A168CB
:104E80000022686800F0F3FA002803D0A169002925
:104E900000D088472E70F8BD6168F1E7F8B53C4C4A
:104EA00002880027384DE689102A18D0294649681B
:104EB000112A21D0122A2DD0502A0FD1801D02880C
:104EC000B2420BD1028B022A08D1C27E837E10022D
:104ED0001843C007C00F13D0FFF7B5FFF8BD818896
:104EE00069800146284808220E31103003F048F945
:104EF0006F70002EF0D0F8BD0020C04368806F7046
:104F0000084600F019FB0028F5D0A1690029F2D06D
:104F10008847F8BD811D1C480822103003F030F985
:104F2000DAE7F8B5014618480822083003F028F9F6
:104F3000154808307ADF04000DD11348103000F016
:104F400015F80125002808D011484169002902D030
:104F50006846009588472046F8BD0B4E35703146AF
:104F60000831708875DF04467570F4E7418806489B
:104F700008300288914204D34088814201D8012040
:104F800070470020704700001C200020FFFF000039
:104F90000C2700209D4D010010B508461146FFF773
:104FA0009FF910BDF8B53D4C2078002837D0206916
:104FB000002807D00026E068002805D00025002E34
:104FC00004D013E00126F6E70125F8E768464EDF36
:104FD000052806D0002806D031A26921FFF778F90C
:104FE00004E0012602E0216900988847002D12D1D3
:104FF000608869460880A06860DF052806D0002820
:1050000006D027A28021FFF763F904E0012502E022
:10501000E168A0688847002ED8D0002DCFD0F8BD19
:1050200070B5002901D08C0701D0072070BD1B4C42
:105030000125A16062802849636010DF0028F5D156
:105040002570162023DF70BD11DF002801D001215B
:1050500000E00021114A11707047002803D00F4969
:10506000C860002070470E207047002803D00B490D
:105070000861002070470E20704710B5074840684F
:10508000002808D08047002804D0FF2104A2333133
:10509000FFF71EF910BDFFF785FF10BD342000207B
:1050A0002E2E5C2E2E5C2E2E5C2E2E5C2E2E5C2E3A
:1050B0002E5C536F757263655C73645F636F6D6DB7
:1050C0006F6E5C736F66746465766963655F686153
:1050D0006E646C65722E6300994F01008307FF2296
:1050E000DB0E9A408907090E994000280BDA000769
:1050F000000F08388308FA489B001B18D8699043B2
:105100000843D86170478308F6489B001B1818684D
:105110009043084318607047F0B5F34F28217C682E
:1051200041430D1939694A1C09D028224A431619EE
:10513000AB68B268934204D8D21AB260696238612F
:10514000F0BD0A4602E00A46796A9B1B4E1C0BD052
:1051500028264E433719BE689E42F4D328264E4374
:105160003619B768FF1AB760AB60696228214A43F5
:1051700011194862F0BDF8B5DB4C2569681C36D0C2
:10518000DA48002640686169401A07023F0A1AE0BF
:105190002820454360682A189068B84215D8A3694A
:1051A0003F1A8619556A002B0AD0116AD0699847B0
:1051B000002808D0FF21CEA25831FFF789F802E07D
:1051C000D169106A8847681CE2D1A178E0788142F1
:1051D00006D1401CC0B2E070022801D10020E0706E
:1051E000C1490006800D1C310E5000F008FAF8BDD0
:1051F000F8B50446BC4801690091467856E0BA48C3
:10520000F100C2688D184BE0601C07D0B64A282117
:1052100052686143204689184C6A20E0287818219A
:1052200041436A68401CC0B252182870A97888426D
:1052300001D100202870AC4B506828215B684143A5
:10524000C9181368012B2DD10B7E002B2AD193682E
:10525000CB60D3680B6113694B6152690A62A24A41
:10526000CF685369BC46FA1A1202AD4F120ABA420D
:1052700002D20B69D21809E062469A1A12020B692F
:10528000120A934201D99A1A00E000228A60002291
:10529000CA600A6101220A76921E4A62FFF73CFF49
:1052A000601CB1D1287869788842ADD13046761E2D
:1052B000F6B20028A3D18C4801690098814201D040
:1052C0000120F8BD0020F8BD964900200860486024
:1052D0008860C86093494039086048608249032368
:1052E0008A681B02521C8A609A4200D1886042E799
:1052F000F0B5002087B0C04302907B48466905693D
:10530000684600F082F9074600F09CF90446002F39
:1053100008D002AA3146009800F0DCF90298FFF7A5
:1053200067FF06E00298FFF763FF002801D1002C19
:1053300002D0284600F0F7F907B0F0BDFFB5980796
:10534000002481B01E4615460F4600280BD1002EC2
:1053500009D000F043F964490A9888610F70324619
:1053600000204E6008E0072005B0F0BD282343432D
:10537000D4509B181C76401CB842F7DB28204743CA
:10538000BB19032048700F461846CB6019461830E9
:10539000002218232E465E43D3005B181C705C70FD
:1053A0009D7058603018521C032AF5DB0020C04362
:1053B0003861BC70FC7001245B4824050460032143
:1053C0001420FFF78BFE59480460484C0198A060F8
:1053D00003211120FFF782FE606878610020C3E797
:1053E00070B5414C6568002D06D0002A06D0002813
:1053F00004D00023247809E0082070BD072070BD88
:1054000028265E43AE59002E04D05B1CA342F7DB76
:10541000042070BD282401265C432E516419E261EA
:1054200061600360002070BD2D494868C005C00D53
:1054300017D0103807D50207120F083A92089200C9
:105440005118C96904E08108264A89008918096849
:105450008007C00EC1400806800F012803D0032832
:1054600003D0022070470020704701207047FEB52E
:1054700004461D48174642680D46002A0CD00178A4
:105480008C4201D2052D01D20720FEBD21462823E2
:1054900059435358012B01D00820FEBD881840689D
:1054A000012845D00026FFF7BFFFC0000E4901903C
:1054B000C9684018694600F079F900283AD00121FE
:1054C00044600160094949680830E2C00649019812
:1054D000C96841180098487000F091F80020FEBD9E
:1054E00000ED00E000E400E048200020001501404D
:1054F0002E2E5C2E2E5C2E2E5C2E2E5C2E2E5C2EE6
:105500002E5C536F757263655C6170705F636F6D65
:105510006D6F6E5C6170705F74696D65722E630093
:10552000FFFF7F004011014080E200E000E100E069
:105530002E46B8E70420FEBDF8B5BB4D04466868AA
:10554000002809D029788C4201D30720F8BD2821F2
:1055500061434058012801D00820F8BDFFF764FFDF
:10556000C600E8686946301800F020F9002809D024
:10557000022112C0E86831180098487000F03FF826
:105580000020F8BD0420F8BD38B5A74C606800289D
:1055900015D0FFF749FFC500E0686946281800F0FC
:1055A00005F900280DD003210160091F4160E06862
:1055B00029180098487000F022F8002038BD082013
:1055C00038BD042038BD9949496801600020704702
:1055D000401A0002000A10600020704710B5012137
:1055E000934A48041060934A40109060914A403AB0
:1055F0009060914841602F20FEF7B6FD10BD01205C
:105600008B49000580310860704710B5864900233A
:105610008A78CC78A24212D0521CD2B28A70022A66
:1056200000D18B708A78804B92001C339A580260AC
:10563000486910180002000A4861012010BD03608B
:10564000002010BDF8B5784801690091457833E035
:105650007548E900C0680E1834782AE018206043C5
:105660007168641C0818B178E4B2A14200D100242A
:105670000168022902D003291BD113E06A4A40685D
:105680002821526841438F18397E002911D000F03B
:105690009FF8002038760CE028277843C01802765F
:1056A000406A03E0604900224B680869471CF3D157
:1056B00008617078A042D1D128466D1EEDB2002855
:1056C000C6D1594801690098814201D00120F8BD36
:1056D0000020F8BDF7B5544C0025676823691EE02B
:1056E00028215943C9198E68864202D9301A886028
:1056F00017E0801B751900268E600E764E699C4659
:105700004B6AB646002E0AD0019E76193602360A3A
:10571000CE6076460E6116684E6261461160591C75
:10572000DED12361FEBDF8B53F490A69531C3AD06A
:1057300028235A434B68D21896683C4A54684F69EC
:10574000401CE11B0D022D0AED1C0121002810D187
:10575000384A08045060374A403A5060374A40009F
:105760001060334A803A1060334801602F20FEF702
:10577000FBFCB54200D23546E81900022B49000A6D
:105780004031086029494968001B091B0902090AC0
:105790000002C91C000A814204D9012024494004A6
:1057A00080310860F8BDFFF719FFF8BD42788378B3
:1057B000521C934200D100220378934201D1002071
:1057C00070470A60416840781822504308187047B3
:1057D00070B5154D2A696B681446114606E0814282
:1057E00007D00A4628267143C918496A4E1CF6D1CB
:1057F00070BD002EFCD08A4204D128204443E0181A
:10580000406A286128204143C818282481686243DF
:10581000406AD2185062421CEAD028225043C01875
:1058200082685118816070BD482000200015014039
:1058300080E100E0401301400010014080E200E000
:1058400010B501788A070179920F4907C90E80685F
:1058500011438207540E0C438103890F03D00321A7
:10586000090408400443002000F018F81249486871
:10587000FF22120210402043486010BD10B500F016
:105880000DF80E4A012111600D4800230468002C18
:10589000FCD0036008488068516010BD10B506490F
:1058A00002024B68FF242402A3431A434A600028E3
:1058B00000D00120086010BD00750040007000405D
:1058C0000071004014225043F74A002180180171F2
:1058D000C1800A220161C26041610181704770B5D7
:1058E000F14E14223078F14C50438219121D137876
:1058F0000F21A588D068042B02D0022B0DD024E004
:1059000001210907096989B202F09BFC401950DFA7
:1059100001001AD1A088401C14E0116993885288B4
:1059200040194919521B01251818AD02AA4202D28A
:10593000920851DF02E0FF22013251DF010004D161
:10594000A0884019A0800120B070084670BDF8B54D
:10595000D54C0546A778264604207678002F01D13D
:10596000002E17D01E2E28D020788019C0B21E28F5
:1059700001D31E38C0B2142670430019057142616C
:1059800006C90261C160C380069901816078401C2C
:10599000607011E0002020702571626103C92161EF
:1059A000E060E3800698208101206070FFF797FF98
:1059B000002801D0112800D10020F8BD38B50246DA
:1059C000B94814230178BA4C59430818C3680179BF
:1059D0001B01E458042905D0C388009343690C30A7
:1059E000A04738BD0023F8E710B5AF4902468B78D1
:1059F0000020012B1CD100238B70022A03D0032A24
:105A000016D10D2012E00A7814235A435118091DAB
:105A10000A78042A04D1A54A49889288914201D87B
:105A2000FFF7CCFF00F057F9002801D0FFF7C6FFC1
:105A300010BD70B500249D4D9B48AC80047044702F
:105A4000847026463046FFF73DFF761C1E2EF9D3A4
:105A50000F206C804003A8609549AC8000200201B3
:105A60008C50521814819481401C54810A28F6D31A
:105A700001202870002070BDF0B58C4D2A78002AD6
:105A800020D0002820D000291ED00268002A1BD078
:105A90000122120783881469A4B2A34210D8202BD4
:105AA0000ED3C488002C0BD05C43AB68E618146995
:105AB0000A27A4B27C430F277F03E419A64205D925
:105AC0000720F0BD0820F0BD0E20F0BD6C880A2C28
:105AD00019D0774D0C6026014B6071194B60076837
:105AE000AF5185880D81C5884D818588C088002685
:105AF0004543761C1069B6B280B2A84205D210693F
:105B000080B22D1A02E00420F0BD0025106980B299
:105B1000C318106980B2A842EBD96448641C836042
:105B20008E8144800020F0BD70B5604B1B78002B47
:105B300018D0002818D0002A16D003680A2B0FD2DC
:105B40005B4C1E01A559002D0AD045683019048907
:105B5000614369184589406865432818884205D81B
:105B6000072070BD082070BD0E2070BD136000209E
:105B7000516070BDF8B505464C481F460078144684
:105B80000E4600281DD0002E1DD0002D1BD02868E9
:105B90000A2814D2010146484258002A0FD0091899
:105BA0004A8908894968424351186A68914206D96E
:105BB000002C04D0A04202D3E119814205D907206C
:105BC000F8BD0820F8BD0E20F8BD304600F07DF885
:105BD00000280CD0F01900F078F8002807D02346F0
:105BE0003246294602200097FFF7B1FEF8BD10208B
:105BF000F8BDF8B507462D481D46007816460C46F8
:105C000000281DD0002C1DD0002F1BD020680A2892
:105C100014D2274900010A58002A0FD041184A8996
:105C200008894968424351186268914206D9002E9A
:105C300004D0B04202D37119814205D90720F8BDC2
:105C40000820F8BD0E20F8BD384600F03EF80028C8
:105C50000CD0781900F039F8002807D06068324677
:105C60004119384602F08CFA0020F8BD1020F8BD2A
:105C700008B50E490978002914D000281AD0016807
:105C80000A290DD20A4A09015358002B08D0891855
:105C90004A890B895A434B68D21843689A420BD8F9
:105CA000072008BD082008BD282700206C20002000
:105CB000842900200E20F6E78B8900210A460091F6
:105CC00001460420FFF743FEEDE7800701D00020E6
:105CD00070470120704770B5104D14212878104C82
:105CE00041434919C988A288914209D8FFF7EAFDC2
:105CF0000020A0806878401E68702878401C2870BA
:105D000068780024002807D0FFF7E9FD040003D0DD
:105D1000112C01D0FFF752FE204670BD282700202D
:105D20006C2000208307FF22DB0E9A408907090EB2
:105D3000994000280BDA0007000F08388308FB4859
:105D40009B001B18D86990430843D86170478308AB
:105D5000F7489B001B181868904308431860704769
:105D600010B50B2001F042F900BF0C2001F039F909
:105D700000BF00BF0B2001F034F910BD10B50321A6
:105D80000B2001F028F9EB4800690005C40F0B2037
:105D900001F01BF9204610BD70B5E74C0025E070FE
:105DA000C0B2C009C0012071802824D00B2001F0AE
:105DB0001DF900BF0C2001F014F900BF00BF0C203A
:105DC00001F014F9E0786D1C4000EDB2E070082D90
:105DD000E6D30B2001F005F900BF00BF0C2001F055
:105DE00000F900BF00BFFFF7C9FF04460C2001F017
:105DF000FDF8204670BD0B2001F0F3F8D9E710B58F
:105E00000B2001F0EEF80C2001F0EBF800BF0B20A6
:105E100001F0ECF800BF00BF0C2001F0E7F810BD66
:105E200010B50446FFF7EBFF7820FFF7B5FF4020E1
:105E3000FFF7B2FF2046FFF7AFFFFFF791FF10BD5E
:105E400010B50446FFF7DBFF7820FFF7A5FF002021
:105E5000FFF7A2FF2046FFF79FFFFFF781FF10BD6E
:105E6000F8B5B64E00242046B030C0B2FFF7E8FFC8
:105E70000020FFF7E5FF1220FFF7E2FF2046602138
:105E8000002548438719785DFFF7CAFF6D1C602D18
:105E9000F9D3641C042CE6D3F8BD30B5A74C00211F
:105EA000602300224B431B1905789D54521C401C53
:105EB000D2B2402AF8D3491CC9B20429F0D330BD6C
:105EC00010B59F48FFF7E9FFFFF7CAFF10BD10B5F7
:105ED0009C48FFF7E2FFFFF7C3FF10BD10B59A48DB
:105EE000FFF7DBFFFFF7BCFF10BD10B59748FFF7CA
:105EF000D4FFFFF7B5FF10BD10B59548FFF7CDFFF4
:105F0000FFF7AEFF10BDCA08602310B55A438B4B94
:105F10004C07D218135C640F0121A1408B4313542A
:105F200010BDCA08602310B55A43844B4C07D318E0
:105F30001A5C640F0121A1400A431A5410BDF7B541
:105F4000844990010C1800262078617800024718D7
:105F50000198A41C0025801984463804604606D5A3
:105F6000C1B200984019C0B2FFF7DBFF05E0C1B233
:105F700000984019C0B2FFF7C6FF6D1C7F00EDB25C
:105F8000102DEAD3761CF6B2202EDDD3FEBD70B5FF
:105F9000642102F056F90C46C5B220460A2102F0EF
:105FA00050F9064620460A2102F04BF90C462A46D3
:105FB00002210020FFF7C3FF324602210F20FFF726
:105FC000BEFF0A2202211E20FFF7B9FF224602214E
:105FD0002220FFF7B4FF0C2200213120FFF7AFFF92
:105FE000FFF73EFF70BD70B5642102F02AF90C4640
:105FF000C5B220460A2102F024F9064620460A21AD
:1060000002F01FF90C462A4602210020FFF797FFF5
:10601000324602210F20FFF792FF0A2202211E20A2
:10602000FFF78DFF224602212220FFF788FF0B2277
:1060300000213120FFF783FFFFF712FF70BD70B51D
:10604000002806D001282CD0022801D1FFF74DFFEF
:1060500070BDFF20A530404C404D414E814208D2DA
:106060000846FF384238632803D3FF20413081427D
:10607000EED8002A11D0012AEAD1084602F0E9FD43
:1060800022462B4602F0E8FD0022334602F041FB97
:1060900002F092FDFFF77BFF70BD0846FFF7A3FFFC
:1060A00070BDFFF729FF70BD10B50D2000F09EFFF9
:1060B0000B2000F09BFF0C2000F098FF072000F061
:1060C00095FF10BD10B51C4CA078012814D12046B6
:1060D00021694069002910D0491E2161012816D08C
:1060E000204A214912780968022815D0032815D0C2
:1060F000042801D1FFF7F2FE10BD652802D0FFF79A
:10610000D3FF10BD032060610420206110BDFFF7A4
:10611000E5FE6520606110BD002004E013480078B2
:10612000002825D00220FFF78AFF10BD00ED00E017
:1061300000E400E00005005078200020242A002020
:1061400038AB010038AC010038AA010040A00100C2
:10615000409F010038AD0100CDCCCCCCCCCCFC3F75
:1061600000007440F0200020B42000200420002013
:106170000120D8E710B5F84A0121F848FFF730F9B7
:10618000002803D0F6A2F949FEF7A2F8F34800224E
:106190001C38F749C069FFF76AF9002804D0F349B1
:1061A000EFA2891CFEF794F810BD10B5EA4A012150
:1061B000EA48FFF715F9002804D02921E8A249018F
:1061C000FEF786F8E54801211C3800224903C06922
:1061D000FFF74DF9002804D0E449E1A20B31FEF7A6
:1061E00077F810BD10B5E348002141600B22026131
:1061F0008160E04A822040321060DF4A0120106056
:10620000DE4A00045060DE4801600A20FFF78AFD84
:106210000120DC498002086062B610BDCF4810B58D
:106220001C388178002916D0012181700C2000F0E3
:10623000CCFE0B2000F0C9FE0D2000F0C6FE0720AA
:1062400000F0C3FE0B2000F0CCFE0C2000F0C9FED5
:10625000FFF7ABFF10BD132000F0B7FE132000F0D6
:10626000C0FE122000F0B1FE122000F0BAFE112094
:1062700000F0ABFE112000F0B4FE102000F0A5FEEF
:10628000102000F0AEFE0F2000F09FFE0F2000F067
:10629000ADFE0E2000F099FE0E2000F0A7FE0D20AE
:1062A00000F093FE0D2000F0A1FE0C2000F08DFE0A
:1062B0000C2000F09BFE0B2000F087FE0B2000F06E
:1062C00095FE0A2000F081FE0A2000F08FFE0920D2
:1062D00000F07BFE092000F089FE082000F075FE2A
:1062E000082000F083FEFFF77DFF10BDF0B59B494D
:1062F0009A4C11390B784A7808258978113CE47852
:106300008C462B432A4329432C43002828D0934F03
:10631000F725113F3E78FF782E402F4001282AD0E4
:10632000022833D003283CD0042844D08B4DF726D4
:10633000113D6D783540052847D0062850D00728F4
:1063400059D0082861D009281FD184481138C47059
:10635000FB242140817004210B4303700A4313E0A6
:106360007E481138C4700424214381702343FB21EB
:1063700003700A4008E07948FB2311381940C770C0
:106380001E40817006701A404270F0BD734861462D
:106390001138C4702940042421438170FB210B4033
:1063A0003AE06E481138C470FB24214081702340CC
:1063B00003700421D2E76948FB231138C7701940E4
:1063C000817004210E430670C8E76448FB2211382F
:1063D000C4701140817004210B4303700D4308E029
:1063E0005E48042211381143C47013438170037056
:1063F00015434570F0BD5948FB2411382140C77042
:106400002340817003702240BEE754481138C470A5
:10641000042421438170234303702243B4E7F0B581
:106420004E494E4C11390B784A7802258978113C37
:10643000E4788C462B432A4329432C43002827D059
:10644000464FFD26113F3D78FF7835403740012803
:1064500027D0022832D003283CD0042847D03F4D13
:10646000113D6D78354005284BD0062854D00728BB
:106470005DD0082865D009281FD13848490811384F
:10648000C4704900817001210B4303700A432CE062
:1064900032481138C47001242143817023430370B2
:1064A00008E02E4849081138C77049008170690812
:1064B000490044E0510849004170F0BD2748614659
:1064C0001138C470314001242143817059084900BA
:1064D00001703EE0214849081138C47049008170BC
:1064E0005908490001700121D0E74270F0BD1B48F6
:1064F00049081138C7704900817001210D430570AA
:10650000C4E7164849081138C47049008170012158
:106510000B4303700D4308E010480122113811436A
:10652000C47013438170037015434570F0BD0B4870
:1065300049081138C7704900817059084900017035
:10654000B8E706481138C470012421438170234301
:1065500003702243C9E70000C560010094200020B9
:106560002E2E5C4C43442E630000000017050000F3
:10657000CD0C000000A5004000A0004000A300409A
:1065800040A1004000E100E0F0B5FF4920250B7874
:106590004A78FD4C8978E4788C462B432A4329437A
:1065A0002C43002825D0F84FDF253E78FF782E4079
:1065B0002F40012827D002282FD0032837D00428C5
:1065C0003ED0F14DDF266D783540052841D00628B4
:1065D00049D0072851D0082858D009281CD1EA48AA
:1065E000C470EF242140817010210B4303700A43D3
:1065F00011E0E548C4701024214381702343EF214A
:1066000003700A4007E0EF23DF481940C7701E40BF
:10661000817006701A404270F0BDDB486146C4705C
:106620002940102421438170EF210B4034E0D648EB
:10663000C470EF2421408170234003701021D6E7FD
:10664000D148EF23C7701940817010210E430670A6
:10665000CDE7CD48EF22C4701140817010210B436B
:1066600003700D4307E01022C7481143C470134361
:106670008170037015434570F0BDEF24C24821407E
:10668000C7702340817003702240C4E7BE48C470C5
:10669000102421438170234303702243BBE710B5CC
:1066A000BA48012141601E21016103218160B7497F
:1066B000002040310860B6490860B6494860B649D4
:1066C000086001210A20FFF72DFB0120B349800259
:1066D000086010BDB04900200860AD490120C860C5
:1066E0007047F8B50024AC4821460460A84A012050
:1066F000D060AB48A44F00780B3F00287DD038789D
:10670000A14E401CC0B2A74D3870082801D939707D
:1067100010E000280ED0012832D0022856D00328DD
:106720006CD004286BD005286AD0062869D00728C9
:1067300068D08FE1132000F048FC132000F051FCDA
:106740000021122000F047FC0021112000F043FC42
:106750000021102000F03FFC3678F007285D05D0BE
:1067600000F033FC285D00F041FC04E000F02DFC5B
:10677000285D00F036FC7608641C082CEDD369E136
:10678000132000F022FC132000F030FC0021122026
:1067900000F021FC0021112000F01DFC0021102040
:1067A00000F019FC3678F007285D05D000F00DFCEC
:1067B000285D00F016FC04E000F007FC285D00F006
:1067C00015FC7608641C082CEDD343E1002113204E
:1067D00000F001FC122000F0F8FB122000F001FC98
:1067E0000021112000F0F7FB0021102000F0F3FB46
:1067F0007678F007285D0CD005E0E3E013E038E0A0
:106800005DE082E0A7E000F0E0FB285D00F0EEFB39
:1068100004E000F0DAFB285D00F0E3FB7608641C7E
:10682000082CE6D316E10021132000F0D4FB12203F
:1068300000F0CBFB122000F0D9FB0021112000F06A
:10684000CAFB0021102000F0C6FB7678F007285D17
:1068500005D000F0BAFB285D00F0C3FB04E000F0B7
:10686000B4FB285D00F0C2FB7608641C082CEDD355
:10687000F0E00021132000F0AEFB0021122000F018
:10688000AAFB112000F0A1FB112000F0AAFB0021BF
:10689000102000F0A0FBB678F007285D05D000F0CE
:1068A00094FB285D00F0A2FB04E000F08EFB285D65
:1068B00000F097FB7608641C082CEDD3CAE0002199
:1068C000132000F088FB0021122000F084FB11202F
:1068D00000F07BFB112000F089FB0021102000F06C
:1068E0007AFBB678F007285D05D000F06EFB285DD6
:1068F00000F077FB04E000F068FB285D00F076FB19
:106900007608641C082CEDD3A4E00021132000F0CD
:1069100062FB0021122000F05EFB0021112000F03C
:106920005AFB102000F051FB102000F05AFBF678C3
:10693000F007285D05D000F048FB285D00F056FB0D
:1069400004E000F042FB285D00F04BFB7608641C7D
:10695000082CEDD37EE00021132000F03CFB002149
:10696000122000F038FB0021112000F034FB102031
:1069700000F02BFB102000F039FBF678F007285DC3
:1069800016D000F022FB0FE08320002000A500407D
:1069900000A0004000A3004040A1004080E100E0D2
:1069A000E120002038930100285D00F01AFB04E08C
:1069B00000F00BFB285D00F019FB7608641C082C26
:1069C000DCD347E0132000F000FB132000F00EFBA7
:1069D000122000F0FAFA122000F008FB112000F05B
:1069E000F4FA112000F002FB102000F0EEFA102063
:1069F00000F0FCFA0F2000F0E8FA0F2000F0F6FAA1
:106A00000E2000F0E2FA0E2000F0F0FA0D2000F067
:106A1000DCFA0D2000F0EAFA0C2000F0D6FA0C2087
:106A200000F0E4FA0B2000F0D0FA0B2000F0DEFAC0
:106A30000A2000F0CAFA0A2000F0D8FA092000F073
:106A4000C4FA092000F0D2FA082000F0BEFA0820AB
:106A500000F0CCFAB869002849D1132000F0B5FA4B
:106A6000132000F0C3FA122000F0AFFA122000F059
:106A7000BDFA112000F0A9FA112000F0B7FA102099
:106A800000F0A3FA102000F0B1FA0F2000F09DFAF8
:106A90000F2000F0ABFA0E2000F097FA0E2000F065
:106AA000A5FA0D2000F091FA0D2000F09FFA0C20BD
:106AB00000F08BFA0C2000F099FA0B2000F085FA18
:106AC0000B2000F093FA0A2000F07FFA0A2000F071
:106AD0008DFA092000F079FA092000F087FA0820E1
:106AE00000F073FA082000F081FAFFF7D8FDF8BD36
:106AF0007047401EFDD2704710B5FFF78FFB07208F
:106B000000F06FFAF948401EFDD20D2000F06EFA39
:106B1000F748401EFDD20D2000F063FAF348401EF6
:106B2000401EFDD210BD10B5AE20FFF789F9D5206B
:106B3000FFF786F9D120FFF783F9A820FFF780F946
:106B40001F20FFF77DF9D320FFF77AF90020FFF728
:106B500077F94020FFF774F98D20FFF771F91420C1
:106B6000FFF76EF9A120FFF76BF9C820FFF768F96E
:106B7000DA20FFF765F91220FFF762F98120FFF7AD
:106B80005FF9CF20FFF75CF9D920FFF759F9F12021
:106B9000FFF756F9DB20FFF753F94020FFF750F9D4
:106BA000A420FFF74DF9A620FFF74AF9AF20FFF721
:106BB00047F910BDF7B51001FF38FF380238CD494D
:106BC00080B20F1800253E7801987F1C00244019E0
:106BD00084463006604606D5C1B200980019C0B29E
:106BE000FFF79FF905E0C1B200980019C0B2FFF7A6
:106BF0008AF97004641C060CE4B2082CE9D36D1CFD
:106C0000EDB2102DDFD3FEBD70B50E46054614461D
:106C100006E031462846FFF7CDFF641C0835EDB28B
:106C20002278002AF5D170BDFFB581B0019800250A
:106C30005E1A8C46171A11E0019800244019009042
:106C400008E060460019C1B20098C0B2FFF75BF9D6
:106C5000641CE4B2A642F4DC6D1CEDB2AF42EBDC86
:106C600005B0F0BDF7B5A44950010C1800262078F6
:106C70006178000247180198A41C002580198446F9
:106C80003804604606D5C1B200984019C0B2FFF77B
:106C900048F905E0C1B200984019C0B2FFF733F9D6
:106CA0006D1C7F00EDB2102DEAD3761CF6B2102ECB
:106CB000DDD3FEBDF7B5302042439048841800264E
:106CC0002178607809020F180198A41C002580190A
:106CD00084463804604606D5C1B200984019C0B257
:106CE000FFF71FF905E0C1B200984019C0B2FFF7E5
:106CF0000AF96D1C7F00EDB20C2DEAD3761CF6B2BA
:106D0000182EDDD3FEBDF7B57D4950010C180026C5
:106D100020786178000247180198A41C002580198A
:106D200084463804604606D5C1B200984019C0B206
:106D3000FFF7F7F805E0C1B200984019C0B2FFF7BD
:106D4000E2F86D1C7F00EDB2102DEAD3761CF6B28E
:106D5000102EDDD3FEBD6B488179491CC9B281710B
:106D60003C290FD3002181714279521CD2B2427169
:106D70003C2A07D34171C279521CD2B2C271182A7F
:106D800000D3C171704710B500205F4C03466022EC
:106D90000021424312195354491CC9B24029FAD365
:106DA000401CC0B20428F2D310BD70B557A207CA68
:106DB00086B000266B4647C31F233F22314630462C
:106DC0000496FFF731FF4F4C0A21E07901F039FAC0
:106DD0006D462A5C2A73695C69733A21A9730A219A
:106DE000607901F02EFA2A5C6846C273695C01740E
:106DF000467403AA03210C20FFF706FF0A21A0799D
:106E000001F01FFA024610210846FFF72BFF0A2166
:106E1000A07901F016FA0A4610212020FFF722FF80
:106E2000FFF71EF806B070BD10B500280AD0012883
:106E30000AD002280AD003280AD004280AD005283C
:106E40000AD00CE0344808E0344806E0344804E056
:106E5000344802E0344800E03448FFF71EF8FEF7FB
:106E6000FFFF10BD70B529A207CA86B000256B468A
:106E700027C31F233F22294628460495FFF7D4FE47
:106E8000204E0A21307A01F0DCF96C46225C227334
:106E9000615C61732D21A1730A21707A01F0D1F92F
:106EA000225C6846C273615C0174457403AA0221C6
:106EB0000C20FFF7A9FEB27A10211820FFF723FF5C
:106EC000FEF7CEFFAEE710B50E494878401CC0B2C1
:106ED0004870022802D90020487029E0002827D0F5
:106EE000012827D0022827D029E00000E70300006E
:106EF000861300004093010040A5010080A7010017
:106F000058A9010078200020242A00203031323393
:106F1000343536373839000040990100409A010075
:106F2000409B0100409C0100409D0100409E0100EB
:106F3000314802E0314800E03148FEF7AEFFFEF78D
:106F40008FFF10BD10B52F48FEF7A7FFFEF788FF93
:106F500010BD10B52C48FEF7A0FFFEF781FF10BD55
:106F600010B52A48FEF799FFFEF77AFF10BD10B55D
:106F7000274C607801280AD01F2315220A210020FF
:106F8000FFF752FE01206070FEF76AFF10BD00207F
:106F900060701E48FEF781FFF6E710B501280ED19C
:106FA0001B4C6078012808D01F2315220A210020DD
:106FB000FFF73AFE0120607004E000206070134883
:106FC000FEF76BFFFEF74CFF10BD124A0121800057
:106FD0008018016070470F4A8900800080180160A6
:106FE0007047012181400C48816070470121814038
:106FF0000948C1607047000040A1010040A00100A5
:1070000040A2010080A6010040A3010040A40100AD
:10701000782000200007005000050050F8B5F04827
:1070200001250168ED07EF4C4068002902D00129D5
:1070300003D006E001F08EFF02E001F08BFF684014
:10704000A062E94801684068002902D0012903D004
:1070500006E001F07FFF02E001F07CFF6840606223
:10706000E24F0025284601F0F4FD0022E04B01F03C
:107070007DFB01F097F90646616AA06A02F0BEF84E
:1070800003D2616AA06A009002E0A16A0091606A7E
:1070900002F0E0F8314602F059F8009902F010F8D9
:1070A00001F006FF69006D1C7852782DDAD3F8BD27
:1070B000F0B5002313E00022CF1A0DE05500AC46D6
:1070C000445F2D180226AE5FB44204DDA646644636
:1070D000065374466C80521C9742EFDC5B1C8B425B
:1070E000E9DBF0BD10B5BF4988898B8880B2984232
:1070F00001D3642010BD4A88904201D8002010BD01
:10710000991A491C801A09041922890C5043401805
:10711000401E01F0A0F8C0B210BDB64900200860C2
:10712000B5498020086070470EB5B44B00280ECBDF
:1071300002930192009103D0012801D0022802D1CC
:107140006846FEF77DFB0EBD70B5A64E0025B06803
:10715000401CB060032801DBB56010E000280ED0B1
:10716000A24CF03C01280FD002280CD19D48726936
:107170000378316958008A4220DD21521FE0042043
:10718000FEF77CFBF06070BD2020FEF777FB3061DE
:107190004020FEF773FB70613169884203DD30786F
:1071A0004000215202E031784900605230780F28C7
:1071B00000D335703078401C307070BD22520F2BD8
:1071C00000D3357030781021401C30708748F0387B
:1071D000FFF76EFF0421615EB1617278834853004E
:1071E0007838C152521CD1B27170372900D97570EC
:1071F00000210222415E825E062389180422825EFB
:10720000C35ED21889180822825E89180A22825E1B
:1072100089180C22825E89180E22825E891810223B
:10722000825E89181222825E89181422825E891871
:107230001622825E89181822825E89181A22825EBE
:1072400089181C22825E89181E22825E89182022DB
:10725000825E89182222825E89182422825E891821
:107260002622825E89182822825E89182A22825E5E
:1072700089182C22825E89182E22825E891830227B
:10728000825E89183222825E89183422825E8918D1
:107290003622825E89183822825E89183A22825EFE
:1072A00089183C22825E89183E22825E4F488918E6
:1072B00038380022825E89180222825E89180422F0
:1072C000825E89180622825E89180822825E8918E9
:1072D0000A22825E89180C22825E89180E22825E42
:1072E00089181022825E89181222825E891814225F
:1072F000825E89181622825E89181822825E891899
:107300001A22825E89181C22825E89181E22825EE1
:10731000203089180022825E89180222825E891834
:107320000422825E89180622825E89180822825E03
:1073300089180A22825E89180C22825E89180E2220
:10734000825E8818382100F086FF2D49B06188429E
:1073500000DD32E7FF212D318842FADB284A183A56
:10736000101A224AF061884202DA0021515E08E0D8
:107370000146FF392D39782905D8224B4100C9181B
:10738000515E081808E0FF21A5318842E1DD174968
:107390000C22E0318A5E1018F06170BD10B500203B
:1073A000FFF7C2FE18490120086001460D48174A40
:1073B0002030FEF715F8002803D015A2A521FCF710
:1073C00087FF0F49074800228239006AFEF74FF80D
:1073D000002803D00EA2A721FCF77AFF10BD000001
:1073E000F82000209820002000210020942C00206C
:1073F00000C05D400071004080E100E078B0010015
:10740000B5030000A8FDFFFF0070004049710100B6
:107410002E2E5C6D795F6164635F746F5F74656D60
:1074200070657261747572652E6300000A4610B54E
:107430000146B948FDF712FA10BD034610B5002009
:10744000024603E09C5C6040521C92B28A42F9D32F
:1074500010BD10B5B14C0420207002206070FFF701
:1074600041FEA07003212046FFF7E7FFE0700421F2
:107470002046FFF7DBFF10BD10B5A84C052020709B
:1074800001206070A6480068C117090E09180A1289
:10749000A270E07004212046FFF7CFFF2071052184
:1074A0002046FFF7C3FF10BD70B59E489E4C007884
:1074B00000280AD19D499E48626909780078002A0F
:1074C0000FD0521E626100F0A1FB60680025401CD5
:1074D0006060216888421ED965606069002818D004
:1074E00019E08F4AFF23126855339A4202DA00F0FE
:1074F00043FBEAE7FF23A5339A4202DD00F0F3FAEB
:10750000E3E795B20A4601460323284600F084FAD1
:10751000DBE7FFF7B1FFE068401CE060A16888424C
:1075200002D9E560FFF795FF70BD7F4810B5814A2D
:1075300001211830FDF754FF002803D07EA29B21C3
:10754000FCF7C6FE7848002280498069FDF78FFF6E
:10755000002803D078A29D21FCF7BAFE10BD10B51B
:10756000044639DFE0433ADF10BD6C48AA210170C0
:1075700032214170302181703122C2703622027175
:1075800041718271C1713321017209214EE730B41A
:107590006448AA23047861484C214422002C0CD072
:1075A000012C11D103704F23437081704521C170AC
:1075B0000271052130BC594838E7037041704321FE
:1075C0008170C2700421F5E730BC70475348AA218E
:1075D00001703121417030228270C170042125E791
:1075E00070B50546002403E00820FCF7CDFD641CBF
:1075F000AC42F9D370BD70B548481446233000F052
:10760000BFFD464923310878562823D14878012800
:1076100021D0022822D0032826D00122042826D0F7
:10762000062835D0072836D0082813D0092835D0A9
:107630000A2844D020284BD041284CD043284DD094
:10764000532854D0542855D0552856D0562801D107
:1076500000F0F5FB70BDFFF70FFF70BD88780C28B8
:10766000FBD100F038FB70BD00F0B8FB70BD3849AD
:10767000402088603748FFF7B3FFAB20FFF76FFF6C
:10768000BFF34F8F35493448C860BFF34F8FFEE7D3
:10769000FFF79CFF70BDFFF77AFF70BD304D2246AB
:1076A000891CA81C00F06CFDAA202870A41E6C7018
:1076B0000023142229462B48FEF75CFA70BD887817
:1076C0000028FBD0E121090148431749086170BD3A
:1076D000FFF7BFFE70BDFFF748FF70BD8978134804
:1076E000002901D0027070BD0021017070BD00F052
:1076F00012FB04E000F083FB70BD00F02EFBFFF7EF
:107700008DFC70BD054902220A7003224A70887000
:10771000114602488AE60000DC260020842D002065
:10772000B42000207A200020C4200020F020002077
:1077300004200020A97401002E2E5C6D795F626C1C
:10774000655F736572766963652E63009A39000020
:1077500000050050102700000400FA0500ED00E0CD
:10776000F8260020142000209649002008600120FF
:10777000954A40211160964A9449116195494860A3
:10778000704795480168012905D192494968C907A0
:1077900001D00021016091484168002901D10121F7
:1077A00041607047F8B58E4D28698C4CC002C20FFD
:1077B0002270A078012808D1E078401CC0B2E070A7
:1077C000642802D90020A070E07084480A23417820
:1077D000844E40684027012A12D0401E182864D8E1
:1077E000002962D0E07800282BD0801EC62832D233
:1077F0000021A1707C48E1700278002A24D024E0A6
:10780000401C0246FF3A6060193A63D1C843C0B2D7
:1078100064216070A160002849D03C207349306029
:107820000B60FEF7DFFC0120674A8102116070499E
:10783000086070490C2008606F480078012842D029
:107840004DE00120A07006E001210170C8B2401C8B
:10785000C0B2FFF757FF6420A06066490C200860A3
:1078600063480221016064480078012804D05F4821
:10787000016800290CD010E0FFF73EF9FFF753F93B
:10788000594802785D4801680020FEF7D8FB0CE0FB
:107890003168002901D1032101603C203060FEF7EE
:1078A000A1FC0120484980020860002016E03C202D
:1078B00030604F48042101604E490C2008604E485A
:1078C000007801280ED1FFF717F9FFF72CF9FEF722
:1078D00005FB04E04A49884201D9401E6060A06867
:1078E000002826D0A068401EA060AF604248032256
:1078F0000178344812041038012961781BD000291E
:1079000016D1A168002913D12178002910D101696D
:107910009143016102220021142000F049F8EF6038
:1079200031DF002804D0FF2136A20831FCF7D0FC5B
:10793000F8BDEF60DAE70029FAD1A1680029F7D194
:107940002C4909680029F3D121780029F0D1016977
:107950009143016102220021142000F029F8EF6018
:1079600031DF0028E4D027A2EC21DFE7154910B56C
:107970000120383908601349002008601748254A5B
:1079800001210C30FDF72CFD002803D01DA25C2145
:10799000FCF79EFC1148FF2100224931C068FDF729
:1079A00066FD002803D017A25E21FCF791FC10BDF4
:1079B000120489000A4303498000503940180260CC
:1079C000704700005007005000E100E00114030080
:1079D000006500400063004000610040E02000209E
:1079E0000005005090200020F0200020D82000202A
:1079F0008C200020882000207A200020B420002045
:107A0000FAFF00002E2E5C6D795F746F7563682E2F
:107A100063000000A5770100F8B5964C0646607833
:107A2000BF234025002902D0012902D003E01840DD
:107A300000E0284360708F4810278178C078002AC2
:107A400002D0012A06D018E019402843A17038431B
:107A5000E07012E029431840A1703843E0703046CE
:107A600001F0F7F8844A854B01F0F6F80022844BC8
:107A700000F04FFE01F0A0F886B27D21C90030462B
:107A800000F0DFFB0D46C6B22846642100F0D9FBAA
:107A9000C0B200902846642100F0D3FB08460A21BA
:107AA00000F0CFFB07462846642100F0CAFB0846D9
:107AB0000A2100F0C6FB0D46002E02D0012E04D094
:107AC00007E0E0784008400002E0E0780121084348
:107AD000E0700098FEF7A3FC3846FEF707FC284646
:107AE000FEF752FDF8BDF0B5624ABF254024537839
:107AF000002802D0012802D003E02B4000E02343FD
:107B000053705C4810268378C078002902D0012980
:107B100004D008E02B409370204302E0234393708D
:107B200028403043D070D078EF2543085B001178AF
:107B3000FD262B40314002273340507894780126AF
:107B400038433C43344331433043F72631403040DF
:107B500034403340042634433143FB263040DF2693
:107B60003440334031402C40D37029403040947031
:107B7000117028405070F0BDF0B53E4ABF2540243A
:107B80005378002802D0012802D003E02B4000E007
:107B900023435370374810268378C078002902D0D9
:107BA000012904D008E02B409370204302E02343D6
:107BB000937028403043D070D078FD26410810786B
:107BC000537894784900EF253040334034402940C1
:107BD00002263143012634433043B343F726304075
:107BE0003340082634433143042634433343DF26ED
:107BF000FB2738403440314030402C40D170284081
:107C00003340947010702B405370F0BD70B5194C18
:107C100006460D46E07801210843E0700820FEF793
:107C2000FEFB0820FEF762FB0820FEF7ADFCBF203C
:107C30004021002E02D0012E03D005E062780240E0
:107C400001E062780A4362701022002D09D0012DF4
:107C500006D1A3780B43A370E17801401143E17092
:107C600070BDA3780340A370E07808431043E07030
:107C700070BD000083200020CDCCCCCCCCCCFC3F10
:107C80000000744070471CB501216846C18089021C
:107C9000818080480090FDF7CCFE7F496846FDF763
:107CA000EBFE002314227C497C48FDF7A2FF002351
:107CB000342279497A48FDF79CFF79487949426A2C
:107CC0000A60826A4A600831C26A0A60006B4860D2
:107CD000FFF7A4F91CBD724810B5002324226E4999
:107CE0007838FDF786FF24216B48FDF7C1FF6C480B
:107CF0006C497838006A091F086069480C226A4993
:107D0000643800F03DFA664900232422783962483D
:107D1000FDF730FF10BD624810B500232C225E49EC
:107D20005438FDF766FF2C215B48FDF7A1FF5E4943
:107D30005B480822491E303800F022FA5848594959
:107D40005438426A0A60806A4860554900232C22F0
:107D500054395148FDF70EFF10BD10B500233422F1
:107D60004D494F48FDF745FF34214B48FDF780FF53
:107D70004D494B480822491E2C3000F001FA484872
:107D80004849C26A08310A60006B48600023342207
:107D900043494148FDF7EEFE10BD414810B5783823
:107DA0004249027D0A70427D4A70827D8A70C27D9E
:107DB000CA70027E0A71427E4A71827E8A71C27ED8
:107DC000CA71027F0A72427F4A72827F8A72C07FC2
:107DD000C8720C213548FFF729FB10BD304810B59B
:107DE000002324222C497838FDF703FF2C482D4925
:107DF0007838006A091F0860FFF7CFFF10BD2848D8
:107E000010B500232C2224495438FDF7F2FE2448F3
:107E10002649303802780A7042784A7082788A702F
:107E2000C278CA7002790A7142794A7182798A717C
:107E3000C079C87108211D48FFF7F8FA10BD10B5C8
:107E40000023342214491648FDF7D3FE144815497F
:107E5000426A0A60826A4A600831C26A0A60006B3C
:107E600048600F4811492C3002780A7042784A70F5
:107E700082788A70C278CA7002790A7142794A712E
:107E800082798A71C079C87108210848FFF7CEFA53
:107E900010BD0000857C010014200020F826002081
:107EA000442E0020F8200020AA2D0020842D002040
:107EB00010B50446800705D16421204600F0C1F9C1
:107EC000002908D1FF219131204600F0BAF900299C
:107ED00001D0002010BD012010BD9E490020086186
:107EE00070479C490861704702461F20012907D04E
:107EF000062901D9491EC9B2C90700D01E20704702
:107F00001C32D0B27047F8B50A4604469249104672
:107F100000F097F90D4606463C21284600F091F9FD
:107F20002160E1210901284600F08BF90546084649
:107F30003C2100F086F9A5606060864D87486E8020
:107F4000FF266F36771EE0600DE0E068FFF7B0FFB8
:107F5000002801D0304600E038466988081A688059
:107F6000E068401CE060FFF7A3FF002801D0304626
:107F700000E0384669888842E7D900200BE0E068D5
:107F8000FFF796FFC0B2217CFFF7AEFF6988081AA1
:107F900068802069401C2061E068FFF789FFC0B25B
:107FA000217CFFF7A1FF69888842E8D32069401C43
:107FB00020616888401C6061F8BDF8B5044680689F
:107FC0003C214843616840183C21484321684718D8
:107FD000A08A85B2207C401E46B208E0E068FFF728
:107FE00067FFC0B2F1B2FFF77FFF401985B2761E7E
:107FF00076B2002EF2DAA089584E84B20BE0204609
:10800000FFF756FF002802D0FF206F3001E0FF206D
:108010006E30401985B2641EA4B2B442EFD24E480D
:108020004543E819F8BD4B480069704770B5818930
:10803000047C007D8DB2401CC6B2012C01D0022C04
:1080400003D10C346D1EE4B2ADB2601C4100401887
:10805000052100F0F6F86100891940184019A908B7
:1080600044186421284600F0ECF8241AFF219131CD
:10807000284600F0E6F82018072100F0ECF8080682
:10808000000E00D1072070BD30B587B004917D216E
:108090000A9D0B9C090140180094039001950293DE
:1080A00005926846FFF789FF2A49086107B030BD8D
:1080B00010B5284800230178491CC9B20170052970
:1080C00000D303700169264A491C01611468002C21
:1080D00001D0641E14608268224C521C82602468A5
:1080E000A24200D983604268521C42604469A242A5
:1080F00000D943601C48FFF706FF1B4810BD10B5B0
:1081000086B001200090019002901220059004900A
:108110003F20400103906846FFF74FFF0D4C134A84
:108120002061204601210C30FDF75AF9002803D0C8
:108130000FA2C921FCF7CCF801210022C903E06895
:10814000FDF795F9002803D009A2CD21FCF7C0F86E
:1081500006B010BD0821002080510100B2070000C8
:1081600090200020D4200020A02E0020B18001000B
:108170002E2E5C6D795F74696D6572732E630000DD
:10818000F8B5042A2CD3830712D00B78491C03704E
:10819000401C521E83070BD00B78491C0370401CF7
:1081A000521E830704D00B78491C0370401C521EDA
:1081B0008B079B0F05D0C91ADF002023DE1B08C9DF
:1081C0000AE0FBF7F1FFF8BD1D4608C9FD401C465B
:1081D000B4402C4310C0121F042AF5D2F308C91A68
:1081E000521EF0D40B78491C0370401C521EEAD476
:1081F0000B78491C0370401C521EE4D409780170AE
:10820000F8BD01E004C0091F0429FBD28B0701D58A
:108210000280801CC90700D00270704700290BD073
:10822000C30702D00270401C491E022904D38307F1
:1082300002D50280801C891EE3E70022EEE70022BF
:10824000DFE7002203098B422CD3030A8B4211D3B0
:1082500000239C464EE003460B433CD400224308D7
:108260008B4231D303098B421CD3030A8B4201D3C7
:1082700094463FE0C3098B4201D3CB01C01A52415F
:1082800083098B4201D38B01C01A524143098B42AF
:1082900001D34B01C01A524103098B4201D30B0198
:1082A000C01A5241C3088B4201D3CB00C01A5241BD
:1082B00083088B4201D38B00C01A524143088B4282
:1082C00001D34B00C01A5241411A00D2014652411B
:1082D000104670475DE0CA0F00D04942031000D33A
:1082E0004042534000229C4603098B422DD3030A8F
:1082F0008B4212D3FC22890112BA030A8B420CD39F
:10830000890192118B4208D3890192118B4204D3C7
:1083100089013AD0921100E08909C3098B4201D347
:10832000CB01C01A524183098B4201D38B01C01A81
:10833000524143098B4201D34B01C01A52410309F8
:108340008B4201D30B01C01A5241C3088B4201D3A7
:10835000CB00C01A524183088B4201D38B00C01A54
:108360005241D9D243088B4201D34B00C01A52412B
:10837000411A00D20146634652415B10104601D3B8
:108380004042002B00D54942704763465B1000D342
:10839000404201B50020C046C04602BD704770474C
:1083A000704700000246C80FC00781434B0030B53C
:1083B0004B405B009B0D20D01923DB06C91801231D
:1083C0001B05994220DB0324A40704251346AB4078
:1083D0000BD3002B04D1EB0613409B001B1904D4D4
:1083E00001246407002312195941FF231B059942F8
:1083F0000BD2C9000143500F09E0CB0204D5014361
:108400000803024305D0054830BDFF21C9050843D4
:1084100030BD084607210905884330BD0000C07FF4
:10842000F0B50C46871A9C410D46861A9D4103D231
:10843000C01BA141D21963410D0D1F0DC64EEC1B8F
:10844000AE435BD07F057F0D0026002F50D02D0559
:10845000AC46A943DD020123ED0A1B051D43202381
:108460001B1B23D41746E740381871412F46E740BD
:10847000CC199D402818314661410C0D26D161442C
:108480009A4012D50023401C594152000DD140089A
:108490004000B24A4B00934207D30520400708181A
:1084A00001D5511000E0AE493046F0BD6B00002A06
:1084B00000D001229A18203C1F231B1B01D500234A
:1084C00002E0E540281871410C0DD8D001242405A4
:1084D0000919C407CD0740084908E40F284361443F
:1084E000002CD6D00024401C61419A40D1D1CEE767
:1084F0006A05520DD9D1C90FC907D5E7974D4E006E
:10850000002801D0012400E0002434195F00002A73
:1085100001D0012600E00026BE19924FAC420BD8D4
:10852000AE4209D8B44205D0BD00AC42BDD0104621
:108530001946F0BD9942FCD000203946F0BDF0B597
:108540001FB40C460F46811A9F412546861A9D414D
:1085500006D20125ED076F40401ABC4152187B41FD
:10856000210D1E0D8D1BAC467B4D8D437ED07505B8
:108570006D0D7CD00D05AE46AC431B031B0B7A4D35
:1085800052429D41202366469B1B14D31746F74059
:10859000381800260090744160462F460741E419C0
:1085A00000989D402818664116D4714671189A406B
:1085B00025D5012320E093182A466A415200002B5A
:1085C00000D0521C203E1E239B1B002B61DD354139
:1085D000EE1728186641E8D5001876415B1C9A40D2
:1085E00000D3401C4B05F3181524E34010D3002B97
:1085F00052D071467118D30FC01802D3491C05B070
:10860000F0BD0123DB079A42F9D140084000F6E7AC
:1086100001225205B21801D1002853D00123CC0AFF
:10862000DB029943891E002A08D1020C03D0020CF8
:108630000004103902E00246002020390023550BC7
:1086400005D112020823550B01D152010D23550CFF
:1086500001D112011B1DD50C01D192009B1C150DDF
:1086600001D152005B1C2025EE1A01E02CE022E033
:108670000546F54015439840CA1AE10769181305E5
:10868000C918002ABBDA032040070818C10FC90720
:108690000FE071466118B2E7F10740080843711016
:1086A00071444A000CD001235B059A42A7D2C90F3E
:1086B000C9070020A3E74905490D25D1002001E0A5
:1086C0000028F4D100219AE7244D6600002801D04B
:1086D000012100E0002171185F00002A01D001266D
:1086E00000E00026BE191F4FA9420FD8AE420DD898
:1086F000B14207D0BD00A94206D01946A8024140A8
:1087000010467CE79C4201D0214678E7002039469C
:1087100075E730B40C465C4004D50124E40763409F
:1087200030BC0CE730BC7BE630B40C465C4004D572
:108730000124E407634030BC72E630BCFFE630B48D
:108740000124E40761400D465D4001D430BC67E67A
:10875000634030BCF3E60000FF0700000000E0FFCC
:108760000000F07F0000F87F0000F0FFF0B51FB4BC
:10877000FA4F0E091D09BC463E403D400C46B7432A
:108780005C408CB0002F7DD06746AF43FBD0002DFE
:1087900079D0002EFCD0E20F3243521BFF24A404F8
:1087A00012190892420DCD02C7020E981543420DD0
:1087B000D9021143C202600305430143080C01952D
:1087C000150CAC4605040B46AB430A9565462D04D3
:1087D000AA430995E24D040A7D446419803C25783A
:1087E00006466E4301247619E405A61B7543ED0C7D
:1087F000AD1C490B69434919A401611A0E0CB64618
:108800003604B143694376466E43090C71188909F1
:108810000591F90700D0A100049101997F08CC07C8
:1088200027434C08059DE10B4D432D0C2946664618
:10883000754302950D4645432E46029D7D1BB4416E
:1088400000950D465D4301942C0C2F040D465543B5
:10885000AE462D0C3D43029503947546049C2D04B1
:10886000641B049406D2029C039D641C002675417F
:108870000395029401AC70CC009F7D1BB4410904A8
:10888000009501E03BE15FE1079101940599A4089F
:108890006143090C0C464443650BE70464464C43B2
:1088A000A646640B3C43039502947446049DE4047D
:1088B0002C1B049406D2029C039D641C0026754167
:1088C0000395029401AC70CC009F7D1BB4410194D0
:1088D0000C465C430095650FE7000C465443A646E2
:1088E000640F3C43039502947446049DE4002C1BE2
:1088F000049406D2029C039D641C002675410395D6
:10890000029401AC70CC009F7D1BB441AE09AF0650
:10891000049DC900AD092F43049DA406AD0604952E
:10892000079D344369180791059DE10B4D432D0CBC
:1089300029466646754302950D4645432E46029DDF
:108940007D1BB44100950D465D4301942C0C2F0412
:108950000D465543AE462D0C3D4302950394754696
:10896000049C2D04641B049406D2029C039D641C89
:10897000002675410395029401AC70CC009F7D1BCD
:10898000B44101948C050694079C890A61180095EE
:108990000791019C0599A4086143090C0D464543C4
:1089A000680BEF040D46644665436C0B3C43049F23
:1089B000ED047D1BAC4602D20025641C6841009E7C
:1089C000019D371B85410846584301950C46460FCB
:1089D000C5005443600F28436546E4002C1B02D2B7
:1089E0000025401C6E41019D3F1AB5412846BD0936
:1089F000800628438446A009BF064E020699A406B5
:108A000076180743079D002068410A99079019438B
:108A10000020099B00906046FF1913434041E20F7C
:108A200064003A43A4460446D71A8C41A04203D9B5
:108A30000120009020463A46C70F941840416246F4
:108A4000D20F2243644664000494009CBE46640036
:108A5000D71AA446044602978C417746002F01D1CD
:108A6000A04204D96046401C8446029A2046C40FA6
:108A7000A64694184041049A0546D20F2243644604
:108A80006400D31A8D417146002901D1A84202D950
:108A9000641C28461A4610430122002800D01643C1
:108AA00061020020079B044689195C410223002CC7
:108AB00002DB491813466441089DCE0A2D145D1946
:108AC0004B056705E10A2C050C1908993E43C907B7
:108AD0006140002B08D0934006D30022761C514100
:108AE000002B01D1760876001E4A002C45DB234678
:108AF000134242D0A24340D0304611B0F0BD0E46E2
:108B000007184E41184D7A42B5411AD30E9A1D46A8
:108B100096185D41144A7642AA4112D301225205A9
:108B20004D00D5420AD15C00D4420AD04B4002D558
:108B300092021143E1E749004908DEE7E10FC90766
:108B40000AE000200949D8E70648014212D0084847
:108B500021460143C01241400020CEE70000FF073C
:108B6000A82800000000F07F0000E0FF0000F87F70
:108B7000FFFFFF7F0342E4D0E0E70123089A9B0652
:108B80009A4205DC032252078918C90FC907B4E7C6
:108B9000052252078918074A1143D2125140ACE707
:108BA0005940504010B54B40424059405040FFF7AB
:108BB000DDFD10BDFFFFFF7FCB02420D10B51A4354
:108BC0000B1504D00124E4072243002B06DB0A4CDA
:108BD000E31A05D41046D840FF2B00DD002010BD5D
:108BE0004A00002800D001201018044A9042F5D80D
:108BF000C817C04310BD00001E0400000000E0FFC5
:108C00001F22030C02D10F22000402D0030E03D056
:108C100004E0002001467047083A0002030F01D12A
:108C2000121F0001830F01D1921E8000002801DB7A
:108C3000521E4000120551184205C012411810463C
:108C40007047C10FC90700D040420122920711436B
:108C5000D6E701218907D3E7F0B5904C0D092646E8
:108C6000AC46AE430D465D4087B0002E7ED01E0957
:108C70002746B743FAD067462740ED0F3D432640CD
:108C800075D024012142FBD07419FF25AD04641B6B
:108C90000494CC02D90201231B05C90A1943E40A32
:108CA0001C430F012401030F110F1C430F43050147
:108CB000A10B88032D0916018443A80B8203954359
:108CC000BB0B9A0397433609BC46B20B9703BE43CE
:108CD0000746574303972F4677430296BE46029FA7
:108CE0004619D71906967E430597039FF71B7646CC
:108CF000BE1B77463F0100970196039FB60BF619FE
:108D0000B646019E009FB604BF1902D37646761C74
:108D1000B64676467600002F01D001273E436746CF
:108D20007D43AE46029F25467D4300956D00AE19FA
:108D300075466D00AF1965465D19069E03956E4335
:108D40007546751BAE460D19059E02956E43009D36
:108D50005843761B75462D1A4A439646B21A00921E
:108D60000195FA0606D07D09012201E076E072E065
:108D7000154300E07D09020A0006002745197A41E3
:108D80007646300A360676195041019A950D9202C0
:108D9000961945410098820D800280196A41594315
:108DA00063465C43039D029B6B435B1A1E1BB30E21
:108DB000B601B6187B410A0B090589195A41230AE5
:108DC000240624184B418B4200D2521C0120400241
:108DD000824203D315210226F64302E01421032622
:108DE000F6432020451AAA401F46AF40CB402046FC
:108DF000C840049913430914711809055A180499B5
:108E00003843C9075140AC4009D001239C4006D3E8
:108E10000023401C5941002C01D140084000204B48
:108E2000002A03DB1A4201D08B4312D1012204989D
:108E30009206904207DB05204007091819480143B4
:108E4000C012414004E0032040070818C10FC907C1
:108E5000002007B0F0BD0020E907FAE706180C462D
:108E60004C4111487642A04114D394181A465A41F5
:108E70000D48644290410DD30120490040058142D4
:108E800008D35900814205D3E90F054AC9070020DC
:108E90001143DEE700200549DBE700000000FF0783
:108EA0000000F07FFFFFFF7F0000E0FF0000F87F81
:108EB00010B502469E240002D115A307002902D056
:108EC0001843002904DB611A00290CDDC84010BDDD
:108ED0000906090E01D140004008611A03D4C840B8
:108EE00040420028F3DDFF2150000906884201D9E5
:108EF000002010BDD017C043584010BD1F22030CE6
:108F000002D10F2200041CD0030E01D1083A000246
:108F1000030F01D1121F0001830F01D1921E8000A7
:108F2000002801DB521E4000D205511802125118D0
:108F30001922904004D3491C002801D14908490056
:108F400008467047C10FC90700D04042012292076E
:108F50001143D3E701218907D0E7000010B5FF23B3
:108F60001B0644009C421DD84C009C421AD8034664
:108F7000124A0B4307D4401A02D3EFF3008010BD0E
:108F8000EFF3008010BD081A06D2EFF30080012134
:108F90009043C907084302E0EFF30080904380F359
:108FA000008810BD0D231B041A4204D01146002076
:108FB00000F006F810BD00F01BF810BD0000009096
:108FC000CA0210D54A03520F04D0C803C04301217E
:108FD00088407047054AEFF30081080100091043FB
:108FE00080F30088704700207047000000000030C8
:108FF00010B5024800F029F810BD00000000C07F45
:10900000754600F051F8AE46050069465346C00863
:10901000C000854618B020B5FBF7F2F860BC002709
:109020004908B6460026C0C5C0C5C0C5C0C5C0C534
:10903000C0C5C0C5C0C5403D49008D467047044607
:10904000C046C0462046FBF788F810B50C4611070D
:10905000090F092904D00A290AD008290CD104E0F3
:1090600011460820FFF7ACFF06E0510606D501E0E7
:10907000510601D50120C007214610BDD10607D5F4
:1090800001010909CC084907000E0006044309E064
:10909000410F20024907000A0143200E00061D224D
:1090A000D14101430846E7E700487047B82E002049
:1090B00001491820ABBEFEE7260002007047000001
:1090C00070B501250400ED074C4020D4441A01D2AC
:1090D000001B0919C60D4B00F2B2FF2A29D01B0E46
:1090E0002CD000020C02D31A2C43DC402843051973
:1090F00010D2280A02D3401C6D0611D0761EF60548
:109100008019FF2A00DA70BDC00DC00570BD69402E
:1091100000F0A6F801200543C541521C761CE8E783
:1091200064089C40C90161408900E7D10124A04343
:10913000E4E71B0E440200D0034870BD002AFCD1B6
:10914000C00FC00770BD00BF0000C07F70B54200F7
:1091500064414B005C41120E39D01B0E38D0FF2AFF
:109160003CD0FF2B3AD040024902400A490A06008F
:1091700045184E43000A090AD2184843ED017F3AC8
:109180000104731A4019190C4318990F04D00121D6
:109190005B0849075B1A521CD80904D3401CF5032D
:1091A00001D19D0607D0FF2A08D2D50506D0E407D5
:1091B0002043401970BD0125A843F4E7002A01DCD3
:1091C000E00770BD2402FF202043C00570BD1B0EC8
:1091D000FF2A03D0FF2B01D0E00770BDFF2645001A
:1091E0003606B54206D84D00B54203D8D218FF2A3C
:1091F00000D0E7E7004870BD0000C07F01230A00EF
:10920000DB0502430DD4DA4203D49A4207D48142EB
:109210007047D94214D4D84212D48142704789424F
:109220007047DA4203D59A42F9D5884270475B000D
:109230004A00DA4204D24200DA4201D28842704740
:109240004840414010B5024A4840FFF787FE10BD34
:109250000900160470B501250400ED074C4022D426
:10926000441A02D26C40001B0919C60D4B00F2B221
:10927000FF2A4BD01B0E50D000020C02D31A2C43F5
:10928000DC40A843051B05D5AD0019D36D08761E3B
:10929000521E37D0F605280A01D2801970BD7041E0
:1092A0006D0603D070BD6940FFF710FF9C400902B6
:1092B0006140490001D0401E70BD0124A04370BD33
:1092C0006D081DD001202B0C01D12D0410302B0E68
:1092D00001D12D0208302B0F01D12D01001DAB0F44
:1092E00001D1AD00801CEB0F01D16D00401C6D0061
:1092F000361A121A680AF5054019012A02DB70BDF8
:10930000002070BDC036300AC00770BD1B0E44027D
:1093100001D1FF2B00D1024870BD002AF0D070BDF2
:109320000000C07F01000000123456780EE5A9E06D
:1093300093F3A3B50000406E0F0E0D0C0B0A090845
:10934000000000000000000000000000000000001D
:109350000000183C3C3C18181800181800000000C9
:1093600000666666240000000000000000000000A7
:109370000000006C6CFE6C6C6CFE6C6C00000000FD
:1093800018187CC6C2C07C0686C67C18180000006F
:1093900000000000C2C60C183060C6860000000045
:1093A0000000386C6C3876DCCCCCCC760000000049
:1093B00000303030600000000000000000000000BD
:1093C00000000C18303030303030180C0000000035
:1093D000000030180C0C0C0C0C0C183000000000B5
:1093E0000000000000663CFF3C660000000000003A
:1093F000000000000018187E18180000000000008F
:1094000000000000000000000018181830000000E4
:1094100000000000000000FE00000000000000004E
:10942000000000000000000000001818000000000C
:109430000000000002060C183060C0800000000030
:1094400000007CC6C6CED6D6E6C6C67C00000000AC
:1094500000001838781818181818187E0000000036
:1094600000007CC6060C183060C0C6FE000000007C
:1094700000007CC606063C060606C67C000000000E
:1094800000000C1C3C6CCCFE0C0C0C1E0000000000
:109490000000FEC0C0C0FC0E0606C67C0000000036
:1094A00000003860C0C0FCC6C6C6C67C0000000014
:1094B0000000FEC606060C183030303000000000F8
:1094C00000007CC6C6C67CC6C6C6C67C00000000BE
:1094D00000007CC6C6C67E0606060C7800000000AA
:1094E000000000001818000000181800000000001C
:1094F00000000000181800000018183000000000DC
:10950000000000060C18306030180C060000000047
:10951000000000000000FE0000FE0000000000004F
:109520000000006030180C060C18306000000000CD
:1095300000007CC6C60C181818001818000000009F
:109540000000007CC6C6DEDEDEDCC07C0000000061
:10955000000010386CC6C6FEC6C6C6C600000000B5
:109560000000FC6666667C66666666FC00000000BD
:1095700000003C66C2C0C0C0C0C2663C0000000023
:109580000000F86C6666666666666CF800000000AF
:109590000000FE6662687868606266FE0000000097
:1095A0000000FE6662687868606060F0000000009D
:1095B00000003C66C2C0C0DEC6C6663A00000000BD
:1095C0000000C6C6C6C6FEC6C6C6C6C600000000A7
:1095D00000003C18181818181818183C0000000053
:1095E00000001E0C0C0C0C0CCCCCCC780000000045
:1095F0000000E6666C6C78786C6666E60000000039
:109600000000F06060606060606266FE0000000064
:109610000000C6EEFEFED6C6C6C6C6C600000000E6
:109620000000C6E6F6FEDECEC6C6C6C600000000D6
:109630000000386CC6C6C6C6C6C66C38000000003E
:109640000000FC6666667C60606060F00000000000
:1096500000007CC6C6C6C6C6C6D6DE7C0C0E0000A0
:109660000000FC6666667C6C666666E600000000CC
:1096700000007CC6C660380C06C6C67C0000000030
:1096800000007E7E5A1818181818183C00000000B8
:109690000000C6C6C6C6C6C6C6C6C67C0000000058
:1096A0000000C6C6C6C6C6C6C66C3810000000009C
:1096B0000000C6C6C6C6C6D6D6FE6C6C000000004A
:1096C0000000C6C66C6C38386C6CC6C60000000062
:1096D0000000666666663C181818183C000000001A
:1096E0000000FEC6860C183060C2C6FE00000000F6
:1096F00000003C30303030303030303C0000000072
:1097000000000080C0E070381C0E0602000000005F
:1097100000003C0C0C0C0C0C0C0C0C3C0000000071
:1097200010386CC6000000000000000000000000BF
:1097300000000000000000000000000000FF00002A
:1097400030301800000000000000000000000000A1
:109750000000000000780C7CCCCCCC76000000002F
:109760000000E06060786C66666666DC0000000001
:1097700000000000007CC6C0C0C0C67C0000000025
:1097800000001C0C0C3C6CCCCCCCCC760000000057
:1097900000000000007CC6FEC0C0C67C00000000C7
:1097A0000000386C6460F060606060F000000000F1
:1097B000000000000076CCCCCCCCCC7C0CCC78006B
:1097C0000000E060606C7666666666E60000000099
:1097D00000001818003818181818183C000000006D
:1097E00000000606000E06060606060666663C0033
:1097F0000000E06060666C78786C66E6000000004F
:1098000000003818181818181818183C0000000024
:109810000000000000ECFED6D6D6D6D60000000030
:109820000000000000DC66666666666600000000F8
:1098300000000000007CC6C6C6C6C67C0000000052
:109840000000000000DC66666666667C6060F00012
:10985000000000000076CCCCCCCCCC7C0C0C1E00E4
:109860000000000000DC7662606060F00000000034
:1098700000000000007CC660380CC67C00000000C0
:109880000000103030FC30303030361C000000005A
:109890000000000000CCCCCCCCCCCC76000000008A
:1098A000000000000066666666663C180000000066
:1098B0000000000000C6C6C6D6D6FE6C0000000040
:1098C0000000000000C66C3838386CC6000000008C
:1098D0000000000000C6C6C6C6C6C67E060CF8005C
:1098E0000000000000FECC183060C6FE0000000042
:1098F00000000E18181870181818180E0000000034
:10990000000018181818001818181818000000007F
:109910000000701818180E181818187000000000B1
:10992000000076DC000000000000000000000000E5
:109930000000000010386CC6C6C6FE000000000023
:109940000000000000000000000000000000C0C097
:10995000C0C0C0C0C0C0C0C0C0C0C0C0C0C0C0C007
:10996000C0C0C0C0C0C0C0C0C0C0C0C0C0C0C0C0F7
:10997000C0C0C0C0C0C0C0C00000000000000000E7
:10998000000000000000000000F0F0F0F0F0FFFF29
:109990000000000000000000000000000E1C3870F5
:1099A000E0C080C0E070381C0E0000000000000025
:1099B000000000000000FFFF0000000000000000A9
:1099C0000000000000000000001F1F1F1F1FFFFFFE
:1099D000000000000000000000000000E070381CE3
:1099E0000E0703070E1C3870E000000000000000A6
:1099F000000000000000FFFF000000000000000069
:109A00000000000000000000000000000000070748
:109A100006060606060606060606060606060606E6
:109A200006060606060606060606060606060606D6
:109A300006060606060607070000000000000000F4
:109A40000000000000000000000000000000C0C096
:109A5000C0C0C0C0C0C0C0C0C0C0C0C0C0C0C0C006
:109A6000C0C0C0C0C0C0C0C0C0C0C0C0C0C0C0C0F6
:109A7000C0C0C0C0C0C0C0C00000000000000000E6
:109A8000000000000000000000F0F0F0F0F0FFFF28
:109A900000000000000000000000000000000000C6
:109AA0000000000000000000000000000000FEFEBA
:109AB000FEFEFEFE0000FFFF0000000000000000B0
:109AC0000000000000000000001F1F1F1F1FFFFFFD
:109AD0000000000000000000000000000000000086
