:020000040001F9
:10400000203F0020E1410100F3410100F5410100A2
:1040100000000000000000000000000000000000A0
:10402000000000000000000000000000F741010057
:104030000000000000000000F9410100FB41010008
:10404000FD410100FD410100FD410100FD41010074
:10405000FD41010000000000FD410100DF7501008D
:10406000FD410100FD410100A76B0100FD41010080
:10407000FD410100FD410100FD410100FD41010044
:10408000FD410100A9590100FD410100FD41010070
:10409000E7590100FD410100B7510100FD41010058
:1040A000FD410100FD410100000000000000000092
:1040B0000000000000000000000000000000000000
:1040C00000F002F800F040F80CA030C808382418BE
:1040D0002D18A246671EAB4654465D46AC4201D140
:1040E00000F032F87E460F3E0FCCB6460126334232
:1040F00000D0FB1AA246AB46334318476874000051
:1041000088740000103A02D378C878C1FAD85207F0
:1041100001D330C830C101D504680C60704700007D
:104120000023002400250026103A01D378C1FBD8D3
:10413000520700D330C100D50B6070471FB5C04691
:10414000C0461FBD10B510BD05F08AF91146FFF736
:10415000F5FF00F0EEF905F0A2F903B4FFF7F2FF66
:1041600003BC05F0D5F90000401E00BF00BF00BF32
:1041700000BF00BF00BF00BF00BF00BF00BF00BF47
:1041800000BFF1D170470000401E00BF00BF00BF5C
:1041900000BF00BF00BF00BF00BF00BF00BF00BF27
:1041A00000BFF1D17047000070B505460C461646B9
:1041B00002E00FCC0FC5103E102EFAD2082E02D30B
:1041C00003CC03C5083E042E07D301CC01C5361F1E
:1041D00003E021782970641C6D1C761EF9D270BD35
:1041E0000A4802680F210A430260094880470948CB
:1041F0000047FEE7FEE7FEE7FEE7FEE7FEE700001A
:1042000005480649064A074B704700002405004050
:1042100031420100C1400100202F0020203F00203A
:1042200020370020203700202349224808607047AB
:1042300010B500F01DF8002805D021491F4848603E
:10424000C813204988612048018CC9B201290ED1C8
:10425000818C09070BD1018D0906090F042906D1AC
:10426000808D0006000F02D118490120886010BD22
:104270001548018CC9B2012917D1818C090714D1C5
:10428000018D09060A0F03D1828D1206120F0ED07E
:10429000090F012903D1828D1206120F07D00329BD
:1042A00003D1808D0006000F01D00020704701204F
:1042B000704700000024F40000200020DFFF07C04A
:1042C00000050040006C0040C00F00F000060040F8
:1042D000BFF34F8FDD49DC48C860BFF34F8FFEE767
:1042E000BFF34F8FD949D848C860BFF34F8FFEE75F
:1042F0000EB5694611200872D5490878AA2808D059
:104300000922D4A102A87CDF002807D0D4A2E02192
:1043100015E04A78891C02A87CDFF5E700200090B0
:104320006422694601900A80C8224A808880500031
:10433000C88068467ADF002803D0C9A2EA21FFF7C7
:10434000C7FF0EBD10B5A0B0052118A80177C7485A
:1043500000681E90BE481C38017818A881763C2160
:10436000684604F09CF902200090002168464171E3
:10437000012404811FA803903C210FA804F08FF9A9
:1043800010A804831EA817900FA9684600F05CFDD2
:10439000002804D0FF21B2A20831FFF799FF20B016
:1043A00010BD10B5006800280AD1B1483B214088F3
:1043B00076DF002804D0FF21A9A24C31FFF788FF47
:1043C00010BDFF21A6A25731FFF782FF00B585B0CF
:1043D0001421684604F063F90020694608700190D2
:1043E0000872FF20C3300882A1488088488268464E
:1043F00073DF002804D0FF2199A28531FFF768FF01
:1044000005B000BDF8B59A4D07886B880446142F97
:1044100058D016DC974998480322984E09780078BE
:10442000102F1ED0112F30D0132F2DD12A46083235
:10443000002118467FDF002826D0FF2188A2C33143
:1044400058E0172F37D0192F56D0522F1CD10022E9
:1044500011461846A9DF002816D0FF2180A2C931D5
:1044600048E0874F62233B6001232B70002909D06D
:10447000012807D1834908203260086002F09EFDC0
:1044800002F0B3FDA0886880F8BD00232B700029DE
:1044900009D0012807D17B4908203260086002F06A
:1044A0008DFD02F0A2FD0020C0436880FFF720FFD1
:1044B000FFF748FF27E066483222A11DA03804F02C
:1044C0008FF8F8BD6249E2899A390888904208D18C
:1044D0000022184681DF0028F3D0FF2160A2D531E9
:1044E00008E000221146184681DF0028E9D0FF21AC
:1044F0005BA2DB31FFF7ECFE80790028E1D10120DF
:1045000061498004C860FFF761FFF8BD10B504463B
:1045100000F062FD4E4821461C3800F016F9204696
:10452000FFF770FF10BD10B501F0C0FC10BD0020FA
:104530007047564988B0012088633CDF042077DF4C
:104540000024534B052216212046009401F04FFA17
:10455000002802D042A2C52147E0494964200860F2
:1045600000F057F803F07EF903F046FA03F0BBFDC4
:1045700002F0B6F803F033FC03F0F1FFFFF7B8FEEA
:1045800044480090324869461C3800F00AF9002877
:1045900003D0FF2132A2293127E0FFF7D3FE1C21EF
:1045A000684604F07CF83C4801900120C00302906A
:1045B0000094032168460173C48104743748059050
:1045C00037480690684600F0B2FC002803D0FF216F
:1045D00023A26F3109E000F00AF8FFF7F7FE3DDF94
:1045E0000028FCD011211EA24901FFF771FE2049CD
:1045F0001E2008310880887801221043E1221040F3
:104600000C30DF22104088700720C870102008711D
:1046100070470F4910B5002350226C390E2000F06E
:104620009DFD002802D00EA21E4907E01E4800F0A2
:10463000B2FD002804D01B4909A2091DFFF748FE5E
:104640001A4800F0B0FD10BD0400FA0500ED00E0CE
:1046500000270020536D61727454656D7000000076
:104660002E2E5C6D61696E2E630000008497010040
:1046700004200020E92000207E200020902000203F
:10468000D82000208C20002000050050400500406C
:1046900028210020CD7A0100291C0000A34301003D
:1046A000C34301000E0200000D4501002745010033
:1046B00070B500240546601C90B00007000F08A9E3
:1046C000103008940870601C0007000F103048700C
:1046D0008878F9263040801C88701C2101A803F0DE
:1046E000DEFF694608791021084369460871029483
:1046F00008A80494059407940690287808A988715E
:1047000003206946888411200094087048708878D6
:10471000E7213040801C08400126304369468870FC
:1047200014210AA803F0BBFF09A80A9068460B9061
:1047300069460E8614204C8688862B4668880C3382
:104740000AAA01A9A2DF10B070BD00281ED000295E
:104750001CD00A88102A14D0112A14D0502A15D13E
:10476000891D0A88038A9A4202D10B8B022B0ED034
:1047700083889A420AD18369002B07D00A8B1A31A9
:104780001847898801E00021C94381827047CA7EA9
:104790008B7E11021943C907C90F00D00121817511
:1047A000704730B54A4B0D4604000FCB85B00393DC
:1047B0006B4607C324D0002D22D00020C043A08226
:1047C0002868A0610020A0752146684662DF0028A5
:1047D00014D121786846817401210182A21C04A9A8
:1047E0000120A0DF002809D129462046FFF760FFFD
:1047F000002803D12946204600F02BF805B030BD33
:104800000E20FBE707B584B000280DD0828A314B1B
:104810009A420BD0827D002A08D06A46128B142A55
:1048200006D9072007B000BD0E20FBE70820F9E7F6
:104830000022009201920292039282896B461A80B2
:10484000039106A9029101219970808A6946A6DF29
:10485000E8E770B58EB005461C21684603F01FFFDF
:10486000694608780C2108436946087000240194C1
:104870000394049405940694287808A9887002206B
:1048800069460884601C0007000F10300794087701
:1048900011204877887FF9210840801CE7210840D3
:1048A0000126304369468877142109A803F0F7FEF2
:1048B00008A8099007A80A9069468E851420CC851F
:1048C000088668882B1D09AAA2DF0EB070BD000003
:1048D00088970100FFFF0000F7B584B004460F463B
:1048E00006980678B01C1F2803DC2079801C1F283E
:1048F00002DD0C2007B0F0BD1F20801B801E85B29A
:104900000295B11C781802A97DDF03900398002856
:1049100001D00398EEE72068022808D16846008994
:10492000A84204DC09200190684605890BE00820B4
:1049300001902079002804D02079A84201DC257953
:1049400001E068460589681CC2B23046711CCEB2CF
:104950003A543046721CD6B20199395406980178FF
:10496000A81C0818C1B2069801700020C2E7F8B56B
:1049700005460C462078001D1F2801DD0C20F8BDDF
:10498000684679DF0646002E01D03046F7E703215E
:104990002278501C2070A95419212278501C2070B4
:1049A000A954207841196846008800F08AFA2178D5
:1049B000401820700020E2E7F8B505460F4616467D
:1049C0001C466868002801D10720F8BD2078801CAB
:1049D000298840181F2801DD0C20F6E72878401CA4
:1049E000C1B22278501C2070B1542178481C20702C
:1049F00077542A8823789819696803F0F1FD2078A4
:104A00002978401820700020DFE730B50346107881
:104A1000C01C1F2801DD0C2030BD02241578681C45
:104A200010704C550A241578681C10704C55157878
:104A3000681C10704B550020EEE7FFB587B00646A6
:104A40001D46109C0020069020780590002747E026
:104A5000B900706841180A88684602814988418116
:104A6000002203A902A864DF04900498002802D061
:104A700004980BB0F0BD6846017B099881422ED1A5
:104A80000698002801D0002000E002200190207844
:104A90006946097B4118019808181F2801DD0C2080
:104AA000E7E70698002809D12078401C207022787A
:104AB000511C08982170A8540120069020784219B2
:104AC00003A902A864DF04900498002801D0049888
:104AD000CFE720786946097B4018207000BF7F1C13
:104AE0003088B842B4DC0698002806D021780598B2
:104AF000401C081AC1B2059829540020B9E7FFB537
:104B000081B0074615460A9E009602223846049B4D
:104B10000299FFF792FF0446002C02D0204605B010
:104B2000F0BD0096102229463846049BFFF785FF0A
:104B30000446002C01D02046F1E70020EFE70146B3
:104B40000888062808DB08881922D201904205DD72
:104B50000888E04A904201D007207047488806281C
:104B600008DB48881922D201904205DD4888D94ADD
:104B7000904201D00720F0E70888D64A904208D03A
:104B80004888904205D008884A88904201DD072075
:104B9000E3E70020E1E7F8B506460D461446207825
:104BA000801D1F2801D90C20F8BD3046FFF7C7FF34
:104BB0000746002F01D03846F6E705212278501C21
:104BC0002070A95412212278501C2070A9542278F8
:104BD0005119308800F075F921784018207022783A
:104BE0005119708800F06DF921784018207000206C
:104BF000DAE7F8B505460E4614462879801CC7B298
:104C00002078801CC0191F2801DD0C20F8BD781CFD
:104C1000C1B22278501C2070B154FF212278501C60
:104C20002070B15422789119288800F04AF921782F
:104C300040182070A88800280EDDA868002801D13F
:104C40000720E3E7AA8823789819A96803F0C8FC2D
:104C500020782979401820700020D7E7FEB5074654
:104C60000E461446786B002801D10720FEBD0020B7
:104C7000019032E0796B0C22019850430D1828798D
:104C8000801CC0B200900098401CC1B22278501C19
:104C90002070B15416212278501C2070B154227813
:104CA0009119288800F00DF9217840182070A88803
:104CB00000280EDDA868002801D10720D6E7AA88C1
:104CC00023789819A96803F08BFC2078297940187B
:104CD00020700198401CC0B201903820C15D01983D
:104CE0008142C7DC0020C1E7F8B504460F461646EE
:104CF0000025002030702068002809D0324639464F
:104D00002046FFF7E9FD0546002D01D02846F8BDF5
:104D10006079002808D031463846FFF728FE05465E
:104D2000002D01D02846F2E7208900280BDD33460C
:104D30003A46012120460830FFF73EFE0546002D89
:104D400001D02846E3E7206900280BD00020216924
:104D5000085632463946FFF758FE0546002D01D069
:104D60002846D4E7A08A00280CDD3B460622022113
:104D7000204614300096FFF7C2FE0546002D01D0F4
:104D80002846C4E7A08B00280CDD3B460722032100
:104D900020461C300096FFF7B2FE0546002D01D0DC
:104DA0002846B4E7A08C00280CDD3B4615221421D0
:104DB000204624300096FFF7A2FE0546002D01D0C4
:104DC0002846A4E7E06A002809D032463946E06A5E
:104DD000FFF7E1FE0546002D01D0284697E7206B3E
:104DE000002809D032463946206BFFF702FF0546FE
:104DF000002D01D028468AE73820005D002809DD13
:104E0000324639462046FFF729FF0546002D01D0DE
:104E100028467CE728467AE701460889002807D01B
:104E2000C868002804D0C86800780422104201D164
:104E3000072070470020FCE701460889002801DDB3
:104E4000072070470020FCE7F3B593B00D46002122
:104E5000129111911398002814D01398FFF7DCFFDA
:104E60000446002C02D0204615B0F0BD12AA09A9B4
:104E70001398FFF739FF0446002C01D02046F3E7D2
:104E800009AE00E00026002D13D02846FFF7D4FF1E
:104E90000446002C01D02046E6E711AA01A92846C5
:104EA000FFF722FF0446002C01D02046DCE701AFCB
:104EB00000E0002710A803793A46017A304672DFF5
:104EC000D2E702460A70FF2000021040001248702C
:104ED00002207047FFFF000038B57A497A4A4888B7
:104EE00090420FD04A78794C521CD2B24A70237B40
:104EF000934208D3083175DF002803D0A169002947
:104F000000D0884738BD00254D70217C002907D08E
:104F10003B2176DF002803D0A169002900D0884713
:104F200061690029EED068460095884738BD70B5A4
:104F3000054601461C226548FFF736F9614C0026FC
:104F400026702968002907D00822A01803F048FB22
:104F5000204608307ADF02E05A4808307BDF00281C
:104F600008D1401E608057486670594A0021001DD4
:104F700000F0BBFD70BD10B55248406800F02DFE3A
:104F800010BDF8B54F48103000F08EF800264D4D9A
:104F90004E4C002806D06169002919D001200090EC
:104FA000684614E02878002804D0616900290FD0F1
:104FB0000096F5E7687800280CD0A16800226868A0
:104FC00000F0DAFD002803D0A169002900D088474D
:104FD0002E70F8BD6168F1E7F8B53C4C02880027F7
:104FE000384DE689102A18D029464968112A21D05F
:104FF000122A2DD0502A0FD1801D0288B2420BD127
:10500000028B022A08D1C27E837E10021843C00799
:10501000C00F13D0FFF7B5FFF8BD81886980014646
:10502000284808220E31103003F0DAFA6F70002E93
:10503000F0D0F8BD0020C04368806F70084600F0D3
:10504000CCFD0028F5D0A1690029F2D08847F8BD31
:10505000811D1C480822103003F0C2FADAE7F8B5C7
:10506000014618480822083003F0BAFA15480830FB
:105070007ADF04000DD11348103000F015F8012537
:10508000002808D011484169002902D068460095DF
:1050900088472046F8BD0B4E357031460831708880
:1050A00075DF04467570F4E74188064808300288C9
:1050B000914204D34088814201D8012070470020EA
:1050C000704700001C200020FFFF00001427002074
:1050D000D94E010010B508461146FFF701F910BD81
:1050E000F8B53D4C2078002837D02069002807D03B
:1050F0000026E068002805D00025002E04D013E02B
:105100000126F6E70125F8E768464EDF052806D0B8
:10511000002806D031A26921FFF7DAF804E0012661
:1051200002E0216900988847002D12D16088694605
:105130000880A06860DF052806D0002806D027A2D6
:105140008021FFF7C5F804E0012502E0E168A068CE
:105150008847002ED8D0002DCFD0F8BD70B50029DB
:1051600001D08C0701D0072070BD1B4C0125A16028
:1051700062802849636010DF0028F5D12570162071
:1051800023DF70BD11DF002801D0012100E00021E4
:10519000114A11707047002803D00F49C8600020E1
:1051A00070470E207047002803D00B49086100208B
:1051B00070470E20704710B507484068002808D097
:1051C0008047002804D0FF2104A23331FFF780F884
:1051D00010BDFFF785FF10BD342000202E2E5C2E61
:1051E0002E5C2E2E5C2E2E5C2E2E5C2E2E5C536F93
:1051F000757263655C73645F636F6D6D6F6E5C7316
:105200006F66746465766963655F68616E646C651A
:10521000722E6300D550010010B5002819DAFE4A3D
:1052200003071B0F083B9B089B00D2588307DC0E2B
:10523000FF23A3409A438B071B0E8407E40EA34071
:105240001A43F54B0407240F083CA408A4001A5184
:1052500018E0F24A03231B02D21883089B00D2589D
:105260008307DC0EFF23A3409A438B071B0E8407A2
:10527000E40EA3401A43E94B032424021B198408BB
:10528000A4001A5110BD10B50446E54884600321FE
:105290001120FFF7C1FF10BD10B501200004E14946
:1052A0004860E04940394860112000F0E1FC1120DD
:1052B00000F0D0FC0120DC4908602F20FEF754FFED
:1052C00010BD10B5112001218140D44A80321160F7
:1052D00000BF01200004D3498860D249403988606A
:1052E0000120D14948602F20FEF73EFF10BDF0B5E8
:1052F000024628205043CD4B1B68C118CC4800689B
:10530000401C02D1CA48026057E0C9488B68006857
:1053100028246043C54C246800198068834217D84C
:10532000C348006828235843C04B1B68C0188068D6
:105330008B68C31ABE48006828246043BB4C2468AD
:1053400000198360BA4800684862B948026034E0D6
:105350008B68B74D2C6828680DE028254543B34E6F
:105360003668AD19AD685B1B044628254543AF4E32
:105370003668AD19686A451C07D028254543AB4EF1
:105380003668AD19AD689D42E7D3451C0CD0282581
:105390004543A64E3668AD19AD68EE1A282545433B
:1053A000A24F3F68ED19AE608B60486228256543C7
:1053B0009E4E3668AD196A6200BFF0BD70B50246F8
:1053C0009B4C2168084609E0904200D108E0014664
:1053D00028244443954D2D686419606A441CF3D118
:1053E00000BF441C00D170BD814209D1904C24689B
:1053F00028256C438D4D2D686419646A8C4D2C6092
:1054000028244443894D2D686419A3682824444303
:10541000864D2D686419656A28244C43834E36688E
:10542000A419656228244C43804D2D686419606A74
:10543000441C0CD0282444437C4D2D686419A46876
:10544000E51828244443794E3668A419A56000BFA6
:10545000C9E710B5112000F004FC10BD10B51420F0
:1054600000F0FFFB10BD70B50446724800680028CC
:1054700013D0704A216AE06912689047054600BF60
:105480002E46002E07D000BF6BA2FF2158313046B8
:10549000FEF71EFF00BF00BF02E0E169206A8847F7
:1054A00070BDF8B562480068401C39D0002700F094
:1054B00011FC04466C480168204600F00EFC0646CC
:1054C0005B48056811E0282068435849096844187A
:1054D000A068B04200D90AE0A068361AA068C719CF
:1054E000656A2046FFF7BFFF00BF681CEBD100BF15
:1054F0005E4800785E490978884209D15C480078A6
:10550000401CC0B25A490870022801D1002008701E
:1055100057480078800057490F50FFF79FFF00BFA2
:10552000F8BD014651480078514A127890421DD08A
:105530004E480078401C4D4A1070104600780228F2
:1055400001D100201070494800788000494A105865
:105550000860454A086812688018434A106010467F
:1055600000680002000A10600120704700200860F7
:1055700000BFFAE7FEB52E48006801903E4800786B
:1055800000903FE00098C0003C4909684418257825
:1055900034E01820684361680F18681CC5B2A07811
:1055A000A84200D100253868022802D0032822D161
:1055B0000EE02821786848431C4909684618307E67
:1055C000002804D07868FFF7F9FE0020307613E059
:1055D0000CE01749096828225143144A12688818B8
:1055E00000210176124A416A116000BF104800682C
:1055F000401CEED100E000BF00BF00BF6078A842B1
:10560000C7D100BF0098411EC9B200910028B9D18E
:1056100007480168019833E01CED00E000E100E07C
:1056200000150140401301400010014048200020B7
:10563000582000206C2000202E2E5C2E2E5C2E2E5A
:105640005C2E2E5C2E2E5C2E2E5C536F7572636565
:105650005C6170705F636F6D6D6F6E5C6170705FC9
:1056600074696D65722E63005C2000206820002044
:1056700069200020602000205120002054200020BC
:10568000814201D00120FEBD0020FCE7F0B50346B9
:10569000002426E0FE4E366828277E43FD4F3F68F3
:1056A000F01986689E4203D98668F61A86601CE067
:1056B00086689B1B86683419002686600676F44E41
:1056C0003568F34F466A3E604669002E08D00E19D1
:1056D0003602360AC660466906611668466215607B
:1056E00000BFEB480068401CD4D100BFF0BDFEB540
:1056F0000746E74800680290E7480078019069E0B3
:105700000198C000E549096845185CE0781C07D09D
:105710003E4628207043DF4909684418676A23E041
:105720002978182359436A6850182978491C297028
:105730002978AA78914201D1002129704668282150
:105740007143D44A12688C180168012902D1217E64
:10575000002900D037E08168E160C16821610169FA
:1057600061614169216200BFCD49E0680968401A62
:105770000002000ACB49884208D2C949E06809689A
:1057800000F0ABFA21694018A06011E0C448E1685C
:10579000006800F0A2FA009021690098814204D9C3
:1057A00021690098081AA06001E00020A06000BFF5
:1057B0000020E060206101202076801E606230467B
:1057C000FFF795FD00BF781CA0D128786978884242
:1057D0009CD100BF0198411EC9B2019100288FD110
:1057E000AB4801680298814201D00120FEBD002033
:1057F000FCE7FEB50546A6480068401C34D0A44826
:10580000006828214843A34909684018866800F0C9
:1058100061FA0290A24804682146029800F05DFAFD
:10582000C01C0190681C01D1FFF736FD0198B04201
:1058300001D2304600E0019804192402240A2046CF
:105840009949086000BF00F045FA0090029900985D
:1058500000F043FAC71C2046029900F03EFA874246
:1058600001D9FFF7F6FD01E0FFF72BFDFEBDFEB508
:105870000020C04301908A4804688548076868464C
:10588000FFF74FFE0546FFF775FE0646002D05D0D3
:1058900001AA21460098FFF7F9FE01260198FFF7BB
:1058A00026FF002800D00126002E02D03846FFF740
:1058B000A0FFFEBD4170704770B502460B465078A0
:1058C000411C9078884200D100211078884201D193
:1058D000002070BD196050781826704355682C1848
:1058E0002046F6E7FFB581B005460E461746E900AB
:1058F0006A4A126888186946FFF7DEFF0446002CE2
:1059000002D1042005B0F0BD01202060666000F0E7
:10591000E1F9A060E760049820610A986061E900FD
:105920005E4A126888180099FFF7C4FFFFF796FDDA
:105930000020E7E7F8B504460E46E100574A126832
:1059400088186946FFF7B8FF0546002D01D10420ED
:10595000F8BD022028606E60E100504A1268881885
:105960000099FFF7A7FFFFF779FD0020F0E738B5B2
:105970000446E100494A126888186946FFF79CFF0F
:105980000546002D01D1042038BD03202860001FEA
:105990006860E100414A126888180099FFF78AFFA1
:1059A000FFF75CFD0020EFE710B500203F490860DD
:1059B00000213E4841608160C16000203B49403980
:1059C000086048603A480068401C39490860084649
:1059D000006803210902884202D10020344908608E
:1059E000FFF75FFD10BD10B5FFF741FF10BDFFB51C
:1059F00081B00E4617461C4620468107890F01D10B
:105A0000012100E00021002902D1072005B0F0BDEE
:105A1000002C01D10720F9E7FFF753FC25490A982C
:105A20000860254806701B48046000250CE0002132
:105A300028206843174A1268115028206843154AE5
:105A40001268801801766D1CB542F0DB2820704387
:105A50000419032010490870104804601834002508
:105A60000CE0E9000D4A12688818002101704170AD
:105A700087704460182179430C196D1C032DF0DBED
:105A80000020C0430249086000200C49087017E05C
:105A900058200020482000205120002054200020C1
:105AA0005C200020FFFF7F004015014040110140B5
:105AB0004C2000206C200020502000206820002076
:105AC00088490870142000F0D3F803211420FFF750
:105AD000A3FB142000F0BEF80198FFF7D4FB00F000
:105AE000F9F881490860002090E770B503460C463C
:105AF0007E480068002801D1082070BD002A01D12D
:105B00000720FAE7002B01D10720F6E700211CE06F
:105B100028204843754D2D682858002814D10125A8
:105B200028204843714E36683550282048436F4D31
:105B30002D6840194460282048436C4D2D68401959
:105B4000C26119600020D8E7491C69480078814289
:105B5000DEDB0420D1E710B500F092F8012802D076
:105B6000032804D101E0002403E0012401E0022421
:105B700000BF00BF204610BDFEB504460D461646C8
:105B80005A480068002801D10820FEBD5848007816
:105B9000844201D2052D01D20720F6E72820604378
:105BA000524909680858012801D00820EDE728204B
:105BB00060434E49096840184068012801D12846D1
:105BC00000E000200746FFF7C6FF3B462A46214675
:105BD00000960190FFF786FED7E770B5044643486C
:105BE0000068002801D1082070BD41480078844237
:105BF00001D30720F8E7282060433C49096808588A
:105C0000012801D00820EFE7FFF7A5FF0546214650
:105C1000FFF790FEE8E710B534480068002801D18E
:105C2000082010BDFFF797FF0446FFF7A0FEF8E736
:105C300010B5044600F04EF82060002010BD70B58D
:105C400005460E4614463146284600F046F82060C8
:105C5000002070BDC206D20E01219140254A11607C
:105C60007047C206D20E01219140234A116070474D
:105C7000C206D20E012191401F4A80321160704746
:105C800010B51E484068C105C90D002920D00A463C
:105C9000103A104600280DDA184B1C330407240F65
:105CA000083CA408A4001B598407E40EE3401B062B
:105CB0009B0F0BE00F4B032424021B198408A40044
:105CC0001B598407E40EE3401B069B0FD8B210BD9E
:105CD0000420FCE70A48406870470246501A000258
:105CE000000A7047692000205C2000204820002026
:105CF0005020002000E100E000E200E000ED00E0C4
:105D00000015014010B501788A070179920F490703
:105D1000C90E806811438207540E0C438103890F1A
:105D200003D00321090408400443002000F018F8C0
:105D300012494868FF22120210402043486010BDFB
:105D400010B500F00DF80E4A012111600D48002336
:105D50000468002CFCD0036008488068516010BDC6
:105D600010B5064902024B68FF242402A3431A43DC
:105D70004A60002800D00120086010BD0075004076
:105D8000007000400071004014225043F74A002187
:105D900080180171C1800A220161C26041610181E4
:105DA000704770B5F14E14223078F14C504382198F
:105DB000121D13780F21A588D068042B02D0022B66
:105DC0000DD024E001210907096989B202F069FCBC
:105DD000401950DF01001AD1A088401C14E011695D
:105DE0009388528840194919521B01251818AD0291
:105DF000AA4202D2920851DF02E0FF22013251DFB3
:105E0000010004D1A0884019A0800120B07008468C
:105E100070BDF8B5D54C0546A7782646042076789F
:105E2000002F01D1002E17D01E2E28D020788019E7
:105E3000C0B21E2801D31E38C0B214267043001908
:105E40000571426106C90261C160C3800699018182
:105E50006078401C607011E0002020702571626144
:105E600003C92161E060E380069820810120607011
:105E7000FFF797FF002801D0112800D10020F8BDBE
:105E800038B50246B94814230178BA4C594308186A
:105E9000C36801791B01E458042905D0C388009325
:105EA00043690C30A04738BD0023F8E710B5AF496F
:105EB00002468B780020012B1CD100238B70022A14
:105EC00003D0032A16D10D2012E00A7814235A4376
:105ED0005118091D0A78042A04D1A54A49889288D4
:105EE000914201D8FFF7CCFF00F057F9002801D00C
:105EF000FFF7C6FF10BD70B500249D4D9B48AC80D8
:105F000004704470847026463046FFF73DFF761CCF
:105F10001E2EF9D30F206C804003A8609549AC80F9
:105F2000002002018C50521814819481401C54812D
:105F30000A28F6D301202870002070BDF0B58C4DE2
:105F40002A78002A20D0002820D000291ED00268FC
:105F5000002A1BD00122120783881469A4B2A3422D
:105F600010D8202B0ED3C488002C0BD05C43AB6818
:105F7000E61814690A27A4B27C430F277F03E419AB
:105F8000A64205D90720F0BD0820F0BD0E20F0BDC7
:105F90006C880A2C19D0774D0C6026014B60711962
:105FA0004B600768AF5185880D81C5884D81858814
:105FB000C08800264543761C1069B6B280B2A8425C
:105FC00005D2106980B22D1A02E00420F0BD002530
:105FD000106980B2C318106980B2A842EBD9644836
:105FE000641C83608E8144800020F0BD70B5604BDE
:105FF0001B78002B18D0002818D0002A16D0036870
:106000000A2B0FD25B4C1E01A559002D0AD0456802
:106010003019048961436918458940686543281827
:10602000884205D8072070BD082070BD0E2070BDC5
:1060300013600020516070BDF8B505464C481F46FE
:10604000007814460E4600281DD0002E1DD0002DCD
:106050001BD028680A2814D2010146484258002A59
:106060000FD009184A8908894968424351186A685B
:10607000914206D9002C04D0A04202D3E1198142FA
:1060800005D90720F8BD0820F8BD0E20F8BD304620
:1060900000F07DF800280CD0F01900F078F8002806
:1060A00007D023463246294602200097FFF7B1FE6B
:1060B000F8BD1020F8BDF8B507462D481D460078FC
:1060C00016460C4600281DD0002C1DD0002F1BD0DA
:1060D00020680A2814D2274900010A58002A0FD044
:1060E00041184A89088949684243511862689142B7
:1060F00006D9002E04D0B04202D37119814205D9CD
:106100000720F8BD0820F8BD0E20F8BD384600F085
:106110003EF800280CD0781900F039F8002807D094
:10612000606832464119384602F05AFA0020F8BD3C
:106130001020F8BD08B50E490978002914D00028B0
:106140001AD001680A290DD20A4A09015358002BB6
:1061500008D089184A890B895A434B68D21843687A
:106160009A420BD8072008BD082008BD3027002020
:10617000702000208C2900200E20F6E78B8900215A
:106180000A46009101460420FFF743FEEDE7800731
:1061900001D0002070470120704770B5104D1421C8
:1061A0002878104C41434919C988A288914209D8DE
:1061B000FFF7EAFD0020A0806878401E687028780C
:1061C000401C287068780024002807D0FFF7E9FDFC
:1061D000040003D0112C01D0FFF752FE204670BD01
:1061E00030270020702000208307FF22DB0E9A401A
:1061F0008907090E994000280BDA0007000F0838BC
:106200008308FB489B001B18D86990430843D8615A
:1062100070478308F7489B001B1818689043084391
:106220001860704710B50B2001F042F900BF0C2038
:1062300001F039F900BF00BF0B2001F034F910BDA7
:1062400010B503210B2001F028F9EB480069000587
:10625000C40F0B2001F01BF9204610BD70B5E74CB0
:106260000025E070C0B2C009C0012071802824D090
:106270000B2001F01DF900BF0C2001F014F900BF44
:1062800000BF0C2001F014F9E0786D1C4000EDB265
:10629000E070082DE6D30B2001F005F900BF00BF28
:1062A0000C2001F000F900BF00BFFFF7C9FF044652
:1062B0000C2001F0FDF8204670BD0B2001F0F3F832
:1062C000D9E710B50B2001F0EEF80C2001F0EBF847
:1062D00000BF0B2001F0ECF800BF00BF0C2001F064
:1062E000E7F810BD10B50446FFF7EBFF7820FFF785
:1062F000B5FF4020FFF7B2FF2046FFF7AFFFFFF7E3
:1063000091FF10BD10B50446FFF7DBFF7820FFF7C3
:10631000A5FF0020FFF7A2FF2046FFF79FFFFFF732
:1063200081FF10BDF8B5B64E00242046B030C0B293
:10633000FFF7E8FF0020FFF7E5FF1220FFF7E2FF7D
:1063400020466021002548438719785DFFF7CAFF82
:106350006D1C602DF9D3641C042CE6D3F8BD30B558
:10636000A74C0021602300224B431B1905789D5444
:10637000521C401CD2B2402AF8D3491CC9B204298D
:10638000F0D330BD10B59F48FFF7E9FFFFF7CAFF14
:1063900010BD10B59C48FFF7E2FFFFF7C3FF10BD2B
:1063A00010B59A48FFF7DBFFFFF7BCFF10BD10B533
:1063B0009748FFF7D4FFFFF7B5FF10BD10B595481C
:1063C000FFF7CDFFFFF7AEFF10BDCA08602310B581
:1063D0005A438B4B4C07D218135C640F0121A14028
:1063E0008B43135410BDCA08602310B55A43844B25
:1063F0004C07D3181A5C640F0121A1400A431A54B8
:1064000010BDF7B5844990010C18002620786178FA
:10641000000247180198A41C0025801984463804FE
:10642000604606D5C1B200984019C0B2FFF7DBFF45
:1064300005E0C1B200984019C0B2FFF7C6FF6D1C5D
:106440007F00EDB2102DEAD3761CF6B2202EDDD3FC
:10645000FEBD70B5642102F024F90C46C5B2204699
:106460000A2102F01EF9064620460A2102F019F917
:106470000C462A4602210020FFF7C3FF32460221C4
:106480000F20FFF7BEFF0A2202211E20FFF7B9FFEF
:10649000224602212220FFF7B4FF0C2200213120E6
:1064A000FFF7AFFFFFF73EFF70BD70B5642102F04C
:1064B000F8F80C46C5B220460A2102F0F2F806466A
:1064C00020460A2102F0EDF80C462A46022100205F
:1064D000FFF797FF324602210F20FFF792FF0A22B3
:1064E00002211E20FFF78DFF224602212220FFF706
:1064F00088FF0B2200213120FFF783FFFFF712FFF7
:1065000070BD70B5002806D001282CD0022801D11A
:10651000FFF74DFF70BDFF20A530404C404D414E70
:10652000814208D20846FF384238632803D3FF204F
:1065300041308142EED8002A11D0012AEAD1084622
:1065400002F0B7FD22462B4602F0B6FD002233468C
:1065500002F00FFB02F060FDFFF77BFF70BD084605
:10656000FFF7A3FF70BDFFF729FF70BD10B50D2029
:1065700000F09EFF0B2000F09BFF0C2000F098FF26
:10658000072000F095FF10BD10B51C4CA078012825
:1065900014D1204621694069002910D0491E21618B
:1065A000012816D0204A214912780968022815D0FE
:1065B000032815D0042801D1FFF7F2FE10BD65288D
:1065C00002D0FFF7D3FF10BD0320606104202061DB
:1065D00010BDFFF7E5FE6520606110BD002004E0FE
:1065E00013480078002825D00220FFF78AFF10BD4D
:1065F00000ED00E000E400E0000500507C200020F9
:106600002C2A002098AF010098B0010098AE01003C
:10661000A0A40100A0A3010098B10100CDCCCCCC76
:10662000CCCCFC3F00007440F8200020B8200020B3
:10663000042000200120D8E710B5F84A0121F848CD
:10664000FFF753FA002803D0F6A2F949FDF740FE00
:10665000F34800221C38F749C069FFF78DFA00287B
:1066600004D0F349EFA2891CFDF732FE10BD10B52E
:10667000EA4A0121EA48FFF738FA002804D0292124
:10668000E8A24901FDF724FEE54801211C3800225B
:106690004903C069FFF770FA002804D0E449E1A279
:1066A0000B31FDF715FE10BD10B5E3480021416028
:1066B0000B2202618160E04A822040321060DF4A92
:1066C00001201060DE4A00045060DE4801600A20AC
:1066D000FFF78AFD0120DC498002086062B610BD28
:1066E000CF4810B51C388178002916D0012181705F
:1066F0000C2000F0CCFE0B2000F0C9FE0D2000F0B5
:10670000C6FE072000F0C3FE0B2000F0CCFE0C20DC
:1067100000F0C9FEFFF7ABFF10BD132000F0B7FE7D
:10672000132000F0C0FE122000F0B1FE122000F095
:10673000BAFE112000F0ABFE112000F0B4FE1020D4
:1067400000F0A5FE102000F0AEFE0F2000F09FFE2E
:106750000F2000F0ADFE0E2000F099FE0E2000F09C
:10676000A7FE0D2000F093FE0D2000F0A1FE0C20EE
:1067700000F08DFE0C2000F09BFE0B2000F087FE49
:106780000B2000F095FE0A2000F081FE0A2000F0A8
:106790008FFE092000F07BFE092000F089FE082012
:1067A00000F075FE082000F083FEFFF77DFF10BDAE
:1067B000F0B59B499A4C11390B784A7808258978AD
:1067C000113CE4788C462B432A4329432C43002870
:1067D00028D0934FF725113F3E78FF782E402F4069
:1067E00001282AD0022833D003283CD0042844D0E2
:1067F0008B4DF726113D6D783540052847D006288A
:1068000050D0072859D0082861D009281FD18448C2
:106810001138C470FB242140817004210B430370A4
:106820000A4313E07E481138C47004242143817068
:106830002343FB2103700A4008E07948FB23113809
:106840001940C7701E40817006701A404270F0BD3A
:10685000734861461138C470294004242143817073
:10686000FB210B403AE06E481138C470FB242140F4
:106870008170234003700421D2E76948FB2311385B
:10688000C7701940817004210E430670C8E7644840
:10689000FB221138C4701140817004210B43037036
:1068A0000D4308E05E48042211381143C4701343BD
:1068B0008170037015434570F0BD5948FB241138B1
:1068C0002140C7702340817003702240BEE75448C6
:1068D0001138C47004242143817023430370224380
:1068E000B4E7F0B54E494E4C11390B784A78022581
:1068F0008978113CE4788C462B432A4329432C4366
:10690000002827D0464FFD26113F3D78FF783540BF
:106910003740012827D0022832D003283CD0042851
:1069200047D03F4D113D6D78354005284BD00628A6
:1069300054D007285DD0082865D009281FD13848D1
:1069400049081138C4704900817001210B4303705C
:106950000A432CE032481138C4700124214381706D
:106960002343037008E02E4849081138C7704900D6
:1069700081706908490044E0510849004170F0BD48
:10698000274861461138C470314001242143817089
:106990005908490001703EE0214849081138C47087
:1069A000490081705908490001700121D0E7427007
:1069B000F0BD1B4849081138C7704900817001219A
:1069C0000D430570C4E7164849081138C4704900E2
:1069D000817001210B4303700D4308E01048012230
:1069E00011381143C470134381700370154345700F
:1069F000F0BD0B4849081138C7704900817059082B
:106A000049000170B8E706481138C47001242143D9
:106A10008170234303702243C9E7000089650100A8
:106A2000982000202E2E5C4C43442E630000000072
:106A300017050000CD0C000000A5004000A000409C
:106A400000A3004040A1004000E100E0F0B5FF4994
:106A500020250B784A78FD4C8978E4788C462B43C6
:106A60002A4329432C43002825D0F84FDF253E78C0
:106A7000FF782E402F40012827D002282FD003284E
:106A800037D004283ED0F14DDF266D7835400528FB
:106A900041D0062849D0072851D0082858D00928C5
:106AA0001CD1EA48C470EF242140817010210B43AF
:106AB00003700A4311E0E548C4701024214381703B
:106AC0002343EF2103700A4007E0EF23DF4819401A
:106AD000C7701E40817006701A404270F0BDDB48DE
:106AE0006146C4702940102421438170EF210B407E
:106AF00034E0D648C470EF242140817023400370F5
:106B00001021D6E7D148EF23C770194081701021BA
:106B10000E430670CDE7CD48EF22C470114081705E
:106B200010210B4303700D4307E01022C7481143A7
:106B3000C47013438170037015434570F0BDEF249A
:106B4000C2482140C7702340817003702240C4E7CF
:106B5000BE48C47010242143817023430370224334
:106B6000BBE710B5BA48012141601E210161032134
:106B70008160B749002040310860B6490860B649D5
:106B80004860B649086001460A20FFF72DFB012046
:106B9000B3498002086010BDB04900200860AD49CB
:106BA0000120C8607047F8B50024AC482146046055
:106BB000A84A0120D060AB48A44F00780B3F0028C2
:106BC0007DD03878A14E401CC0B2A74D387008283F
:106BD00001D9397010E000280ED0012832D00228E7
:106BE00056D003286CD004286BD005286AD006281C
:106BF00069D0072868D08FE1132000F048FC1320EB
:106C000000F051FC0021122000F047FC002111206F
:106C100000F043FC0021102000F03FFC3678F00724
:106C2000285D05D000F033FC285D00F041FC04E055
:106C300000F02DFC285D00F036FC7608641C082C62
:106C4000EDD369E1132000F022FC132000F030FCAA
:106C50000021122000F021FC0021112000F01DFC79
:106C60000021102000F019FC3678F007285D05D0CF
:106C700000F00DFC285D00F016FC04E000F007FCBD
:106C8000285D00F015FC7608641C082CEDD343E168
:106C90000021132000F001FC122000F0F8FB12206C
:106CA00000F001FC0021112000F0F7FB0021102072
:106CB00000F0F3FB7678F007285D0CD005E0E3E008
:106CC00013E038E05DE082E0A7E000F0E0FB285D43
:106CD00000F0EEFB04E000F0DAFB285D00F0E3FBDF
:106CE0007608641C082CE6D316E10021132000F07E
:106CF000D4FB122000F0CBFB122000F0D9FB0021C6
:106D0000112000F0CAFB0021102000F0C6FB7678AD
:106D1000F007285D05D000F0BAFB285D00F0C3FB4A
:106D200004E000F0B4FB285D00F0C2FB7608641CB0
:106D3000082CEDD3F0E00021132000F0AEFB002181
:106D4000122000F0AAFB112000F0A1FB112000F09E
:106D5000AAFB0021102000F0A0FBB678F007285D08
:106D600005D000F094FB285D00F0A2FB04E000F0E9
:106D70008EFB285D00F097FB7608641C082CEDD391
:106D8000CAE00021132000F088FB0021122000F04F
:106D900084FB112000F07BFB112000F089FB002117
:106DA000102000F07AFBB678F007285D05D000F0DF
:106DB0006EFB285D00F077FB04E000F068FB285DC7
:106DC00000F076FB7608641C082CEDD3A4E00021CB
:106DD000132000F062FB0021122000F05EFB002176
:106DE000112000F05AFB102000F051FB102000F0A1
:106DF0005AFBF678F007285D05D000F048FB285DC7
:106E000000F056FB04E000F042FB285D00F04BFB75
:106E10007608641C082CEDD37EE00021132000F0DE
:106E20003CFB0021122000F038FB0021112000F073
:106E300034FB102000F02BFB102000F039FBF6781B
:106E4000F007285D16D000F022FB0FE0872000201D
:106E500000A5004000A0004000A3004040A1004069
:106E600080E100E0E920002098970100285D00F013
:106E70001AFB04E000F00BFB285D00F019FB76081C
:106E8000641C082CDCD347E0132000F000FB132027
:106E900000F00EFB122000F0FAFA122000F008FBBE
:106EA000112000F0F4FA112000F002FB102000F095
:106EB000EEFA102000F0FCFA0F2000F0E8FA0F20A4
:106EC00000F0F6FA0E2000F0E2FA0E2000F0F0FAE0
:106ED0000D2000F0DCFA0D2000F0EAFA0C2000F0A2
:106EE000D6FA0C2000F0E4FA0B2000F0D0FA0B20C8
:106EF00000F0DEFA0A2000F0CAFA0A2000F0D8FA00
:106F0000092000F0C4FA092000F0D2FA082000F0AD
:106F1000BEFA082000F0CCFAB869002849D1132045
:106F200000F0B5FA132000F0C3FA122000F0AFFA17
:106F3000122000F0BDFA112000F0A9FA112000F093
:106F4000B7FA102000F0A3FA102000F0B1FA0F20D9
:106F500000F09DFA0F2000F0ABFA0E2000F097FA37
:106F60000E2000F0A5FA0D2000F091FA0D2000F09F
:106F70009FFA0C2000F08BFA0C2000F099FA0B20FD
:106F800000F085FA0B2000F093FA0A2000F07FFA57
:106F90000A2000F08DFA092000F079FA092000F0AB
:106FA00087FA082000F073FA082000F081FAFFF752
:106FB000D8FDF8BD7047401EFDD2704710B5FFF7F1
:106FC0008FFB072000F06FFAF948401EFDD20D201C
:106FD00000F06EFAF748401EFDD20D2000F063FA73
:106FE000F348401E401EFDD210BD10B5AE20FFF785
:106FF00089F9D520FFF786F9D120FFF783F9A8207A
:10700000FFF780F91F20FFF77DF9D320FFF77AF90A
:107010000020FFF777F94020FFF774F98D20FFF784
:1070200071F91420FFF76EF9A120FFF76BF9C82062
:10703000FFF768F9DA20FFF765F91220FFF762F928
:107040008120FFF75FF9CF20FFF75CF9D920FFF728
:1070500059F9F120FFF756F9DB20FFF753F94020EB
:10706000FFF750F9A420FFF74DF9A620FFF74AF9E2
:10707000AF20FFF747F910BDF7B51001FF38FF3813
:107080000238CD4980B20F1800253E7801987F1C48
:107090000024401984463006604606D5C1B20098E7
:1070A0000019C0B2FFF79FF905E0C1B200980019BE
:1070B000C0B2FFF78AF97004641C060CE4B2082C15
:1070C000E9D36D1CEDB2102DDFD3FEBD70B50E46B9
:1070D0000546144606E031462846FFF7CDFF641CFE
:1070E0000835EDB22278002AF5D170BDFFB581B028
:1070F000019800255E1A8C46171A11E001980024A9
:107100004019009008E060460019C1B20098C0B272
:10711000FFF75BF9641CE4B2A642F4DC6D1CEDB22F
:10712000AF42EBDC05B0F0BDF7B5A44950010C1837
:10713000002620786178000247180198A41C0025D9
:10714000801984463804604606D5C1B200984019BB
:10715000C0B2FFF748F905E0C1B200984019C0B2CB
:10716000FFF733F96D1C7F00EDB2102DEAD3761CCA
:10717000F6B2102EDDD3FEBDF7B530204243904865
:10718000841800262178607809020F180198A41C41
:107190000025801984463804604606D5C1B200989F
:1071A0004019C0B2FFF71FF905E0C1B200984019BD
:1071B000C0B2FFF70AF96D1C7F00EDB20C2DEAD3C7
:1071C000761CF6B2182EDDD3FEBDF7B57D49500111
:1071D0000C18002620786178000247180198A41C3A
:1071E0000025801984463804604606D5C1B200984F
:1071F0004019C0B2FFF7F7F805E0C1B20098401996
:10720000C0B2FFF7E2F86D1C7F00EDB2102DEAD39B
:10721000761CF6B2102EDDD3FEBD6B488179491C79
:10722000C9B281713C290FD3002181714279521C6E
:10723000D2B242713C2A07D34171C279521CD2B2F8
:10724000C271182A00D3C171704710B500205F4C7D
:10725000034660220021424312195354491CC9B20B
:107260004029FAD3401CC0B20428F2D310BD70B537
:1072700057A207CA86B000266B4647C31F233F228A
:10728000314630460496FFF731FF4F4C0A21E07932
:1072900001F007FA6D462A5C2A73695C69733A212A
:1072A000A9730A21607901F0FCF92A5C6846C2736F
:1072B000695C0174467403AA03210C20FFF706FFE2
:1072C0000A21A07901F0EDF9024610210846FFF7E6
:1072D0002BFF0A21A07901F0E4F90A4610212020B1
:1072E000FFF722FFFFF71EF806B070BD10B50028AB
:1072F0000AD001280AD002280AD003280AD004287C
:107300000AD005280AD00CE0344808E0344806E0EA
:10731000344804E0344802E0344800E03448FFF7E1
:107320001EF8FEF7FFFF10BD70B529A207CA86B090
:1073300000256B4627C31F233F2229462846049574
:10734000FFF7D4FE204E0A21307A01F0AAF96C46EC
:10735000225C2273615C61732D21A1730A21707A12
:1073600001F09FF9225C6846C273615C0174457448
:1073700003AA02210C20FFF7A9FEB27A10211820DF
:10738000FFF723FFFEF7CEFFAEE710B50E494878B2
:10739000401CC0B24870022802D90020487029E081
:1073A000002827D0012827D0022827D029E0000074
:1073B000E703000086130000A0970100A0A90100C8
:1073C000E0AB0100B8AD01007C2000202C2A002099
:1073D000303132333435363738390000A09D010062
:1073E000A09E0100A09F0100A0A00100A0A101009B
:1073F000A0A20100314802E0314800E03148FEF728
:10740000AEFFFEF78FFF10BD10B52F48FEF7A7FFA8
:10741000FEF788FF10BD10B52C48FEF7A0FFFEF761
:1074200081FF10BD10B52A48FEF799FFFEF77AFFDD
:1074300010BD10B5274C607801280AD01F231522F3
:107440000A210020FFF752FE01206070FEF76AFF5C
:1074500010BD002060701E48FEF781FFF6E710B5F2
:1074600001280ED11B4C6078012808D01F2315225B
:107470000A210020FFF73AFE0120607004E000209E
:1074800060701348FEF76BFFFEF74CFF10BD124A09
:10749000012180008018016070470F4A8900800038
:1074A000801801607047012181400C48816070475D
:1074B000012181400948C16070470000A0A501007A
:1074C000A0A40100A0A60100E0AA0100A0A701005D
:1074D000A0A801007C2000200007005000050050FB
:1074E000F8B5F14801250168ED07F04C4068002926
:1074F00002D0012903D006E001F05CFF02E001F0B8
:1075000059FF6840A062EA4801684068002902D03B
:10751000012903D006E001F04DFF02E001F04AFF2F
:1075200068406062E34F0025284601F0C2FD00225A
:10753000E14B01F04BFB01F065F90646616AA06A78
:1075400002F08CF803D2616AA06A009002E0A16A9E
:107550000091606A02F0AEF8314602F027F8009917
:1075600001F0DEFF01F0D4FE69006D1C7852782D29
:10757000DAD3F8BDF0B5002313E00022CF1A0DE0F6
:107580005500AC46445F2D180226AE5FB44204DDC0
:10759000A6466446065374466C80521C9742EFDC44
:1075A0005B1C8B42E9DBF0BD10B5C04988898B8834
:1075B00080B2984201D3642010BD4A88904201D81D
:1075C000002010BD991A491C801A09041922890C3F
:1075D00050434018401E01F06EF8C0B210BDB749CC
:1075E00000200860B6498020086070470EB5B54B92
:1075F00000280ECB02930192009103D0012801D004
:10760000022802D16846FEF77DFB0EBD70B5A74E7D
:107610000025B068401CB060032801DBB56010E0B5
:1076200000280ED0A34CF03C01280FD002280CD12A
:107630009E4872690378316958008A4220DD2152E0
:107640001FE00420FEF77CFBF06070BD2020FEF7F9
:1076500077FB30614020FEF773FB7061316988422F
:1076600003DD30784000215202E031784900605259
:1076700030780F2800D335703078401C307070BDE2
:1076800022520F2B00D3357030781021401C3070FF
:107690008848F038FFF76EFF0421615EB1617278AF
:1076A000844853007838C152521CD1B271703729C6
:1076B00000D9757000210222415E825E062389187E
:1076C0000422825EC35ED21889180822825E89185D
:1076D0000A22825E89180C22825E89180E22825E3E
:1076E00089181022825E89181222825E891814225B
:1076F000825E89181622825E89181822825E891895
:107700001A22825E89181C22825E89181E22825EDD
:1077100089182022825E89182222825E89182422FA
:10772000825E89182622825E89182822825E891844
:107730002A22825E89182C22825E89182E22825E7D
:1077400089183022825E89183222825E891834229A
:10775000825E89183622825E89183822825E8918F4
:107760003A22825E89183C22825E89183E22825E1D
:107770005048891838380022825E89180222825EB9
:1077800089180422825E89180622825E89180822DE
:10779000825E89180A22825E89180C22825E89180C
:1077A0000E22825E89181022825E89181222825E61
:1077B00089181422825E89181622825E891818227E
:1077C000825E89181A22825E89181C22825E8918BC
:1077D0001E22825E203089180022825E89180222D1
:1077E000825E89180422825E89180622825E8918C8
:1077F0000822825E89180A22825E89180C22825E23
:1078000089180E22825E8818382100F054FF2E4914
:10781000B061884200DD32E7FF212D318842FADB7A
:10782000294A4F3A101A234AF061884202DA0021AD
:10783000515E08E00146FF392D39782905D8234BE0
:107840004100C918515E081808E0FF21A53188429F
:1078500005DD18490C22E0318A5E1018F061143001
:10786000F06170BD10B50020FFF7C0FE184901207F
:10787000086001460D48174A2030FEF736F9002807
:1078800003D015A2A521FCF723FD0F4907480022CC
:107890008239006AFEF770F9002803D00EA2A721F2
:1078A000FCF716FD10BD0000002100209C200020E8
:1078B000082100209C2C002000C05D400071004089
:1078C00080E100E0D8B40100B5030000A8FDFFFF8F
:1078D000007000400D7601002E2E5C6D795F6164B2
:1078E000635F746F5F74656D7065726174757265E6
:1078F0002E6300000A4610B50146B848FCF782FF27
:1079000010BD034610B50020024603E09C5C6040B9
:10791000521C92B28A42F9D310BD10B5B04C04206B
:10792000207002206070FFF73FFEA0700321204608
:10793000FFF7E7FFE07004212046FFF7DBFF10BDF3
:1079400010B5A74C0520207001206070A548006884
:10795000C117090E09180A12A270E070042120460E
:10796000FFF7CFFF207105212046FFF7C3FF10BDB1
:1079700070B59D48002500789C4C00280BD19C4A8E
:107980009C48A1691278007800290FD0491EA16196
:10799000114600F06CFBA068401CA0606168884242
:1079A00020D9A560A06900281AD01BE092498D4B10
:1079B0000968002908D02570198803238EB2014672
:1079C000304600F059FAE6E72178062904D31E680C
:1079D000F61D491E1E602170C9B2491C2170EBE7DB
:1079E000FFF7AEFF2069401C2061E168884202D9A0
:1079F0002561FFF792FF70BD7C4810B57F4A0121D9
:107A00001C30FEF772F8002803D07DA28A21FCF713
:107A10005FFC764800227F49C069FEF7ADF8002878
:107A200003D077A28C21FCF753FC10BD10B504469F
:107A300039DFE0433ADF10BD6948AA2101703221E5
:107A40004170302181703122C27036220271417141
:107A50008271C1713321017209214BE730B4624850
:107A6000AA2304785E484C214422002C0CD0012C1F
:107A700011D103704F23437081704521C170027191
:107A8000052130BC564835E70370417043218170B1
:107A9000C2700421F5E730BC70475148AA2101703B
:107AA00056214170312181702E21C1703021017128
:107AB000417106211EE770B50546002403E0082049
:107AC000FCF762FB641CAC42F9D370BD70B544484E
:107AD0001446233000F084FD4149233108785628AC
:107AE00023D14878012821D0022822D0032826D08B
:107AF0000122042826D0062835D0072836D00828A9
:107B000013D0092835D00A2844D020284BD041284A
:107B10004CD043284DD0532854D0542855D0552804
:107B200056D0562801D100F0BAFB70BDFFF708FF10
:107B300070BD88780C28FBD100F0FDFA70BD00F014
:107B40007DFB70BD3449402088603448FFF7B3FFA7
:107B5000AB20FFF76BFFBFF34F8F32493048C8604F
:107B6000BFF34F8FFEE7FFF798FF70BDFFF776FF7B
:107B700070BD2D4D2246891CA81C00F031FDAA20A5
:107B80002870A41E6C700023142229462748FEF793
:107B900053FA70BD88780028FBD0E12109014843E1
:107BA0001249486170BDFFF7B8FE70BDFFF744FF92
:107BB00070BD89780E48002901D0027070BD002187
:107BC000017070BD00F0D7FA04E000F048FB70BD12
:107BD00000F0F3FAFFF784FC70BD0000E4260020FB
:107BE0008C2D0020B82000207E200020C8200020FE
:107BF000F82000200420002094200020717901004A
:107C00002E2E5C6D795F626C655F73657276696359
:107C1000652E63009A39000000050050102700000F
:107C20000400FA0500ED00E00027002014200020E9
:107C3000F8B5804D2869804CC002C70F2770A07826
:107C4000012808D1E078401CC0B2E070192802D9A0
:107C50000020A070E070784B794A59787748127804
:107C60005B684026012F12D05B1E042B40D80029F0
:107C70003ED0E178734F00290ED0891E172910D20B
:107C80000021A170E1703B78002B08D008E05B1C5C
:107C900063601C2B2ED058E00121A17001E001216E
:107CA00039700A21A160684B0C21196002236749D1
:107CB000012A0B6004D066490A68002A0BD00FE045
:107CC000FFF77CF9FFF791F962483A7801680020E4
:107CD000FEF717FC0CE00268002A01D103220A60BB
:107CE0003C210160FEF7E0FC01205B498002086056
:107CF00000202EE0C943CBB20A216370A160002BA3
:107D000013D03C22026052480160FEF7CDFC0120F6
:107D1000514A810211604D4908604B490C200860AE
:107D20004748007801280AD00FE03C21016047480D
:107D3000042101600C204449012A08600DD1FFF79D
:107D40003DF9FFF752F9FEF72BFB6068202801D9B7
:107D5000401E6060A068002824D0A068401EA0607B
:107D6000AE60374803220178120401293B4861784C
:107D70001AD0002915D1A168002912D12178002933
:107D80000FD101699143016102220021142000F00A
:107D900048F8EE6031DF002803D031A2E421FCF77F
:107DA00097FAF8BDEE60DCE70029FAD1A168002956
:107DB000F7D1254909680029F3D121780029F0D1AC
:107DC00001699143016102220021142000F029F889
:107DD000EE6031DF0028E4D021A2C921DFE71F498E
:107DE00010B50120283908601C49002010310860B6
:107DF00011481F4A01210C30FDF777FE002803D0FF
:107E000017A23421FCF764FA0B4800221949C06814
:107E1000FDF7B2FE002803D011A23621FCF758FA74
:107E200010BD120489000A430C49800040394018F3
:107E30000260704700050050E820002094200020D8
:107E40007E200020F82000208C20002090200020A0
:107E5000E0200020B820002000E100E040070050B2
:107E60002E2E5C6D795F746F7563682E6300000061
:107E7000317C01001F050000F8B5964C064660787D
:107E8000BF234025002902D0012902D003E0184079
:107E900000E0284360708F4810278178C078002A5E
:107EA00002D0012A06D018E019402843A1703843B7
:107EB000E07012E029431840A1703843E07030466A
:107EC00001F0F7F8844A854B01F0F6F80022844B64
:107ED00000F04FFE01F0A0F886B27D21C9003046C7
:107EE00000F0DFFB0D46C6B22846642100F0D9FB46
:107EF000C0B200902846642100F0D3FB08460A2156
:107F000000F0CFFB07462846642100F0CAFB084674
:107F10000A2100F0C6FB0D46002E02D0012E04D02F
:107F200007E0E0784008400002E0E07801210843E3
:107F3000E0700098FEF7D5FC3846FEF739FC28467D
:107F4000FEF784FDF8BDF0B5624ABF2540245378A2
:107F5000002802D0012802D003E02B4000E0234398
:107F600053705C4810268378C078002902D001291C
:107F700004D008E02B409370204302E02343937029
:107F800028403043D070D078547843080225907848
:107F9000FD272C43284301251178284339402943E4
:107FA0002C4339403C40384028432943AC43EF261A
:107FB000DF255B0033403B403B4028402B402940BD
:107FC0003040D37031402C40907011703440547068
:107FD000F0BDF0B53F4ABF2440255378002802D0B9
:107FE000012802D003E0234000E02B4353703948BE
:107FF00010268378C078002902D0012904D008E037
:1080000023409370284302E02B4393702040304379
:10801000D070D078FD244108507801262040844655
:1080200013789078234033439E466346B3439C467F
:108030002040734623409E46022763461C4030433F
:10804000384373463043B3433443EF25DF264900BA
:108050002940394339433040314033402840D170C2
:108060002B403440907013702C405470F0BD70B5AC
:10807000184C06460D46E07801210843E0700820C0
:10808000FEF72FFC0820FEF793FB0820FEF7DEFC2E
:10809000BF204021002E02D0012E03D005E06278DF
:1080A000024001E062780A4362701022002D09D07C
:1080B000012D06D1A3780B43A370E1780140114351
:1080C000E17070BDA3780340A370E07808431043CB
:1080D000E07070BD87200020CDCCCCCCCCCCFC3F58
:1080E0000000744070471CB501216846C1808902B8
:1080F000818080480090FDF7FEFE7F496846FDF7CD
:108100001DFF002314227C497C48FDF7D4FF002387
:10811000342279497A48FDF7CEFF79487949426A95
:108120000A60826A4A600831C26A0A60006B48606D
:10813000FFF7D6F91CBD724810B5002324226E4902
:108140007838FDF7B8FF24216B48FDF7F3FF6C4842
:108150006C497838006A091F0860694808226A4932
:10816000643800F03DFA66490023242278396248D9
:10817000FDF762FF10BD624810B500232C225E4956
:108180005438FDF798FF2C215B48FDF7D3FF5E497B
:108190005B480822491E303800F022FA58485949F5
:1081A0005438426A0A60806A4860554900232C228C
:1081B00054395148FDF740FF10BD10B5002334225B
:1081C0004D494F48FDF777FF34214B48FDF7B2FF8B
:1081D0004D494B480822491E2C3000F001FA48480E
:1081E0004849C26A08310A60006B486000233422A3
:1081F00043494148FDF720FF10BD414810B578388C
:108200004249027D0A70427D4A70827D8A70C27D39
:10821000CA70027E0A71427E4A71827E8A71C27E73
:10822000CA71027F0A72427F4A72827F8A72C07F5D
:10823000C8720C213548FFF75DFB10BD304810B502
:10824000002324222C497838FDF735FF2C482D498E
:108250007838006A091F0860FFF7CFFF10BD284873
:1082600010B500232C2224495438FDF724FF24485C
:108270002649303802780A7042784A7082788A70CB
:10828000C278CA7002790A7142794A7182798A7118
:10829000C079C87108211D48FFF72CFB10BD10B52F
:1082A0000023342214491648FDF705FF14481549E8
:1082B000426A0A60826A4A600831C26A0A60006BD8
:1082C00048600F4811492C3002780A7042784A7091
:1082D00082788A70C278CA7002790A7142794A71CA
:1082E00082798A71C079C87108210848FFF702FBBA
:1082F00010BD0000E58001001420002000270020B0
:108300004C2E002000210020B22D00208C2D0020BA
:1083100010B50446800705D16421204600F0C1F95C
:10832000002908D1FF219131204600F0BAF9002937
:1083300001D0002010BD012010BD9E490020086121
:1083400070479C490861704702461F20012907D0E9
:10835000062901D9491EC9B2C90700D01E2070479D
:108360001C32D0B27047F8B50A460446924910460E
:1083700000F097F90D4606463C21284600F091F999
:108380002160E1210901284600F08BF905460846E5
:108390003C2100F086F9A5606060864D87486E80BC
:1083A000FF266F36771EE0600DE0E068FFF7B0FF54
:1083B000002801D0304600E038466988081A6880F5
:1083C000E068401CE060FFF7A3FF002801D03046C2
:1083D00000E0384669888842E7D900200BE0E06871
:1083E000FFF796FFC0B2217CFFF7AEFF6988081A3D
:1083F00068802069401C2061E068FFF789FFC0B2F7
:10840000217CFFF7A1FF69888842E8D32069401CDE
:1084100020616888401C6061F8BDF8B5044680683A
:108420003C214843616840183C2148432168471873
:10843000A08A85B2207C401E46B208E0E068FFF7C3
:1084400067FFC0B2F1B2FFF77FFF401985B2761E19
:1084500076B2002EF2DAA089584E84B20BE02046A4
:10846000FFF756FF002802D0FF206F3001E0FF2009
:108470006E30401985B2641EA4B2B442EFD24E48A9
:108480004543E819F8BD4B480069704770B58189CC
:10849000047C007D8DB2401CC6B2012C01D0022CA0
:1084A00003D10C346D1EE4B2ADB2601C4100401823
:1084B000052100F0F6F86100891940184019A90853
:1084C00044186421284600F0ECF8241AFF21913169
:1084D000284600F0E6F82018072100F0ECF808061E
:1084E000000E00D1072070BD30B587B004917D210A
:1084F0000A9D0B9C0901401800940390019502937A
:1085000005926846FFF789FF2A49086107B030BD28
:1085100010B5284800230178491CC9B2017005290B
:1085200000D303700169264A491C01611468002CBC
:1085300001D0641E14608268224C521C8260246840
:10854000A24200D983604268521C42604469A24240
:1085500000D943601C48FFF706FF1B4810BD10B54B
:1085600086B00120009001900290122005900490A6
:108570003F20400103906846FFF74FFF0D4C134A20
:108580002061204601210C30FDF7AFFA002803D00E
:108590000FA2C921FBF79CFE01210022C903E0685C
:1085A000FDF7EAFA002803D009A2CD21FBF790FEDF
:1085B00006B010BD1021002080510100B20700005C
:1085C00094200020DC200020A82E0020118501002E
:1085D0002E2E5C6D795F74696D6572732E63000079
:1085E000F8B5042A2CD3830712D00B78491C0370EA
:1085F000401C521E83070BD00B78491C0370401C93
:10860000521E830704D00B78491C0370401C521E75
:108610008B079B0F05D0C91ADF002023DE1B08C97A
:108620000AE0FBF7C1FDF8BD1D4608C9FD401C4628
:10863000B4402C4310C0121F042AF5D2F308C91A03
:10864000521EF0D40B78491C0370401C521EEAD411
:108650000B78491C0370401C521EE4D40978017049
:10866000F8BD01E004C0091F0429FBD28B0701D526
:108670000280801CC90700D00270704700290BD00F
:10868000C30702D00270401C491E022904D383078D
:1086900002D50280801C891EE3E70022EEE700225B
:1086A000DFE7002203098B422CD3030A8B4211D34C
:1086B00000239C464EE003460B433CD40022430873
:1086C0008B4231D303098B421CD3030A8B4201D363
:1086D00094463FE0C3098B4201D3CB01C01A5241FB
:1086E00083098B4201D38B01C01A524143098B424B
:1086F00001D34B01C01A524103098B4201D30B0134
:10870000C01A5241C3088B4201D3CB00C01A524158
:1087100083088B4201D38B00C01A524143088B421D
:1087200001D34B00C01A5241411A00D201465241B6
:10873000104670475DE0CA0F00D04942031000D3D5
:108740004042534000229C4603098B422DD3030A2A
:108750008B4212D3FC22890112BA030A8B420CD33A
:10876000890192118B4208D3890192118B4204D363
:1087700089013AD0921100E08909C3098B4201D3E3
:10878000CB01C01A524183098B4201D38B01C01A1D
:10879000524143098B4201D34B01C01A5241030994
:1087A0008B4201D30B01C01A5241C3088B4201D343
:1087B000CB00C01A524183088B4201D38B00C01AF0
:1087C0005241D9D243088B4201D34B00C01A5241C7
:1087D000411A00D20146634652415B10104601D354
:1087E0004042002B00D54942704763465B1000D3DE
:1087F000404201B50020C046C04602BD70477047E8
:10880000704700000246C80FC00781434B0030B5D7
:108810004B405B009B0D20D01923DB06C9180123B8
:108820001B05994220DB0324A40704251346AB4013
:108830000BD3002B04D1EB0613409B001B1904D46F
:1088400001246407002312195941FF231B05994293
:108850000BD2C9000143500F09E0CB0204D50143FC
:108860000803024305D0054830BDFF21C905084370
:1088700030BD084607210905884330BD0000C07F90
:10888000F0B50C46871A9C410D46861A9D4103D2CD
:10889000C01BA141D21963410D0D1F0DC64EEC1B2B
:1088A000AE435BD07F057F0D0026002F50D02D05F5
:1088B000AC46A943DD020123ED0A1B051D4320231D
:1088C0001B1B23D41746E740381871412F46E74059
:1088D000CC199D402818314661410C0D26D16144C8
:1088E0009A4012D50023401C594152000DD1400836
:1088F0004000B24A4B00934207D3052040070818B6
:1089000001D5511000E0AE493046F0BD6B00002AA1
:1089100000D001229A18203C1F231B1B01D50023E5
:1089200002E0E540281871410C0DD8D0012424053F
:108930000919C407CD0740084908E40F28436144DA
:10894000002CD6D00024401C61419A40D1D1CEE702
:108950006A05520DD9D1C90FC907D5E7974D4E0009
:10896000002801D0012400E0002434195F00002A0F
:1089700001D0012600E00026BE19924FAC420BD870
:10898000AE4209D8B44205D0BD00AC42BDD01046BD
:108990001946F0BD9942FCD000203946F0BDF0B533
:1089A0001FB40C460F46811A9F412546861A9D41E9
:1089B00006D20125ED076F40401ABC4152187B4199
:1089C000210D1E0D8D1BAC467B4D8D437ED0750554
:1089D0006D0D7CD00D05AE46AC431B031B0B7A4DD1
:1089E00052429D41202366469B1B14D31746F740F5
:1089F000381800260090744160462F460741E4195C
:108A000000989D402818664116D4714671189A4006
:108A100025D5012320E093182A466A415200002BF5
:108A200000D0521C203E1E239B1B002B61DD3541D4
:108A3000EE1728186641E8D5001876415B1C9A406D
:108A400000D3401C4B05F3181524E34010D3002B32
:108A500052D071467118D30FC01802D3491C05B00B
:108A6000F0BD0123DB079A42F9D140084000F6E748
:108A700001225205B21801D1002853D00123CC0A9B
:108A8000DB029943891E002A08D1020C03D0020C94
:108A90000004103902E00246002020390023550B63
:108AA00005D112020823550B01D152010D23550C9B
:108AB00001D112011B1DD50C01D192009B1C150D7B
:108AC00001D152005B1C2025EE1A01E02CE022E0CF
:108AD0000546F54015439840CA1AE1076918130581
:108AE000C918002ABBDA032040070818C10FC907BC
:108AF0000FE071466118B2E7F107400808437110B2
:108B000071444A000CD001235B059A42A7D2C90FD9
:108B1000C9070020A3E74905490D25D1002001E040
:108B20000028F4D100219AE7244D6600002801D0E6
:108B3000012100E0002171185F00002A01D0012608
:108B400000E00026BE191F4FA9420FD8AE420DD833
:108B5000B14207D0BD00A94206D01946A802414043
:108B600010467CE79C4201D0214678E70020394638
:108B700075E730B40C465C4004D50124E40763403B
:108B800030BC0CE730BC7BE630B40C465C4004D50E
:108B90000124E407634030BC72E630BCFFE630B429
:108BA0000124E40761400D465D4001D430BC67E616
:108BB000634030BCF3E60000FF0700000000E0FF68
:108BC0000000F07F0000F87F0000F0FFF0B51FB458
:108BD000FA4F0E091D09BC463E403D400C46B743C6
:108BE0005C408CB0002F7DD06746AF43FBD0002D9A
:108BF00079D0002EFCD0E20F3243521BFF24A40494
:108C000012190892420DCD02C7020E981543420D6B
:108C1000D9021143C202600305430143080C0195C8
:108C2000150CAC4605040B46AB430A9565462D046E
:108C3000AA430995E24D040A7D446419803C2578D5
:108C400006466E4301247619E405A61B7543ED0C18
:108C5000AD1C490B69434919A401611A0E0CB646B3
:108C60003604B143694376466E43090C711889098D
:108C70000591F90700D0A100049101997F08CC0764
:108C800027434C08059DE10B4D432D0C29466646B4
:108C9000754302950D4645432E46029D7D1BB4410A
:108CA00000950D465D4301942C0C2F040D46554351
:108CB000AE462D0C3D43029503947546049C2D044D
:108CC000641B049406D2029C039D641C002675411B
:108CD0000395029401AC70CC009F7D1BB441090444
:108CE000009501E03BE15FE1079101940599A4083B
:108CF0006143090C0C464443650BE70464464C434E
:108D0000A646640B3C43039502947446049DE40418
:108D10002C1B049406D2029C039D641C0026754102
:108D20000395029401AC70CC009F7D1BB44101946B
:108D30000C465C430095650FE7000C465443A6467D
:108D4000640F3C43039502947446049DE4002C1B7D
:108D5000049406D2029C039D641C00267541039571
:108D6000029401AC70CC009F7D1BB441AE09AF06EC
:108D7000049DC900AD092F43049DA406AD060495CA
:108D8000079D344369180791059DE10B4D432D0C58
:108D900029466646754302950D4645432E46029D7B
:108DA0007D1BB44100950D465D4301942C0C2F04AE
:108DB0000D465543AE462D0C3D4302950394754632
:108DC000049C2D04641B049406D2029C039D641C25
:108DD000002675410395029401AC70CC009F7D1B69
:108DE000B44101948C050694079C890A611800958A
:108DF0000791019C0599A4086143090C0D46454360
:108E0000680BEF040D46644665436C0B3C43049FBE
:108E1000ED047D1BAC4602D20025641C6841009E17
:108E2000019D371B85410846584301950C46460F66
:108E3000C5005443600F28436546E4002C1B02D252
:108E40000025401C6E41019D3F1AB5412846BD09D1
:108E5000800628438446A009BF064E020699A40650
:108E600076180743079D002068410A990790194327
:108E70000020099B00906046FF1913434041E20F18
:108E800064003A43A4460446D71A8C41A04203D951
:108E90000120009020463A46C70F94184041624690
:108EA000D20F2243644664000494009CBE466400D2
:108EB000D71AA446044602978C417746002F01D169
:108EC000A04204D96046401C8446029A2046C40F42
:108ED000A64694184041049A0546D20F22436446A0
:108EE0006400D31A8D417146002901D1A84202D9EC
:108EF000641C28461A4610430122002800D016435D
:108F000061020020079B044689195C410223002C62
:108F100002DB491813466441089DCE0A2D145D19E1
:108F20004B056705E10A2C050C1908993E43C90752
:108F30006140002B08D0934006D30022761C51419B
:108F4000002B01D1760876001E4A002C45DB234613
:108F5000134242D0A24340D0304611B0F0BD0E467D
:108F600007184E41184D7A42B5411AD30E9A1D4644
:108F700096185D41144A7642AA4112D30122520545
:108F80004D00D5420AD15C00D4420AD04B4002D5F4
:108F900092021143E1E749004908DEE7E10FC90702
:108FA0000AE000200949D8E70648014212D00848E3
:108FB00021460143C01241400020CEE70000FF07D8
:108FC000A82800000000F07F0000E0FF0000F87F0C
:108FD000FFFFFF7F0342E4D0E0E70123089A9B06EE
:108FE0009A4205DC032252078918C90FC907B4E762
:108FF000052252078918074A1143D2125140ACE7A3
:109000005940504010B54B40424059405040FFF746
:10901000DDFD10BDFFFFFF7FCB02420D10B51A43EF
:109020000B1504D00124E4072243002B06DB0A4C75
:10903000E31A05D41046D840FF2B00DD002010BDF8
:109040004A00002800D001201018044A9042F5D8A8
:10905000C817C04310BD00001E0400000000E0FF60
:109060001F22030C02D10F22000402D0030E03D0F2
:1090700004E0002001467047083A0002030F01D1C6
:10908000121F0001830F01D1921E8000002801DB16
:10909000521E4000120551184205C01241181046D8
:1090A0007047C10FC90700D0404201229207114307
:1090B000D6E701218907D3E7F0B5904C0D09264684
:1090C000AC46AE430D465D4087B0002E7ED01E09F3
:1090D0002746B743FAD067462740ED0F3D43264069
:1090E00075D024012142FBD07419FF25AD04641B07
:1090F0000494CC02D90201231B05C90A1943E40ACE
:109100001C430F012401030F110F1C430F430501E2
:10911000A10B88032D0916018443A80B82039543F4
:10912000BB0B9A0397433609BC46B20B9703BE4369
:109130000746574303972F4677430296BE46029F42
:109140004619D71906967E430597039FF71B764667
:10915000BE1B77463F0100970196039FB60BF61999
:10916000B646019E009FB604BF1902D37646761C10
:10917000B64676467600002F01D001273E4367466B
:109180007D43AE46029F25467D4300956D00AE1996
:1091900075466D00AF1965465D19069E03956E43D1
:1091A0007546751BAE460D19059E02956E43009DD2
:1091B0005843761B75462D1A4A439646B21A0092BA
:1091C0000195FA0606D07D09012201E076E072E001
:1091D000154300E07D09020A0006002745197A417F
:1091E0007646300A360676195041019A950D92025C
:1091F000961945410098820D800280196A415943B1
:1092000063465C43039D029B6B435B1A1E1BB30EBC
:10921000B601B6187B410A0B090589195A41230A80
:10922000240624184B418B4200D2521C01204002DC
:10923000824203D315210226F64302E014210326BD
:10924000F6432020451AAA401F46AF40CB40204697
:10925000C840049913430914711809055A18049950
:109260003843C9075140AC4009D001239C4006D384
:109270000023401C5941002C01D140084000204BE4
:10928000002A03DB1A4201D08B4312D10122049839
:109290009206904207DB0520400709181948014350
:1092A000C012414004E0032040070818C10FC9075D
:1092B000002007B0F0BD0020E907FAE706180C46C9
:1092C0004C4111487642A04114D394181A465A4191
:1092D0000D48644290410DD3012049004005814270
:1092E00008D35900814205D3E90F054AC907002078
:1092F0001143DEE700200549DBE700000000FF071F
:109300000000F07FFFFFFF7F0000E0FF0000F87F1C
:1093100010B502469E240002D115A307002902D0F1
:109320001843002904DB611A00290CDDC84010BD78
:109330000906090E01D140004008611A03D4C84053
:1093400040420028F3DDFF2150000906884201D980
:10935000002010BDD017C043584010BD1F22030C81
:1093600002D10F2200041CD0030E01D1083A0002E2
:10937000030F01D1121F0001830F01D1921E800043
:10938000002801DB521E4000D2055118021251186C
:109390001922904004D3491C002801D149084900F2
:1093A00008467047C10FC90700D04042012292070A
:1093B0001143D3E701218907D0E7000010B5FF234F
:1093C0001B0644009C421DD84C009C421AD8034600
:1093D000124A0B4307D4401A02D3EFF3008010BDAA
:1093E000EFF3008010BD081A06D2EFF300800121D0
:1093F0009043C907084302E0EFF30080904380F3F5
:10940000008810BD0D231B041A4204D01146002011
:1094100000F006F810BD00F01BF810BD0000009031
:10942000CA0210D54A03520F04D0C803C043012119
:1094300088407047054AEFF3008108010009104396
:1094400080F3008870470020704700000000003063
:1094500010B5024800F029F810BD00000000C07FE0
:10946000754600F051F8AE46050069465346C008FF
:10947000C000854618B020B5FAF7C2FE60BC0027D0
:109480004908B6460026C0C5C0C5C0C5C0C5C0C5D0
:10949000C0C5C0C5C0C5403D49008D4670470446A3
:1094A000C046C0462046FAF758FE10B50C461107D4
:1094B000090F092904D00A290AD008290CD104E08F
:1094C00011460820FFF7ACFF06E0510606D501E083
:1094D000510601D50120C007214610BDD10607D590
:1094E00001010909CC084907000E0006044309E000
:1094F000410F20024907000A0143200E00061D22E9
:10950000D14101430846E7E700487047C02E0020DC
:1095100001491820ABBEFEE726000200704700009C
:1095200070B501250400ED074C4020D4441A01D247
:10953000001B0919C60D4B00F2B2FF2A29D01B0EE1
:109540002CD000020C02D31A2C43DC40284305190E
:1095500010D2280A02D3401C6D0611D0761EF605E3
:109560008019FF2A00DA70BDC00DC00570BD6940CA
:1095700000F0A6F801200543C541521C761CE8E71F
:1095800064089C40C90161408900E7D10124A043DF
:10959000E4E71B0E440200D0034870BD002AFCD152
:1095A000C00FC00770BD00BF0000C07F70B5420093
:1095B00064414B005C41120E39D01B0E38D0FF2A9B
:1095C0003CD0FF2B3AD040024902400A490A06002B
:1095D00045184E43000A090AD2184843ED017F3A64
:1095E0000104731A4019190C4318990F04D0012172
:1095F0005B0849075B1A521CD80904D3401CF503C9
:1096000001D19D0607D0FF2A08D2D50506D0E40770
:109610002043401970BD0125A843F4E7002A01DC6E
:10962000E00770BD2402FF202043C00570BD1B0E63
:10963000FF2A03D0FF2B01D0E00770BDFF264500B5
:109640003606B54206D84D00B54203D8D218FF2AD7
:1096500000D0E7E7004870BD0000C07F01230A008A
:10966000DB0502430DD4DA4203D49A4207D4814287
:109670007047D94214D4D84212D4814270478942EB
:109680007047DA4203D59A42F9D5884270475B00A9
:109690004A00DA4204D24200DA4201D288427047DC
:1096A0004840414010B5024A4840FFF787FE10BDD0
:1096B0000900160470B501250400ED074C4022D4C2
:1096C000441A02D26C40001B0919C60D4B00F2B2BD
:1096D000FF2A4BD01B0E50D000020C02D31A2C4391
:1096E000DC40A843051B05D5AD0019D36D08761ED7
:1096F000521E37D0F605280A01D2801970BD70417C
:109700006D0603D070BD6940FFF710FF9C40090251
:109710006140490001D0401E70BD0124A04370BDCE
:109720006D081DD001202B0C01D12D0410302B0E03
:1097300001D12D0208302B0F01D12D01001DAB0FDF
:1097400001D1AD00801CEB0F01D16D00401C6D00FC
:10975000361A121A680AF5054019012A02DB70BD93
:10976000002070BDC036300AC00770BD1B0E440219
:1097700001D1FF2B00D1024870BD002AF0D070BD8E
:109780000000C07F01000000123456780EE5A9E009
:1097900093F3A3B50000406E0F0E0D0C0B0A0908E1
:1097A00000000000000000000000000000000000B9
:1097B0000000183C3C3C1818180018180000000065
:1097C0000066666624000000000000000000000043
:1097D0000000006C6CFE6C6C6CFE6C6C0000000099
:1097E00018187CC6C2C07C0686C67C18180000000B
:1097F00000000000C2C60C183060C68600000000E1
:109800000000386C6C3876DCCCCCCC7600000000E4
:109810000030303060000000000000000000000058
:1098200000000C18303030303030180C00000000D0
:10983000000030180C0C0C0C0C0C18300000000050
:109840000000000000663CFF3C66000000000000D5
:10985000000000000018187E18180000000000002A
:109860000000000000000000001818183000000080
:1098700000000000000000FE0000000000000000EA
:1098800000000000000000000000181800000000A8
:109890000000000002060C183060C08000000000CC
:1098A00000007CC6C6CED6D6E6C6C67C0000000048
:1098B00000001838781818181818187E00000000D2
:1098C00000007CC6060C183060C0C6FE0000000018
:1098D00000007CC606063C060606C67C00000000AA
:1098E00000000C1C3C6CCCFE0C0C0C1E000000009C
:1098F0000000FEC0C0C0FC0E0606C67C00000000D2
:1099000000003860C0C0FCC6C6C6C67C00000000AF
:109910000000FEC606060C18303030300000000093
:1099200000007CC6C6C67CC6C6C6C67C0000000059
:1099300000007CC6C6C67E0606060C780000000045
:1099400000000000181800000018180000000000B7
:109950000000000018180000001818300000000077
:10996000000000060C18306030180C0600000000E3
:10997000000000000000FE0000FE000000000000EB
:109980000000006030180C060C1830600000000069
:1099900000007CC6C60C181818001818000000003B
:1099A0000000007CC6C6DEDEDEDCC07C00000000FD
:1099B000000010386CC6C6FEC6C6C6C60000000051
:1099C0000000FC6666667C66666666FC0000000059
:1099D00000003C66C2C0C0C0C0C2663C00000000BF
:1099E0000000F86C6666666666666CF8000000004B
:1099F0000000FE6662687868606266FE0000000033
:109A00000000FE6662687868606060F00000000038
:109A100000003C66C2C0C0DEC6C6663A0000000058
:109A20000000C6C6C6C6FEC6C6C6C6C60000000042
:109A300000003C18181818181818183C00000000EE
:109A400000001E0C0C0C0C0CCCCCCC7800000000E0
:109A50000000E6666C6C78786C6666E600000000D4
:109A60000000F06060606060606266FE0000000000
:109A70000000C6EEFEFED6C6C6C6C6C60000000082
:109A80000000C6E6F6FEDECEC6C6C6C60000000072
:109A90000000386CC6C6C6C6C6C66C3800000000DA
:109AA0000000FC6666667C60606060F0000000009C
:109AB00000007CC6C6C6C6C6C6D6DE7C0C0E00003C
:109AC0000000FC6666667C6C666666E60000000068
:109AD00000007CC6C660380C06C6C67C00000000CC
