:020000040001F9
:10400000783F0020E1410100F3410100F54101004A
:1040100000000000000000000000000000000000A0
:10402000000000000000000000000000F741010057
:104030000000000000000000F9410100FB41010008
:10404000FD410100FD410100FD410100FD41010074
:10405000FD41010000000000617D0100E74F01000B
:10406000FD410100FD410100FD410100FD41010054
:10407000FD410100FD410100FD410100FD41010044
:10408000FD41010051710100FD410100FD410100B0
:1040900073710100FD41010039690100FD4101001A
:1040A000FD410100FD410100000000000000000092
:1040B0000000000000000000000000000000000000
:1040C00000F002F800F040F80CA030C808382418BE
:1040D0002D18A246671EAB4654465D46AC4201D140
:1040E00000F032F87E460F3E0FCCB6460126334232
:1040F00000D0FB1AA246AB4633431847CC58000009
:10410000EC580000103A02D378C878C1FAD85207A8
:1041100001D330C830C101D504680C60704700007D
:104120000023002400250026103A01D378C1FBD8D3
:10413000520700D330C100D50B6070471FB5C04691
:10414000C0461FBD10B510BD05F0CFFA1146FFF7F0
:10415000F5FF00F0AAFB05F0E7FA03B4FFF7F2FF62
:1041600003BC05F0EBFA0000401E00BF00BF00BF1B
:1041700000BF00BF00BF00BF00BF00BF00BF00BF47
:1041800000BFF1D170470000401E00BF00BF00BF5C
:1041900000BF00BF00BF00BF00BF00BF00BF00BF27
:1041A00000BFF1D17047000070B505460C461646B9
:1041B00002E00FCC0FC5103E102EFAD2082E02D30B
:1041C00003CC03C5083E042E07D301CC01C5361F1E
:1041D00003E021782970641C6D1C761EF9D270BD35
:1041E0000A48026803210A430260094880470948D7
:1041F0000047FEE7FEE7FEE7FEE7FEE7FEE700001A
:1042000005480649064A074B704700002405004050
:10421000BF420100C1400100782F0020783F0020FC
:1042200078370020783700202E482F4908607047E3
:104230002E48008CC0B2012810D12C48808C000779
:10424000000F0BD12948806AF0210840402805D191
:104250002648C06A084201D1012070470020FCE7CF
:104260002248008CC0B2012827D12048808C00074A
:10427000000F22D11D48806AF021084205D11B4859
:10428000C06A084201D1012070471848806AF021B5
:104290000840102805D11548C06A084201D1012004
:1042A000F2E71248806AF0210840302805D10F4813
:1042B000C06A084201D10120E6E70020E4E710B51A
:1042C000FFF7CEFF002805D009480A494860C81307
:1042D00009498861FFF7ACFF002802D00120074997
:1042E000886010BD0024F40000200020C00F00F002
:1042F000DFFF07C000050040006C004000060040E2
:10430000704770B5044600222146FC48006802F060
:10431000FAFF054600BF2B46002B06D000BFF8A2CF
:1043200056211846FFF7ECFF00BF00BF70BD10B567
:10433000F248006803F018F8044600BF2346002B3B
:1043400006D000BFEEA262211846FFF7D9FF00BFDA
:1043500000BF10BD70B5054600F06AFBEB4A0021B6
:10436000084603F069FA044600BF2346002B06D036
:1043700000BFE3A270211846FFF7C2FF00BF00BFD5
:104380000520C00300F02AFC0F20400400F0E1FEED
:1043900070BD10B500BFDE4A1421122003F02CFAC4
:1043A000044600BF2346002B06D000BFD4A27A21CA
:1043B0001846FFF7A5FF00BF00BF00BF10BD10B536
:1043C00003460C4622461946D248FFF799FF10BD16
:1043D00038B500BF0020D04B11221421009002F00C
:1043E000CCFE054600BF2B46002B06D000BFC4A262
:1043F000AF211846FFF784FF00BF00BF00BFC74AC8
:104400000021BE4802F038FF044600BF2346002BBF
:1044100006D000BFBAA2B4211846FFF771FF00BF53
:1044200000BF38BD3EB500BF6846007801090901EC
:10443000491C009168460078F021884310300090B4
:1044400000BF0722B6A168467CDF044600BF2346B2
:10445000002B06D000BFAAA2C6211846FFF750FFC6
:1044600000BF00BF002001900290FF2191316846FB
:104470008180FF21F531C18000210181FF2191312F
:10448000418101A87ADF044600BF2346002B06D0F5
:1044900000BF9BA2D0211846FFF732FF00BF00BF2C
:1044A0003EBD10B5A0B0052101919F480068009065
:1044B0009E480178684681703C2111A804F05BFD9C
:1044C00002201190002110A841720121818101A9CF
:1044D00014913C2102A804F04EFD0121684681841C
:1044E00069460A9102A911A801F0B6FF044600BF6F
:1044F0002346002B06D000BF81A2ED211846FFF70E
:10450000FFFE00BF00BF20B010BD38B500200090F6
:10451000874800906946854801F083FC044600BF47
:104520002346002B06D000BF75A2F8211846FFF7DE
:10453000E7FE00BF00BF38BD1E207E490880084648
:10454000807840084000401C88700846807802212E
:10455000884378498870084680781C2188430C304D
:104560007449887008468078202188437149887092
:104570000720C87010200871704770B5054628687C
:10458000002811D13B216C48008876DF044600BF2B
:104590002346002B07D000BF59A2FF21193118462E
:1045A000FFF7AEFE00BF00BF70BD00B5034600BF01
:1045B00053A2FF2122311846FFF7A2FE00BF00BD23
:1045C00010B588B01C2101A804F0D5FC0020019092
:1045D0000520400402908010039003216846017476
:1045E000002141820175554806905548079001A861
:1045F00001F0CDFF044600BF2346002B07D000BFCB
:104600003FA2FF2137311846FFF77AFE00BF00BFF7
:1046100008B010BD70B505462888142869D006DC9E
:1046200010280BD0112827D0132863D139E0172880
:1046300061D0192860D05228F7D146E0A8883E49B9
:10464000088000220121C9032C48006802F05BFEAB
:10465000044600BF2346002B07D000BF28A2FF213D
:104660004C311846FFF74CFE00BF00BF002201216D
:10467000104600F0B9FBA2E00020C0432E4908809C
:1046800000220121084600F0AFFB00F0BDFA00F067
:1046900076FD2C480078012802D1002000F09CFE15
:1046A0008DE0244A0021244800887FDF044600BFB3
:1046B0002346002B07D000BF11A2FF215F3118460F
:1046C000FFF71EFE00BF00BF79E0002211461A4826
:1046D0000088A9DF044600BF2346002B07D000BF97
:1046E00007A2FF2164311846FFF70AFE00BF00BF92
:1046F00065E02FE062E027E059E000000C20002098
:104700002E2E5C6D61696E2E63000000A5510100C4
:1047100008210020EFBEADDE2C2300205543010010
:10472000587558754B6F7500749901000C2C00205A
:10473000AB58010006200020042000207B4501002A
:10474000AB450100302000203222A91D964804F01C
:10475000B3FB34E0944EB61D3188E889814212D112
:10476000002231469148008881DF044600BF23467D
:10477000002B07D000BF8E4AFF2170311846FFF78B
:10478000BFFD00BF12E0002211468848008881DF8B
:10479000044600BF2346002B07D000BF844AFF21F8
:1047A00076311846FFF7ACFD00BF00BF07E0A879DF
:1047B000002802D1012000F00FFE00E000BF00BF82
:1047C00070BD10B50446204601F0B5FF214679487A
:1047D00001F004FB2046FFF71DFF10BD10B5044695
:1047E000204603F040FF10BD70B500BF00235022EB
:1047F00071490E2002F059F8054600BF2B46002BE8
:1048000007D000BF6A4AFF21A6311846FFF778FD9E
:1048100000BF00BF00BF694802F07CF8044600BF3B
:104820002346002B07D000BF614AFF21AA3118465A
:10483000FFF766FD00BF00BF614802F074F8044650
:1048400000BF2346002B07D000BF594AFF21AE31DD
:104850001846FFF755FD00BF00BF70BD10B53DDF26
:10486000044600BF2346002B07D000BF504AFF215B
:10487000B4311846FFF744FD00BF00BF10BD10B5AE
:1048800000BF5049012003F0E8FA044600BF234668
:10489000002B07D000BF464AFF21BF311846FFF763
:1048A0002FFD00BF00BF00BF10BDFFF791FD00F05E
:1048B0007FFA044600BF2346002B07D000BF3C4AC6
:1048C000FF21CF311846FFF71BFD00BF00BFFFF7E8
:1048D000D6FF00F0F2FC03F095F9044600BF234632
:1048E000002B07D000BF324AFF21D6311846FFF710
:1048F00007FD00BF00BF00F05AF900F04FFB00F0C9
:104900000CFC00F0B0FDFFF76FFFFFF742FD03F076
:104910004DFF044600BF2346002B07D000BF244AAA
:10492000FF21E8311846FFF7EBFC00BF00BF01F0A4
:10493000ACF8044600BF2346002B07D000BF1C4A3A
:10494000FF21EC311846FFF7DBFC00BF00BF01F090
:10495000D6F8FFF767FDFFF7D8FDFFF7A2FDFFF7D9
:104960002FFEFFF7E9FD0120174908700320C0035F
:1049700000F09FFD0022052109041448006802F0A0
:10498000C2FC044600BF2346002B06D000BF084AE5
:104990000F491846FFF7B4FC00BF00BF00BF02F08C
:1049A000ECFFFFF75BFFFAE7742B002004200020E8
:1049B000004701000C2C0020A82B0020C347010059
:1049C000DD470100F82B002030200020402000208F
:1049D00002020000FEB504F018FA00909449009815
:1049E00004F008FF074604F039FE84B204F035FAFB
:1049F00006468F49304604F0FDFE074604F02EFEC1
:104A000085B2211268460171447129128171C57104
:104A10000079884908706846407987490870684677
:104A20008079864908706846C07985490870FEBD5E
:104A300030B585B0062168460170012141707D487E
:104A40000178684681707C4801786846C1707B486F
:104A50000178684601717A480178684641710621FB
:104A600000F08EFA694688717648807D002821D052
:104A70000722744801F015FA0446002C1AD0724837
:104A800084420BD100BF2546002D06D000BF6FA287
:104A90005B212846FFF734FC00BF0BE000BF254632
:104AA000002D06D000BF69A260212846FFF728FC30
:104AB00000BF00BF05B030BD10B504F0A6F910BDB1
:104AC00010B504F0CAF910BDF0B585B00020009013
:104AD00004F09BF901905649019804F08BFE0746BB
:104AE00004F0BCFD86B204F0B8F902905049029877
:104AF00004F080FE074604F0B1FD85B2C82D05DD47
:104B00005648854202DA0120009003E0012000901F
:104B1000524D6D1E06216846017301214173311209
:104B20008173C673291201744574062103A800F02D
:104B300027FA014668468174807B3E4908706846C2
:104B4000C07B3D4908706846007C3C490870684657
:104B5000407C3B4908703B48807D002825D0009868
:104B6000012822D1072203A9364801F09AF9044608
:104B7000002C1AD0344884420BD100BF2746002FA6
:104B800006D000BF31A2C5213846FFF7B9FB00BFF0
:104B90000BE000BF2746002F06D000BF2BA2CA2182
:104BA0003846FFF7ADFB00BF00BF05B0F0BD70B5E4
:104BB0002B4A01212B4802F05FFB044600BF25462B
:104BC000002D06D000BF21A289212846FFF798FBBF
:104BD00000BF00BF402004F0E9F870BD70B5044686
:104BE000002221461F48006802F08DFB054600BFE9
:104BF0002E46002E06D000BF14A2D9213046FFF762
:104C00007FFB00BF00BF70BD70B51648006802F0A2
:104C1000ABFB044600BF2546002D06D000BF0BA20B
:104C2000E5212846FFF76CFB00BF00BF70BD000008
:104C30000000204110200020112000201220002020
:104C4000132000200C2C0020033000002E2E5C6866
:104C5000756D69747572652E63000000570400005D
:104C6000C94A01001420002010B50446012C03D1CC
:104C7000062000F01CF904E0002C02D1072000F00F
:104C800016F910BD10B50446012C03D1062000F022
:104C900013F904E0002C02D1072000F00DF910BD3B
:104CA00070B5064687480068002802D0012869D1FF
:104CB00011E085480068FFF7E5FFFF2082490860A2
:104CC00000208249087002207E4908608048006800
:104CD00002F04AFB6AE07D480078002804DD7B484A
:104CE0000078401E7949087078480078002811D172
:104CF00075480068FFF7C6FFFF2073490860002071
:104D00007249087002206F4908607148006802F01B
:104D10002BFB36E06D490878C10F0918491049008E
:104D2000411A17D000226B496948006802F0EBFA7B
:104D3000044600BF2546002D06D000BF66A297217D
:104D40002846FFF7DDFA00BF00BF5F480068FFF7A5
:104D50008BFF16E000225F495D48006802F0D3FA3D
:104D6000044600BF2546002D06D000BF5AA29D2153
:104D70002846FFF7C5FA00BF00BF53480068FFF799
:104D800081FF13E00020FFF77DFF0120FFF77AFF8E
:104D9000FF204D49086000204C4908700220494915
:104DA00008604B48006802F0DFFA00BF00BF70BD2A
:104DB00010B5062000F072F8072000F06FF8002010
:104DC000FFF760FF0120FFF75DFFFF203E4908600D
:104DD00000203E49087002203A490860414A0021FB
:104DE0003B4802F049FA10BDF8B506460F46154695
:104DF0003748006802F0F5FA002808D1FFF742FFB3
:104E00000120FFF73FFF3248006802F0ADFA002DA5
:104E100002D0012D3FD11FE02B4806602B480770C0
:104E20002848056028480068FFF71EFF002201217E
:104E300089032748006802F066FA044600BF009420
:104E4000009C002C06D000BF23A266210098FFF72B
:104E500057FA00BF00BF1FE01B4806601B480770E1
:104E60001848056018480068FFF7FEFE002219493F
:104E70001748006802F047FA044600BF0094009CFF
:104E8000002C06D000BF14A26F210098FFF738FA5B
:104E900000BF00BF00E000BF00BFF8BD0121052238
:104EA000120707231B02D2188300D150704701213B
:104EB00081400D4A91607047012181400A4AD160CA
:104EC0007047000020200020182000201C20002017
:104ED00024200020331300002E2E5C6C65642E63AA
:104EE00000000000A14C01000005005070B5044610
:104EF000C948844201DB642540E0C74864388442E5
:104F00000BDDC549091B3A2251430846642104F0D0
:104F10003EF86421081AC5B230E0C04884420CDD76
:104F2000BD496439091B182251430846A02104F0E9
:104F30002EF82A21081AC5B220E0B94884420CDDB7
:104F4000B649091B0C2251430846FF212D3104F0BC
:104F50001EF81221081AC5B210E0B24884420CDDD6
:104F6000AF49091B062251430846FF21553104F081
:104F70000EF80621081AC5B200E00025284670BDCB
:104F800010B502460B460020002100BF03E0545C30
:104F900060404C1CA1B29942F9DB10BDFF200B30E0
:104FA000A14948600020A1490860704770B5012000
:104FB0009F49086000BF9D4800680028FBD0002082
:104FC0009A4908609848806884B24B21090161437E
:104FD0000846984903F0DBFF0621484385B228467E
:104FE000FFF784FF70BDFEB59048006800284BD0E5
:104FF00000208E4908608C48806886B201208C4968
:1050000048604B210901714308468A4903F0BFFFFC
:105010000621484380B200900098FFF767FF0746DB
:10502000032168460171022141718771032101A8A2
:10503000FFF7A6FF6946C8717F48807D002822D00F
:10504000042201A97C4800F02CFF0446002C1AD051
:105050007A4884420BD100BF2546002D06D000BF00
:1050600077A276212846FFF74BF900BF0BE000BF7F
:105070002546002D06D000BF71A27B212846FFF7F0
:105080003FF900BF00BF00BFFEBD70B501207049F1
:105090004860FF200330644948600020634908608D
:1050A000012061490860072027DF044600BF25462C
:1050B000002D06D000BF62A296212846FFF720F9F6
:1050C00000BF00BF0321072028DF044600BF25469C
:1050D000002D06D000BF5AA299212846FFF710F9EB
:1050E00000BF00BF072023DF044600BF2546002D78
:1050F00006D000BF52A29C212846FFF701F900BF4D
:1051000000BF00204949086001204949086070BD7E
:1051100010B50446FFF7B9FF10BD70B54D480078D3
:10512000002803D1FFF742FF4A4908704A4A01218B
:105130004A4802F0A1F8044600BF2546002D06D0DB
:1051400000BF3FA2B1212846FFF7DAF800BF00BF39
:1051500070BD70B50446002221464048006802F048
:10516000D2F8054600BF2E46002E06D000BF34A25E
:10517000C8213046FFF7C4F800BF00BF70BD70B54E
:105180003648006802F0F0F8044600BF2546002DBE
:1051900006D000BF2AA2D4212846FFF7B1F800BFED
:1051A00000BF70BDF8B505460E4600BF00BF032125
:1051B0006846017002214170264801786846817076
:1051C0000321FFF7DDFE6946C8701B48807D00287B
:1051D00021D00422184800F064FE0446002C1AD0A6
:1051E000164884420BD100BF2746002F06D000BFCF
:1051F00013A2F0213846FFF783F800BF0BE000BF91
:105200002746002F06D000BF0DA2F5213846FFF734
:1052100077F800BF00BFF8BDB80B0000B40A00006B
:10522000880900003408000000750040007100404B
:1052300000700040FF0300000C2C00200330000031
:105240002E2E5C626174746572792E63000000001A
:105250000073004028200020115101002C20002064
:1052600010B504465048007801280AD14F480088FC
:105270004F49884205D14F480088401C4D4908805D
:1052800002E000204B4908804A4800888721C90075
:10529000884211DD4448007801280DD100204249A0
:1052A00008700320C00300F024F94348006802F0AE
:1052B0005BF800203F49088010BD70B500BF002397
:1052C000A42201213D4802F033FC054600BF2E46D2
:1052D000002E06D000BF3AA24B213046FFF710F84F
:1052E00000BF00BF00BF3B4A0121334801F0C4FFAB
:1052F000044600BF2546002D06D000BF30A2502135
:105300002846FEF7FDFF00BF00BF70BDF8B505469B
:105310006946112002F08BFC044600BF2646002E91
:1053200006D000BF26A261213046FEF7E9FF00BF8C
:1053300000BF112D35D168460078012830D11A48B8
:10534000007800282CD102F05DFC044600BF264600
:10535000002E06D000BF1AA26D213046FEF7D0FF06
:1053600000BF00BF0120104908700320C00300F0F7
:10537000A0F80022052109040F48006801F0C3FFCE
:10538000044600BF2646002E06D000BF0CA27121A5
:105390003046FEF7B5FF00BF00BF0020054908807A
:1053A00000E000BF00BFF8BD302000206C200020CE
:1053B000FFFF000032200020402000203420002089
:1053C0002E2E5C627574746F6E5F68616E646C65BE
:1053D000722E63006152010070B586B0054614213B
:1053E00001A803F0C8FD0021684601710020029069
:1053F00068460173002D02D0012D0DD105E040213A
:10540000684681823C21C18207E0192189016846F2
:105410008182B421C18200E000BF00BF01A873DF18
:10542000044600BF2646002E06D000BF42A24B21F4
:105430003046FEF765FF00BF00BF06B070BD70B517
:10544000064674DF02F0D2FB044600BF2546002D5D
:1054500006D000BF38A28A212846FEF751FF00BFC0
:1054600000BF70BD704770B5384A0021384801F060
:1054700003FF044600BF2546002D06D000BF2EA224
:105480005B212846FEF73CFF00BF00BF314A0021E8
:10549000314801F0F1FE044600BF2546002D06D03C
:1054A00000BF25A260212846FEF72AFF00BF00BFEB
:1054B00070BD70B50446002221462548006801F001
:1054C00022FF054600BF2E46002E06D000BF1AA2BE
:1054D00067213046FEF714FF00BF00BFFFF77AFADE
:1054E0000020FFF779FF012206210020FFF77CFC56
:1054F00070BD70B50446002221461748006801F0CF
:1055000002FF054600BF2E46002E06D000BF0AA2AD
:1055100075213046FEF7F4FE00BF00BFFFF774FBB5
:10552000FFF72DFE13210D48008876DF01220621AA
:105530001046FFF759FC70BD2E2E5C706F776572B8
:105540005F6D616E6167652E630000006554010048
:10555000482000203F540100442000206C200020FF
:10556000FEB505460E4600BF00BF04216846017027
:1055700003214170012181701621C1700421FFF7C0
:10558000FFFC69460871FE48807D002823D0052273
:10559000FB4800F086FC0446002C1CD0F9488442ED
:1055A0000CD100BF2746002F07D000BFF6A2FF2175
:1055B000C9313846FEF7A4FE00BF0CE000BF274605
:1055C000002F07D000BFF0A2FF21CE313846FEF7F2
:1055D00097FE00BF00BFFEBD10B5062000F0ADFA7B
:1055E000072000F0AAFA00220521C903ED4800684F
:1055F00001F089FE10BDFEB505460E4600BF00BF96
:10560000E94A0021E94803F0E3F90446002C0CD0F4
:1056100000BF2746002F07D000BFDBA2FF2151317A
:105620003846FEF76DFE00BF00BF00230C22DE49A6
:10563000DF4803F0DBFA0446002C0CD000BF2746FD
:10564000002F07D000BFD0A2FF2157313846FEF708
:1056500057FE00BF00BFD648017868460170D448A5
:1056600000880004010E68464170D14800680002BD
:10567000010E68468170CE480068010E6846C17010
:10568000CB48017968460171C94880880004010E41
:1056900068464171C64840680002010E6846817143
:1056A000C3484068010E6846C171C148017A684626
:1056B0000172BF4800890004010E68464172BC486F
:1056C00080680002010E68468172B9488068010E48
:1056D0006846C172AA48807D002824D00C22694601
:1056E000A74800F0DEFB0446002C1CD0A5488442ED
:1056F0000CD100BF2746002F07D000BFA2A2FF2178
:1057000071313846FEF7FCFD00BF0CE000BF2746B4
:10571000002F07D000BF9CA2FF2176313846FEF74C
:10572000EFFD00BF00BFFEBDFEB506460D460C2DC9
:1057300000D0FEBD2A463146684603F0BDFB6846F0
:10574000C0780106684680780004084369464978B5
:105750000902084369460978084396490860694682
:10576000C87900068979090408436946497909021C
:1057700008436946097908438E4948606846C07AFB
:1057800001066846807A000408436946497A09029E
:1057900008436946097A0843864988602946834850
:1057A00003F089FA0446002C0CD000BF2746002FD6
:1057B00007D000BF74A2FF213A313846FEF7A0FDA2
:1057C00000BF00BF784A0021784803F001F9044681
:1057D000002C0CD000BF2746002F07D000BF6AA2C4
:1057E000FF213E313846FEF78BFD00BF00BF00238E
:1057F0002A4670496C4803F02FF9044600BF27463B
:10580000002F07D000BF60A2FF2141313846FEF7CC
:1058100077FD00BF00BF00BF8BE7F0B585B0054640
:105820000E4600BF00BF062168460170012141708D
:105830006148017868468170604801786846C170A7
:105840005F480178684601715E4801786846417199
:105850000621FFF795FB694688714948807D00283D
:1058600021D00722464800F01CFB0446002C1AD029
:10587000444884420BD100BF2746002F06D000BF0A
:1058800041A2BB213846FEF73BFD00BF0BE000BF45
:105890002746002F06D000BF3BA2C0213846FEF7A6
:1058A0002FFD00BF00BF05B0F0BDF0B585B00E46BE
:1058B0001546142D05DC2A463146684603F0FCFAED
:1058C00001E000F031F968460078552844D1684677
:1058D000407801281AD13C4A0021084601F0ACFF6B
:1058E000044600BF2746002F06D000BF26A256213F
:1058F0003846FEF705FD00BF00BF002004E0002190
:105900006A461154411CC8B2A842F8DB6846407888
:10591000022822D168468078122812DC68468178F5
:105920002A4AC01C01F088FF044600BF2746002F0A
:1059300006D000BF14A261213846FEF7E1FC00BF8B
:1059400001E000F0F1F8002004E000216A46115463
:10595000411CC8B2A842F8DB92E0684640780328B0
:1059600046D11B4A0021084601F066FF044600BFED
:105970002746002F31D000BF03A27121384629E00D
:105980000C2C0020033000002E2E5C636F6D6D75B3
:105990006E69636174655F70726F746F636F6C2E94
:1059A000630000004C2000205820002050200020E0
:1059B000342C0020282C0020102000201120002052
:1059C00012200020132000201B580100295701003D
:1059D000F7550100FEF794FC00BF00BF002004E073
:1059E00000216A461154411CC8B2A842F8DB47E0C6
:1059F0006846407804280BD1FFF7EEFD002004E054
:105A000000216A461154411CC8B2A842F8DB37E0B5
:105A100068464078052814D14D480078012806D101
:105A200000204B4908700320C003FFF762FD0020EF
:105A300004E000216A461154411CC8B2A842F8DBB8
:105A40001EE06846407806281AD1424A00210846DE
:105A500001F0F2FE044600BF2746002F06D000BF2B
:105A60003D4A8E213846FEF74BFC00BF00BF0020A8
:105A700004E000216A461154411CC8B2A842F8DB78
:105A800005B0F0BD10B5029C10BD1CB50C216846D8
:105A900081800121C180314800903149684602F07F
:105AA000E5FE0446002C01D020461CBD2046FCE744
:105AB00038B5684612DF044600BF2546002D07D0E2
:105AC00000BF254AFF21A4312846FEF719FC00BF7C
:105AD00000BF68460078002805D0F0203ADFA020FB
:105AE00039DF00F021F838BD10B50446062000F07B
:105AF00029F8072000F026F8FFF7DAFF10BD70B58F
:105B0000184A0021184801F0B7FB044600BF25469B
:105B1000002D07D000BF104AFF2182312846FEF732
:105B2000EFFB00BF00BF70BDBFF34F8F0F481049A0
:105B3000C860BFF34F8F00BFFEE7012181400D4ACF
:105B400091607047012181400A4AD160704700008E
:105B5000302000206155010088590100855A01005C
:105B600050200020E95A01004C2000200400FA05D2
:105B700000ED00E0000500508A8882827047002214
:105B8000D2438282704770B504460E46B51D2988FF
:105B9000208A814213D1288B022810D100BF00BF78
:105BA000A97EEA7E120211430846C107C90F0029E7
:105BB00002D00120A0750FE00020A0750CE028881D
:105BC000A188884208D1A069002805D02A8B2946DF
:105BD0001A312046A369984770BD30B58FB004468E
:105BE0000D460020079000BF6846007F01090901AB
:105BF000491C68460177007FF021884310306946D0
:105C0000087700BF00BF6846407F01090901491CB1
:105C100068464177407FF0218843103069464877D5
:105C200000BF6846807F06218843811C68468177D3
:105C30001C2108A803F09FF908A8007810218843C8
:105C4000411808A80170002009900B900C9007A83B
:105C50000D9000200E90217868468171032181808B
:105C60000020009000BF6846007801090901491C26
:105C7000684601700078F02188431030694608704A
:105C800000BF00BF6846407801090901491C684609
:105C900041704078F021884310306946487000BF59
:105CA0006846807806218843811C68468170807828
:105CB0000821884301466846817080781021884316
:105CC000014668468170807841084900491C684651
:105CD0008170142102A803F04EF901A802906846D1
:105CE0000390012101820021418214218182608878
:105CF00023460C3302AA08A9A2DF0FB030BD30B58D
:105D00008FB004460D461C2108A803F034F908A8FA
:105D1000007808218843411808A801700078042100
:105D20008843011D08A80170002009900B900C9079
:105D30000D900E9021786846817202210181002029
:105D4000019000BF6846007901090901491C6846B5
:105D500001710079F021884310306946087100BF55
:105D600000BF6846407901090901491C6846417134
:105D70004079F021884310306946487100BF684679
:105D8000807906218843811C6846817180790821C9
:105D90008843014668468171807910218843014615
:105DA00068468171807941084900491C68468171C3
:105DB000142103A803F0DFF802A8039001A80490BF
:105DC0000121684681820021C182142101836088FB
:105DD000231D03AA08A9A2DF0FB030BD70B5054688
:105DE0000C46002D01D0002C00D170BD2088102859
:105DF00004D0112807D050280FD109E021462846A9
:105E0000FFF7BAFE0AE021462846FFF7B8FE05E094
:105E100021462846FFF7B7FE00E000BF00BF00BFE5
:105E2000E3E770B586B004460E462E4B0FCB01ADAE
:105E30000FC5002C01D0002E02D10E2006B070BD7F
:105E40000020C043A0823068A0610020A0752146D8
:105E500001A862DF0546002D01D02846EEE7217833
:105E60006846817501218182A21C05A90120A0DF5D
:105E70000546002D01D02846E0E731462046FFF7D1
:105E8000ACFE0546002D01D02846D7E73146204616
:105E9000FFF735FF0546002D01D02846CEE700204C
:105EA000CCE737B584B004460D46002C02D10E2055
:105EB00007B030BD6846008B142801DD0720F7E7E6
:105EC00000200090019002900390A1896846018013
:105ED000039506A80290012168468170A08A694650
:105EE000A6DFE5E778990100F7B584B004460F46D0
:105EF00006980678B01C1F2803DC2079801C1F2818
:105F000002DD0C2007B0F0BD1F20801B801E85B273
:105F10000295B11C781802A97DDF03900398002830
:105F200001D00398EEE72068022808D1684600896E
:105F3000A84204DC09200190684605890BE008208E
:105F400001902079002804D02079A84201DC25792D
:105F500001E068460589681CC2B23046711CCEB2A9
:105F60003A543046721CD6B20199395406980178D9
:105F7000A81C0818C1B2069801700020C2E7F8B545
:105F800005460C462078001D1F2801DD0C20F8BDB9
:105F9000684679DF0646002E01D03046F7E7032138
:105FA0002278501C2070A95419212278501C20708E
:105FB000A954207841196846008800F08AFA2178AF
:105FC000401820700020E2E7F8B505460F46164657
:105FD0001C466868002801D10720F8BD2078801C85
:105FE000298840181F2801DD0C20F6E72878401C7E
:105FF000C1B22278501C2070B1542178481C207006
:1060000077542A8823789819696802F055FF207818
:106010002978401820700020DFE730B5034610785B
:10602000C01C1F2801DD0C2030BD02241578681C1F
:1060300010704C550A241578681C10704C55157852
:10604000681C10704B550020EEE7FFB587B0064680
:106050001D46109C0020069020780590002747E000
:10606000B900706841180A886846028149884181F0
:10607000002203A902A864DF04900498002802D03B
:1060800004980BB0F0BD6846017B099881422ED17F
:106090000698002801D0002000E00220019020781E
:1060A0006946097B4118019808181F2801DD0C205A
:1060B000E7E70698002809D12078401C2070227854
:1060C000511C08982170A85401200690207842198C
:1060D00003A902A864DF04900498002801D0049862
:1060E000CFE720786946097B4018207000BF7F1CED
:1060F0003088B842B4DC0698002806D0217805988C
:10610000401C081AC1B2059829540020B9E7FFB510
:1061100081B0074615460A9E009602223846049B27
:106120000299FFF792FF0446002C02D0204605B0EA
:10613000F0BD0096102229463846049BFFF785FFE4
:106140000446002C01D02046F1E70020EFE701468D
:106150000888062808DB08881922D201904205DD4C
:106160000888E04A904201D00720704748880628F6
:1061700008DB48881922D201904205DD4888D94AB7
:10618000904201D00720F0E70888D64A904208D014
:106190004888904205D008884A88904201DD07204F
:1061A000E3E70020E1E7F8B506460D4614462078FF
:1061B000801D1F2801D90C20F8BD3046FFF7C7FF0E
:1061C0000746002F01D03846F6E705212278501CFB
:1061D0002070A95412212278501C2070A9542278D2
:1061E0005119308800F075F9217840182070227814
:1061F0005119708800F06DF9217840182070002046
:10620000DAE7F8B505460E4614462879801CC7B271
:106210002078801CC0191F2801DD0C20F8BD781CD7
:10622000C1B22278501C2070B154FF212278501C3A
:106230002070B15422789119288800F04AF9217809
:1062400040182070A88800280EDDA868002801D119
:106250000720E3E7AA8823789819A96802F02CFEA2
:1062600020782979401820700020D7E7FEB507462E
:106270000E461446786B002801D10720FEBD002091
:10628000019032E0796B0C22019850430D18287967
:10629000801CC0B200900098401CC1B22278501CF3
:1062A0002070B15416212278501C2070B1542278ED
:1062B0009119288800F00DF9217840182070A888DD
:1062C00000280EDDA868002801D10720D6E7AA889B
:1062D00023789819A96802F0EFFD207829794018F1
:1062E00020700198401CC0B201903820C15D019817
:1062F0008142C7DC0020C1E7F8B504460F461646C8
:106300000025002030702068002809D03246394628
:106310002046FFF7E9FD0546002D01D02846F8BDCF
:106320006079002808D031463846FFF728FE054638
:10633000002D01D02846F2E7208900280BDD3346E6
:106340003A46012120460830FFF73EFE0546002D63
:1063500001D02846E3E7206900280BD000202169FE
:10636000085632463946FFF758FE0546002D01D043
:106370002846D4E7A08A00280CDD3B4606220221ED
:10638000204614300096FFF7C2FE0546002D01D0CE
:106390002846C4E7A08B00280CDD3B4607220321DA
:1063A00020461C300096FFF7B2FE0546002D01D0B6
:1063B0002846B4E7A08C00280CDD3B4615221421AA
:1063C000204624300096FFF7A2FE0546002D01D09E
:1063D0002846A4E7E06A002809D032463946E06A38
:1063E000FFF7E1FE0546002D01D0284697E7206B18
:1063F000002809D032463946206BFFF702FF0546D8
:10640000002D01D028468AE73820005D002809DDEC
:10641000324639462046FFF729FF0546002D01D0B8
:1064200028467CE728467AE701460889002807D0F5
:10643000C868002804D0C86800780422104201D13E
:10644000072070470020FCE701460889002801DD8D
:10645000072070470020FCE7F3B593B00D460021FC
:10646000129111911398002814D01398FFF7DCFFB4
:106470000446002C02D0204615B0F0BD12AA09A98E
:106480001398FFF739FF0446002C01D02046F3E7AC
:1064900009AE00E00026002D13D02846FFF7D4FFF8
:1064A0000446002C01D02046E6E711AA01A928469F
:1064B000FFF722FF0446002C01D02046DCE701AFA5
:1064C00000E0002710A803793A46017A304672DFCF
:1064D000D2E702460A70FF20000210400012487006
:1064E00002207047FFFF000001464888B74A128823
:1064F000904206DB4888B54A5288904201DC012070
:1065000070470020FCE738B50546B1480088B1491E
:1065100088423BD0B0480078401CAF490870AF4873
:10652000007B097888420FDBA849A948008875DFFD
:106530000446002C07D0A9488069002803D0A7484A
:1065400081692046884721E00020A3490870A348BC
:10655000007C00280FD03B219D48008876DF044650
:10656000002C07D09D488069002803D09B48816992
:106570002046884700BF99484069002806D000207F
:106580000090964841696846884700BF38BD70B59D
:1065900005461C2229469148FDF706FE0020904939
:1065A0000870286800280BD008228848296802F063
:1065B00083FC86487ADF0446002C08D0204670BD54
:1065C00082487BDF0446002C01D02046F7E70020FC
:1065D000C0437F49088000207F490870814A00211C
:1065E000814800F049FEEAE710B57F48006800F0F6
:1065F000BBFE10BD38B57D48FFF776FF002829D1D6
:106600007748007800280AD074484069002820D0D4
:1066100000200090714841696846884719E06E483B
:106620000078002802D16D48456801E06B48856814
:10663000002229466C48006800F065FE0446002CE4
:1066400007D066488069002803D0644881692046E5
:1066500088470AE061484069002806D00120009080
:106660005E4841696846884700BF00205C49087061
:1066700038BD10B50446A088554908800822214637
:106680000E315A4802F018FC002053490870534854
:10669000C089002801D1FFF7ADFF10BD70B50546D8
:1066A0000020C0434A49088000204B4908704E48EA
:1066B000006800F059FE0446002C07D04748806966
:1066C000002803D0454881692046884770BD70B5D1
:1066D0000546AC1D20884149C989884220D1208BBC
:1066E00002281DD100BF00BFA17EE27E120211432D
:1066F0000846C107C90F002902D0FFF77BFF0FE052
:106700003948006800F030FE0646002E07D03348B6
:106710008069002803D0314881693046884700BF2E
:1067200070BD10B504460822A11D304802F0C4FB1C
:10673000FFF760FF10BD10B504462088102806D072
:10674000112808D012280ED0502810D107E020467A
:10675000FFF78FFF0CE02046FFF7A0FF08E0204680
:10676000FFF7B5FF04E02046FFF7DBFF00E000BFC6
:1067700000BF10BD38B5044608222146134802F078
:106780009BFB12487ADF0546002D1CD11748FFF706
:10679000ABFE00280BD10120114908700B490C48B1
:1067A000008875DF054601200B4908700BE00B4897
:1067B0004069002806D001200090084841696846D9
:1067C000884700BF0025284638BD00006220002011
:1067D0006C200020FFFF00006A2000204C2C0020CD
:1067E0006020002007650100782000206E20002036
:1067F00070B506460C46154629462046FDF7DFFDD6
:1068000070BDF8B559480078002800D1F8BD584847
:106810000068002801D1012000E00020054655480D
:106820000068002801D1012000E00020064600BFDA
:10683000002D14D168464EDF0446052C01D10125F8
:106840000CE0002C06D000BF4BA269212046FDF7CA
:1068500057FD03E0464900980968884700BF002EAD
:106860001AD153480088009069465248006860DF9A
:106870000446052C01D101260DE0002C06D000BFF6
:106880003DA280212046FDF73BFD04E04948006819
:1068900038490968884700BF002D02D0002E00D07B
:1068A00000E0C5E700BF00BFB0E7FFB581B00C4610
:1068B00016461F46002C02D1072005B0F0BD204629
:1068C0008107890F01D1012100E00021002901D1B8
:1068D0000720F2E7374804603548068036480760ED
:1068E0003649019810DF0546002D01D02846E4E71F
:1068F00001201E490870162023DFDEE710B511DFE6
:106900000446002C01D0012000E000201749087047
:10691000204610BD0146002901D10E2070471548C0
:1069200001600020FAE70146002901D10E207047DE
:106930000F4801600020FAE770B51F480068002882
:1069400011D01D4800688047044600BF2546002D31
:1069500007D000BF08A2FF2133312846FDF7D0FC45
:1069600000BF00BF01E0FFF74CFF70BD7C2000209E
:10697000902000208C2000202E2E5C2E2E5C2E2EAF
:106980005C2E2E5C2E2E5C2E2E5C536F7572636512
:106990005C73645F636F6D6D6F6E5C736F66746460
:1069A00065766963655F68616E646C65722E63000D
:1069B000882000208420002080200020F167010032
:1069C00010B5002819DAFE4A03071B0F083B9B0885
:1069D0009B00D2588307DC0EFF23A3409A438B070A
:1069E0001B0E8407E40EA3401A43F54B0407240F43
:1069F000083CA408A4001A5118E0F24A03231B0221
:106A0000D21883089B00D2588307DC0EFF23A340D3
:106A10009A438B071B0E8407E40EA3401A43E94BED
:106A2000032424021B198408A4001A5110BD10B5B8
:106A30000446E548846003211120FFF7C1FF10BD23
:106A400010B501200004E1494860E0494039486040
:106A5000112000F0ECFC112000F0DBFC0120DC49EF
:106A600008602F20FDF780FB10BD10B5112001211B
:106A70008140D44A8032116000BF01200004D34914
:106A80008860D249403988600120D14948602F2070
:106A9000FDF76AFB10BDF0B5024628205043CD4BF0
:106AA0001B68C118CC480068401C02D1CA4802606B
:106AB00057E0C9488B68006828246043C54C2468A7
:106AC00000198068834217D8C348006828235843B8
:106AD000C04B1B68C01880688B68C31ABE4800682A
:106AE00028246043BB4C246800198360BA480068BE
:106AF0004862B948026034E08B68B74D2C6828685A
:106B00000DE028254543B34E3668AD19AD685B1BD3
:106B1000044628254543AF4E3668AD19686A451CC2
:106B200007D028254543AB4E3668AD19AD689D4268
:106B3000E7D3451C0CD028254543A64E3668AD1931
:106B4000AD68EE1A28254543A24F3F68ED19AE60A7
:106B50008B604862282565439E4E3668AD196A628F
:106B600000BFF0BD70B502469B4C2168084609E0A5
:106B7000904200D108E0014628244443954D2D68F9
:106B80006419606A441CF3D100BF441C00D170BD7D
:106B9000814209D1904C246828256C438D4D2D6885
:106BA0006419646A8C4D2C6028244443894D2D68F7
:106BB0006419A36828244443864D2D686419656AC6
:106BC00028244C43834E3668A419656228244C431C
:106BD000804D2D686419606A441C0CD028244443FD
:106BE0007C4D2D686419A468E51828244443794E27
:106BF0003668A419A56000BFC9E710B5112000F0E0
:106C00000FFC10BD10B5142000F00AFC10BD70B5CB
:106C1000044672480068002813D0704A216AE0696F
:106C200012689047054600BF2E46002E07D000BFD1
:106C30006BA2FF2155313046FDF762FB00BF00BF5C
:106C400002E0E169206A884770BDF8B562480068D3
:106C5000401C39D0002700F01CFC04466C48016839
:106C6000204600F019FC06465B48056811E0282024
:106C70006843584909684418A068B04200D90AE03E
:106C8000A068361AA068C719656A2046FFF7BFFFDB
:106C900000BF681CEBD100BF5E4800785E490978F0
:106CA000884209D15C480078401CC0B25A4908703B
:106CB000022801D100200870574800788000574909
:106CC0000F50FFF79FFF00BFF8BD01465148007805
:106CD000514A127890421DD04E480078401C4D4ACF
:106CE000107010460078022801D100201070494829
:106CF00000788000494A10580860454A08681268C0
:106D00008018434A1060104600680002000A1060B4
:106D1000012070470020086000BFFAE7FEB52E484A
:106D2000006801903E48007800903FE00098C00065
:106D30003C4909684418257834E0182068436168A4
:106D40000F18681CC5B2A078A84200D10025386889
:106D5000022802D0032822D10EE028217868484377
:106D60001C4909684618307E002804D07868FFF76F
:106D7000F9FE0020307613E00CE01749096828225C
:106D80005143144A1268881800210176124A416A58
:106D9000116000BF10480068401CEED100E000BF49
:106DA00000BF00BF6078A842C7D100BF0098411E55
:106DB000C9B200910028B9D107480168019833E0B1
:106DC0001CED00E000E100E000150140401301402F
:106DD0000010014094200020A0200020B4200020BA
:106DE0002E2E5C2E2E5C2E2E5C2E2E5C2E2E5C2EDD
:106DF0002E5C536F757263655C6170705F636F6D5D
:106E00006D6F6E5C6170705F74696D65722E63008A
:106E1000A4200020B0200020B1200020A8200020C5
:106E2000992000209C200020814201D00120FEBD3D
:106E30000020FCE7F0B50346002426E0FE4E36684D
:106E400028277E43FD4F3F68F01986689E4203D98C
:106E50008668F61A86601CE086689B1B8668341973
:106E6000002686600676F44E3568F34F466A3E602B
:106E70004669002E08D00E193602360AC6604669E9
:106E8000066116684662156000BFEB480068401C4A
:106E9000D4D100BFF0BDFEB50746E74800680290B8
:106EA000E7480078019069E00198C000E549096869
:106EB00045185CE0781C07D03E4628207043DF4927
:106EC00009684418676A23E02978182359436A68D7
:106ED00050182978491C29702978AA78914201D143
:106EE00000212970466828217143D44A12688C1801
:106EF0000168012902D1217E002900D037E0816894
:106F0000E160C1682161016961614169216200BF7D
:106F1000CD49E0680968401A0002000ACB4988425E
:106F200008D2C949E068096800F0B6FA216940183A
:106F3000A06011E0C448E168006800F0ADFA00907C
:106F400021690098814204D921690098081AA0603B
:106F500001E00020A06000BF0020E060206101206F
:106F60002076801E60623046FFF795FD00BF781CDA
:106F7000A0D12878697888429CD100BF0198411E31
:106F8000C9B2019100288FD1AB48016802988142B3
:106F900001D00120FEBD0020FCE7FEB50546A64855
:106FA0000068401C34D0A448006828214843A34905
:106FB00009684018866800F06CFA0290A2480468DC
:106FC0002146029800F068FAC01C0190681C01D1AB
:106FD000FFF736FD0198B04201D2304600E001983B
:106FE00004192402240A20469949086000BF00F0D1
:106FF00050FA00900299009800F04EFAC71C204603
:10700000029900F049FA874201D9FFF7F6FD01E045
:10701000FFF72BFDFEBDFEB50020C04301908A485E
:107020000468854807686846FFF74FFE0546FFF786
:1070300075FE0646002D05D001AA21460098FFF7EF
:10704000F9FE01260198FFF726FF002800D001264F
:10705000002E02D03846FFF7A0FFFEBD41707047FA
:1070600070B502460B465078411C9078884200D19A
:1070700000211078884201D1002070BD196050783D
:107080001826704355682C182046F6E7FFB581B0E6
:1070900005460E461746E9006A4A1268881869468E
:1070A000FFF7DEFF0446002C02D1042005B0F0BD3E
:1070B00001202060666000F0ECF9A060E7600498B1
:1070C00020610A986061E9005E4A12688818009998
:1070D000FFF7C4FFFFF796FD0020E7E7F8B5044689
:1070E0000E46E100574A126888186946FFF7B8FF54
:1070F0000546002D01D10420F8BD022028606E60F5
:10710000E100504A126888180099FFF7A7FFFFF7BF
:1071100079FD0020F0E738B50446E100494A1268DD
:1071200088186946FFF79CFF0546002D01D1042011
:1071300038BD03202860001F6860E100414A1268E2
:1071400088180099FFF78AFFFFF75CFD0020EFE742
:1071500010B500203F49086000213E484160816031
:10716000C16000203B49403908604860FFF76DFD71
:1071700010BD10B5FFF74FFF10BDFFB581B00E4633
:1071800017461C4620468107890F01D1012100E0E6
:107190000021002902D1072005B0F0BD002C01D14B
:1071A0000720F9E7FFF761FC2B490A9808602B4894
:1071B00006702248046000250CE000212820684366
:1071C0001E4A12681150282068431C4A1268801811
:1071D00001766D1CB542F0DB2820704304190320B2
:1071E0001749087017480460183400250CE0E900BE
:1071F000144A126888180021017041708770446039
:10720000182179430C196D1C032DF0DB0020C043BD
:1072100009490860002012490870124908701420BA
:1072200000F005F903211420FFF7CAFB142000F039
:10723000F0F8019818E00000A02000209420002021
:10724000992000209C200020A4200020FFFF7F0028
:107250004015014040110140B4200020982000203A
:10726000B0200020B1200020FFF7E1FB00F011F971
:107270008C49086000208FE770B503460C468A48A9
:107280000068002801D1082070BD002A01D1072024
:10729000FAE7002B01D10720F6E700211CE02820A7
:1072A0004843814D2D682858002814D101252820F5
:1072B00048437D4E36683550282048437A4D2D6826
:1072C0004019446028204843774D2D684019C26119
:1072D00019600020D8E7491C744800788142DEDB41
:1072E0000420D1E710B500F0AAF8012802D0032845
:1072F00004D101E0002403E0012401E0022400BFE6
:1073000000BF204610BDFEB504460D461646664831
:107310000068002801D10820FEBD6448007884423E
:1073200001D2052D01D20720F6E7282060435E49EF
:1073300009680858012801D00820EDE7282060439B
:107340005949096840184068012801D1284600E0E1
:1073500000200746FFF7C6FF3B462A462146009617
:107360000190FFF793FED7E770B504464E480068DA
:10737000002801D1082070BD4C480078844201D318
:107380000720F8E728206043474909680858012882
:1073900001D00820EFE7FFF7A5FF05462146FFF7DC
:1073A0009DFEE8E710B540480068002801D108209C
:1073B00010BDFFF797FF0446FFF7ADFEF8E710B5E5
:1073C000044600F066F82060002010BD70B5054648
:1073D0000E4614463146284600F05EF82060002034
:1073E00070BD014630480068002801D10820704770
:1073F0002E480078814201D30720F8E7282048432F
:10740000294A12681058012801D10020EFE708200E
:10741000EDE7C206D20E01219140254A1160704766
:10742000C206D20E01219140224A11607047C20665
:10743000D20E012191401F4A80321160704710B571
:107440001D484068C105C90D002920D00A46103AE0
:10745000104600280DDA184B1C330407240F083C93
:10746000A408A4001B598407E40EE3401B069B0FED
:107470000BE00F4B032424021B198408A4001B59A2
:107480008407E40EE3401B069B0FD8B210BD042016
:10749000FCE70A48406870470246501A0002000A9A
:1074A00070470000A4200020942000209820002095
:1074B00000E100E000E200E000ED00E00015014026
:1074C00070B500BF01200005C949886000BF00BF3A
:1074D0004010886000BF0420FCF756FEC4480069D5
:1074E000C002C00F06D0C24800690003C00F01D01F
:1074F000012426E0BE4800690003C00F20D000240C
:10750000122518E000BF0120C004B949C86000BFBF
:107510000420FCF739FE00BF0120C004B449886094
:1075200000BF0420FCF730FEB1480069C002C00F64
:1075300001D0012403E028466D1E0028E2D100E0BE
:107540000024204670BD10B500BFAA4805210907D8
:10755000072212028918086500BF00BF052109072C
:107560008918C86400BF00BF0120C004A04988601A
:1075700000BF00BF886100BF00BF4000886000BF3F
:1075800000BF886100BFFFF79BFF10BD10B500BFB3
:107590000120C0049649886000BF0420FCF7F4FD78
:1075A00000BF934800690003C00FFAD0012010BD4E
:1075B00010B500BF012000058D49C86000BF042040
:1075C000FCF7E2FDFFF7E2FF002800D110BD00BF8D
:1075D000012000058649886000BF0420FCF7D4FD27
:1075E0000120F3E770B50646012400BF200580495D
:1075F000886100BF80251EE000BF0120C0047C49D7
:10760000C86000BF0420FCF7BFFD3046284205D00B
:1076100000BF012000057649886005E000BF012019
:1076200000057349C86000BFFFF7B0FF002801D113
:10763000002402E06D08002DDED100BF00BF012054
:10764000C0046B49C86000BF0420FCF79DFD00BF6B
:10765000012000056649C86100BF0420FCF794FDC5
:10766000FFF794FF044062480069000D0121484083
:10767000044000BFC8045E49C86000BF0420FCF796
:1076800083FD00BF012000055949886100BF2046E5
:1076900070BDF8B505460E4600270120009000BFDA
:1076A00000055349C86100BF802417E0FFF76EFF53
:1076B000002801D1009013E04D480069C002C00FBE
:1076C00002D038462043074600BF0120C004484985
:1076D000C86000BF0420FCF757FD6408002CE5D10A
:1076E00000BF00BF012000054149886100BF2F7025
:1076F000002E02D000BFC86005E000BF01200005D9
:107700003B49886000BF0420FCF73EFDFFF73EFFC9
:10771000002800D1009000BF0120C0043449C86097
:1077200000BF0420FCF730FD0098F8BD10B500BF85
:10773000012000052E49886000BF0420FCF724FDCD
:10774000FFF724FF002800D110BD00BF0120000575
:107750002749C86000BF0420FCF716FD00BF0120C8
:10776000C0042349C86000BF0420FCF70DFD0120C0
:10777000EAE7FFB581B007460D4616460124FFF73C
:10778000D5FF04403846FFF72DFF0440F807C00F2F
:1077900016D00DE0002E05D100212846FFF779FF15
:1077A000044004E001212846FFF773FF04406D1CEC
:1077B0003046711ECEB200280FD0002CEAD10CE06A
:1077C00004E02878FFF70EFF04406D1C3046711E60
:1077D000CEB2002801D0002CF3D10498002801D1AA
:1077E000002C02D1FFF7E4FE0440204605B0F0BDB6
:1077F000000500500C06000030B50346481CC004CC
:10780000040C10468507AD0F01D1012500E00025CD
:10781000002D01D1072030BD794802601019794D43
:1078200028600020784D2870784D287078480380B3
:10783000784801800020EEE7F7B584B00C46744824
:10784000008884426BDC744D0020039000F0A4F8A3
:1078500002900298012814D003A82BDF0746022FBC
:1078600001D172B60CE000BF0197019F002F06D036
:1078700000BF6AA259210198FCF742FD00BF00BF7A
:1078800000BF6148007800F0B1F86049097888428B
:1078900006D05D480578007800F0A8F85A490870CD
:1078A0000298012814D062B66846007B2CDF074698
:1078B000022F0CD000BF0197019F002F06D000BF00
:1078C00056A261210198FCF71BFD00BF00BF00BF5D
:1078D0005148854221D0E900494A06981268505023
:1078E0000498002811D0002C0FDD4949098869430C
:1078F000444A126888182246049901F0DDFAE8002B
:107900003F4909684018848005E00020E9003C4AAE
:10791000126889188880002600E0042600E0092605
:10792000304607B0F0BDF8B505460E4617460520AF
:107930000090354800783549097888421BD0334893
:107940000478007800F052F8304908703048008818
:1079500060432C49096840182860E00028490968FC
:10796000401880883080E000254909680858386050
:107970000020009000BF0098F8BD0EB504E06846F6
:107980008188009A029890476A4601A902A8FFF7E9
:10799000CAFF0028F3D00EBD10B52D484068C105C0
:1079A000C90D002920D00A46103A104600280DDAE9
:1079B000274B1C330407240F083CA408A4001B59C0
:1079C0008407E40EE3401B069B0F0BE0214B0324CE
:1079D00024021B198408A4001B598407E40EE34009
:1079E0001B069B0FD8B210BD0420FCE701460948D6
:1079F0000088814201DA481C00E00020C0B27047D4
:107A0000B8200020BC200020C1200020C020002081
:107A1000C2200020C4200020FFFF00002E2E5C2E7C
:107A20002E5C2E2E5C2E2E5C2E2E5C2E2E5C536F2A
:107A3000757263655C6170705F636F6D6D6F6E5CB6
:107A40006170705F7363686564756C65722E630046
:107A500000ED00E000E100E070B504468A480068EF
:107A6000002812D02178884AA068126890470546FD
:107A700000BF2E46002E06D000BF84A2292130462A
:107A8000FCF73EFC00BF00BF02E02078A1688847F9
:107A900070BDF1B582B00027029C69468848007825
:107AA00000F0E9FA01900198002800D0FEBD854958
:107AB0000098096808400746834800680099884391
:107AC0000743204638400446002C18D0002511E01A
:107AD0000C2068437D4909684618317801208840A8
:107AE000204205D0B068002802D03046FFF7B4FF2E
:107AF000681CC5B2764800788542E9DB00BF00BF4C
:107B0000D4E770B504460D4672480068FFF72CFCB8
:107B10000646002E00D070BD2046284302466E481F
:107B200001686C480068FFF7EEFB064600BFF2E70D
:107B3000FFB583B005460C461646052E02D2072037
:107B400007B0F0BD61480560614804706248066096
:107B50004D490698086000205A4908605A49086053
:107B60002CE00C216143481902780192416802918E
:107B7000029989000522120707231B02D318019AD4
:107B80009200995000BF4178002901D0012100E006
:107B90000021027891404B4A12681143494A116012
:107BA0004178002901D1012100E0002102789140B3
:107BB000454A12681143444A116000BF2046611EC5
:107BC000CCB20028CDD1454B3F4802683D48016802
:107BD0003B4800F07BF90746002F01D03846AFE75D
:107BE0003F4A00213B48FFF747FBA9E710B537485C
:107BF0000068002801D1082010BD3148007800F04D
:107C0000AAF9F9E710B531480068002801D1082029
:107C100010BD2B48007800F00DFA0446002C01D06E
:107C20002046F5E72B480068FFF79EFBF0E7F8B524
:107C300007460C46002625480068002801D1082088
:107C4000F8BD69461E48007800F015FA0546002D7B
:107C500001D02846F4E70120B840064600980642C5
:107C600008D119480068304201D0012000E000200E
:107C7000207007E013480068304201D0012000E086
:107C8000002020700020DBE7DC2000202E2E5C2E60
:107C90002E5C2E2E5C2E2E5C2E2E5C2E2E5C536FB8
:107CA000757263655C6170705F636F6D6D6F6E5C44
:107CB0006170705F627574746F6E2E6300000000F7
:107CC000E0200020D4200020D0200020C820002068
:107CD000CC200020E4200020D8200020037B0100DD
:107CE000937A0100F0B502460C46002035E00123EE
:107CF0008340194623460B422ED0D5680D4205D14C
:107D000001235B04D5680D43D56004E003231B0405
:107D1000D5688D43D56005252D0707263602AD1998
:107D20008600AD5903263604B543052636070727D6
:107D30003F02F6198700F55105252D070726360263
:107D4000AD198600AD591D430526360707273F02AA
:107D5000F6198700F55100BF401C2028C7D3F0BD9D
:107D6000F0B585B0EC4805690020EC49C8630026F1
:107D70003DE014207043EA49096844180120B040EE
:107D8000E8490968084230D0E068C043684021688B
:107D90000840074639462046FFF7A4FFDE48006941
:107DA00068400390039800280ED003980543E068CC
:107DB000C043684021680840009020460099FFF7C2
:107DC00091FF0098074300BFA068A8433840019086
:107DD000606828403840029001990298084303D017
:107DE000226901990298904700BF701CC6B2CE4824
:107DF00000788642BDDB05B0F0BD10B5014600201D
:107E000028E014224A43C64B1B689A58012383403A
:107E10001A421ED00522120707231B02D218830024
:107E2000D25803231B049A4305231B07072424026B
:107E30001B1984001A510522120707231B02D218AE
:107E40008300D25805231B07072424021B19840032
:107E50001A51401C2028D4D310BD70B505460C46DD
:107E6000002C01D1072070BD20468107890F01D168
:107E7000012100E00021002901D10720F3E7A848F3
:107E80000460AA4805700020A7490870A549086049
:107E9000A6480078142250430146A148006801F02A
:107EA0006AF80020C043A249886006200121814071
:107EB000A04A116000BF012100F0F7F8062001215F
:107EC00081409D4A116000BF0020CCE7F8B5044610
:107ED0000D4616461F4692480068002801D108202A
:107EE000F8BD002F01D10720FAE78F4800788F49AD
:107EF0000978884201DB0420F2E7284630438A49AA
:107F0000097814225143864A1268505086480078F6
:107F10001421484382490968401845608248007826
:107F2000142148437E490968401886607E480078DD
:107F3000142148437A490968401807617A48007853
:107F4000207079480078401C774908702078FFF746
:107F500054FF0020C4E7F0B50246714800680028CD
:107F600001D10820F0BD70480078824201DB072073
:107F7000F8E70020694BD8636748046969480068DE
:107F8000002802D158066A4B586001209040654B8A
:107F90001B681843634B1860002314205043604D46
:107FA0002D684019C360002140E001238B40184632
:107FB000142353435A4D2D68EB58034235D02546C0
:107FC000054202D003231B040EE001235B041425A9
:107FD0005543534E3668AD19ED6805431426564394
:107FE0004F4F3F68F619F56005252D070726360225
:107FF000AD198E00AD5903263604B5430526360764
:1080000007273F02F6198F00F55105252D07072692
:108010003602AD198E00AD591D43052636070727D8
:108020003F02F6198F00F55100BF491C2029BCD32F
:10803000002097E710B5044639480068002801D1B0
:10804000082010BD38480078844201DB0720F8E79B
:108050002046FFF7D2FE0120A04032490968814343
:10806000304801600068002803D10120C007304972
:1080700088600020E5E710B502462948006800281E
:1080800001D1082010BD28480078824201DB07207A
:10809000F8E714205043224C246803191E48006955
:1080A0001C68204008600020ECE710B5002819DAB1
:1080B000224A03071B0F083B9B089B00D2588307EB
:1080C000DC0EFF23A3409A438B071B0E8407E40EAC
:1080D000A3401A43194B0407240F083CA408A4002A
:1080E0001A5118E0144A03231B02D21883089B007C
:1080F000D2588307DC0EFF23A3409A438B071B0E45
:108100008407E40EA3401A430B4B032424021B19DB
:108110008408A4001A5110BD0005005040610040C1
:10812000E8200020EC200020F1200020F02000209A
:108130000063004080E200E000E100E01CED00E0B0
:10814000002314214143F94A53541421414389180F
:108150004B8005231421414389188B60002314218F
:1081600041438918CB601421414389180B611421C4
:10817000414389188B80704710B50020EC49088076
:10818000EC490860E949091F0870487088700024AC
:1081900003E02046FFF7D4FF641C1E2CF9D310BD6A
:1081A000FFB583B004460F4615460326E148006834
:1081B00000280BD1002D06D10698002803D10220FB
:1081C000DC49086002E00120DA490860D94800680B
:1081D000030001F0BAFA07FC05304D82B7D4FC0069
:1081E000D5484069401C08D001221207126991B29B
:1081F000D14A506900F0C1FE02E001200007406949
:10820000401E01210907096989B2484302900120F3
:10821000000700690004820C01200007006980B299
:1082200078430146029851DF0646002E02D1022013
:10823000C0490860CCE0384650DF0646002E16D113
:10824000002D11D1069800280AD12078042803D1E6
:108250000720B84908600AE00520B649086006E032
:108260000420B449086002E00320B2490860AFE08E
:10827000B1484069401C08D001221207126991B22E
:10828000AD4A506900F079FE02E001200007406924
:10829000401E01210907096989B2484301210907E4
:1082A0000290096989B2794308462A46029951DF4A
:1082B0000646002E10D1069800280AD120780428FE
:1082C00003D106209B49086006E005209949086013
:1082D00002E00420974908607AE097484069401C12
:1082E00008D001221207126991B2934A506900F036
:1082F00044FE02E0012000074069401E01210907F9
:10830000096989B24843A9004018618840180121D1
:1083100009070290096989B27943AA00891862881D
:108320008818069A029951DF0646002E09D1207856
:10833000042803D106207F49086002E005207D491A
:10834000086045E001200007006980B27843AB0077
:10835000C0180290608882082169029851DF0646A1
:10836000002E0BD1002D06D10698002803D107203E
:108370007049086002E006206E49086028E06E48F7
:108380004069401C08D001221207126991B26A4A62
:10839000506900F0F2FD02E0012000074069401E34
:1083A00001210907096989B24843019001200007AA
:1083B000006981B2019800F0E0FD029050DF0646AE
:1083C000002E02D107205B49086001E0FFE700BFF3
:1083D00000BF304607B0F0BDF0B585B00F27534859
:1083E000001F00781421484350494418E56820785C
:1083F000022804D0042823D005286FD16FE020691B
:1084000003904B48008886026088801B0490039884
:1084100080190390A08880194519012189020498C8
:10842000884206D2049882082846039951DF0746FD
:1084300005E0FF2201322846039951DF074680E01C
:10844000A06800013D49401800890490A06800011F
:10845000401840890390A0680001401840680290CD
:108460000298A84205D1039904984843618888423C
:1084700002D0A06806280DD101200007006981B252
:10848000284600F07AFD2A4909884618304650DF10
:10849000074622E001200007006981B2284600F06B
:1084A0006CFD064601200007006980B27043281A5F
:1084B0008008019001200007006980B2711C4843C8
:1084C00061884919401A8008009031462046009B77
:1084D000019AFFF765FE074600BF32E030E0012059
:1084E0000007006981B2284600F047FD0646A088D3
:1084F000411901200007006980B27043081A800802
:108500000490A08840196188421801200007006982
:1085100080B2711C4843801A80080390314620467F
:10852000039B049AFFF73CFE07460AE06C2C0020F0
:10853000FC2000200021002000100010C42E00208C
:1085400000BF00BF002F02D10120FE4988703846CD
:1085500005B0F0BDFFB581B0064617460024F948C6
:1085600040781E2837D0F7480078F64949784018F7
:10857000C4B21E2C02DB20461E38C4B21420604355
:10858000F049091D0E54142060434018076114205F
:1085900060434118029805C8CA608860142060438F
:1085A000E84A121D80180499418014206043801805
:1085B0000A9981800025101F8078002805D1FFF7D7
:1085C0000BFF0546112D00D10025DE484078401CE8
:1085D000DC49487000E00425284605B0F0BDF8B538
:1085E0000446D848007814214843D649091D0E5C3A
:1085F000081F007814214843D249091D401880689B
:108600000001D1490D58CF48007814214843CD4985
:10861000091D40184088091F009009781422514311
:10862000C84A121D89180B69111F09781422514379
:10863000C44A121D89180846083022463146A84708
:10864000F8BD10B50024BF484078002809DDFFF7C9
:10865000C3FE0446002C04D0112C02D02046FFF7A4
:10866000BEFF204610BDFEB505460026B548807801
:1086700001287DD10020B3498870B44800680828DB
:1086800011D1022D03D10020B049086002E0002082
:10869000AF490870FFF7D5FF0646002E02D03046DE
:1086A000FFF79DFFFEBD022D02D0032D79D174E0AE
:1086B000A448007814214843A249091D4418A5483C
:1086C0000088401CA34908802078022807D108466A
:1086D000008880026188884201DB012000E00020E0
:1086E00007462078052805D198480068072801D159
:1086F000012000E0002002902078042805D1934852
:108700000068072801D1012000E0002001902078B6
:1087100004280BD18F48008880026188884205DBDD
:108720008A480068002801D1012000E00020009064
:108730000298002807D10198002804D10098002849
:1087400001D1002F1FD00020804908603046FFF77C
:1087500046FF7C490878FFF7F3FC00207D4908803C
:1087600078484078401E774948700846007800E015
:108770001AE0401C0870084600781E2803DB0846F3
:1087800000781E380870FFF75CFF0646002E02D006
:108790003046FFF724FF05E003E00D20FFF71FFF41
:1087A00000E000BF00BF00BF00BF7BE770B5FFF770
:1087B000E3FC00206849088068484069401C08D0F4
:1087C00001221207126991B2644A506900F0D5FB88
:1087D00002E0012000074069801F012109070969A3
:1087E00089B248435E49086000205A49088000BFAA
:1087F0000DE000210201544B99500201D218118161
:108800000201D21891810201D2185181401C052821
:10881000EFD308204D49086050484069401C08D0FB
:1088200001221207126991B24C4A506900F0A5FB6F
:1088300002E0012000074069401E01210907096983
:1088400089B24843064601200007006981B23046DC
:1088500000F093FB054650DF0446002C04D10120B4
:10886000384988703A490870204670BDF8B504460A
:108870000D4600BF36480078002801D10820F8BD19
:1088800000BF002C01D10E20F9E7002D01D10E20F0
:10889000F5E72068002801D10E20F0E7A08801212B
:1088A0000907096989B2884202DCA088042801DA34
:1088B0000720E4E7E08800281DD028484069401CD4
:1088C00008D001221207126991B2244A506900F0BF
:1088D00054FB02E0012000074069401E0121090706
:1088E000096989B24843E188A28851431C4A126849
:1088F0008918884201D20720C1E720798007800FBC
:1089000001D00720BBE714480088052801D10420C6
:10891000B5E71148008828601148006868600E4972
:1089200009880901084A8918686848600A4909885D
:10893000090120685050A088074909880901891851
:1089400008810FE0682C0020C42E002000210020A8
:10895000F4200020FC200020F62000200010001051
:10896000F8200020E088F849098809018918488121
:108970000027A688E1884E4300BF781C87B20120FB
:108980000007006980B2B04205D2012000070069EB
:1089900080B2361A00E0002601200007006980B28C
:1089A000EA4909684018E9490860012000070069A0
:1089B00080B2B042E1D9E44800880001E44940189F
:1089C0008781E1480088401CDF490880002056E785
:1089D0003CB5034600BFDF480078002801D10820DD
:1089E0003CBD00BF002B01D10E20F9E7002A01D1C8
:1089F0000E20F5E71868052805D218680001D44C48
:108A00002058002801D10720EAE75C681868019423
:108A10000090019C18680001CD4D40190089484321
:108A200020180190009800012C4600194089009CF4
:108A30002401641924896043009C2401641964683A
:108A40000019019CA04201D80720C9E7019C0098A9
:108A5000546010600020C3E7F8B504460E46154682
:108A60001F4600BFBB480078002801D10820F8BD90
:108A700000BF002E01D10E20F9E7002C01D10E20FD
:108A8000F5E72068052805D220680001B04908589C
:108A9000002801D10720EAE720680001AC4940180E
:108AA000408921680901AA4A89180989484321682F
:108AB00009018918496840186168884201D807206F
:108AC000D5E7002D06D020680001A1494018008993
:108AD000A84201DA0720CAE7E819216809019C4A7F
:108AE00089180989884201DD0720C0E7304600F077
:108AF00050F9002804D0384600F04BF9002801D185
:108B00001020B4E7606800F044F9002801D110207B
:108B1000ADE72B463246214602200097FFF71AFDAB
:108B2000A5E7F8B504460E4615461F4600BF89481E
:108B30000078002801D10820F8BD00BF002E01D127
:108B40000E20F9E7002C01D10E20F5E7206805285A
:108B500005D2206800017E490858002801D107206D
:108B6000EAE7206800017A49401840892168090134
:108B7000774A891809894843216809018918496891
:108B800040186168884201D80720D5E7002D06D03B
:108B9000206800016E4940180089A84201DA0720C8
:108BA000CAE7E81921680901694A891809898842D0
:108BB00001DD0720C0E7304600F0EBF8002804D0C4
:108BC000384600F0E6F8002801D11020B4E76068CC
:108BD00000F0DFF8002801D11020ADE72B46324627
:108BE000214605200097FFF7B5FCA5E7F8B5074635
:108BF0000C4615461E4600BF56480078002801D195
:108C00000820F8BD00BF002C01D10E20F9E7002F8D
:108C100001D10E20F5E72068052805D22068000163
:108C20004B490858002801D10720EAE720680001D5
:108C300047494018408921680901454A891809892E
:108C400048432168090189184968401861688842C9
:108C500001D80720D5E7002D06D0206800013C4947
:108C600040180089A84201DA0720CAE7A81921683C
:108C70000901374A89180989884201DD0720C0E7C0
:108C8000384600F086F8002804D0304600F081F81D
:108C9000002801D11020B4E7606800F07AF80028BD
:108CA00001D11020ADE7606881192A46384600F0EE
:108CB00003F90020A5E7F8B504460D4600BF254896
:108CC0000078002801D10820F8BD00BF002C01D198
:108CD0000E20F9E72068052805D2206800011C490C
:108CE0000858002801D10720EEE720680001184944
:108CF0004018408921680901154A891809894843A3
:108D0000216809018918496840186168884201D8BA
:108D10000720D9E7606800F03CF8002801D1102056
:108D2000D2E723681B010A4FDB1962685B68D01A1F
:108D3000226812013B46D218118900F01EF9002961
:108D40000AD00720C0E70000F6200020F82000200D
:108D5000C42E0020F420002000202B46024621468D
:108D600000900420FFF7F6FB06463046ACE70146CC
:108D700000BF0C480078002801D10820704700BFD0
:108D8000002901D10E20F9E707484078086000204B
:108D9000F4E701468807800F01D1012070470020C9
:108DA000FCE70000F4200020682C002010B50446E9
:108DB0006006000E3A490870FEF7C5FB10BD38B5D5
:108DC00004460D4668460470457001230222694638
:108DD00033480078FEF7CDFC38BDF7B50D46164692
:108DE0000023012269462E480078FEF7C2FC0446A3
:108DF0002B49097801221143084613463246294679
:108E0000FEF7B7FC04402046FEBDF0B587B0022255
:108E100005A9E320FFF7E1FF6A46117D0902527DB3
:108E20001143084600F056FC1E49019000F0E2FC98
:108E300007468F21C90500F061FB044600F032FBB4
:108E4000194A1A4B0391029000F00AFB054600F004
:108E500045F90490049807B0F0BDF8B502226946C0
:108E6000E520FFF7BAFF6A461178090252781143EC
:108E7000084600F02FFC07460D4900F0BBFC0646F3
:108E80008F21C90500F03AFB05460A4900F00AFDAA
:108E900004462046F8BD4020FFF788FF00BFFEE7EC
:108EA0000421002052B82F43CDCCCCCCCC6C474011
:108EB0000000FA420000C040F8B5042A2CD3830712
:108EC00012D00B78491C0370401C521E83070BD034
:108ED0000B78491C0370401C521E830704D00B788A
:108EE000491C0370401C521E8B079B0F05D0C91AEA
:108EF000DF002023DE1B08C90AE0FBF755F9F8BDA7
:108F00001D4608C9FD401C46B4402C4310C0121F2A
:108F1000042AF5D2F308C91A521EF0D40B78491C62
:108F20000370401C521EEAD40B78491C0370401C8D
:108F3000521EE4D409780170F8BD01E004C0091F95
:108F40000429FBD28B0701D50280801CC90700D001
:108F50000270704700290BD0C30702D00270401C7A
:108F6000491E022904D3830702D50280801C891E72
:108F7000E3E70022EEE70022DFE7002203098B424D
:108F80002CD3030A8B4211D300239C464EE00346A8
:108F90000B433CD4002243088B4231D303098B425C
:108FA0001CD3030A8B4201D394463FE0C3098B4292
:108FB00001D3CB01C01A524183098B4201D38B01EB
:108FC000C01A524143098B4201D34B01C01A52418E
:108FD00003098B4201D30B01C01A5241C3088B42D3
:108FE00001D3CB00C01A524183088B4201D38B00BE
:108FF000C01A524143088B4201D34B00C01A524160
:10900000411A00D201465241104670475DE0CA0F36
:1090100000D04942031000D34042534000229C46F6
:1090200003098B422DD3030A8B4212D3FC22890100
:1090300012BA030A8B420CD3890192118B4208D3D6
:10904000890192118B4204D389013AD0921100E038
:109050008909C3098B4201D3CB01C01A524183094C
:109060008B4201D38B01C01A524143098B4201D379
:109070004B01C01A524103098B4201D30B01C01AA4
:109080005241C3088B4201D3CB00C01A524183081E
:109090008B4201D38B00C01A5241D9D243088B4274
:1090A00001D34B00C01A5241411A00D20146634617
:1090B00052415B10104601D34042002B00D549427B
:1090C000704763465B1000D3404201B50020C046A4
:1090D000C04602BD70477047704700000246C80F87
:1090E000C00781434B0030B54B405B009B0D20D047
:1090F0001923DB06C91801231B05994220DB032431
:10910000A40704251346AB400BD3002B04D1EB0678
:1091100013409B001B1904D4012464070023121977
:109120005941FF231B0599420BD2C9000143500F3F
:1091300009E0CB0204D501430803024305D00548EA
:1091400030BDFF21C905084330BD08460721090588
:10915000884330BD0000C07FF0B50C46871A9C41A3
:109160000D46861A9D4103D2C01BA141D21963410D
:109170000D0D1F0DC64EEC1BAE435BD07F057F0D62
:109180000026002F50D02D05AC46A943DD02012357
:10919000ED0A1B051D4320231B1B23D41746E74064
:1091A000381871412F46E740CC199D4028183146A8
:1091B00061410C0D26D161449A4012D50023401C18
:1091C000594152000DD140084000B24A4B00934231
:1091D00007D305204007081801D5511000E0AE491B
:1091E0003046F0BD6B00002A00D001229A18203CC6
:1091F0001F231B1B01D5002302E0E5402818714105
:109200000C0DD8D0012424050919C407CD07400846
:109210004908E40F28436144002CD6D00024401CA8
:1092200061419A40D1D1CEE76A05520DD9D1C90F1B
:10923000C907D5E7974D4E00002801D0012400E072
:10924000002434195F00002A01D0012600E0002626
:10925000BE19924FAC420BD8AE4209D8B44205D0E9
:10926000BD00AC42BDD010461946F0BD9942FCD0BD
:1092700000203946F0BDF0B51FB40C460F46811AE8
:109280009F412546861A9D4106D20125ED076F4074
:10929000401ABC4152187B41210D1E0D8D1BAC465E
:1092A0007B4D8D437ED075056D0D7CD00D05AE4692
:1092B000AC431B031B0B7A4D52429D412023664653
:1092C0009B1B14D31746F7403818002600907441B2
:1092D00060462F460741E41900989D4028186641D2
:1092E00016D4714671189A4025D5012320E09318B1
:1092F0002A466A415200002B00D0521C203E1E23F9
:109300009B1B002B61DD3541EE1728186641E8D51F
:10931000001876415B1C9A4000D3401C4B05F318A3
:109320001524E34010D3002B52D071467118D30F8F
:10933000C01802D3491C05B0F0BD0123DB079A42D7
:10934000F9D140084000F6E701225205B21801D1D8
:10935000002853D00123CC0ADB029943891E002A3E
:1093600008D1020C03D0020C0004103902E00246BE
:10937000002020390023550B05D112020823550B7C
:1093800001D152010D23550C01D112011B1DD50C29
:1093900001D192009B1C150D01D152005B1C2025B0
:1093A000EE1A01E02CE022E00546F5401543984016
:1093B000CA1AE10769181305C918002ABBDA032085
:1093C00040070818C10FC9070FE071466118B2E7DE
:1093D000F10740080843711071444A000CD0012382
:1093E0005B059A42A7D2C90FC9070020A3E7490528
:1093F000490D25D1002001E00028F4D100219AE791
:10940000244D6600002801D0012100E000217118E0
:109410005F00002A01D0012600E00026BE191F4F80
:10942000A9420FD8AE420DD8B14207D0BD00A94223
:1094300006D01946A802414010467CE79C4201D064
:10944000214678E70020394675E730B40C465C4089
:1094500004D50124E407634030BC0CE730BC7BE654
:1094600030B40C465C4004D50124E407634030BCB2
:1094700072E630BCFFE630B40124E40761400D46DB
:109480005D4001D430BC67E6634030BCF3E60000C9
:10949000FF0700000000E0FF0000F07F0000F87F01
:1094A0000000F0FF0121C9050123411842001B06FD
:1094B000D3185B0E0BD0C1100722D20689184007C3
:1094C00052428A1802D509221207891870470902E8
:1094D00008D50146002A03D0C10FC90700207047F4
:1094E00010467047420202D000200349704707210E
:1094F00009050143F4E700000000F87F70B5FF2480
:109500002404C609FF25264001352E43C209CB0994
:109510000546224023404D40002A6BD0002B69D0E5
:10952000A24267D0A34265D0002D00DA3246012462
:10953000E4052143204309020002090AD21A000A65
:109540004B0C7F24E31A434C7C44E35C7D242404CD
:10955000121914145B00A218884201D3521C00E0B7
:10956000400049420C465C4324115C43DB01641516
:10957000E318040A5C43C502200D0C4644436419F9
:10958000250A5D432303EC0C0D46654300030019D7
:10959000EB184C42A34201D35B18401CD4052018A1
:1095A000002B07D05B00C91804D3401C002901D14F
:1095B000400840003F2189048A4209D3002A08DC80
:1095C0001106090F04D0032149074018C00FC00736
:1095D00070BD01224100120689187F225206914275
:1095E000F6D205214907401801D5901070BDFF2023
:1095F000C00570BD002D00DA3246174EA24207D2D8
:10960000A34205D21802000E17D0E80FC00770BDA4
:10961000FF2443002406A34216D84900A14213D8D0
:10962000A34201D1A1420FD0A14201D1002101E00A
:1096300041004908D005084370BD1002000E03D058
:10964000FF200243D00570BD304670BD4840414008
:10965000484053E73C0400000000C07F0146000280
:10966000CA1504D00123DB071843002A09DB9E2317
:109670009A1A01D4D0407047FF2248001206904247
:1096800001D900207047C817C04370471F22030C40
:1096900002D10F2200041CD0030E01D1083A0002AF
:1096A000030F01D1121F0001830F01D1921E800010
:1096B000002801DB521E4000D20551180212511839
:1096C0001922904004D3491C002801D149084900BF
:1096D00008467047C10FC90700D0404201229207D7
:1096E0001143D3E701218907D0E7754600F022F83E
:1096F000AE46050069465346C008C000854618B00E
:1097000020B5FAF77DFD60BC00274908B646002663
:10971000C0C5C0C5C0C5C0C5C0C5C0C5C0C5C0C521
:10972000403D49008D4670470446C046C04620462D
:10973000FAF713FD00487047142F00200149182044
:10974000ABBEFEE726000200704730B47446641ECC
:109750002578641CAB4204D3635D5B00E31830BC26
:1097600018471D46F8E7000070B501250400ED0715
:109770004C4020D4441A01D2001B0919C60D4B00DD
:10978000F2B2FF2A29D01B0E2CD000020C02D31AF1
:109790002C43DC402843051910D2280A02D3401C70
:1097A0006D0611D0761EF6058019FF2A00DA70BD0D
:1097B000C00DC00570BD694000F07AF80120054376
:1097C000C541521C761CE8E764089C40C901614011
:1097D0008900E7D10124A043E4E71B0E440200D036
:1097E000034870BD002AFCD1C00FC00770BD00BF88
:1097F0000000C07F70B5420064414B005C41120E16
:1098000039D01B0E38D0FF2A3CD0FF2B3AD0400273
:109810004902400A490A060045184E43000A090A4F
:10982000D2184843ED017F3A0104731A4019190C0C
:109830004318990F04D001215B0849075B1A521C99
:10984000D80904D3401CF50301D19D0607D0FF2A97
:1098500008D2D50506D0E4072043401970BD012584
:10986000A843F4E7002A01DCE00770BD2402FF20D2
:109870002043C00570BD1B0EFF2A03D0FF2B01D073
:10988000E00770BDFF2645003606B54206D84D00FC
:10989000B54203D8D218FF2A00D0E7E7004870BDD0
:1098A0000000C07F70B501250400ED074C4022D4B4
:1098B000441A02D26C40001B0919C60D4B00F2B2CB
:1098C000FF2A4BD01B0E50D000020C02D31A2C439F
:1098D000DC40A843051B05D5AD0019D36D08761EE5
:1098E000521E37D0F605280A01D2801970BD70418A
:1098F0006D0603D070BD6940FFF73CFF9C40090234
:109900006140490001D0401E70BD0124A04370BDDC
:109910006D081DD001202B0C01D12D0410302B0E11
:1099200001D12D0208302B0F01D12D01001DAB0FED
:1099300001D1AD00801CEB0F01D16D00401C6D000A
:10994000361A121A680AF5054019012A02DB70BDA1
:10995000002070BDC036300AC00770BD1B0E440227
:1099600001D1FF2B00D1024870BD002AF0D070BD9C
:109970000000C07F010000009ECADC240EE5A9E0C3
:1099800093F3A3B50000406E818283848586878827
:10999000898B8C8D8E8F919293959697999A9C9D99
:1099A0009FA0A2A3A5A7A8AAACAEB0B2B3B5B7B901
:1099B000BCBEC0C2C5C7C9CCCED1D4D7D9DCDFE2CA
:1099C000E6E9ECF0F3F7FAFEE89901000020002048
:1099D0000801000004410100F09A01000821002064
:1099E000701E0000204101000024F400FFFF000071
:1099F0000000000000000000000000000000000067
:109A0000FF00000000000000020000000000000055
:109A10000000000000000000000000001101000034
:109A2000000000000D5301000000000000000000D5
:109A30000000000000000000000000000000000026
:109A40000000000000000000000000000000000016
:109A50000000000000000000000000000000000006
:109A600000000000000000000000000000000000F6
:109A700000000000000000000000000000000000E6
:109A800000000000000000000000000000000000D6
:109A900000000000000000000000000000000000C6
:109AA00000000000000000000000000000000000B6
:109AB00000000000000000000000000000000000A6
:109AC0000000000000000000000000000000000096
:109AD0000000000000000000000000000000000086
