:020000040001F9
:10400000703F00202142010033420100354201008F
:1040100000000000000000000000000000000000A0
:104020000000000000000000000000003742010016
:104030000000000000000000394201003B42010086
:104040003D4201003D4201003D4201003D42010070
:104050003D420100000000003D420100F547010023
:104060003D4201003D420100B14601003D420100D8
:104070003D4201003D4201003D4201003D42010040
:104080003D420100096201003D4201003D42010044
:10409000316201003D420100BB5F01003D42010071
:1040A0003D4201003D420100000000000000000010
:1040B0000000000000000000000000000000000000
:1040C00000F002F800F040F80CA030C808382418BE
:1040D0002D18A246671EAB4654465D46AC4201D140
:1040E00000F032F87E460F3E0FCCB6460126334232
:1040F00000D0FB1AA246AB46334318477C3C000075
:104100009C3C0000103A02D378C878C1FAD8520714
:1041100001D330C830C101D504680C60704700007D
:104120000023002400250026103A01D378C1FBD8D3
:10413000520700D330C100D50B6070471FB5C04691
:10414000C0461FBD10B510BD03F0A9FC1146FFF716
:10415000F5FF00F031FA03F0C1FC03B4FFF7F2FF02
:1041600003BC03F0C5FC0000401E00BF00BF00BF41
:1041700000BF00BF00BF00BF00BF00BF00BF00BF47
:1041800000BFF1D170470000401E00BF00BF00BF5C
:1041900000BF00BF00BF00BF00BF00BF00BF00BF27
:1041A00000BFF1D170470000401E00BF00BF00BF3C
:1041B00000BF00BF00BF00BF00BF00BF00BF00BF07
:1041C00000BFF1D170470000401E00BF00BF00BF1C
:1041D00000BF00BF00BF00BF00BF00BF00BF00BFE7
:1041E00000BFF1D17047000070B505460C46164679
:1041F00002E00FCC0FC5103E102EFAD2082E02D3CB
:1042000003CC03C5083E042E07D301CC01C5361FDD
:1042100003E021782970641C6D1C761EF9D270BDF4
:104220000A4802680F210A4302600948804709488A
:104230000047FEE7FEE7FEE7FEE7FEE7FEE70000D9
:1042400005480649064A074B704700002405004010
:1042500071420100C1400100702F0020703F00201A
:1042600070370020703700202349224808607047CB
:1042700010B500F01DF8002805D021491F484860FE
:10428000C813204988612048018CC9B201290ED188
:10429000818C09070BD1018D0906090F042906D16C
:1042A000808D0006000F02D118490120886010BDE2
:1042B0001548018CC9B2012917D1818C090714D185
:1042C000018D09060A0F03D1828D1206120F0ED03E
:1042D000090F012903D1828D1206120F07D003297D
:1042E00003D1808D0006000F01D00020704701200F
:1042F000704700000024F40000200020DFFF07C00A
:1043000000050040006C0040C00F00F000060040B7
:10431000BFF34F8FF949F848C860BFF34F8FFEE7EE
:10432000BFF34F8FF549F448C860BFF34F8FFEE7E6
:104330000EB5694611200872F1490878AA2808D0FC
:104340000722F0A102A87CDF002807D0EFA2DF211E
:1043500016E04A78891C02A87CDFF5E7002000906F
:104360006422694601900A80C8224A808880FF2022
:104370002D30C88068467ADF002803D0E3A2E92107
:10438000FFF7C6FF0EBD10B5A0B0052118A8017734
:10439000E14800681E90DA481C38017818A8817638
:1043A0003C21684603F0D1F90220009000216846C4
:1043B0004171012404811FA803903C210FA803F040
:1043C000C4F910A804831EA817900FA9684601F02D
:1043D00067FB002804D0FF21CCA20731FFF798FF2C
:1043E00020B010BD10B5006800280AD1CB483B2191
:1043F000808876DF002804D0FF21C4A24B31FFF76C
:1044000087FF10BDFF21C1A25631FFF781FF00B524
:1044100085B01421684603F098F9002069460870B9
:1044200001900872FA200882BC48008948826846D8
:1044300073DF002804D0FF21B4A28431FFF768FFA6
:1044400005B000BD70B5B549068801258B88142ECE
:1044500042D012DCB24CB34A102E1ED0112E29D0FD
:10446000132E26D10A461432002118467FDF002879
:104470001FD0FF21A5A2B23146E0172E25D0192E5C
:1044800044D0522E15D1002211461846A9DF00282B
:104490000FD0FF219DA2B73136E0002323608B7837
:1044A000012B01D10F2313609F4B77221A70808854
:1044B000888070BD082010600020C043256088807F
:1044C000FFF736FFFFF75FFF27E0811D8C483222A0
:1044D000A03803F0DBF870BD8949C0899A390A8891
:1044E000824208D10022184681DF0028F3D0FF2144
:1044F00086A2C33108E000221146184681DF002859
:10450000E9D0FF2181A2C931FFF702FF807900289D
:10451000E1D1012085498004C860FFF778FF70BDB4
:1045200010B5044601F05AFC754821461C3801F0CC
:10453000D8F82046FFF786FF10BD10B502F0B2F99B
:1045400010BD7B490020486009220A618860784AD2
:10455000784940321160784A01211160774A090494
:1045600051607749086077490868FF221204904338
:1045700003229205104308600120734980020860FD
:1045800062B670470020704770471CB5012168462D
:10459000C180890281806D48009002F0A8F95F49CE
:1045A00068461C3102F0C6F95C49002314221C3114
:1045B000534802F07CFA1CBD654988B00C200860A5
:1045C0005A490969554D8903CA0F62490024002AD6
:1045D00003D00122AA70086001E0AC700C60E870A2
:1045E0005D4B052216210020009401F047FE0028B3
:1045F00002D046A2C42159E000F0BCFC00F034FC1B
:1046000000F0DDFF00F08FF9442002F0F7FA534884
:1046100002F0E6FA4148103002F038FB2869002821
:1046200002D103F006F8286100F099F900F097F93B
:1046300000F095F900F0ADF800F0E4FCFFF7A5FFFD
:10464000FFF776FE464800902D4869461C3801F079
:1046500074F8002803D0FF212CA2283126E0FFF7B0
:1046600092FE1C21684603F070F80520400401907A
:10467000801002900094032168460173C481047481
:104680003848059038480690684601F052FB0028EB
:1046900003D0FF211DA26E3108E000F069F8FFF79A
:1046A000B6FE3DDF0028FCD018A23049FFF730FEEF
:1046B00070B52348002505601F490120C860174CCC
:1046C0002078401CC0B220703C2802D060780128BD
:1046D00011D112490A4808220C311C3801F05EF849
:1046E000082806D0002804D0B12108A28900FFF7CD
:1046F0000FFE2570657070BD0400FA0500ED00E046
:10470000E0260020587558754B6F75002E2E5C6D95
:1047100061696E2E63000000247D010004200020EA
:1047200054200020502000202820002000050050A8
:1047300000A50040127A000000A0004000A3004045
:1047400040A1004008E400E000E100E089450100EC
:1047500044070050442000200821002050C30000DE
:10476000F9500100E5430100054401000E0200007C
:1047700015491E200880887801221043E12210404C
:104780000C30DF22104088700720C870102008719C
:10479000704710B5002350220C490E2001F0E0FBB9
:1047A000002803D0FF210A4AFD3107E0094801F043
:1047B000F4FB002804D00121054A4902FFF7A8FDB7
:1047C000054801F0F2FB10BD1820002074260020DF
:1047D0000C470100214501003B450100F94901203A
:1047E0000860F94801680029FCD000210160F74801
:1047F00080687047F449086800280BD000200860E2
:10480000F2498A68F24B1A81EE4B01225A60086025
:10481000F049C863704730B5EF4901204860EB4B61
:104820001A215960E84A002111601860EB4B1C689E
:104830002402240A85072C431C60E94C8023236052
:104840001160E049086030BD034610B50020024603
:1048500003E09C5C6040521C92B28A42F9D310BDC6
:1048600010B5DB49088A8B8880B2984201D3642056
:1048700010BD4A88904201D8002010BD991A491CE9
:10488000801A09041922890C50434018401E02F076
:1048900068FFC0B210BD10B5FFF7BDFF642002F085
:1048A0009FF9CB48CF4C0189016103202070022081
:1048B0006070FFF7D5FFA07003212046FFF7C4FF0B
:1048C000E0700421204600F0FAFC10BD70B5C04C29
:1048D00000252078401CC0B2207078280DD92570A2
:1048E000FFF799FF642002F07BF920892061FFF730
:1048F000B7FFBC490870FFF7CEFF30BFE088002843
:104900000ED0E580B84801210022C903006801F0FB
:104910004EFD002803D0B5A2B221FFF7F9FC70BD0F
:104920000120E080EEE710B5FFF775FFB34A0021E4
:10493000AD4801F0F5FC002803D0ACA27B21FFF7C5
:10494000E7FCA94801210022C903006801F02FFDFE
:10495000002803D0A5A27D21FFF7DAFC10BDF8B531
:10496000A748A8490068A84D401801210907A74C8D
:10497000884223D83220012300901A46A449A54832
:1049800002F065FAA44FA34E3946306803F00AF9E5
:10499000394630609E4F0646386803F003F93860A8
:1049A00007469E48864216DA874214DC304603F0FA
:1049B0002FF82880384603F02BF80BE002F040FE79
:1049C000064602F04BFE7D21C9008E4203D288428A
:1049D00001D82E8020807E4801214278002A20D0F4
:1049E000002242702288828182894089101A00D573
:1049F0004042192252017B4E904205DA20886328FA
:104A000002D9020A327170710620307071702888E4
:104A1000010AB170F07006217248FFF715FFB071FE
:104A2000F8BD417022884281DEE7F8B574487549C7
:104A30000068754D401801210907744E884226D838
:104A40003220012300901A467149724802F0FFF9A2
:104A5000714C704F2146386803F0A4F82146386045
:104A60006B4C0746206803F09DF8206004466B48B5
:104A700087421DDA84421BDC384602F0C9FF2880D9
:104A80006748844214DD204602F0C2FF0FE002F0C6
:104A9000D7FD044602F0E2FD7D21C9008C4207D219
:104AA000884205D8FF212D312C80884200D93080E2
:104AB0004C4C06202070012060702888010AA170EB
:104AC000E0703088010A2171607106212046FFF7ED
:104AD000BBFEA0710721204600F0F1FBF8BD10B528
:104AE000404C032020701F2060704E488178C078B1
:104AF0000902081800F0D3FBA07003212046FFF73D
:104B0000A3FEE0700421204600F0D9FB10BD10B5D3
:104B1000344C0C202070112060704348017BA17040
:104B2000017CE170017D2171017A61710179A171CE
:104B30000078E07134480088010A217260723348BD
:104B40000088010AA172E0720C212046FFF77CFE6A
:104B500020730D21204600F0B2FB10BD10B5214C92
:104B600004202070032060700220A0702120E070DB
:104B700004212046FFF768FE20710521204600F041
:104B80009EFB10BD10B5174C0820207010206070DF
:104B900025487D22017B1201891AA170017CE170F8
:104BA000017D2171017A61710179A1710078E07153
:104BB00008212046FFF748FE20720921204600F018
:104BC0007EFB10BD00700040007100400075004089
:104BD00028200020C07F00400073004004E400E073
:104BE00000E100E0F4260020582000202E2E5C6D0D
:104BF000795F626174746572792E6300CD4801003B
:104C00001420002068CCDFFFA4200020A620002074
:104C1000A02000209C2000200000204100007A44B9
:104C2000000096437C270020E02B002010B55B4C51
:104C3000082020701120607059487D22017B1201EC
:104C4000891AA170017CE170017D2171017A617185
:104C50000179A1710078E07108212046FFF7F4FD89
:104C600020720921204600F02AFBAAE710B54D4822
:104C70004A49027D0A70427D4A70827D8A70C27DF7
:104C8000CA70027E0A71427E4A71827E8A71C27E39
:104C9000CA71027F0A72427F4A72827F8A72C07F23
:104CA000C8720C213D4800F00AFB8AE710B53B4C66
:104CB000062121703C48312161700178A170417852
:104CC000E17081782171C078607106212046FFF77C
:104CD000BBFDA0710721204600F0F1FA71E710B585
:104CE0002E4C0A21217031481D2161700178A1707C
:104CF0004078E0702E48017821714078607106217B
:104D00002046FFF7A1FDA0710721204600F0D7FA49
:104D100057E710B5214C05202070512060701020FD
:104D2000A0700420E0701420207105212046FFF7B8
:104D30008BFD60710621204600F0C1FA41E738B5CD
:104D40001C48C0690090154C0520207071206070CF
:104D500068460078A07068464078E07068468078C1
:104D600020716846C07860711348006800906846FA
:104D70000078A07168464078E071684680782072BB
:104D80006846C07860720A212046FFF75DFDA07278
:104D90000B21204600F093FA38BD0000F4260020D5
:104DA000E02B00205827002014200020682000203D
:104DB0006C2000200005004000040040F8B5394A8E
:104DC0001069394C8003C00F384920700B78002BD4
:104DD00001D05B1E0B70A76801230026344D002F05
:104DE0000CD1002801D0666008E067687F1C67600E
:104DF0000A2F07D00E2F01D37F1E67602B78002B60
:104E000009D025E02F78002F03D02E700C23A3604B
:104E1000F4E72B70FAE7A368002B19D10978002971
:104E200016D1012814D1234B596803200004814373
:104E3000084358604020D0608020D06031DF0028D7
:104E400003D01DA27921FFF763FA66602E70A66079
:104E500000221D49E06801F0AAFA002803D016A23A
:104E60008421FFF755FAF8BD124910B50C20091D31
:104E70000860164A0121164801F052FA002803D0B2
:104E80000DA22421FFF744FA1148002211490068BD
:104E900001F08DFA002803D007A22821FFF738FA85
:104EA00010BD0000000500503C200020072000201D
:104EB00006200020400700502E2E5C6D795F627541
:104EC00074746F6E2E630000CD0C0000BD4D0100A8
:104ED000582000209A19000070B53F4C00256068EA
:104EE00000280ED0C00709D12078002822D02570D4
:104EF000A068012827D0072000F063F86068401EF2
:104F000060603648016800291FD0491E016034489E
:104F1000007801282CD0062000F053F800223149F7
:104F2000E06801F044FA002803D02FA28B21FFF79C
:104F3000EFF970BD01202070062000F047F807202F
:104F400000F044F8DAE70620D6E76068002805D1CB
:104F5000A06801280AD0072000F038F82548006929
:104F60008003C00FDAD024480560D7E70620F3E7B6
:104F70000720D1E710B5214901200860091D08600C
:104F8000154CE060062000F021F8072000F01EF824
:104F900020461B4A01210C3001F0C2F9002803D041
:104FA00011A22421FFF7B4F900220E49E06801F0B4
:104FB000FEF9002803D00CA22621FFF7A9F910BDA5
:104FC0007047012181400B48816070470121814079
:104FD0000848C160704700004C2000204420002099
:104FE000062000209A1900002E2E5C6D795F6C65FA
:104FF000642E630000050050402000201807005078
:10500000D94E01000120000700690A2180B24843FF
:10501000C649C860704710B500232422C449C5485A
:1050200001F045FD2421C24801F080FDC148BF497F
:10503000006A0861BF490C2227310846133802F084
:1050400025FB00232422BB49B94801F0F1FC10BD27
:1050500010B500232422B649B64801F028FDB54812
:10506000B249006A0861FFF701FE10BD10B50124C6
:10507000B048A40200232246AD49883001F017FD54
:105080002146AB4801F052FD7D20C00001F0A8FD93
:10509000A848FF21A8308174C1740146002322462C
:1050A0002039A34801F0C4FC10BD70B505460124A9
:1050B000A0480E46A402002322469D49883001F0F4
:1050C000F6FC21469A4801F031FD7D20C00001F038
:1050D00087FD98489749883040192030867400230E
:1050E00022468831924801F0A3FC70BD10B50446F9
:1050F00039DFE0433ADF10BD7CB58C4D8D4E2888FA
:1051000024361446301802F0C1FA3078552829D1D7
:105110007078012827D0022828D003282CD0042812
:105120002DD0062848D0072849D03146082851D02C
:10513000092852D00A2861D00B2867D00E2868D0E1
:105140000F2875D0102876D0112877D00D287AD066
:1051500020287BD021287CD041287DD0612801D116
:10516000FFF7EDFD7CBDFFF760FC7CBDB0780C283F
:10517000FBD1FFF750FF7CBDFFF76AFF7CBD6E4897
:1051800040218160802181606C4C204601F028FD27
:10519000204601F025FD204601F022FD684801F07F
:1051A0001FFDA020FFF7A2FFBFF34F8F66496548A0
:1051B000C860BFF34F8FFEE7FFF7D0FC7CBDF179ED
:1051C000B0790191009073793279F178B07800F07C
:1051D000B9F97CBDFFF7D6FC7CBD5C4D2246B11C05
:1051E000A81C02F053FAAA202870A41E6C70002399
:1051F000142229464E4801F01BFC7CBDB0780028E3
:10520000FBD0E1210901484368607CBDFFF77FFCCA
:105210007CBD8878CA78000280183179FFF745FF95
:105220007CBD05E007E009E00DE00FE011E013E0D0
:10523000FFF755FCF4E7FFF719FFF1E7B0783C21E1
:105240004843A860ECE7FFF74AFDE9E7FFF723FBD7
:10525000E6E7FFF72BFDE3E7FFF75BFDE0E77047CD
:1052600010B501243348A402002322463049883077
:1052700001F01DFC21462E4801F058FC7D20C000A5
:1052800001F0AEFC2B48FF21A8308174C1740146A7
:10529000002322462039264801F0CAFB10BD10B574
:1052A000044624487D220023D2002149883001F0A1
:1052B000FEFB2048883000192030807C10BD0A4653
:1052C00010B50146224800F069FA10BD70471CB5C0
:1052D00001F00DFB002804D0FF211EA21631FFF7BC
:1052E00017F80124A402684684800121C1801D486A
:1052F0000E4900901C31684601F01CFB0B4821460A
:105300001C3001F013FC09490822143100238818CD
:1053100001F08EFB1448FEF727FF044908221C31D8
:105320000023881801F0C3FB1CBD00005C20002096
:1053300020200020582700200005005050C3000006
:10534000102700000400FA0500ED00E0E026002030
:10535000C42600202E2E5C6D795F736572766963BA
:10536000652E6300CD52010020A1070010B5044650
:10537000800705D16421204602F0E9F9002908D10F
:10538000FF219131204602F0E2F9002901D00020EE
:1053900010BD012010BD9F490020086170479D4944
:1053A0000861704702461F20012907D0062901D94C
:1053B000491EC9B2C90700D01E2070471C32D0B2A6
:1053C0007047F8B50A4604469349104602F0BFF903
:1053D0000D4606463C21284602F0B9F92160E1213C
:1053E0000901284602F0B3F9054608463C2102F0BF
:1053F000AEF9A5606060874D88486E80FF266F36E5
:10540000771EE0600DE0E068FFF7B0FF002801D0F4
:10541000304600E038466988081A6880E068401C19
:10542000E060FFF7A3FF002801D0304600E03846D7
:1054300069888842E7D900200BE0E068FFF796FF13
:10544000C0B2217CFFF7AEFF6988081A6880206926
:10545000401C2061E068FFF789FFC0B2217CFFF7A4
:10546000A1FF69888842E8D32069401C20616888D0
:10547000401C6061F8BDF8B5044680683C21484393
:10548000616840183C21484321684718A08A85B2CA
:10549000207C401E46B208E0E068FFF767FFC0B21C
:1054A000F1B2FFF77FFF401985B2761E76B2002E6B
:1054B000F2DAA089594E84B20BE02046FFF756FF7E
:1054C000002802D0FF206F3001E0FF206E3040192D
:1054D00085B2641EA4B2B442EFD24F484543E819E6
:1054E000F8BD4C480069704770B58189047C007D27
:1054F0008DB2401CC6B2012C01D0022C03D10C3459
:105500006D1EE4B2ADB2601C41004018052102F0EE
:105510001EF96100891940184019A908441864212E
:10552000284602F014F9241AFF219131284602F08E
:105530000EF92018072102F014F90806000E00D118
:10554000072070BD30B587B004917D210A9D0B9C6A
:105550000901401800940390019502930592684652
:10556000FFF789FF2B49086107B030BD70B5294CA2
:1055700000252078401CC0B22070052802D3257079
:10558000FFF753FA2169264A491C2161A068401C93
:10559000A0601268904205D92248234A05700C2069
:1055A0001060A5606068214A401C606012689042EB
:1055B00000D965601E48FFF704FF1D4870BD10B597
:1055C00086B0012000900190029012200590049076
:1055D0003F20400103906846FFF74DFF0D4C154AF0
:1055E0002061204601210C3000F09AFE002803D0F3
:1055F00011A2C421FEF78CFE01210022C903E0683C
:1056000000F0D5FE002803D00BA2C821FEF780FED3
:1056100006B010BD8820002080510100B2070000B4
:10562000602000200620002044200020642000206C
:10563000E02B00206D5501002E2E5C6D795F7469A2
:105640006D6572732E63000070B500240546601C02
:1056500090B00007000F08A9103008940870601C73
:105660000007000F103048708878F9263040801C01
:1056700088701C2101A802F068F869460879102199
:10568000084369460871029408A804940594079495
:105690000690287808A9887103206946888411201B
:1056A0000094087048708878E7213040801C0840DA
:1056B000012630436946887014210AA802F045F893
:1056C00009A80A9068460B9069460E8614204C86FD
:1056D00088862B4668880C330AAA01A9A2DF10B07D
:1056E00070BD00281ED000291CD00A88102A14D0B2
:1056F000112A14D0502A15D1891D0A88038A9A428A
:1057000002D10B8B022B0ED083889A420AD1836977
:10571000002B07D00A8B1A311847898801E0002135
:10572000C94381827047CA7E8B7E11021943C90723
:10573000C90F00D001218175704730B54A4B0D4625
:1057400004000FCB85B003936B4607C324D0002D14
:1057500022D00020C043A0822868A0610020A0754C
:105760002146684662DF002814D12178684681749A
:1057700001210182A21C04A90120A0DF002809D177
:1057800029462046FFF760FF002803D1294620461E
:1057900000F02BF805B030BD0E20FBE707B584B054
:1057A00000280DD0828A314B9A420BD0827D002A8C
:1057B00008D06A46128B142A06D9072007B000BD0C
:1057C0000E20FBE70820F9E70022009201920292E6
:1057D000039282896B461A80039106A902910121E6
:1057E0009970808A6946A6DFE8E770B58EB00546F5
:1057F0001C21684601F0A9FF694608780C2108437E
:105800006946087000240194039404940594069456
:10581000287808A98870022069460884601C00075F
:10582000000F10300794087711204877887FF921FE
:105830000840801CE72108400126304369468877EC
:10584000142109A801F081FF08A8099007A80A906F
:1058500069468E851420CC85088668882B1D09AA88
:10586000A2DF0EB070BD0000287D0100FFFF000028
:10587000FFB583B0074600200C9C86462678054677
:105880003AE07868A90041180A8868468280498809
:10589000C1800022694601A864DF002810D1684653
:1058A00001780598814226D17046002801D0002257
:1058B00000E002222078891841181F2902D90C2003
:1058C00007B0F0BD7146002908D1401CC0B2411C90
:1058D000069B049A21701A54012086462178069866
:1058E0000A18694601A864DF0028E9D169462078D2
:1058F0000978401820706D1C3888A842C1DC7046B9
:10590000002804D020780699801B401E885500206E
:10591000D6E7F8B51546069C1E46074602220094B7
:10592000FFF7A6FF002806D1334610222946384645
:105930000094FFF79DFFF8BDF7B582B0002605463D
:10594000167000681446002805D02846039900F018
:10595000DFF806002DD1687900281BD02078039F3E
:10596000001D1F2824D8684679DF002821D121781E
:105970000322481C20707A5421781922481C207078
:105980007A542078C1196846008800F0BCF8217864
:10599000401820702989002923D001208446EA6814
:1059A0000398002A07D0227853189B1C1F2B04D978
:1059B0000C2005B0F0BD0720FBE71346521C491C24
:1059C0002270C15422786746511C21708754237875
:1059D0002A891818E96801F059FE2078297A4018B8
:1059E00020702869002815D00021415622788C4665
:1059F000D01C03991F28DBD8501C022320708B5425
:105A000022780A23501C20708B5420786246431C55
:105A100023700A54A88A002809D028460094062238
:105A200002211430039BFFF774FF0600C1D1A88B3D
:105A3000002809D028460094072203211C30039B2C
:105A4000FFF767FF0600B4D1A88C002809D02846CC
:105A50000094152214212430039BFFF75AFF0600FF
:105A6000A7D1E86A002805D02246039900F085F8FE
:105A700006009ED1286B002805D02246039900F02D
:105A8000BBF8060095D13820405D002806D022469C
:105A90002846039900F0E2F806008AD1304688E7EC
:105AA00070B50D4692B000216A461170072411713D
:105AB000002812D00189002905D0C168002902D030
:105AC0000978490702D4204612B070BD02A9FFF739
:105AD00033FF0028F8D102AE00E00026002D0BD0E5
:105AE00028890028EFD101AA0AA92846FFF724FF38
:105AF0000028E9D10AAA00E000226846037901786B
:105B0000304672DFE0E70870000A487002207047F4
:105B1000F8B514780746A01C15460E461F2803D872
:105B20003879801C1F2801D90C20F8BD1D20001BCE
:105B300080B26946864608803019801C7DDF0028C7
:105B4000F3D13868022805D168460088704501D82D
:105B5000092107E038790821002801D0704501D9D2
:105B600068460088421C3255641CE2B2B154297860
:105B7000801C081828700020F8BDF8B50D46117873
:105B80000646881D14461F2801D90C20F8BD33880D
:105B90000720062BFAD31927FF01BB4202D94E4A30
:105BA0009342F3D17288062AF0D3BA4202D94A4FFF
:105BB000BA42EBD1484FBB4203D0BA4201D0934224
:105BC000E4D8481C052220706A5420781222411C17
:105BD00021702A54207841193088FFF794FF2178EA
:105BE0004018C0B2207041197088FFF78CFF2178EF
:105BF000401820700020F8BD70B5054600790E46AB
:105C0000801C1446C0B21178821C8A181F2A01D940
:105C10000C2070BD0A46491C401C2170B0542078ED
:105C2000FF22411C21703254207881192888FFF707
:105C30006AFF21784018C0B22070AA88002A09D0D3
:105C4000A968002908D0801901F020FD2078297961
:105C500040182070002070BD072070BDF7B582B0DD
:105C600002981446406B0F46002832D00298002557
:105C70002030009028E00298416B0C2068430E18F9
:105C8000217830794A1CC01C227078542178162261
:105C9000481C20707A542078C1193088FFF733FFF0
:105CA00021784018C0B22070B288002A09D0B168AB
:105CB00000290ED0C01901F0E9FC20783179401894
:105CC00020706D1C0098EDB2007EA842D3D8002051
:105CD0006FE607206DE60000FFFF000038B57A4947
:105CE0007A4A488890420FD04A78794C521CD2B2F6
:105CF0004A70237B934208D3083175DF002803D014
:105D0000A169002900D0884738BD00254D70217C4D
:105D1000002907D03B2176DF002803D0A1690029A4
:105D200000D0884761690029EED068460095884711
:105D300038BD70B5054601461C226548FEF754FA89
:105D4000614C002626702968002907D00822A01877
:105D500001F09CFC204608307ADF02E05A48083007
:105D60007BDF002808D1401E608057486670594A82
:105D70000021001D00F0D4FA70BD10B552484068F3
:105D800000F07AFB10BDF8B54F48103000F08EF8E7
:105D900000264D4D4E4C002806D06169002919D0CF
:105DA00001200090684614E02878002804D061693A
:105DB00000290FD00096F5E7687800280CD0A1687C
:105DC0000022686800F0F3FA002803D0A1690029D6
:105DD00000D088472E70F8BD6168F1E7F8B53C4CFB
:105DE00002880027384DE689102A18D029464968CC
:105DF000112A21D0122A2DD0502A0FD1801D0288BD
:105E0000B2420BD1028B022A08D1C27E837E1002DD
:105E10001843C007C00F13D0FFF7B5FFF8BD818846
:105E200069800146284808220E31103001F02EFC0E
:105E30006F70002EF0D0F8BD0020C04368806F70F6
:105E4000084600F019FB0028F5D0A1690029F2D01E
:105E50008847F8BD811D1C480822103001F016FC4F
:105E6000DAE7F8B5014618480822083001F00EFCC0
:105E7000154808307ADF04000DD11348103000F0C7
:105E800015F80125002808D011484169002902D0E1
:105E90006846009588472046F8BD0B4E3570314660
:105EA0000831708875DF04467570F4E7418806484C
:105EB00008300288914204D34088814201D80120F1
:105EC0007047002070470000A8200020FFFF00005E
:105ED000F82B0020DD5C010010B508461146FEF7E6
:105EE0001FFA10BDF8B53D4C2078002837D0206946
:105EF000002807D00026E068002805D00025002EE5
:105F000004D013E00126F6E70125F8E768464EDFE6
:105F1000052806D0002806D031A26921FEF7F8F93D
:105F200004E0012602E0216900988847002D12D183
:105F3000608869460880A06860DF052806D00028D0
:105F400006D027A28021FEF7E3F904E0012502E054
:105F5000E168A0688847002ED8D0002DCFD0F8BDCA
:105F600070B5002901D08C0701D0072070BD1B4CF3
:105F70000125A16062802849636010DF0028F5D107
:105F80002570162023DF70BD11DF002801D001210C
:105F900000E00021114A11707047002803D00F491A
:105FA000C860002070470E207047002803D00B49BE
:105FB0000861002070470E20704710B50748406800
:105FC000002808D08047002804D0FF2104A23331E4
:105FD000FEF79EF910BDFFF785FF10BDC020002021
:105FE0002E2E5C2E2E5C2E2E5C2E2E5C2E2E5C2EEB
:105FF0002E5C536F757263655C73645F636F6D6D68
:106000006F6E5C736F66746465766963655F686103
:106010006E646C65722E6300D95E01008307FF22F7
:10602000DB0E9A408907090E994000280BDA000719
:10603000000F08388308FA489B001B18D869904362
:106040000843D86170478308F6489B001B181868FE
:106050009043084318607047F0B5F34F28217C68DF
:1060600041430D1939694A1C09D028224A4316199F
:10607000AB68B268934204D8D21AB26069623861E0
:10608000F0BD0A4602E00A46796A9B1B4E1C0BD003
:1060900028264E433719BE689E42F4D328264E4325
:1060A0003619B768FF1AB760AB60696228214A43A6
:1060B00011194862F0BDF8B5DB4C2569681C36D073
:1060C000DA48002640686169401A07023F0A1AE070
:1060D0002820454360682A189068B84215D8A369FB
:1060E0003F1A8619556A002B0AD0116AD069984761
:1060F000002808D0FF21CEA25731FEF709F902E0AF
:10610000D169106A8847681CE2D1A178E0788142A1
:1061100006D1401CC0B2E070022801D10020E0701E
:10612000C1490006800D1C310E5000F008FAF8BD80
:10613000F8B50446BC4801690091467856E0BA4873
:10614000F100C2688D184BE0601C07D0B64A2821C8
:1061500052686143204689184C6A20E0287818214B
:1061600041436A68401CC0B252182870A97888421E
:1061700001D100202870AC4B506828215B68414356
:10618000C9181368012B2DD10B7E002B2AD19368DF
:10619000CB60D3680B6113694B6152690A62A24AF2
:1061A000CF685369BC46FA1A1202AD4F120ABA42BE
:1061B00002D20B69D21809E062469A1A12020B69E0
:1061C000120A934201D99A1A00E000228A60002242
:1061D000CA600A6101220A76921E4A62FFF73CFFFA
:1061E000601CB1D1287869788842ADD13046761EDE
:1061F000F6B20028A3D18C4801690098814201D0F1
:106200000120F8BD0020F8BD9649002008604860D4
:106210008860C86093494039086048608249032318
:106220008A681B02521C8A609A4200D1886042E749
:10623000F0B5002087B0C04302907B4846690569ED
:10624000684600F082F9074600F09CF90446002FEA
:1062500008D002AA3146009800F0DCF90298FFF756
:1062600067FF06E00298FFF763FF002801D1002CCA
:1062700002D0284600F0F7F907B0F0BDFFB5980747
:10628000002481B01E4615460F4600280BD1002E73
:1062900009D000F043F964490A9888610F703246CA
:1062A00000204E6008E0072005B0F0BD28234343DE
:1062B000D4509B181C76401CB842F7DB282047437B
:1062C000BB19032048700F461846CB60194618309A
:1062D000002218232E465E43D3005B181C705C70AE
:1062E0009D7058603018521C032AF5DB0020C04313
:1062F0003861BC70FC7001245B48240504600321F4
:106300001420FFF78BFE59480460484C0198A060A8
:1063100003211120FFF782FE606878610020C3E747
:1063200070B5414C6568002D06D0002A06D00028C3
:1063300004D00023247809E0082070BD072070BD38
:1063400028265E43AE59002E04D05B1CA342F7DB27
:10635000042070BD282401265C432E516419E2619B
:1063600061600360002070BD2D494868C005C00D04
:1063700017D0103807D50207120F083A920892007A
:106380005118C96904E08108264A890089180968FA
:106390008007C00EC1400806800F012803D00328E3
:1063A00003D0022070470020704701207047FEB5DF
:1063B00004461D48174642680D46002A0CD0017855
:1063C0008C4201D2052D01D20720FEBD2146282393
:1063D00059435358012B01D00820FEBD881840684E
:1063E000012845D00026FFF7BFFFC0000E490190ED
:1063F000C9684018694600F079F900283AD00121AF
:1064000044600160094949680830E2C006490198C2
:10641000C96841180098487000F091F80020FEBD4E
:1064200000ED00E000E400E0D42000200015014071
:106430002E2E5C2E2E5C2E2E5C2E2E5C2E2E5C2E96
:106440002E5C536F757263655C6170705F636F6D16
:106450006D6F6E5C6170705F74696D65722E630044
:10646000FFFF7F004011014080E200E000E100E01A
:106470002E46B8E70420FEBDF8B5BB4D044668685B
:10648000002809D029788C4201D30720F8BD2821A3
:1064900061434058012801D00820F8BDFFF764FF90
:1064A000C600E8686946301800F020F9002809D0D5
:1064B000022112C0E86831180098487000F03FF8D7
:1064C0000020F8BD0420F8BD38B5A74C606800284E
:1064D00015D0FFF749FFC500E0686946281800F0AD
:1064E00005F900280DD003210160091F4160E06813
:1064F00029180098487000F022F8002038BD0820C4
:1065000038BD042038BD99494968016000207047B2
:10651000401A0002000A10600020704710B50121E7
:10652000934A48041060934A40109060914A403A60
:106530009060914841602F20FDF726FE10BD01209C
:106540008B49000580310860704710B586490023EB
:106550008A78CC78A24212D0521CD2B28A70022A17
:1065600000D18B708A78804B92001C339A5802605D
:10657000486910180002000A4861012010BD03603C
:10658000002010BDF8B5784801690091457833E0E6
:106590007548E900C0680E1834782AE01820604376
:1065A0007168641C0818B178E4B2A14200D10024DB
:1065B0000168022902D003291BD113E06A4A40680E
:1065C0002821526841438F18397E002911D000F0EC
:1065D0009FF8002038760CE028277843C018027610
:1065E000406A03E0604900224B680869471CF3D108
:1065F00008617078A042D1D128466D1EEDB2002806
:10660000C6D1594801690098814201D00120F8BDE6
:106610000020F8BDF7B5544C0025676823691EE0DB
:1066200028215943C9198E68864202D9301A8860D8
:1066300017E0801B751900268E600E764E699C4609
:106640004B6AB646002E0AD0019E76193602360AEB
:10665000CE6076460E6116684E6261461160591C26
:10666000DED12361FEBDF8B53F490A69531C3AD01B
:1066700028235A434B68D21896683C4A54684F699D
:10668000401CE11B0D022D0AED1C0121002810D138
:10669000384A08045060374A403A5060374A400050
:1066A0001060334A803A1060334801602F20FDF7B4
:1066B0006BFDB54200D23546E81900022B49000AAD
:1066C0004031086029494968001B091B0902090A71
:1066D0000002C91C000A814204D901202449400457
:1066E00080310860F8BDFFF719FFF8BD4278837864
:1066F000521C934200D100220378934201D1002022
:1067000070470A6041684078182250430818704763
:1067100070B5154D2A696B681446114606E0814232
:1067200007D00A4628267143C918496A4E1CF6D17B
:1067300070BD002EFCD08A4204D128204443E018CA
:10674000406A286128204143C81828248168624390
:10675000406AD2185062421CEAD028225043C01826
:1067600082685118816070BDD4200020001501405E
:1067700080E100E0401301400010014080E200E0B1
:1067800014225043F74A002180180171C1800A2267
:106790000161C26041610181704770B5F14E142200
:1067A0003078F14C50438219121D13780F21A588BF
:1067B000D068042B02D0022B0DD024E00121090760
:1067C000096989B200F0C3FF401950DF01001AD1F6
:1067D000A088401C14E01169938852884019491917
:1067E000521B01251818AD02AA4202D2920851DFAD
:1067F00002E0FF22013251DF010004D1A0884019DC
:10680000A0800120B070084670BDF8B5D54C054693
:10681000A778264604207678002F01D1002E17D0C5
:106820001E2E28D020788019C0B21E2801D31E3811
:10683000C0B21426704300190571426106C9026195
:10684000C160C380069901816078401C607011E0CE
:10685000002020702571626103C92161E060E3803E
:106860000698208101206070FFF797FF002801D073
:10687000112800D10020F8BD38B50246B9481423CC
:106880000178BA4C59430818C36801791B01E458D0
:10689000042905D0C388009343690C30A04738BD54
:1068A0000023F8E710B5AF4902468B780020012B92
:1068B0001CD100238B70022A03D0032A16D10D208D
:1068C00012E00A7814235A435118091D0A78042A41
:1068D00004D1A54A49889288914201D8FFF7CCFF9C
:1068E00000F057F9002801D0FFF7C6FF10BD70B5C2
:1068F00000249D4D9B48AC800470447084702646F3
:106900003046FFF73DFF761C1E2EF9D30F206C801A
:106910004003A8609549AC80002002018C505218B9
:1069200014819481401C54810A28F6D301202870D8
:10693000002070BDF0B58C4D2A78002A20D00028A8
:1069400020D000291ED00268002A1BD00122120785
:1069500083881469A4B2A34210D8202B0ED3C48814
:10696000002C0BD05C43AB68E61814690A27A4B26C
:106970007C430F277F03E419A64205D90720F0BD09
:106980000820F0BD0E20F0BD6C880A2C19D0774D80
:106990000C6026014B6071194B600768AF51858808
:1069A0000D81C5884D818588C08800264543761CA9
:1069B0001069B6B280B2A84205D2106980B22D1A11
:1069C00002E00420F0BD0025106980B2C3181069F0
:1069D00080B2A842EBD96448641C83608E814480F5
:1069E0000020F0BD70B5604B1B78002B18D000283C
:1069F00018D0002A16D003680A2B0FD25B4C1E0158
:106A0000A559002D0AD045683019048961436918D9
:106A10004589406865432818884205D8072070BD1D
:106A2000082070BD0E2070BD13600020516070BD45
:106A3000F8B505464C481F46007814460E46002817
:106A40001DD0002E1DD0002D1BD028680A2814D27E
:106A5000010146484258002A0FD009184A8908897E
:106A60004968424351186A68914206D9002C04D003
:106A7000A04202D3E119814205D90720F8BD0820C0
:106A8000F8BD0E20F8BD304600F07DF800280CD08F
:106A9000F01900F078F8002807D02346324629463E
:106AA00002200097FFF7B1FEF8BD1020F8BDF8B541
:106AB00007462D481D46007816460C4600281DD076
:106AC000002C1DD0002F1BD020680A2814D2274983
:106AD00000010A58002A0FD041184A8908894968DC
:106AE000424351186268914206D9002E04D0B04248
:106AF00002D37119814205D90720F8BD0820F8BDDD
:106B00000E20F8BD384600F03EF800280CD0781969
:106B100000F039F8002807D060683246411938463D
:106B200000F0B4FD0020F8BD1020F8BD08B50E49F6
:106B30000978002914D000281AD001680A290DD23A
:106B40000A4A09015358002B08D089184A890B8931
:106B50005A434B68D21843689A420BD8072008BDA5
:106B6000082008BD142C0020F8200020702E0020E2
:106B70000E20F6E78B8900210A4600910146042089
:106B8000FFF743FEEDE7800701D0002070470120AA
:106B9000704770B5104D14212878104C41434919A5
:106BA000C988A288914209D8FFF7EAFD0020A08099
:106BB0006878401E68702878401C28706878002427
:106BC000002807D0FFF7E9FD040003D0112C01D005
:106BD000FFF752FE204670BD142C0020F820002044
:106BE00070B50546002403E00820FDF7DDFA641CBB
:106BF000AC42F9D370BDFE490870704710B5044629
:106C000000F0ABFBFA48047010BD70B50546FF20DC
:106C10000022FF2432340FE0AB5C58400823060604
:106C200002D54000604000E040005B1E1B06C0B281
:106C30001B0EF4D1521CD2B28A42EDD370BD7CB58A
:106C40000D4604460021684600F0F1FB002818D1EB
:106C5000002200A81146013000F0E9FB002810D105
:106C60000022294601A800F0E2FB002809D168466D
:106C700002210579FFF7C9FFA84201D0022000E0F8
:106C800000206946098849BA21807CBDF8B50546CF
:106C900000F0EBFA06466F20C00100F0D8FA044677
:106CA000344311D100F0C8FA04000DD16422002150
:106CB0006846FFF7C4FF040006D100A800220121A6
:106CC0000230FFF7BCFF044600F069FB002C03D143
:106CD00000981021C84128602046F8BD70B50546CF
:106CE00000F0C3FA04000ED1C24800F0B0FA04006C
:106CF00009D100F0A1FA040005D1002201212846A3
:106D0000FFF79DFF044600F04AFB204670BD10B51A
:106D100000F0ABFA040003D1B74800F098FA04463B
:106D200000F03DFB204610BDFFB583B01D46174661
:106D3000064600F09AFA040038D1002F0AD0012F3D
:106D400005D0022F01D0802420E0AC4804E0AB48FD
:106D50000B3801E00920800200F079FA040008D025
:106D600024E000F069FA04000AD03846FFF738FF43
:106D700001E07D27FF0028466D1EEDB20028F0D10E
:106D8000002D02D0002C04D010E0042400F007FBFA
:106D90001BE0002211466846FFF751FF054600221E
:106DA000012101A8FFF74BFF04462C4300F0F7FA3E
:106DB000002C0AD16846008800F06BFA3060684603
:106DC000808800F05CFA04990860204607B0F0BDA6
:106DD000FFB583B015460E46074600F046FA04009C
:106DE00025D1002D0CD0012D07D0022D03D08024F9
:106DF00000F0D5FA29E0824804E08148C01E01E095
:106E00007F480A3800F023FA040010D100F014FA89
:106E100004000CD100216846069AFFF710FF040019
:106E200005D10022012101A8FFF709FF044600F067
:106E3000B6FA002C09D16846008800F02AFA3860BA
:106E40006846808800F01BFA30602046BEE730B408
:106E5000029C002B04D0012B05D030BC8020704751
:106E6000234630BCB4E7234630BC5DE770B50C4622
:106E7000064600F0FAF9050048D1002E2FD0012E69
:106E800017D0022E41D1230000F039FE0504060C74
:106E90000E113F005B4801E05A48FE3000F0D7F980
:106EA000054633E05848F9E75448ED38F6E75748C7
:106EB000F4E7230000F023FE0504070A0D10290063
:106EC00050480B38EAE74F48F730E7E74E480B38B1
:106ED000E4E74A48F438E1E74C480938DEE72300A4
:106EE00000F00DFE0504070A0D1013004548C01CF4
:106EF000D4E74548FB38D1E743480B30CEE73F485D
:106F0000E238CBE741480D30C8E7802500F047FA6A
:106F1000284670BD7CB50D46064600F0A6F9040073
:106F200021D10720400300F092F904001BD100F0AA
:106F300083F9040017D1002211466846FFF77FFE4F
:106F4000040010D10022012101A8FFF778FE0400FF
:106F500009D16846008800F09CF930606846808856
:106F600000F08DF9286000F01AFA20467CBD10B5BB
:106F700000F07BF9040004D11F482C3000F067F9C1
:106F8000044600F00CFA204610BD10B500F06DF973
:106F9000040004D11848253000F059F9044600F0E7
:106FA000FEF9204610BDF8B50D461949884208D2B1
:106FB0001849884205DC184A954202D8174A95427A
:106FC00001DD8020F8BD00F073FC154E314600F065
:106FD000E9FD00F01DFD04462846124900F09CFD25
:106FE000114900F065FC314600F0DCFD1EE00000B8
:106FF000042100202DF30000413000001624000081
:10700000102C00002F2000002B2200002A27000057
:10701000000080800000C842000034C2000002432B
:1070200000FF7F470000344200002F4300F0F0FCD7
:107030007F21490200040C40C00D0443210A684628
:10704000017044700221FFF7E0FD044668460078B5
:1070500000F0BBF90028B5D16846407800F0B5F9DA
:107060000028AFD1204600F0B0F9F8BDFFB581B0DF
:107070001D4616460D9F00F0F8F8040009D18B4814
:1070800000F0E5F8040004D102990198FFF78BFFA6
:10709000044600F084F9002C36D100F0E6F8040034
:1070A0000AD18248C01F00F0D2F8040004D129465A
:1070B0003046FFF778FF044600F071F9002C23D129
:1070C00000F0D3F804000AD17848123800F0BFF875
:1070D000040004D10B990A98FFF765FF044600F0FD
:1070E0005EF9002C10D100F0C0F804000AD1612034
:1070F000000200F0ACF8040004D139460C98FFF708
:1071000052FF044600F04BF9204605B0F0BDF8B53B
:107110000D460646002201216846FFF790FD040057
:107120000DD168460088400A400200F0A8F830609F
:1071300068460088C005000C00F0ABF828602046C7
:10714000F8BDFFB581B01D4616460D9F00F08DF8C5
:1071500004000DD1564800F07AF8040008D100F080
:107160006BF8040004D102990198FFF7D0FF0446A0
:1071700000F015F9002C42D100F077F804000ED190
:107180004B480B3800F063F8040008D100F054F8C5
:10719000040004D129463046FFF7B9FF044600F049
:1071A000FEF8002C2BD100F060F804000ED140480E
:1071B000163800F04CF8040008D100F03DF8040047
:1071C00004D10B990A98FFF7A2FF044600F0E7F8F4
:1071D000002C14D100F049F804000ED134481D38B9
:1071E00000F035F8040008D100F026F8040004D1BE
:1071F00039460C98FFF78BFF044600F0D0F8204684
:1072000083E70120704710B500F02FF804462948A5
:1072100000F01DF8044300F0C2F8002C02D126480B
:10722000FFF7DEFC204610BD10B52448FFF7D8FC60
:107230002148FFF7D5FC10BD10B500F09AF82048A2
:1072400000784000401CC0B200F0BFF810BD70B51F
:1072500004460004000E00F0B8F80546E0B200F065
:10726000B4F801462943084670BD10B500F081F816
:10727000134800784006000E00F0A7F810BD10B5C6
:1072800000F00AFC0F4900F08DFC0F4900F010FBE4
:1072900010BD10B500F000FC0C4900F083FC0A4959
:1072A00000F006FB0A4900F0D5FC10BD1D6100008E
:1072B0001FE10000A230000050C30000A0860100C2
:1072C000042100200000C84200FF7F4700002F4338
:1072D0000000344210B5132000F001F90120864966
:1072E000C004C8600120FCF76FFF10BD10B513206B
:1072F00000F0F5F8132000F0F9F80120FCF764FF26
:1073000010BD10B57D490C2008600120FCF75CFF22
:10731000794800690003C00F10BD10B50120FCF7CB
:1073200053FF75480069C002C00F10BD10B514208E
:1073300000F0D5F8012070490005C8600120FCF775
:1073400043FF10BD10B5142000F0C9F8142000F060
:10735000CDF80120FCF738FF10BD10B5142000F067
:10736000C5F8132000F0C2F8FFF7C0FFFFF7EAFFEF
:1073700010BD10B5FFF7E6FF0120FFF731FCFFF766
:10738000B5FF0120FFF72CFCFFF7D0FF0A20FFF725
:1073900027FCFFF79FFF0A20FFF722FC10BD10B566
:1073A000FFF798FF0120FFF71BFCFFF7BFFF01204D
:1073B000FFF716FCFFF79AFF0A20FFF711FCFFF713
:1073C000C1FF0A20FFF70CFC10BD70B50025064672
:1073D00080242046304227D0FFF7B4FF0120FFF77A
:1073E000FFFBFFF783FF0520FFF7FAFBFFF772FFB4
:1073F0000120FFF7F5FB6408EBD1FFF7A3FF3F493E
:107400000C20091D0860FFF771FF0220FFF7E8FB61
:10741000FFF783FF002800D00125FFF75BFF142052
:10742000FFF7DEFB284670BDFFF780FFD6E7F7B514
:10743000074600203870FFF785FF30490C20091DF2
:1074400008608025FFF752FF0120FFF7C9FB0026E7
:10745000029C08E02046641EE4B200282ED07D2065
:10746000C000FFF7BDFBFFF74CFF0028F2D0032060
:10747000FFF7B6FBFFF751FF002802D0387828430A
:107480003870FFF727FF0120FFF7AAFB6D08D9D15D
:107490000198002814D0FFF755FF0120FFF7A0FB4B
:1074A000FFF724FF0520FFF79BFBFFF713FFFFF714
:1074B00049FF1420FFF794FB3046FEBD0426D6E7B3
:1074C000FFF734FFE9E710B5FFF753FF0020FFF7A0
:1074D0007CFF002802D10620FFF777FF10BD074A86
:1074E000012180004C3A80180160704701218140E1
:1074F0000148816070470000000500504C070050B3
:1075000010B54020FFF77AFB10BD7047704738B5C3
:107510000C460546FFF72DFF8020FFF756FF284653
:10752000FFF753FFFF20F530FFF75AFBFFF721FF6E
:107530008120FFF74AFFFA2200216846FFF777FF14
:1075400000A8FA2201210130FFF771FFFFF727FFA2
:107550006846007801026846407808180321C9434C
:1075600008402080002038BD38B50D46FFF701FFE8
:107570008020FFF72AFFFA20FFF727FF0F20FFF7F1
:1075800024FF6420FFF72CFBFFF7F3FE8120FFF7B9
:107590001CFFFA2200216846FFF749FF6C46FA22D9
:1075A0000021601CFFF743FFFA220021A01CFFF717
:1075B0003EFFFA220121E01CFFF739FFFFF7EFFE43
:1075C00068460178C0780006091868468078020489
:1075D000684640780002101808188008800028606B
:1075E000002038BD38B504466946F320FFF78FFF09
:1075F0006846008823494843000CFF38D63820806D
:10760000002038BD38B514466946E520FFF77FFFF6
:1076100000280DD1684600881B494843C00B7D21D6
:107620003C38C900884201D9218000E02080002038
:1076300038BD08B569460020FFF796FF009808BDE1
:1076400008B56946E320FFF762FF684600880D49E8
:107650004843000CFF38D63880B208BD1CB501A9DC
:10766000E320FFF754FF6A4691880020FFF7CAFF26
:10767000684600881CBD08B56946FE20FFF747FF35
:1076800008BD0000DD06000071020000F8B5042A04
:107690002CD3830712D00B78491C0370401C521E58
:1076A00083070BD00B78491C0370401C521E8307C4
:1076B00004D00B78491C0370401C521E8B079B0F93
:1076C00005D0C91ADF002023DE1B08C90AE0FCF739
:1076D0008BFDF8BD1D4608C9FD401C46B4402C4337
:1076E00010C0121F042AF5D2F308C91A521EF0D492
:1076F0000B78491C0370401C521EEAD40B78491CBD
:107700000370401C521EE4D409780170F8BD01E0FA
:1077100004C0091F0429FBD28B0701D50280801CFD
:10772000C90700D00270704700290BD0C30702D0F0
:107730000270401C491E022904D3830702D502802F
:10774000801C891EE3E70022EEE70022DFE700222B
:1077500003098B422CD3030A8B4211D300239C468E
:107760004EE003460B433CD4002243088B4231D306
:1077700003098B421CD3030A8B4201D394463FE09A
:10778000C3098B4201D3CB01C01A524183098B42FA
:1077900001D38B01C01A524143098B4201D34B01E3
:1077A000C01A524103098B4201D30B01C01A524146
:1077B000C3088B4201D3CB00C01A524183088B42CD
:1077C00001D38B00C01A524143088B4201D34B00B6
:1077D000C01A5241411A00D2014652411046704728
:1077E0005DE0CA0F00D04942031000D3404253402D
:1077F00000229C4603098B422DD3030A8B4212D3ED
:10780000FC22890112BA030A8B420CD3890192111E
:107810008B4208D3890192118B4204D389013AD05B
:10782000921100E08909C3098B4201D3CB01C01A30
:10783000524183098B4201D38B01C01A5241430943
:107840008B4201D34B01C01A524103098B4201D331
:107850000B01C01A5241C3088B4201D3CB00C01A9E
:10786000524183088B4201D38B00C01A5241D9D2B6
:1078700043088B4201D34B00C01A5241411A00D237
:107880000146634652415B10104601D34042002B33
:1078900000D54942704763465B1000D3404201B5B2
:1078A0000020C046C04602BD7047704770470000C8
:1078B00070B5FF242404C609FF25264001352E4358
:1078C000C209CB090546224023404D40002A6BD017
:1078D000002B69D0A24267D0A34265D0002D00DA08
:1078E00032460124E4052143204309020002090A2B
:1078F000D21A000A4B0C7F24E31A434C7C44E35C0D
:107900007D242404121914145B00A218884201D3A8
:10791000521C00E0400049420C465C4324115C4389
:10792000DB016415E318040A5C43C502200D0C4614
:1079300044436419250A5D432303EC0C0D4665435B
:1079400000030019EB184C42A34201D35B18401C02
:10795000D4052018002B07D05B00C91804D3401CA5
:10796000002901D1400840003F2189048A4209D3FF
:10797000002A08DC1106090F04D00321490740182A
:10798000C00FC00770BD01224100120689187F2276
:1079900052069142F6D205214907401801D59010B0
:1079A00070BDFF20C00570BD002D00DA3246174EB5
:1079B000A24207D2A34205D21802000E17D0E80F48
:1079C000C00770BDFF2443002406A34216D8490017
:1079D000A14213D8A34201D1A1420FD0A14201D1AB
:1079E000002101E041004908D005084370BD1002A4
:1079F000000E03D0FF200243D00570BD304670BD9D
:107A000048404140484053E7380400000000C07F30
:107A100001460002CA1504D00123DB071843002ADF
:107A200009DB9E239A1A01D4D0407047FF224800F8
:107A30001206904201D900207047C817C043704712
:107A40001F22030C02D10F2200041CD0030E01D10F
:107A5000083A0002030F01D1121F0001830F01D168
:107A6000921E8000002801DB521E4000D2055118F2
:107A7000021251181922904004D3491C002801D148
:107A80004908490008467047C10FC90700D0404265
:107A9000012292071143D3E701218907D0E77546F8
:107AA00000F022F8AE46050069465346C008C00003
:107AB000854618B020B5FCF7C3FB60BC0027490819
:107AC000B6460026C0C5C0C5C0C5C0C5C0C5C0C576
:107AD000C0C5C0C5403D49008D4670470446C046FC
:107AE000C0462046FCF739FB00487047102F0020A5
:107AF00001491820ABBEFEE726000200704730B4F3
:107B00007446641E2578641CAB4200D21D46635D3A
:107B10005B00E31830BC184770B501250400ED0781
:107B20004C4020D4441A01D2001B0919C60D4B0049
:107B3000F2B2FF2A29D01B0E2CD000020C02D31A5D
:107B40002C43DC402843051910D2280A02D3401CDC
:107B50006D0611D0761EF6058019FF2A00DA70BD79
:107B6000C00DC00570BD694000F07AF801200543E2
:107B7000C541521C761CE8E764089C40C90161407D
:107B80008900E7D10124A043E4E71B0E440200D0A2
:107B9000034870BD002AFCD1C00FC00770BD00BFF4
:107BA0000000C07F70B5420064414B005C41120E82
:107BB00039D01B0E38D0FF2A3CD0FF2B3AD04002E0
:107BC0004902400A490A060045184E43000A090ABC
:107BD000D2184843ED017F3A0104731A4019190C79
:107BE0004318990F04D001215B0849075B1A521C06
:107BF000D80904D3401CF50301D19D0607D0FF2A04
:107C000008D2D50506D0E4072043401970BD0125F0
:107C1000A843F4E7002A01DCE00770BD2402FF203E
:107C20002043C00570BD1B0EFF2A03D0FF2B01D0DF
:107C3000E00770BDFF2645003606B54206D84D0068
:107C4000B54203D8D218FF2A00D0E7E7004870BD3C
:107C50000000C07F70B501250400ED074C4022D420
:107C6000441A02D26C40001B0919C60D4B00F2B237
:107C7000FF2A4BD01B0E50D000020C02D31A2C430B
:107C8000DC40A843051B05D5AD0019D36D08761E51
:107C9000521E37D0F605280A01D2801970BD7041F6
:107CA0006D0603D070BD6940FFF73CFF9C400902A0
:107CB0006140490001D0401E70BD0124A04370BD49
:107CC0006D081DD001202B0C01D12D0410302B0E7E
:107CD00001D12D0208302B0F01D12D01001DAB0F5A
:107CE00001D1AD00801CEB0F01D16D00401C6D0077
:107CF000361A121A680AF5054019012A02DB70BD0E
:107D0000002070BDC036300AC00770BD1B0E440293
:107D100001D1FF2B00D1024870BD002AF0D070BD08
:107D20000000C07F010000009ECADC240EE5A9E02F
:107D300093F3A3B50000406E818283848586878893
:107D4000898B8C8D8E8F919293959697999A9C9D05
:107D50009FA0A2A3A5A7A8AAACAEB0B2B3B5B7B96D
:107D6000BCBEC0C2C5C7C9CCCED1D4D7D9DCDFE236
:107D7000E6E9ECF0F3F7FAFE987D01000020002020
:107D80000801000004410100A07E0100082100203C
:107D9000681E0000204101000024F40000000100E2
:107DA000FFFF0000B4000000000000000000000021
:107DB00000000000000000000000000000000000C3
:107DC0000000A602560300000000000000000000B2
:107DD0000000000000000000000000000C00000097
:107DE0000000000000000000000000000000000093
:107DF0000000000000000000803A0900960000002A
:107E0000000000000000000001000000020000006F
:107E10000000000000000000000000000000000062
:107E20000000000000000000000000000000000052
:107E30000000000000000000000000000000000042
:107E40000000000000000000000000000000000032
:107E50000000000000000000000000000000000022
:107E60000000000000000000000000000000000012
:107E70000000000000000000000000000000000002
:107E800000000000000000000000000000000000F2
:107E900000000000000000000000000000000000E2
:04000005000140C1F5
:00000001FF
